{
	"contracts/SafeT.sol": {
		"SafeT": {
			"abi": [
				{
					"inputs": [
						{
							"internalType": "address",
							"name": "initialOwner",
							"type": "address"
						}
					],
					"stateMutability": "nonpayable",
					"type": "constructor"
				},
				{
					"inputs": [
						{
							"internalType": "address",
							"name": "sender",
							"type": "address"
						},
						{
							"internalType": "uint256",
							"name": "tokenId",
							"type": "uint256"
						},
						{
							"internalType": "address",
							"name": "owner",
							"type": "address"
						}
					],
					"name": "ERC721IncorrectOwner",
					"type": "error"
				},
				{
					"inputs": [
						{
							"internalType": "address",
							"name": "operator",
							"type": "address"
						},
						{
							"internalType": "uint256",
							"name": "tokenId",
							"type": "uint256"
						}
					],
					"name": "ERC721InsufficientApproval",
					"type": "error"
				},
				{
					"inputs": [
						{
							"internalType": "address",
							"name": "approver",
							"type": "address"
						}
					],
					"name": "ERC721InvalidApprover",
					"type": "error"
				},
				{
					"inputs": [
						{
							"internalType": "address",
							"name": "operator",
							"type": "address"
						}
					],
					"name": "ERC721InvalidOperator",
					"type": "error"
				},
				{
					"inputs": [
						{
							"internalType": "address",
							"name": "owner",
							"type": "address"
						}
					],
					"name": "ERC721InvalidOwner",
					"type": "error"
				},
				{
					"inputs": [
						{
							"internalType": "address",
							"name": "receiver",
							"type": "address"
						}
					],
					"name": "ERC721InvalidReceiver",
					"type": "error"
				},
				{
					"inputs": [
						{
							"internalType": "address",
							"name": "sender",
							"type": "address"
						}
					],
					"name": "ERC721InvalidSender",
					"type": "error"
				},
				{
					"inputs": [
						{
							"internalType": "uint256",
							"name": "tokenId",
							"type": "uint256"
						}
					],
					"name": "ERC721NonexistentToken",
					"type": "error"
				},
				{
					"inputs": [
						{
							"internalType": "address",
							"name": "owner",
							"type": "address"
						}
					],
					"name": "OwnableInvalidOwner",
					"type": "error"
				},
				{
					"inputs": [
						{
							"internalType": "address",
							"name": "account",
							"type": "address"
						}
					],
					"name": "OwnableUnauthorizedAccount",
					"type": "error"
				},
				{
					"anonymous": false,
					"inputs": [
						{
							"indexed": true,
							"internalType": "address",
							"name": "owner",
							"type": "address"
						},
						{
							"indexed": true,
							"internalType": "address",
							"name": "approved",
							"type": "address"
						},
						{
							"indexed": true,
							"internalType": "uint256",
							"name": "tokenId",
							"type": "uint256"
						}
					],
					"name": "Approval",
					"type": "event"
				},
				{
					"anonymous": false,
					"inputs": [
						{
							"indexed": true,
							"internalType": "address",
							"name": "owner",
							"type": "address"
						},
						{
							"indexed": true,
							"internalType": "address",
							"name": "operator",
							"type": "address"
						},
						{
							"indexed": false,
							"internalType": "bool",
							"name": "approved",
							"type": "bool"
						}
					],
					"name": "ApprovalForAll",
					"type": "event"
				},
				{
					"anonymous": false,
					"inputs": [
						{
							"indexed": true,
							"internalType": "address",
							"name": "previousOwner",
							"type": "address"
						},
						{
							"indexed": true,
							"internalType": "address",
							"name": "newOwner",
							"type": "address"
						}
					],
					"name": "OwnershipTransferred",
					"type": "event"
				},
				{
					"anonymous": false,
					"inputs": [
						{
							"indexed": true,
							"internalType": "address",
							"name": "from",
							"type": "address"
						},
						{
							"indexed": true,
							"internalType": "address",
							"name": "to",
							"type": "address"
						},
						{
							"indexed": true,
							"internalType": "uint256",
							"name": "tokenId",
							"type": "uint256"
						}
					],
					"name": "Transfer",
					"type": "event"
				},
				{
					"inputs": [
						{
							"internalType": "address",
							"name": "to",
							"type": "address"
						},
						{
							"internalType": "uint256",
							"name": "tokenId",
							"type": "uint256"
						}
					],
					"name": "approve",
					"outputs": [],
					"stateMutability": "nonpayable",
					"type": "function"
				},
				{
					"inputs": [
						{
							"internalType": "address",
							"name": "owner",
							"type": "address"
						}
					],
					"name": "balanceOf",
					"outputs": [
						{
							"internalType": "uint256",
							"name": "",
							"type": "uint256"
						}
					],
					"stateMutability": "view",
					"type": "function"
				},
				{
					"inputs": [
						{
							"internalType": "uint256",
							"name": "tokenId",
							"type": "uint256"
						}
					],
					"name": "endLease",
					"outputs": [],
					"stateMutability": "nonpayable",
					"type": "function"
				},
				{
					"inputs": [
						{
							"internalType": "uint256",
							"name": "tokenId",
							"type": "uint256"
						}
					],
					"name": "getApproved",
					"outputs": [
						{
							"internalType": "address",
							"name": "",
							"type": "address"
						}
					],
					"stateMutability": "view",
					"type": "function"
				},
				{
					"inputs": [
						{
							"internalType": "uint256",
							"name": "tokenId",
							"type": "uint256"
						}
					],
					"name": "getRentalDetails",
					"outputs": [
						{
							"components": [
								{
									"internalType": "uint256",
									"name": "rentAmount",
									"type": "uint256"
								},
								{
									"internalType": "uint256",
									"name": "securityDeposit",
									"type": "uint256"
								},
								{
									"internalType": "uint256",
									"name": "leaseStart",
									"type": "uint256"
								},
								{
									"internalType": "uint256",
									"name": "leaseEnd",
									"type": "uint256"
								},
								{
									"internalType": "bool",
									"name": "isLeased",
									"type": "bool"
								}
							],
							"internalType": "struct SafeT.RentalDetails",
							"name": "",
							"type": "tuple"
						}
					],
					"stateMutability": "view",
					"type": "function"
				},
				{
					"inputs": [
						{
							"internalType": "address",
							"name": "owner",
							"type": "address"
						},
						{
							"internalType": "address",
							"name": "operator",
							"type": "address"
						}
					],
					"name": "isApprovedForAll",
					"outputs": [
						{
							"internalType": "bool",
							"name": "",
							"type": "bool"
						}
					],
					"stateMutability": "view",
					"type": "function"
				},
				{
					"inputs": [],
					"name": "name",
					"outputs": [
						{
							"internalType": "string",
							"name": "",
							"type": "string"
						}
					],
					"stateMutability": "view",
					"type": "function"
				},
				{
					"inputs": [],
					"name": "owner",
					"outputs": [
						{
							"internalType": "address",
							"name": "",
							"type": "address"
						}
					],
					"stateMutability": "view",
					"type": "function"
				},
				{
					"inputs": [
						{
							"internalType": "uint256",
							"name": "tokenId",
							"type": "uint256"
						}
					],
					"name": "ownerOf",
					"outputs": [
						{
							"internalType": "address",
							"name": "",
							"type": "address"
						}
					],
					"stateMutability": "view",
					"type": "function"
				},
				{
					"inputs": [],
					"name": "renounceOwnership",
					"outputs": [],
					"stateMutability": "nonpayable",
					"type": "function"
				},
				{
					"inputs": [
						{
							"internalType": "uint256",
							"name": "",
							"type": "uint256"
						}
					],
					"name": "rentalDetails",
					"outputs": [
						{
							"internalType": "uint256",
							"name": "rentAmount",
							"type": "uint256"
						},
						{
							"internalType": "uint256",
							"name": "securityDeposit",
							"type": "uint256"
						},
						{
							"internalType": "uint256",
							"name": "leaseStart",
							"type": "uint256"
						},
						{
							"internalType": "uint256",
							"name": "leaseEnd",
							"type": "uint256"
						},
						{
							"internalType": "bool",
							"name": "isLeased",
							"type": "bool"
						}
					],
					"stateMutability": "view",
					"type": "function"
				},
				{
					"inputs": [
						{
							"internalType": "address",
							"name": "to",
							"type": "address"
						},
						{
							"internalType": "uint256",
							"name": "tokenId",
							"type": "uint256"
						},
						{
							"internalType": "uint256",
							"name": "rentAmount",
							"type": "uint256"
						},
						{
							"internalType": "uint256",
							"name": "securityDeposit",
							"type": "uint256"
						},
						{
							"internalType": "uint256",
							"name": "leaseStart",
							"type": "uint256"
						},
						{
							"internalType": "uint256",
							"name": "leaseEnd",
							"type": "uint256"
						}
					],
					"name": "safeMint",
					"outputs": [],
					"stateMutability": "nonpayable",
					"type": "function"
				},
				{
					"inputs": [
						{
							"internalType": "address",
							"name": "from",
							"type": "address"
						},
						{
							"internalType": "address",
							"name": "to",
							"type": "address"
						},
						{
							"internalType": "uint256",
							"name": "tokenId",
							"type": "uint256"
						}
					],
					"name": "safeTransferFrom",
					"outputs": [],
					"stateMutability": "nonpayable",
					"type": "function"
				},
				{
					"inputs": [
						{
							"internalType": "address",
							"name": "from",
							"type": "address"
						},
						{
							"internalType": "address",
							"name": "to",
							"type": "address"
						},
						{
							"internalType": "uint256",
							"name": "tokenId",
							"type": "uint256"
						},
						{
							"internalType": "bytes",
							"name": "data",
							"type": "bytes"
						}
					],
					"name": "safeTransferFrom",
					"outputs": [],
					"stateMutability": "nonpayable",
					"type": "function"
				},
				{
					"inputs": [
						{
							"internalType": "address",
							"name": "operator",
							"type": "address"
						},
						{
							"internalType": "bool",
							"name": "approved",
							"type": "bool"
						}
					],
					"name": "setApprovalForAll",
					"outputs": [],
					"stateMutability": "nonpayable",
					"type": "function"
				},
				{
					"inputs": [
						{
							"internalType": "uint256",
							"name": "tokenId",
							"type": "uint256"
						},
						{
							"internalType": "uint256",
							"name": "rentAmount",
							"type": "uint256"
						},
						{
							"internalType": "uint256",
							"name": "securityDeposit",
							"type": "uint256"
						},
						{
							"internalType": "uint256",
							"name": "leaseStart",
							"type": "uint256"
						},
						{
							"internalType": "uint256",
							"name": "leaseEnd",
							"type": "uint256"
						}
					],
					"name": "setRentalDetails",
					"outputs": [],
					"stateMutability": "nonpayable",
					"type": "function"
				},
				{
					"inputs": [
						{
							"internalType": "bytes4",
							"name": "interfaceId",
							"type": "bytes4"
						}
					],
					"name": "supportsInterface",
					"outputs": [
						{
							"internalType": "bool",
							"name": "",
							"type": "bool"
						}
					],
					"stateMutability": "view",
					"type": "function"
				},
				{
					"inputs": [],
					"name": "symbol",
					"outputs": [
						{
							"internalType": "string",
							"name": "",
							"type": "string"
						}
					],
					"stateMutability": "view",
					"type": "function"
				},
				{
					"inputs": [
						{
							"internalType": "uint256",
							"name": "tokenId",
							"type": "uint256"
						}
					],
					"name": "tokenURI",
					"outputs": [
						{
							"internalType": "string",
							"name": "",
							"type": "string"
						}
					],
					"stateMutability": "view",
					"type": "function"
				},
				{
					"inputs": [
						{
							"internalType": "address",
							"name": "from",
							"type": "address"
						},
						{
							"internalType": "address",
							"name": "to",
							"type": "address"
						},
						{
							"internalType": "uint256",
							"name": "tokenId",
							"type": "uint256"
						}
					],
					"name": "transferFrom",
					"outputs": [],
					"stateMutability": "nonpayable",
					"type": "function"
				},
				{
					"inputs": [
						{
							"internalType": "address",
							"name": "newOwner",
							"type": "address"
						}
					],
					"name": "transferOwnership",
					"outputs": [],
					"stateMutability": "nonpayable",
					"type": "function"
				}
			],
			"devdoc": {
				"errors": {
					"ERC721IncorrectOwner(address,uint256,address)": [
						{
							"details": "Indicates an error related to the ownership over a particular token. Used in transfers.",
							"params": {
								"owner": "Address of the current owner of a token.",
								"sender": "Address whose tokens are being transferred.",
								"tokenId": "Identifier number of a token."
							}
						}
					],
					"ERC721InsufficientApproval(address,uint256)": [
						{
							"details": "Indicates a failure with the `operator`’s approval. Used in transfers.",
							"params": {
								"operator": "Address that may be allowed to operate on tokens without being their owner.",
								"tokenId": "Identifier number of a token."
							}
						}
					],
					"ERC721InvalidApprover(address)": [
						{
							"details": "Indicates a failure with the `approver` of a token to be approved. Used in approvals.",
							"params": {
								"approver": "Address initiating an approval operation."
							}
						}
					],
					"ERC721InvalidOperator(address)": [
						{
							"details": "Indicates a failure with the `operator` to be approved. Used in approvals.",
							"params": {
								"operator": "Address that may be allowed to operate on tokens without being their owner."
							}
						}
					],
					"ERC721InvalidOwner(address)": [
						{
							"details": "Indicates that an address can't be an owner. For example, `address(0)` is a forbidden owner in EIP-20. Used in balance queries.",
							"params": {
								"owner": "Address of the current owner of a token."
							}
						}
					],
					"ERC721InvalidReceiver(address)": [
						{
							"details": "Indicates a failure with the token `receiver`. Used in transfers.",
							"params": {
								"receiver": "Address to which tokens are being transferred."
							}
						}
					],
					"ERC721InvalidSender(address)": [
						{
							"details": "Indicates a failure with the token `sender`. Used in transfers.",
							"params": {
								"sender": "Address whose tokens are being transferred."
							}
						}
					],
					"ERC721NonexistentToken(uint256)": [
						{
							"details": "Indicates a `tokenId` whose `owner` is the zero address.",
							"params": {
								"tokenId": "Identifier number of a token."
							}
						}
					],
					"OwnableInvalidOwner(address)": [
						{
							"details": "The owner is not a valid owner account. (eg. `address(0)`)"
						}
					],
					"OwnableUnauthorizedAccount(address)": [
						{
							"details": "The caller account is not authorized to perform an operation."
						}
					]
				},
				"events": {
					"Approval(address,address,uint256)": {
						"details": "Emitted when `owner` enables `approved` to manage the `tokenId` token."
					},
					"ApprovalForAll(address,address,bool)": {
						"details": "Emitted when `owner` enables or disables (`approved`) `operator` to manage all of its assets."
					},
					"Transfer(address,address,uint256)": {
						"details": "Emitted when `tokenId` token is transferred from `from` to `to`."
					}
				},
				"kind": "dev",
				"methods": {
					"approve(address,uint256)": {
						"details": "See {IERC721-approve}."
					},
					"balanceOf(address)": {
						"details": "See {IERC721-balanceOf}."
					},
					"getApproved(uint256)": {
						"details": "See {IERC721-getApproved}."
					},
					"isApprovedForAll(address,address)": {
						"details": "See {IERC721-isApprovedForAll}."
					},
					"name()": {
						"details": "See {IERC721Metadata-name}."
					},
					"owner()": {
						"details": "Returns the address of the current owner."
					},
					"ownerOf(uint256)": {
						"details": "See {IERC721-ownerOf}."
					},
					"renounceOwnership()": {
						"details": "Leaves the contract without owner. It will not be possible to call `onlyOwner` functions. Can only be called by the current owner. NOTE: Renouncing ownership will leave the contract without an owner, thereby disabling any functionality that is only available to the owner."
					},
					"safeTransferFrom(address,address,uint256)": {
						"details": "See {IERC721-safeTransferFrom}."
					},
					"safeTransferFrom(address,address,uint256,bytes)": {
						"details": "See {IERC721-safeTransferFrom}."
					},
					"setApprovalForAll(address,bool)": {
						"details": "See {IERC721-setApprovalForAll}."
					},
					"supportsInterface(bytes4)": {
						"details": "See {IERC165-supportsInterface}."
					},
					"symbol()": {
						"details": "See {IERC721Metadata-symbol}."
					},
					"tokenURI(uint256)": {
						"details": "See {IERC721Metadata-tokenURI}."
					},
					"transferFrom(address,address,uint256)": {
						"details": "See {IERC721-transferFrom}."
					},
					"transferOwnership(address)": {
						"details": "Transfers ownership of the contract to a new account (`newOwner`). Can only be called by the current owner."
					}
				},
				"version": 1
			},
			"evm": {
				"assembly": "    /* \"contracts/SafeT.sol\":219:2569  contract SafeT is ERC721, Ownable {... */\n  mstore(0x40, 0x80)\n    /* \"contracts/SafeT.sol\":620:721  constructor(address initialOwner)... */\n  callvalue\n  dup1\n  iszero\n  tag_1\n  jumpi\n  0x00\n  dup1\n  revert\ntag_1:\n  pop\n  mload(0x40)\n  sub(codesize, bytecodeSize)\n  dup1\n  bytecodeSize\n  dup4\n  codecopy\n  dup2\n  dup2\n  add\n  0x40\n  mstore\n  dup2\n  add\n  swap1\n  tag_2\n  swap2\n  swap1\n  tag_3\n  jump\t// in\ntag_2:\n    /* \"contracts/SafeT.sol\":701:713  initialOwner */\n  dup1\n    /* \"@openzeppelin/contracts/token/ERC721/ERC721.sol\":1381:1494  constructor(string memory name_, string memory symbol_) {... */\n  mload(0x40)\n  dup1\n  0x40\n  add\n  0x40\n  mstore\n  dup1\n  0x05\n  dup2\n  mstore\n  0x20\n  add\n  0x5361666554000000000000000000000000000000000000000000000000000000\n  dup2\n  mstore\n  pop\n  mload(0x40)\n  dup1\n  0x40\n  add\n  0x40\n  mstore\n  dup1\n  0x03\n  dup2\n  mstore\n  0x20\n  add\n  0x5346540000000000000000000000000000000000000000000000000000000000\n  dup2\n  mstore\n  pop\n    /* \"@openzeppelin/contracts/token/ERC721/ERC721.sol\":1455:1460  name_ */\n  dup2\n    /* \"@openzeppelin/contracts/token/ERC721/ERC721.sol\":1447:1452  _name */\n  0x00\n    /* \"@openzeppelin/contracts/token/ERC721/ERC721.sol\":1447:1460  _name = name_ */\n  swap1\n  dup2\n  tag_8\n  swap2\n  swap1\n  tag_9\n  jump\t// in\ntag_8:\n  pop\n    /* \"@openzeppelin/contracts/token/ERC721/ERC721.sol\":1480:1487  symbol_ */\n  dup1\n    /* \"@openzeppelin/contracts/token/ERC721/ERC721.sol\":1470:1477  _symbol */\n  0x01\n    /* \"@openzeppelin/contracts/token/ERC721/ERC721.sol\":1470:1487  _symbol = symbol_ */\n  swap1\n  dup2\n  tag_10\n  swap2\n  swap1\n  tag_9\n  jump\t// in\ntag_10:\n  pop\n    /* \"@openzeppelin/contracts/token/ERC721/ERC721.sol\":1381:1494  constructor(string memory name_, string memory symbol_) {... */\n  pop\n  pop\n    /* \"@openzeppelin/contracts/access/Ownable.sol\":1297:1298  0 */\n  0x00\n    /* \"@openzeppelin/contracts/access/Ownable.sol\":1273:1299  initialOwner == address(0) */\n  0xffffffffffffffffffffffffffffffffffffffff\n  and\n    /* \"@openzeppelin/contracts/access/Ownable.sol\":1273:1285  initialOwner */\n  dup2\n    /* \"@openzeppelin/contracts/access/Ownable.sol\":1273:1299  initialOwner == address(0) */\n  0xffffffffffffffffffffffffffffffffffffffff\n  and\n  sub\n    /* \"@openzeppelin/contracts/access/Ownable.sol\":1269:1364  if (initialOwner == address(0)) {... */\n  tag_12\n  jumpi\n    /* \"@openzeppelin/contracts/access/Ownable.sol\":1350:1351  0 */\n  0x00\n    /* \"@openzeppelin/contracts/access/Ownable.sol\":1322:1353  OwnableInvalidOwner(address(0)) */\n  mload(0x40)\n  0x1e4fbdf700000000000000000000000000000000000000000000000000000000\n  dup2\n  mstore\n  0x04\n  add\n  tag_13\n  swap2\n  swap1\n  tag_14\n  jump\t// in\ntag_13:\n  mload(0x40)\n  dup1\n  swap2\n  sub\n  swap1\n  revert\n    /* \"@openzeppelin/contracts/access/Ownable.sol\":1269:1364  if (initialOwner == address(0)) {... */\ntag_12:\n    /* \"@openzeppelin/contracts/access/Ownable.sol\":1373:1405  _transferOwnership(initialOwner) */\n  tag_15\n    /* \"@openzeppelin/contracts/access/Ownable.sol\":1392:1404  initialOwner */\n  dup2\n    /* \"@openzeppelin/contracts/access/Ownable.sol\":1373:1391  _transferOwnership */\n  shl(0x20, tag_16)\n    /* \"@openzeppelin/contracts/access/Ownable.sol\":1373:1405  _transferOwnership(initialOwner) */\n  0x20\n  shr\n  jump\t// in\ntag_15:\n    /* \"@openzeppelin/contracts/access/Ownable.sol\":1225:1412  constructor(address initialOwner) {... */\n  pop\n    /* \"contracts/SafeT.sol\":620:721  constructor(address initialOwner)... */\n  pop\n    /* \"contracts/SafeT.sol\":219:2569  contract SafeT is ERC721, Ownable {... */\n  jump(tag_18)\n    /* \"@openzeppelin/contracts/access/Ownable.sol\":2912:3099  function _transferOwnership(address newOwner) internal virtual {... */\ntag_16:\n    /* \"@openzeppelin/contracts/access/Ownable.sol\":2985:3001  address oldOwner */\n  0x00\n    /* \"@openzeppelin/contracts/access/Ownable.sol\":3004:3010  _owner */\n  0x06\n  0x00\n  swap1\n  sload\n  swap1\n  0x0100\n  exp\n  swap1\n  div\n  0xffffffffffffffffffffffffffffffffffffffff\n  and\n    /* \"@openzeppelin/contracts/access/Ownable.sol\":2985:3010  address oldOwner = _owner */\n  swap1\n  pop\n    /* \"@openzeppelin/contracts/access/Ownable.sol\":3029:3037  newOwner */\n  dup2\n    /* \"@openzeppelin/contracts/access/Ownable.sol\":3020:3026  _owner */\n  0x06\n  0x00\n    /* \"@openzeppelin/contracts/access/Ownable.sol\":3020:3037  _owner = newOwner */\n  0x0100\n  exp\n  dup2\n  sload\n  dup2\n  0xffffffffffffffffffffffffffffffffffffffff\n  mul\n  not\n  and\n  swap1\n  dup4\n  0xffffffffffffffffffffffffffffffffffffffff\n  and\n  mul\n  or\n  swap1\n  sstore\n  pop\n    /* \"@openzeppelin/contracts/access/Ownable.sol\":3083:3091  newOwner */\n  dup2\n    /* \"@openzeppelin/contracts/access/Ownable.sol\":3052:3092  OwnershipTransferred(oldOwner, newOwner) */\n  0xffffffffffffffffffffffffffffffffffffffff\n  and\n    /* \"@openzeppelin/contracts/access/Ownable.sol\":3073:3081  oldOwner */\n  dup2\n    /* \"@openzeppelin/contracts/access/Ownable.sol\":3052:3092  OwnershipTransferred(oldOwner, newOwner) */\n  0xffffffffffffffffffffffffffffffffffffffff\n  and\n  0x8be0079c531659141344cd1fd0a4f28419497f9722a3daafe3b4186f6b6457e0\n  mload(0x40)\n  mload(0x40)\n  dup1\n  swap2\n  sub\n  swap1\n  log3\n    /* \"@openzeppelin/contracts/access/Ownable.sol\":2975:3099  {... */\n  pop\n    /* \"@openzeppelin/contracts/access/Ownable.sol\":2912:3099  function _transferOwnership(address newOwner) internal virtual {... */\n  pop\n  jump\t// out\n    /* \"#utility.yul\":88:205   */\ntag_21:\n    /* \"#utility.yul\":197:198   */\n  0x00\n    /* \"#utility.yul\":194:195   */\n  dup1\n    /* \"#utility.yul\":187:199   */\n  revert\n    /* \"#utility.yul\":334:460   */\ntag_23:\n    /* \"#utility.yul\":371:378   */\n  0x00\n    /* \"#utility.yul\":411:453   */\n  0xffffffffffffffffffffffffffffffffffffffff\n    /* \"#utility.yul\":404:409   */\n  dup3\n    /* \"#utility.yul\":400:454   */\n  and\n    /* \"#utility.yul\":389:454   */\n  swap1\n  pop\n    /* \"#utility.yul\":334:460   */\n  swap2\n  swap1\n  pop\n  jump\t// out\n    /* \"#utility.yul\":466:562   */\ntag_24:\n    /* \"#utility.yul\":503:510   */\n  0x00\n    /* \"#utility.yul\":532:556   */\n  tag_54\n    /* \"#utility.yul\":550:555   */\n  dup3\n    /* \"#utility.yul\":532:556   */\n  tag_23\n  jump\t// in\ntag_54:\n    /* \"#utility.yul\":521:556   */\n  swap1\n  pop\n    /* \"#utility.yul\":466:562   */\n  swap2\n  swap1\n  pop\n  jump\t// out\n    /* \"#utility.yul\":568:690   */\ntag_25:\n    /* \"#utility.yul\":641:665   */\n  tag_56\n    /* \"#utility.yul\":659:664   */\n  dup2\n    /* \"#utility.yul\":641:665   */\n  tag_24\n  jump\t// in\ntag_56:\n    /* \"#utility.yul\":634:639   */\n  dup2\n    /* \"#utility.yul\":631:666   */\n  eq\n    /* \"#utility.yul\":621:684   */\n  tag_57\n  jumpi\n    /* \"#utility.yul\":680:681   */\n  0x00\n    /* \"#utility.yul\":677:678   */\n  dup1\n    /* \"#utility.yul\":670:682   */\n  revert\n    /* \"#utility.yul\":621:684   */\ntag_57:\n    /* \"#utility.yul\":568:690   */\n  pop\n  jump\t// out\n    /* \"#utility.yul\":696:839   */\ntag_26:\n    /* \"#utility.yul\":753:758   */\n  0x00\n    /* \"#utility.yul\":784:790   */\n  dup2\n    /* \"#utility.yul\":778:791   */\n  mload\n    /* \"#utility.yul\":769:791   */\n  swap1\n  pop\n    /* \"#utility.yul\":800:833   */\n  tag_59\n    /* \"#utility.yul\":827:832   */\n  dup2\n    /* \"#utility.yul\":800:833   */\n  tag_25\n  jump\t// in\ntag_59:\n    /* \"#utility.yul\":696:839   */\n  swap3\n  swap2\n  pop\n  pop\n  jump\t// out\n    /* \"#utility.yul\":845:1196   */\ntag_3:\n    /* \"#utility.yul\":915:921   */\n  0x00\n    /* \"#utility.yul\":964:966   */\n  0x20\n    /* \"#utility.yul\":952:961   */\n  dup3\n    /* \"#utility.yul\":943:950   */\n  dup5\n    /* \"#utility.yul\":939:962   */\n  sub\n    /* \"#utility.yul\":935:967   */\n  slt\n    /* \"#utility.yul\":932:1051   */\n  iszero\n  tag_61\n  jumpi\n    /* \"#utility.yul\":970:1049   */\n  tag_62\n  tag_21\n  jump\t// in\ntag_62:\n    /* \"#utility.yul\":932:1051   */\ntag_61:\n    /* \"#utility.yul\":1090:1091   */\n  0x00\n    /* \"#utility.yul\":1115:1179   */\n  tag_63\n    /* \"#utility.yul\":1171:1178   */\n  dup5\n    /* \"#utility.yul\":1162:1168   */\n  dup3\n    /* \"#utility.yul\":1151:1160   */\n  dup6\n    /* \"#utility.yul\":1147:1169   */\n  add\n    /* \"#utility.yul\":1115:1179   */\n  tag_26\n  jump\t// in\ntag_63:\n    /* \"#utility.yul\":1105:1179   */\n  swap2\n  pop\n    /* \"#utility.yul\":1061:1189   */\n  pop\n    /* \"#utility.yul\":845:1196   */\n  swap3\n  swap2\n  pop\n  pop\n  jump\t// out\n    /* \"#utility.yul\":1202:1301   */\ntag_27:\n    /* \"#utility.yul\":1254:1260   */\n  0x00\n    /* \"#utility.yul\":1288:1293   */\n  dup2\n    /* \"#utility.yul\":1282:1294   */\n  mload\n    /* \"#utility.yul\":1272:1294   */\n  swap1\n  pop\n    /* \"#utility.yul\":1202:1301   */\n  swap2\n  swap1\n  pop\n  jump\t// out\n    /* \"#utility.yul\":1307:1487   */\ntag_28:\n    /* \"#utility.yul\":1355:1432   */\n  0x4e487b7100000000000000000000000000000000000000000000000000000000\n    /* \"#utility.yul\":1352:1353   */\n  0x00\n    /* \"#utility.yul\":1345:1433   */\n  mstore\n    /* \"#utility.yul\":1452:1456   */\n  0x41\n    /* \"#utility.yul\":1449:1450   */\n  0x04\n    /* \"#utility.yul\":1442:1457   */\n  mstore\n    /* \"#utility.yul\":1476:1480   */\n  0x24\n    /* \"#utility.yul\":1473:1474   */\n  0x00\n    /* \"#utility.yul\":1466:1481   */\n  revert\n    /* \"#utility.yul\":1493:1673   */\ntag_29:\n    /* \"#utility.yul\":1541:1618   */\n  0x4e487b7100000000000000000000000000000000000000000000000000000000\n    /* \"#utility.yul\":1538:1539   */\n  0x00\n    /* \"#utility.yul\":1531:1619   */\n  mstore\n    /* \"#utility.yul\":1638:1642   */\n  0x22\n    /* \"#utility.yul\":1635:1636   */\n  0x04\n    /* \"#utility.yul\":1628:1643   */\n  mstore\n    /* \"#utility.yul\":1662:1666   */\n  0x24\n    /* \"#utility.yul\":1659:1660   */\n  0x00\n    /* \"#utility.yul\":1652:1667   */\n  revert\n    /* \"#utility.yul\":1679:1999   */\ntag_30:\n    /* \"#utility.yul\":1723:1729   */\n  0x00\n    /* \"#utility.yul\":1760:1761   */\n  0x02\n    /* \"#utility.yul\":1754:1758   */\n  dup3\n    /* \"#utility.yul\":1750:1762   */\n  div\n    /* \"#utility.yul\":1740:1762   */\n  swap1\n  pop\n    /* \"#utility.yul\":1807:1808   */\n  0x01\n    /* \"#utility.yul\":1801:1805   */\n  dup3\n    /* \"#utility.yul\":1797:1809   */\n  and\n    /* \"#utility.yul\":1828:1846   */\n  dup1\n    /* \"#utility.yul\":1818:1899   */\n  tag_68\n  jumpi\n    /* \"#utility.yul\":1884:1888   */\n  0x7f\n    /* \"#utility.yul\":1876:1882   */\n  dup3\n    /* \"#utility.yul\":1872:1889   */\n  and\n    /* \"#utility.yul\":1862:1889   */\n  swap2\n  pop\n    /* \"#utility.yul\":1818:1899   */\ntag_68:\n    /* \"#utility.yul\":1946:1948   */\n  0x20\n    /* \"#utility.yul\":1938:1944   */\n  dup3\n    /* \"#utility.yul\":1935:1949   */\n  lt\n    /* \"#utility.yul\":1915:1933   */\n  dup2\n    /* \"#utility.yul\":1912:1950   */\n  sub\n    /* \"#utility.yul\":1909:1993   */\n  tag_69\n  jumpi\n    /* \"#utility.yul\":1965:1983   */\n  tag_70\n  tag_29\n  jump\t// in\ntag_70:\n    /* \"#utility.yul\":1909:1993   */\ntag_69:\n    /* \"#utility.yul\":1730:1999   */\n  pop\n    /* \"#utility.yul\":1679:1999   */\n  swap2\n  swap1\n  pop\n  jump\t// out\n    /* \"#utility.yul\":2005:2146   */\ntag_31:\n    /* \"#utility.yul\":2054:2058   */\n  0x00\n    /* \"#utility.yul\":2077:2080   */\n  dup2\n    /* \"#utility.yul\":2069:2080   */\n  swap1\n  pop\n    /* \"#utility.yul\":2100:2103   */\n  dup2\n    /* \"#utility.yul\":2097:2098   */\n  0x00\n    /* \"#utility.yul\":2090:2104   */\n  mstore\n    /* \"#utility.yul\":2134:2138   */\n  0x20\n    /* \"#utility.yul\":2131:2132   */\n  0x00\n    /* \"#utility.yul\":2121:2139   */\n  keccak256\n    /* \"#utility.yul\":2113:2139   */\n  swap1\n  pop\n    /* \"#utility.yul\":2005:2146   */\n  swap2\n  swap1\n  pop\n  jump\t// out\n    /* \"#utility.yul\":2152:2245   */\ntag_32:\n    /* \"#utility.yul\":2189:2195   */\n  0x00\n    /* \"#utility.yul\":2236:2238   */\n  0x20\n    /* \"#utility.yul\":2231:2233   */\n  0x1f\n    /* \"#utility.yul\":2224:2229   */\n  dup4\n    /* \"#utility.yul\":2220:2234   */\n  add\n    /* \"#utility.yul\":2216:2239   */\n  div\n    /* \"#utility.yul\":2206:2239   */\n  swap1\n  pop\n    /* \"#utility.yul\":2152:2245   */\n  swap2\n  swap1\n  pop\n  jump\t// out\n    /* \"#utility.yul\":2251:2358   */\ntag_33:\n    /* \"#utility.yul\":2295:2303   */\n  0x00\n    /* \"#utility.yul\":2345:2350   */\n  dup3\n    /* \"#utility.yul\":2339:2343   */\n  dup3\n    /* \"#utility.yul\":2335:2351   */\n  shl\n    /* \"#utility.yul\":2314:2351   */\n  swap1\n  pop\n    /* \"#utility.yul\":2251:2358   */\n  swap3\n  swap2\n  pop\n  pop\n  jump\t// out\n    /* \"#utility.yul\":2364:2757   */\ntag_34:\n    /* \"#utility.yul\":2433:2439   */\n  0x00\n    /* \"#utility.yul\":2483:2484   */\n  0x08\n    /* \"#utility.yul\":2471:2481   */\n  dup4\n    /* \"#utility.yul\":2467:2485   */\n  mul\n    /* \"#utility.yul\":2506:2603   */\n  tag_75\n    /* \"#utility.yul\":2536:2602   */\n  0xffffffffffffffffffffffffffffffffffffffffffffffffffffffffffffffff\n    /* \"#utility.yul\":2525:2534   */\n  dup3\n    /* \"#utility.yul\":2506:2603   */\n  tag_33\n  jump\t// in\ntag_75:\n    /* \"#utility.yul\":2624:2663   */\n  tag_76\n    /* \"#utility.yul\":2654:2662   */\n  dup7\n    /* \"#utility.yul\":2643:2652   */\n  dup4\n    /* \"#utility.yul\":2624:2663   */\n  tag_33\n  jump\t// in\ntag_76:\n    /* \"#utility.yul\":2612:2663   */\n  swap6\n  pop\n    /* \"#utility.yul\":2696:2700   */\n  dup1\n    /* \"#utility.yul\":2692:2701   */\n  not\n    /* \"#utility.yul\":2685:2690   */\n  dup5\n    /* \"#utility.yul\":2681:2702   */\n  and\n    /* \"#utility.yul\":2672:2702   */\n  swap4\n  pop\n    /* \"#utility.yul\":2745:2749   */\n  dup1\n    /* \"#utility.yul\":2735:2743   */\n  dup7\n    /* \"#utility.yul\":2731:2750   */\n  and\n    /* \"#utility.yul\":2724:2729   */\n  dup5\n    /* \"#utility.yul\":2721:2751   */\n  or\n    /* \"#utility.yul\":2711:2751   */\n  swap3\n  pop\n    /* \"#utility.yul\":2440:2757   */\n  pop\n  pop\n    /* \"#utility.yul\":2364:2757   */\n  swap4\n  swap3\n  pop\n  pop\n  pop\n  jump\t// out\n    /* \"#utility.yul\":2763:2840   */\ntag_35:\n    /* \"#utility.yul\":2800:2807   */\n  0x00\n    /* \"#utility.yul\":2829:2834   */\n  dup2\n    /* \"#utility.yul\":2818:2834   */\n  swap1\n  pop\n    /* \"#utility.yul\":2763:2840   */\n  swap2\n  swap1\n  pop\n  jump\t// out\n    /* \"#utility.yul\":2846:2906   */\ntag_36:\n    /* \"#utility.yul\":2874:2877   */\n  0x00\n    /* \"#utility.yul\":2895:2900   */\n  dup2\n    /* \"#utility.yul\":2888:2900   */\n  swap1\n  pop\n    /* \"#utility.yul\":2846:2906   */\n  swap2\n  swap1\n  pop\n  jump\t// out\n    /* \"#utility.yul\":2912:3054   */\ntag_37:\n    /* \"#utility.yul\":2962:2971   */\n  0x00\n    /* \"#utility.yul\":2995:3048   */\n  tag_80\n    /* \"#utility.yul\":3013:3047   */\n  tag_81\n    /* \"#utility.yul\":3022:3046   */\n  tag_82\n    /* \"#utility.yul\":3040:3045   */\n  dup5\n    /* \"#utility.yul\":3022:3046   */\n  tag_35\n  jump\t// in\ntag_82:\n    /* \"#utility.yul\":3013:3047   */\n  tag_36\n  jump\t// in\ntag_81:\n    /* \"#utility.yul\":2995:3048   */\n  tag_35\n  jump\t// in\ntag_80:\n    /* \"#utility.yul\":2982:3048   */\n  swap1\n  pop\n    /* \"#utility.yul\":2912:3054   */\n  swap2\n  swap1\n  pop\n  jump\t// out\n    /* \"#utility.yul\":3060:3135   */\ntag_38:\n    /* \"#utility.yul\":3103:3106   */\n  0x00\n    /* \"#utility.yul\":3124:3129   */\n  dup2\n    /* \"#utility.yul\":3117:3129   */\n  swap1\n  pop\n    /* \"#utility.yul\":3060:3135   */\n  swap2\n  swap1\n  pop\n  jump\t// out\n    /* \"#utility.yul\":3141:3410   */\ntag_39:\n    /* \"#utility.yul\":3251:3290   */\n  tag_85\n    /* \"#utility.yul\":3282:3289   */\n  dup4\n    /* \"#utility.yul\":3251:3290   */\n  tag_37\n  jump\t// in\ntag_85:\n    /* \"#utility.yul\":3312:3403   */\n  tag_86\n    /* \"#utility.yul\":3361:3402   */\n  tag_87\n    /* \"#utility.yul\":3385:3401   */\n  dup3\n    /* \"#utility.yul\":3361:3402   */\n  tag_38\n  jump\t// in\ntag_87:\n    /* \"#utility.yul\":3353:3359   */\n  dup5\n    /* \"#utility.yul\":3346:3350   */\n  dup5\n    /* \"#utility.yul\":3340:3351   */\n  sload\n    /* \"#utility.yul\":3312:3403   */\n  tag_34\n  jump\t// in\ntag_86:\n    /* \"#utility.yul\":3306:3310   */\n  dup3\n    /* \"#utility.yul\":3299:3404   */\n  sstore\n    /* \"#utility.yul\":3217:3410   */\n  pop\n    /* \"#utility.yul\":3141:3410   */\n  pop\n  pop\n  pop\n  jump\t// out\n    /* \"#utility.yul\":3416:3489   */\ntag_40:\n    /* \"#utility.yul\":3461:3464   */\n  0x00\n    /* \"#utility.yul\":3416:3489   */\n  swap1\n  jump\t// out\n    /* \"#utility.yul\":3495:3684   */\ntag_41:\n    /* \"#utility.yul\":3572:3604   */\n  tag_90\n  tag_40\n  jump\t// in\ntag_90:\n    /* \"#utility.yul\":3613:3678   */\n  tag_91\n    /* \"#utility.yul\":3671:3677   */\n  dup2\n    /* \"#utility.yul\":3663:3669   */\n  dup5\n    /* \"#utility.yul\":3657:3661   */\n  dup5\n    /* \"#utility.yul\":3613:3678   */\n  tag_39\n  jump\t// in\ntag_91:\n    /* \"#utility.yul\":3548:3684   */\n  pop\n    /* \"#utility.yul\":3495:3684   */\n  pop\n  pop\n  jump\t// out\n    /* \"#utility.yul\":3690:3876   */\ntag_42:\n    /* \"#utility.yul\":3750:3870   */\ntag_93:\n    /* \"#utility.yul\":3767:3770   */\n  dup2\n    /* \"#utility.yul\":3760:3765   */\n  dup2\n    /* \"#utility.yul\":3757:3771   */\n  lt\n    /* \"#utility.yul\":3750:3870   */\n  iszero\n  tag_95\n  jumpi\n    /* \"#utility.yul\":3821:3860   */\n  tag_96\n    /* \"#utility.yul\":3858:3859   */\n  0x00\n    /* \"#utility.yul\":3851:3856   */\n  dup3\n    /* \"#utility.yul\":3821:3860   */\n  tag_41\n  jump\t// in\ntag_96:\n    /* \"#utility.yul\":3794:3795   */\n  0x01\n    /* \"#utility.yul\":3787:3792   */\n  dup2\n    /* \"#utility.yul\":3783:3796   */\n  add\n    /* \"#utility.yul\":3774:3796   */\n  swap1\n  pop\n    /* \"#utility.yul\":3750:3870   */\n  jump(tag_93)\ntag_95:\n    /* \"#utility.yul\":3690:3876   */\n  pop\n  pop\n  jump\t// out\n    /* \"#utility.yul\":3882:4425   */\ntag_43:\n    /* \"#utility.yul\":3983:3985   */\n  0x1f\n    /* \"#utility.yul\":3978:3981   */\n  dup3\n    /* \"#utility.yul\":3975:3986   */\n  gt\n    /* \"#utility.yul\":3972:4418   */\n  iszero\n  tag_98\n  jumpi\n    /* \"#utility.yul\":4017:4055   */\n  tag_99\n    /* \"#utility.yul\":4049:4054   */\n  dup2\n    /* \"#utility.yul\":4017:4055   */\n  tag_31\n  jump\t// in\ntag_99:\n    /* \"#utility.yul\":4101:4130   */\n  tag_100\n    /* \"#utility.yul\":4119:4129   */\n  dup5\n    /* \"#utility.yul\":4101:4130   */\n  tag_32\n  jump\t// in\ntag_100:\n    /* \"#utility.yul\":4091:4099   */\n  dup2\n    /* \"#utility.yul\":4087:4131   */\n  add\n    /* \"#utility.yul\":4284:4286   */\n  0x20\n    /* \"#utility.yul\":4272:4282   */\n  dup6\n    /* \"#utility.yul\":4269:4287   */\n  lt\n    /* \"#utility.yul\":4266:4315   */\n  iszero\n  tag_101\n  jumpi\n    /* \"#utility.yul\":4305:4313   */\n  dup2\n    /* \"#utility.yul\":4290:4313   */\n  swap1\n  pop\n    /* \"#utility.yul\":4266:4315   */\ntag_101:\n    /* \"#utility.yul\":4328:4408   */\n  tag_102\n    /* \"#utility.yul\":4384:4406   */\n  tag_103\n    /* \"#utility.yul\":4402:4405   */\n  dup6\n    /* \"#utility.yul\":4384:4406   */\n  tag_32\n  jump\t// in\ntag_103:\n    /* \"#utility.yul\":4374:4382   */\n  dup4\n    /* \"#utility.yul\":4370:4407   */\n  add\n    /* \"#utility.yul\":4357:4368   */\n  dup3\n    /* \"#utility.yul\":4328:4408   */\n  tag_42\n  jump\t// in\ntag_102:\n    /* \"#utility.yul\":3987:4418   */\n  pop\n  pop\n    /* \"#utility.yul\":3972:4418   */\ntag_98:\n    /* \"#utility.yul\":3882:4425   */\n  pop\n  pop\n  pop\n  jump\t// out\n    /* \"#utility.yul\":4431:4548   */\ntag_44:\n    /* \"#utility.yul\":4485:4493   */\n  0x00\n    /* \"#utility.yul\":4535:4540   */\n  dup3\n    /* \"#utility.yul\":4529:4533   */\n  dup3\n    /* \"#utility.yul\":4525:4541   */\n  shr\n    /* \"#utility.yul\":4504:4541   */\n  swap1\n  pop\n    /* \"#utility.yul\":4431:4548   */\n  swap3\n  swap2\n  pop\n  pop\n  jump\t// out\n    /* \"#utility.yul\":4554:4723   */\ntag_45:\n    /* \"#utility.yul\":4598:4604   */\n  0x00\n    /* \"#utility.yul\":4631:4682   */\n  tag_106\n    /* \"#utility.yul\":4679:4680   */\n  0x00\n    /* \"#utility.yul\":4675:4681   */\n  not\n    /* \"#utility.yul\":4667:4672   */\n  dup5\n    /* \"#utility.yul\":4664:4665   */\n  0x08\n    /* \"#utility.yul\":4660:4673   */\n  mul\n    /* \"#utility.yul\":4631:4682   */\n  tag_44\n  jump\t// in\ntag_106:\n    /* \"#utility.yul\":4627:4683   */\n  not\n    /* \"#utility.yul\":4712:4716   */\n  dup1\n    /* \"#utility.yul\":4706:4710   */\n  dup4\n    /* \"#utility.yul\":4702:4717   */\n  and\n    /* \"#utility.yul\":4692:4717   */\n  swap2\n  pop\n    /* \"#utility.yul\":4605:4723   */\n  pop\n    /* \"#utility.yul\":4554:4723   */\n  swap3\n  swap2\n  pop\n  pop\n  jump\t// out\n    /* \"#utility.yul\":4728:5023   */\ntag_46:\n    /* \"#utility.yul\":4804:4808   */\n  0x00\n    /* \"#utility.yul\":4950:4979   */\n  tag_108\n    /* \"#utility.yul\":4975:4978   */\n  dup4\n    /* \"#utility.yul\":4969:4973   */\n  dup4\n    /* \"#utility.yul\":4950:4979   */\n  tag_45\n  jump\t// in\ntag_108:\n    /* \"#utility.yul\":4942:4979   */\n  swap2\n  pop\n    /* \"#utility.yul\":5012:5015   */\n  dup3\n    /* \"#utility.yul\":5009:5010   */\n  0x02\n    /* \"#utility.yul\":5005:5016   */\n  mul\n    /* \"#utility.yul\":4999:5003   */\n  dup3\n    /* \"#utility.yul\":4996:5017   */\n  or\n    /* \"#utility.yul\":4988:5017   */\n  swap1\n  pop\n    /* \"#utility.yul\":4728:5023   */\n  swap3\n  swap2\n  pop\n  pop\n  jump\t// out\n    /* \"#utility.yul\":5028:6423   */\ntag_9:\n    /* \"#utility.yul\":5145:5182   */\n  tag_110\n    /* \"#utility.yul\":5178:5181   */\n  dup3\n    /* \"#utility.yul\":5145:5182   */\n  tag_27\n  jump\t// in\ntag_110:\n    /* \"#utility.yul\":5247:5265   */\n  0xffffffffffffffff\n    /* \"#utility.yul\":5239:5245   */\n  dup2\n    /* \"#utility.yul\":5236:5266   */\n  gt\n    /* \"#utility.yul\":5233:5289   */\n  iszero\n  tag_111\n  jumpi\n    /* \"#utility.yul\":5269:5287   */\n  tag_112\n  tag_28\n  jump\t// in\ntag_112:\n    /* \"#utility.yul\":5233:5289   */\ntag_111:\n    /* \"#utility.yul\":5313:5351   */\n  tag_113\n    /* \"#utility.yul\":5345:5349   */\n  dup3\n    /* \"#utility.yul\":5339:5350   */\n  sload\n    /* \"#utility.yul\":5313:5351   */\n  tag_30\n  jump\t// in\ntag_113:\n    /* \"#utility.yul\":5398:5465   */\n  tag_114\n    /* \"#utility.yul\":5458:5464   */\n  dup3\n    /* \"#utility.yul\":5450:5456   */\n  dup3\n    /* \"#utility.yul\":5444:5448   */\n  dup6\n    /* \"#utility.yul\":5398:5465   */\n  tag_43\n  jump\t// in\ntag_114:\n    /* \"#utility.yul\":5492:5493   */\n  0x00\n    /* \"#utility.yul\":5516:5520   */\n  0x20\n    /* \"#utility.yul\":5503:5520   */\n  swap1\n  pop\n    /* \"#utility.yul\":5548:5550   */\n  0x1f\n    /* \"#utility.yul\":5540:5546   */\n  dup4\n    /* \"#utility.yul\":5537:5551   */\n  gt\n    /* \"#utility.yul\":5565:5566   */\n  0x01\n    /* \"#utility.yul\":5560:6178   */\n  dup2\n  eq\n  tag_116\n  jumpi\n    /* \"#utility.yul\":6222:6223   */\n  0x00\n    /* \"#utility.yul\":6239:6245   */\n  dup5\n    /* \"#utility.yul\":6236:6313   */\n  iszero\n  tag_117\n  jumpi\n    /* \"#utility.yul\":6288:6297   */\n  dup3\n    /* \"#utility.yul\":6283:6286   */\n  dup8\n    /* \"#utility.yul\":6279:6298   */\n  add\n    /* \"#utility.yul\":6273:6299   */\n  mload\n    /* \"#utility.yul\":6264:6299   */\n  swap1\n  pop\n    /* \"#utility.yul\":6236:6313   */\ntag_117:\n    /* \"#utility.yul\":6339:6406   */\n  tag_118\n    /* \"#utility.yul\":6399:6405   */\n  dup6\n    /* \"#utility.yul\":6392:6397   */\n  dup3\n    /* \"#utility.yul\":6339:6406   */\n  tag_46\n  jump\t// in\ntag_118:\n    /* \"#utility.yul\":6333:6337   */\n  dup7\n    /* \"#utility.yul\":6326:6407   */\n  sstore\n    /* \"#utility.yul\":6195:6417   */\n  pop\n    /* \"#utility.yul\":5530:6417   */\n  jump(tag_115)\n    /* \"#utility.yul\":5560:6178   */\ntag_116:\n    /* \"#utility.yul\":5612:5616   */\n  0x1f\n    /* \"#utility.yul\":5608:5617   */\n  not\n    /* \"#utility.yul\":5600:5606   */\n  dup5\n    /* \"#utility.yul\":5596:5618   */\n  and\n    /* \"#utility.yul\":5646:5683   */\n  tag_119\n    /* \"#utility.yul\":5678:5682   */\n  dup7\n    /* \"#utility.yul\":5646:5683   */\n  tag_31\n  jump\t// in\ntag_119:\n    /* \"#utility.yul\":5705:5706   */\n  0x00\n    /* \"#utility.yul\":5719:5927   */\ntag_120:\n    /* \"#utility.yul\":5733:5740   */\n  dup3\n    /* \"#utility.yul\":5730:5731   */\n  dup2\n    /* \"#utility.yul\":5727:5741   */\n  lt\n    /* \"#utility.yul\":5719:5927   */\n  iszero\n  tag_122\n  jumpi\n    /* \"#utility.yul\":5812:5821   */\n  dup5\n    /* \"#utility.yul\":5807:5810   */\n  dup10\n    /* \"#utility.yul\":5803:5822   */\n  add\n    /* \"#utility.yul\":5797:5823   */\n  mload\n    /* \"#utility.yul\":5789:5795   */\n  dup3\n    /* \"#utility.yul\":5782:5824   */\n  sstore\n    /* \"#utility.yul\":5863:5864   */\n  0x01\n    /* \"#utility.yul\":5855:5861   */\n  dup3\n    /* \"#utility.yul\":5851:5865   */\n  add\n    /* \"#utility.yul\":5841:5865   */\n  swap2\n  pop\n    /* \"#utility.yul\":5910:5912   */\n  0x20\n    /* \"#utility.yul\":5899:5908   */\n  dup6\n    /* \"#utility.yul\":5895:5913   */\n  add\n    /* \"#utility.yul\":5882:5913   */\n  swap5\n  pop\n    /* \"#utility.yul\":5756:5760   */\n  0x20\n    /* \"#utility.yul\":5753:5754   */\n  dup2\n    /* \"#utility.yul\":5749:5761   */\n  add\n    /* \"#utility.yul\":5744:5761   */\n  swap1\n  pop\n    /* \"#utility.yul\":5719:5927   */\n  jump(tag_120)\ntag_122:\n    /* \"#utility.yul\":5955:5961   */\n  dup7\n    /* \"#utility.yul\":5946:5953   */\n  dup4\n    /* \"#utility.yul\":5943:5962   */\n  lt\n    /* \"#utility.yul\":5940:6119   */\n  iszero\n  tag_123\n  jumpi\n    /* \"#utility.yul\":6013:6022   */\n  dup5\n    /* \"#utility.yul\":6008:6011   */\n  dup10\n    /* \"#utility.yul\":6004:6023   */\n  add\n    /* \"#utility.yul\":5998:6024   */\n  mload\n    /* \"#utility.yul\":6056:6104   */\n  tag_124\n    /* \"#utility.yul\":6098:6102   */\n  0x1f\n    /* \"#utility.yul\":6090:6096   */\n  dup10\n    /* \"#utility.yul\":6086:6103   */\n  and\n    /* \"#utility.yul\":6075:6084   */\n  dup3\n    /* \"#utility.yul\":6056:6104   */\n  tag_45\n  jump\t// in\ntag_124:\n    /* \"#utility.yul\":6048:6054   */\n  dup4\n    /* \"#utility.yul\":6041:6105   */\n  sstore\n    /* \"#utility.yul\":5963:6119   */\n  pop\n    /* \"#utility.yul\":5940:6119   */\ntag_123:\n    /* \"#utility.yul\":6165:6166   */\n  0x01\n    /* \"#utility.yul\":6161:6162   */\n  0x02\n    /* \"#utility.yul\":6153:6159   */\n  dup9\n    /* \"#utility.yul\":6149:6163   */\n  mul\n    /* \"#utility.yul\":6145:6167   */\n  add\n    /* \"#utility.yul\":6139:6143   */\n  dup9\n    /* \"#utility.yul\":6132:6168   */\n  sstore\n    /* \"#utility.yul\":5567:6178   */\n  pop\n  pop\n  pop\n    /* \"#utility.yul\":5530:6417   */\ntag_115:\n  pop\n    /* \"#utility.yul\":5120:6423   */\n  pop\n  pop\n  pop\n    /* \"#utility.yul\":5028:6423   */\n  pop\n  pop\n  jump\t// out\n    /* \"#utility.yul\":6429:6547   */\ntag_47:\n    /* \"#utility.yul\":6516:6540   */\n  tag_126\n    /* \"#utility.yul\":6534:6539   */\n  dup2\n    /* \"#utility.yul\":6516:6540   */\n  tag_24\n  jump\t// in\ntag_126:\n    /* \"#utility.yul\":6511:6514   */\n  dup3\n    /* \"#utility.yul\":6504:6541   */\n  mstore\n    /* \"#utility.yul\":6429:6547   */\n  pop\n  pop\n  jump\t// out\n    /* \"#utility.yul\":6553:6775   */\ntag_14:\n    /* \"#utility.yul\":6646:6650   */\n  0x00\n    /* \"#utility.yul\":6684:6686   */\n  0x20\n    /* \"#utility.yul\":6673:6682   */\n  dup3\n    /* \"#utility.yul\":6669:6687   */\n  add\n    /* \"#utility.yul\":6661:6687   */\n  swap1\n  pop\n    /* \"#utility.yul\":6697:6768   */\n  tag_128\n    /* \"#utility.yul\":6765:6766   */\n  0x00\n    /* \"#utility.yul\":6754:6763   */\n  dup4\n    /* \"#utility.yul\":6750:6767   */\n  add\n    /* \"#utility.yul\":6741:6747   */\n  dup5\n    /* \"#utility.yul\":6697:6768   */\n  tag_47\n  jump\t// in\ntag_128:\n    /* \"#utility.yul\":6553:6775   */\n  swap3\n  swap2\n  pop\n  pop\n  jump\t// out\n    /* \"contracts/SafeT.sol\":219:2569  contract SafeT is ERC721, Ownable {... */\ntag_18:\n  dataSize(sub_0)\n  dup1\n  dataOffset(sub_0)\n  0x00\n  codecopy\n  0x00\n  return\nstop\n\nsub_0: assembly {\n        /* \"contracts/SafeT.sol\":219:2569  contract SafeT is ERC721, Ownable {... */\n      mstore(0x40, 0x80)\n      callvalue\n      dup1\n      iszero\n      tag_1\n      jumpi\n      0x00\n      dup1\n      revert\n    tag_1:\n      pop\n      jumpi(tag_2, lt(calldatasize, 0x04))\n      shr(0xe0, calldataload(0x00))\n      dup1\n      0x70a08231\n      gt\n      tag_24\n      jumpi\n      dup1\n      0x9964f316\n      gt\n      tag_25\n      jumpi\n      dup1\n      0x9964f316\n      eq\n      tag_18\n      jumpi\n      dup1\n      0xa22cb465\n      eq\n      tag_19\n      jumpi\n      dup1\n      0xb88d4fde\n      eq\n      tag_20\n      jumpi\n      dup1\n      0xc87b56dd\n      eq\n      tag_21\n      jumpi\n      dup1\n      0xe985e9c5\n      eq\n      tag_22\n      jumpi\n      dup1\n      0xf2fde38b\n      eq\n      tag_23\n      jumpi\n      jump(tag_2)\n    tag_25:\n      dup1\n      0x70a08231\n      eq\n      tag_13\n      jumpi\n      dup1\n      0x715018a6\n      eq\n      tag_14\n      jumpi\n      dup1\n      0x8da5cb5b\n      eq\n      tag_15\n      jumpi\n      dup1\n      0x91ef935c\n      eq\n      tag_16\n      jumpi\n      dup1\n      0x95d89b41\n      eq\n      tag_17\n      jumpi\n      jump(tag_2)\n    tag_24:\n      dup1\n      0x23b872dd\n      gt\n      tag_26\n      jumpi\n      dup1\n      0x23b872dd\n      eq\n      tag_8\n      jumpi\n      dup1\n      0x3f28e1d2\n      eq\n      tag_9\n      jumpi\n      dup1\n      0x3f7b2c80\n      eq\n      tag_10\n      jumpi\n      dup1\n      0x42842e0e\n      eq\n      tag_11\n      jumpi\n      dup1\n      0x6352211e\n      eq\n      tag_12\n      jumpi\n      jump(tag_2)\n    tag_26:\n      dup1\n      0x01ffc9a7\n      eq\n      tag_3\n      jumpi\n      dup1\n      0x06fdde03\n      eq\n      tag_4\n      jumpi\n      dup1\n      0x081812fc\n      eq\n      tag_5\n      jumpi\n      dup1\n      0x095ea7b3\n      eq\n      tag_6\n      jumpi\n      dup1\n      0x17088b34\n      eq\n      tag_7\n      jumpi\n    tag_2:\n      0x00\n      dup1\n      revert\n        /* \"@openzeppelin/contracts/token/ERC721/ERC721.sol\":1561:1861  function supportsInterface(bytes4 interfaceId) public view virtual override(ERC165, IERC165) returns (bool) {... */\n    tag_3:\n      tag_27\n      0x04\n      dup1\n      calldatasize\n      sub\n      dup2\n      add\n      swap1\n      tag_28\n      swap2\n      swap1\n      tag_29\n      jump\t// in\n    tag_28:\n      tag_30\n      jump\t// in\n    tag_27:\n      mload(0x40)\n      tag_31\n      swap2\n      swap1\n      tag_32\n      jump\t// in\n    tag_31:\n      mload(0x40)\n      dup1\n      swap2\n      sub\n      swap1\n      return\n        /* \"@openzeppelin/contracts/token/ERC721/ERC721.sol\":2365:2454  function name() public view virtual returns (string memory) {... */\n    tag_4:\n      tag_33\n      tag_34\n      jump\t// in\n    tag_33:\n      mload(0x40)\n      tag_35\n      swap2\n      swap1\n      tag_36\n      jump\t// in\n    tag_35:\n      mload(0x40)\n      dup1\n      swap2\n      sub\n      swap1\n      return\n        /* \"@openzeppelin/contracts/token/ERC721/ERC721.sol\":3497:3651  function getApproved(uint256 tokenId) public view virtual returns (address) {... */\n    tag_5:\n      tag_37\n      0x04\n      dup1\n      calldatasize\n      sub\n      dup2\n      add\n      swap1\n      tag_38\n      swap2\n      swap1\n      tag_39\n      jump\t// in\n    tag_38:\n      tag_40\n      jump\t// in\n    tag_37:\n      mload(0x40)\n      tag_41\n      swap2\n      swap1\n      tag_42\n      jump\t// in\n    tag_41:\n      mload(0x40)\n      dup1\n      swap2\n      sub\n      swap1\n      return\n        /* \"@openzeppelin/contracts/token/ERC721/ERC721.sol\":3323:3436  function approve(address to, uint256 tokenId) public virtual {... */\n    tag_6:\n      tag_43\n      0x04\n      dup1\n      calldatasize\n      sub\n      dup2\n      add\n      swap1\n      tag_44\n      swap2\n      swap1\n      tag_45\n      jump\t// in\n    tag_44:\n      tag_46\n      jump\t// in\n    tag_43:\n      stop\n        /* \"contracts/SafeT.sol\":2365:2567  function getRentalDetails(uint256 tokenId) public view returns (RentalDetails memory) {... */\n    tag_7:\n      tag_47\n      0x04\n      dup1\n      calldatasize\n      sub\n      dup2\n      add\n      swap1\n      tag_48\n      swap2\n      swap1\n      tag_39\n      jump\t// in\n    tag_48:\n      tag_49\n      jump\t// in\n    tag_47:\n      mload(0x40)\n      tag_50\n      swap2\n      swap1\n      tag_51\n      jump\t// in\n    tag_50:\n      mload(0x40)\n      dup1\n      swap2\n      sub\n      swap1\n      return\n        /* \"@openzeppelin/contracts/token/ERC721/ERC721.sol\":4143:4721  function transferFrom(address from, address to, uint256 tokenId) public virtual {... */\n    tag_8:\n      tag_52\n      0x04\n      dup1\n      calldatasize\n      sub\n      dup2\n      add\n      swap1\n      tag_53\n      swap2\n      swap1\n      tag_54\n      jump\t// in\n    tag_53:\n      tag_55\n      jump\t// in\n    tag_52:\n      stop\n        /* \"contracts/SafeT.sol\":559:613  mapping(uint256 => RentalDetails) public rentalDetails */\n    tag_9:\n      tag_56\n      0x04\n      dup1\n      calldatasize\n      sub\n      dup2\n      add\n      swap1\n      tag_57\n      swap2\n      swap1\n      tag_39\n      jump\t// in\n    tag_57:\n      tag_58\n      jump\t// in\n    tag_56:\n      mload(0x40)\n      tag_59\n      swap6\n      swap5\n      swap4\n      swap3\n      swap2\n      swap1\n      tag_60\n      jump\t// in\n    tag_59:\n      mload(0x40)\n      dup1\n      swap2\n      sub\n      swap1\n      return\n        /* \"contracts/SafeT.sol\":1671:2175  function setRentalDetails(... */\n    tag_10:\n      tag_61\n      0x04\n      dup1\n      calldatasize\n      sub\n      dup2\n      add\n      swap1\n      tag_62\n      swap2\n      swap1\n      tag_63\n      jump\t// in\n    tag_62:\n      tag_64\n      jump\t// in\n    tag_61:\n      stop\n        /* \"@openzeppelin/contracts/token/ERC721/ERC721.sol\":4787:4919  function safeTransferFrom(address from, address to, uint256 tokenId) public {... */\n    tag_11:\n      tag_65\n      0x04\n      dup1\n      calldatasize\n      sub\n      dup2\n      add\n      swap1\n      tag_66\n      swap2\n      swap1\n      tag_54\n      jump\t// in\n    tag_66:\n      tag_67\n      jump\t// in\n    tag_65:\n      stop\n        /* \"@openzeppelin/contracts/token/ERC721/ERC721.sol\":2185:2303  function ownerOf(uint256 tokenId) public view virtual returns (address) {... */\n    tag_12:\n      tag_68\n      0x04\n      dup1\n      calldatasize\n      sub\n      dup2\n      add\n      swap1\n      tag_69\n      swap2\n      swap1\n      tag_39\n      jump\t// in\n    tag_69:\n      tag_70\n      jump\t// in\n    tag_68:\n      mload(0x40)\n      tag_71\n      swap2\n      swap1\n      tag_42\n      jump\t// in\n    tag_71:\n      mload(0x40)\n      dup1\n      swap2\n      sub\n      swap1\n      return\n        /* \"@openzeppelin/contracts/token/ERC721/ERC721.sol\":1920:2128  function balanceOf(address owner) public view virtual returns (uint256) {... */\n    tag_13:\n      tag_72\n      0x04\n      dup1\n      calldatasize\n      sub\n      dup2\n      add\n      swap1\n      tag_73\n      swap2\n      swap1\n      tag_74\n      jump\t// in\n    tag_73:\n      tag_75\n      jump\t// in\n    tag_72:\n      mload(0x40)\n      tag_76\n      swap2\n      swap1\n      tag_77\n      jump\t// in\n    tag_76:\n      mload(0x40)\n      dup1\n      swap2\n      sub\n      swap1\n      return\n        /* \"@openzeppelin/contracts/access/Ownable.sol\":2293:2394  function renounceOwnership() public virtual onlyOwner {... */\n    tag_14:\n      tag_78\n      tag_79\n      jump\t// in\n    tag_78:\n      stop\n        /* \"@openzeppelin/contracts/access/Ownable.sol\":1638:1723  function owner() public view virtual returns (address) {... */\n    tag_15:\n      tag_80\n      tag_81\n      jump\t// in\n    tag_80:\n      mload(0x40)\n      tag_82\n      swap2\n      swap1\n      tag_42\n      jump\t// in\n    tag_82:\n      mload(0x40)\n      dup1\n      swap2\n      sub\n      swap1\n      return\n        /* \"contracts/SafeT.sol\":2181:2359  function endLease(uint256 tokenId) public onlyOwner {... */\n    tag_16:\n      tag_83\n      0x04\n      dup1\n      calldatasize\n      sub\n      dup2\n      add\n      swap1\n      tag_84\n      swap2\n      swap1\n      tag_39\n      jump\t// in\n    tag_84:\n      tag_85\n      jump\t// in\n    tag_83:\n      stop\n        /* \"@openzeppelin/contracts/token/ERC721/ERC721.sol\":2518:2611  function symbol() public view virtual returns (string memory) {... */\n    tag_17:\n      tag_86\n      tag_87\n      jump\t// in\n    tag_86:\n      mload(0x40)\n      tag_88\n      swap2\n      swap1\n      tag_36\n      jump\t// in\n    tag_88:\n      mload(0x40)\n      dup1\n      swap2\n      sub\n      swap1\n      return\n        /* \"contracts/SafeT.sol\":727:1665  function safeMint(... */\n    tag_18:\n      tag_89\n      0x04\n      dup1\n      calldatasize\n      sub\n      dup2\n      add\n      swap1\n      tag_90\n      swap2\n      swap1\n      tag_91\n      jump\t// in\n    tag_90:\n      tag_92\n      jump\t// in\n    tag_89:\n      stop\n        /* \"@openzeppelin/contracts/token/ERC721/ERC721.sol\":3718:3862  function setApprovalForAll(address operator, bool approved) public virtual {... */\n    tag_19:\n      tag_93\n      0x04\n      dup1\n      calldatasize\n      sub\n      dup2\n      add\n      swap1\n      tag_94\n      swap2\n      swap1\n      tag_95\n      jump\t// in\n    tag_94:\n      tag_96\n      jump\t// in\n    tag_93:\n      stop\n        /* \"@openzeppelin/contracts/token/ERC721/ERC721.sol\":4985:5193  function safeTransferFrom(address from, address to, uint256 tokenId, bytes memory data) public virtual {... */\n    tag_20:\n      tag_97\n      0x04\n      dup1\n      calldatasize\n      sub\n      dup2\n      add\n      swap1\n      tag_98\n      swap2\n      swap1\n      tag_99\n      jump\t// in\n    tag_98:\n      tag_100\n      jump\t// in\n    tag_97:\n      stop\n        /* \"@openzeppelin/contracts/token/ERC721/ERC721.sol\":2677:2932  function tokenURI(uint256 tokenId) public view virtual returns (string memory) {... */\n    tag_21:\n      tag_101\n      0x04\n      dup1\n      calldatasize\n      sub\n      dup2\n      add\n      swap1\n      tag_102\n      swap2\n      swap1\n      tag_39\n      jump\t// in\n    tag_102:\n      tag_103\n      jump\t// in\n    tag_101:\n      mload(0x40)\n      tag_104\n      swap2\n      swap1\n      tag_36\n      jump\t// in\n    tag_104:\n      mload(0x40)\n      dup1\n      swap2\n      sub\n      swap1\n      return\n        /* \"@openzeppelin/contracts/token/ERC721/ERC721.sol\":3928:4081  function isApprovedForAll(address owner, address operator) public view virtual returns (bool) {... */\n    tag_22:\n      tag_105\n      0x04\n      dup1\n      calldatasize\n      sub\n      dup2\n      add\n      swap1\n      tag_106\n      swap2\n      swap1\n      tag_107\n      jump\t// in\n    tag_106:\n      tag_108\n      jump\t// in\n    tag_105:\n      mload(0x40)\n      tag_109\n      swap2\n      swap1\n      tag_32\n      jump\t// in\n    tag_109:\n      mload(0x40)\n      dup1\n      swap2\n      sub\n      swap1\n      return\n        /* \"@openzeppelin/contracts/access/Ownable.sol\":2543:2758  function transferOwnership(address newOwner) public virtual onlyOwner {... */\n    tag_23:\n      tag_110\n      0x04\n      dup1\n      calldatasize\n      sub\n      dup2\n      add\n      swap1\n      tag_111\n      swap2\n      swap1\n      tag_74\n      jump\t// in\n    tag_111:\n      tag_112\n      jump\t// in\n    tag_110:\n      stop\n        /* \"@openzeppelin/contracts/token/ERC721/ERC721.sol\":1561:1861  function supportsInterface(bytes4 interfaceId) public view virtual override(ERC165, IERC165) returns (bool) {... */\n    tag_30:\n        /* \"@openzeppelin/contracts/token/ERC721/ERC721.sol\":1663:1667  bool */\n      0x00\n        /* \"@openzeppelin/contracts/token/ERC721/ERC721.sol\":1713:1738  type(IERC721).interfaceId */\n      0x80ac58cd00000000000000000000000000000000000000000000000000000000\n        /* \"@openzeppelin/contracts/token/ERC721/ERC721.sol\":1698:1738  interfaceId == type(IERC721).interfaceId */\n      not(0xffffffffffffffffffffffffffffffffffffffffffffffffffffffff)\n      and\n        /* \"@openzeppelin/contracts/token/ERC721/ERC721.sol\":1698:1709  interfaceId */\n      dup3\n        /* \"@openzeppelin/contracts/token/ERC721/ERC721.sol\":1698:1738  interfaceId == type(IERC721).interfaceId */\n      not(0xffffffffffffffffffffffffffffffffffffffffffffffffffffffff)\n      and\n      eq\n        /* \"@openzeppelin/contracts/token/ERC721/ERC721.sol\":1698:1802  interfaceId == type(IERC721).interfaceId ||... */\n      dup1\n      tag_114\n      jumpi\n      pop\n        /* \"@openzeppelin/contracts/token/ERC721/ERC721.sol\":1769:1802  type(IERC721Metadata).interfaceId */\n      0x5b5e139f00000000000000000000000000000000000000000000000000000000\n        /* \"@openzeppelin/contracts/token/ERC721/ERC721.sol\":1754:1802  interfaceId == type(IERC721Metadata).interfaceId */\n      not(0xffffffffffffffffffffffffffffffffffffffffffffffffffffffff)\n      and\n        /* \"@openzeppelin/contracts/token/ERC721/ERC721.sol\":1754:1765  interfaceId */\n      dup3\n        /* \"@openzeppelin/contracts/token/ERC721/ERC721.sol\":1754:1802  interfaceId == type(IERC721Metadata).interfaceId */\n      not(0xffffffffffffffffffffffffffffffffffffffffffffffffffffffff)\n      and\n      eq\n        /* \"@openzeppelin/contracts/token/ERC721/ERC721.sol\":1698:1802  interfaceId == type(IERC721).interfaceId ||... */\n    tag_114:\n        /* \"@openzeppelin/contracts/token/ERC721/ERC721.sol\":1698:1854  interfaceId == type(IERC721).interfaceId ||... */\n      dup1\n      tag_115\n      jumpi\n      pop\n        /* \"@openzeppelin/contracts/token/ERC721/ERC721.sol\":1818:1854  super.supportsInterface(interfaceId) */\n      tag_116\n        /* \"@openzeppelin/contracts/token/ERC721/ERC721.sol\":1842:1853  interfaceId */\n      dup3\n        /* \"@openzeppelin/contracts/token/ERC721/ERC721.sol\":1818:1841  super.supportsInterface */\n      tag_117\n        /* \"@openzeppelin/contracts/token/ERC721/ERC721.sol\":1818:1854  super.supportsInterface(interfaceId) */\n      jump\t// in\n    tag_116:\n        /* \"@openzeppelin/contracts/token/ERC721/ERC721.sol\":1698:1854  interfaceId == type(IERC721).interfaceId ||... */\n    tag_115:\n        /* \"@openzeppelin/contracts/token/ERC721/ERC721.sol\":1679:1854  return... */\n      swap1\n      pop\n        /* \"@openzeppelin/contracts/token/ERC721/ERC721.sol\":1561:1861  function supportsInterface(bytes4 interfaceId) public view virtual override(ERC165, IERC165) returns (bool) {... */\n      swap2\n      swap1\n      pop\n      jump\t// out\n        /* \"@openzeppelin/contracts/token/ERC721/ERC721.sol\":2365:2454  function name() public view virtual returns (string memory) {... */\n    tag_34:\n        /* \"@openzeppelin/contracts/token/ERC721/ERC721.sol\":2410:2423  string memory */\n      0x60\n        /* \"@openzeppelin/contracts/token/ERC721/ERC721.sol\":2442:2447  _name */\n      0x00\n        /* \"@openzeppelin/contracts/token/ERC721/ERC721.sol\":2435:2447  return _name */\n      dup1\n      sload\n      tag_119\n      swap1\n      tag_120\n      jump\t// in\n    tag_119:\n      dup1\n      0x1f\n      add\n      0x20\n      dup1\n      swap2\n      div\n      mul\n      0x20\n      add\n      mload(0x40)\n      swap1\n      dup2\n      add\n      0x40\n      mstore\n      dup1\n      swap3\n      swap2\n      swap1\n      dup2\n      dup2\n      mstore\n      0x20\n      add\n      dup3\n      dup1\n      sload\n      tag_121\n      swap1\n      tag_120\n      jump\t// in\n    tag_121:\n      dup1\n      iszero\n      tag_122\n      jumpi\n      dup1\n      0x1f\n      lt\n      tag_123\n      jumpi\n      0x0100\n      dup1\n      dup4\n      sload\n      div\n      mul\n      dup4\n      mstore\n      swap2\n      0x20\n      add\n      swap2\n      jump(tag_122)\n    tag_123:\n      dup3\n      add\n      swap2\n      swap1\n      0x00\n      mstore\n      keccak256(0x00, 0x20)\n      swap1\n    tag_124:\n      dup2\n      sload\n      dup2\n      mstore\n      swap1\n      0x01\n      add\n      swap1\n      0x20\n      add\n      dup1\n      dup4\n      gt\n      tag_124\n      jumpi\n      dup3\n      swap1\n      sub\n      0x1f\n      and\n      dup3\n      add\n      swap2\n    tag_122:\n      pop\n      pop\n      pop\n      pop\n      pop\n      swap1\n      pop\n        /* \"@openzeppelin/contracts/token/ERC721/ERC721.sol\":2365:2454  function name() public view virtual returns (string memory) {... */\n      swap1\n      jump\t// out\n        /* \"@openzeppelin/contracts/token/ERC721/ERC721.sol\":3497:3651  function getApproved(uint256 tokenId) public view virtual returns (address) {... */\n    tag_40:\n        /* \"@openzeppelin/contracts/token/ERC721/ERC721.sol\":3564:3571  address */\n      0x00\n        /* \"@openzeppelin/contracts/token/ERC721/ERC721.sol\":3583:3605  _requireOwned(tokenId) */\n      tag_126\n        /* \"@openzeppelin/contracts/token/ERC721/ERC721.sol\":3597:3604  tokenId */\n      dup3\n        /* \"@openzeppelin/contracts/token/ERC721/ERC721.sol\":3583:3596  _requireOwned */\n      tag_127\n        /* \"@openzeppelin/contracts/token/ERC721/ERC721.sol\":3583:3605  _requireOwned(tokenId) */\n      jump\t// in\n    tag_126:\n      pop\n        /* \"@openzeppelin/contracts/token/ERC721/ERC721.sol\":3623:3644  _getApproved(tokenId) */\n      tag_128\n        /* \"@openzeppelin/contracts/token/ERC721/ERC721.sol\":3636:3643  tokenId */\n      dup3\n        /* \"@openzeppelin/contracts/token/ERC721/ERC721.sol\":3623:3635  _getApproved */\n      tag_129\n        /* \"@openzeppelin/contracts/token/ERC721/ERC721.sol\":3623:3644  _getApproved(tokenId) */\n      jump\t// in\n    tag_128:\n        /* \"@openzeppelin/contracts/token/ERC721/ERC721.sol\":3616:3644  return _getApproved(tokenId) */\n      swap1\n      pop\n        /* \"@openzeppelin/contracts/token/ERC721/ERC721.sol\":3497:3651  function getApproved(uint256 tokenId) public view virtual returns (address) {... */\n      swap2\n      swap1\n      pop\n      jump\t// out\n        /* \"@openzeppelin/contracts/token/ERC721/ERC721.sol\":3323:3436  function approve(address to, uint256 tokenId) public virtual {... */\n    tag_46:\n        /* \"@openzeppelin/contracts/token/ERC721/ERC721.sol\":3394:3429  _approve(to, tokenId, _msgSender()) */\n      tag_131\n        /* \"@openzeppelin/contracts/token/ERC721/ERC721.sol\":3403:3405  to */\n      dup3\n        /* \"@openzeppelin/contracts/token/ERC721/ERC721.sol\":3407:3414  tokenId */\n      dup3\n        /* \"@openzeppelin/contracts/token/ERC721/ERC721.sol\":3416:3428  _msgSender() */\n      tag_132\n        /* \"@openzeppelin/contracts/token/ERC721/ERC721.sol\":3416:3426  _msgSender */\n      tag_133\n        /* \"@openzeppelin/contracts/token/ERC721/ERC721.sol\":3416:3428  _msgSender() */\n      jump\t// in\n    tag_132:\n        /* \"@openzeppelin/contracts/token/ERC721/ERC721.sol\":3394:3402  _approve */\n      tag_134\n        /* \"@openzeppelin/contracts/token/ERC721/ERC721.sol\":3394:3429  _approve(to, tokenId, _msgSender()) */\n      jump\t// in\n    tag_131:\n        /* \"@openzeppelin/contracts/token/ERC721/ERC721.sol\":3323:3436  function approve(address to, uint256 tokenId) public virtual {... */\n      pop\n      pop\n      jump\t// out\n        /* \"contracts/SafeT.sol\":2365:2567  function getRentalDetails(uint256 tokenId) public view returns (RentalDetails memory) {... */\n    tag_49:\n        /* \"contracts/SafeT.sol\":2429:2449  RentalDetails memory */\n      tag_135\n      tag_136\n      jump\t// in\n    tag_135:\n        /* \"contracts/SafeT.sol\":2538:2551  rentalDetails */\n      0x07\n        /* \"contracts/SafeT.sol\":2538:2560  rentalDetails[tokenId] */\n      0x00\n        /* \"contracts/SafeT.sol\":2552:2559  tokenId */\n      dup4\n        /* \"contracts/SafeT.sol\":2538:2560  rentalDetails[tokenId] */\n      dup2\n      mstore\n      0x20\n      add\n      swap1\n      dup2\n      mstore\n      0x20\n      add\n      0x00\n      keccak256\n        /* \"contracts/SafeT.sol\":2531:2560  return rentalDetails[tokenId] */\n      mload(0x40)\n      dup1\n      0xa0\n      add\n      0x40\n      mstore\n      swap1\n      dup2\n      0x00\n      dup3\n      add\n      sload\n      dup2\n      mstore\n      0x20\n      add\n      0x01\n      dup3\n      add\n      sload\n      dup2\n      mstore\n      0x20\n      add\n      0x02\n      dup3\n      add\n      sload\n      dup2\n      mstore\n      0x20\n      add\n      0x03\n      dup3\n      add\n      sload\n      dup2\n      mstore\n      0x20\n      add\n      0x04\n      dup3\n      add\n      0x00\n      swap1\n      sload\n      swap1\n      0x0100\n      exp\n      swap1\n      div\n      0xff\n      and\n      iszero\n      iszero\n      iszero\n      iszero\n      dup2\n      mstore\n      pop\n      pop\n      swap1\n      pop\n        /* \"contracts/SafeT.sol\":2365:2567  function getRentalDetails(uint256 tokenId) public view returns (RentalDetails memory) {... */\n      swap2\n      swap1\n      pop\n      jump\t// out\n        /* \"@openzeppelin/contracts/token/ERC721/ERC721.sol\":4143:4721  function transferFrom(address from, address to, uint256 tokenId) public virtual {... */\n    tag_55:\n        /* \"@openzeppelin/contracts/token/ERC721/ERC721.sol\":4251:4252  0 */\n      0x00\n        /* \"@openzeppelin/contracts/token/ERC721/ERC721.sol\":4237:4253  to == address(0) */\n      0xffffffffffffffffffffffffffffffffffffffff\n      and\n        /* \"@openzeppelin/contracts/token/ERC721/ERC721.sol\":4237:4239  to */\n      dup3\n        /* \"@openzeppelin/contracts/token/ERC721/ERC721.sol\":4237:4253  to == address(0) */\n      0xffffffffffffffffffffffffffffffffffffffff\n      and\n      sub\n        /* \"@openzeppelin/contracts/token/ERC721/ERC721.sol\":4233:4320  if (to == address(0)) {... */\n      tag_139\n      jumpi\n        /* \"@openzeppelin/contracts/token/ERC721/ERC721.sol\":4306:4307  0 */\n      0x00\n        /* \"@openzeppelin/contracts/token/ERC721/ERC721.sol\":4276:4309  ERC721InvalidReceiver(address(0)) */\n      mload(0x40)\n      0x64a0ae9200000000000000000000000000000000000000000000000000000000\n      dup2\n      mstore\n      0x04\n      add\n      tag_140\n      swap2\n      swap1\n      tag_42\n      jump\t// in\n    tag_140:\n      mload(0x40)\n      dup1\n      swap2\n      sub\n      swap1\n      revert\n        /* \"@openzeppelin/contracts/token/ERC721/ERC721.sol\":4233:4320  if (to == address(0)) {... */\n    tag_139:\n        /* \"@openzeppelin/contracts/token/ERC721/ERC721.sol\":4538:4559  address previousOwner */\n      0x00\n        /* \"@openzeppelin/contracts/token/ERC721/ERC721.sol\":4562:4596  _update(to, tokenId, _msgSender()) */\n      tag_141\n        /* \"@openzeppelin/contracts/token/ERC721/ERC721.sol\":4570:4572  to */\n      dup4\n        /* \"@openzeppelin/contracts/token/ERC721/ERC721.sol\":4574:4581  tokenId */\n      dup4\n        /* \"@openzeppelin/contracts/token/ERC721/ERC721.sol\":4583:4595  _msgSender() */\n      tag_142\n        /* \"@openzeppelin/contracts/token/ERC721/ERC721.sol\":4583:4593  _msgSender */\n      tag_133\n        /* \"@openzeppelin/contracts/token/ERC721/ERC721.sol\":4583:4595  _msgSender() */\n      jump\t// in\n    tag_142:\n        /* \"@openzeppelin/contracts/token/ERC721/ERC721.sol\":4562:4569  _update */\n      tag_143\n        /* \"@openzeppelin/contracts/token/ERC721/ERC721.sol\":4562:4596  _update(to, tokenId, _msgSender()) */\n      jump\t// in\n    tag_141:\n        /* \"@openzeppelin/contracts/token/ERC721/ERC721.sol\":4538:4596  address previousOwner = _update(to, tokenId, _msgSender()) */\n      swap1\n      pop\n        /* \"@openzeppelin/contracts/token/ERC721/ERC721.sol\":4627:4631  from */\n      dup4\n        /* \"@openzeppelin/contracts/token/ERC721/ERC721.sol\":4610:4631  previousOwner != from */\n      0xffffffffffffffffffffffffffffffffffffffff\n      and\n        /* \"@openzeppelin/contracts/token/ERC721/ERC721.sol\":4610:4623  previousOwner */\n      dup2\n        /* \"@openzeppelin/contracts/token/ERC721/ERC721.sol\":4610:4631  previousOwner != from */\n      0xffffffffffffffffffffffffffffffffffffffff\n      and\n      eq\n        /* \"@openzeppelin/contracts/token/ERC721/ERC721.sol\":4606:4715  if (previousOwner != from) {... */\n      tag_144\n      jumpi\n        /* \"@openzeppelin/contracts/token/ERC721/ERC721.sol\":4675:4679  from */\n      dup4\n        /* \"@openzeppelin/contracts/token/ERC721/ERC721.sol\":4681:4688  tokenId */\n      dup3\n        /* \"@openzeppelin/contracts/token/ERC721/ERC721.sol\":4690:4703  previousOwner */\n      dup3\n        /* \"@openzeppelin/contracts/token/ERC721/ERC721.sol\":4654:4704  ERC721IncorrectOwner(from, tokenId, previousOwner) */\n      mload(0x40)\n      0x64283d7b00000000000000000000000000000000000000000000000000000000\n      dup2\n      mstore\n      0x04\n      add\n      tag_145\n      swap4\n      swap3\n      swap2\n      swap1\n      tag_146\n      jump\t// in\n    tag_145:\n      mload(0x40)\n      dup1\n      swap2\n      sub\n      swap1\n      revert\n        /* \"@openzeppelin/contracts/token/ERC721/ERC721.sol\":4606:4715  if (previousOwner != from) {... */\n    tag_144:\n        /* \"@openzeppelin/contracts/token/ERC721/ERC721.sol\":4223:4721  {... */\n      pop\n        /* \"@openzeppelin/contracts/token/ERC721/ERC721.sol\":4143:4721  function transferFrom(address from, address to, uint256 tokenId) public virtual {... */\n      pop\n      pop\n      pop\n      jump\t// out\n        /* \"contracts/SafeT.sol\":559:613  mapping(uint256 => RentalDetails) public rentalDetails */\n    tag_58:\n      mstore(0x20, 0x07)\n      dup1\n      0x00\n      mstore\n      keccak256(0x00, 0x40)\n      0x00\n      swap2\n      pop\n      swap1\n      pop\n      dup1\n      0x00\n      add\n      sload\n      swap1\n      dup1\n      0x01\n      add\n      sload\n      swap1\n      dup1\n      0x02\n      add\n      sload\n      swap1\n      dup1\n      0x03\n      add\n      sload\n      swap1\n      dup1\n      0x04\n      add\n      0x00\n      swap1\n      sload\n      swap1\n      0x0100\n      exp\n      swap1\n      div\n      0xff\n      and\n      swap1\n      pop\n      dup6\n      jump\t// out\n        /* \"contracts/SafeT.sol\":1671:2175  function setRentalDetails(... */\n    tag_64:\n        /* \"@openzeppelin/contracts/access/Ownable.sol\":1531:1544  _checkOwner() */\n      tag_148\n        /* \"@openzeppelin/contracts/access/Ownable.sol\":1531:1542  _checkOwner */\n      tag_149\n        /* \"@openzeppelin/contracts/access/Ownable.sol\":1531:1544  _checkOwner() */\n      jump\t// in\n    tag_148:\n        /* \"contracts/SafeT.sol\":1965:2168  RentalDetails({... */\n      mload(0x40)\n      dup1\n      0xa0\n      add\n      0x40\n      mstore\n      dup1\n        /* \"contracts/SafeT.sol\":2005:2015  rentAmount */\n      dup6\n        /* \"contracts/SafeT.sol\":1965:2168  RentalDetails({... */\n      dup2\n      mstore\n      0x20\n      add\n        /* \"contracts/SafeT.sol\":2046:2061  securityDeposit */\n      dup5\n        /* \"contracts/SafeT.sol\":1965:2168  RentalDetails({... */\n      dup2\n      mstore\n      0x20\n      add\n        /* \"contracts/SafeT.sol\":2087:2097  leaseStart */\n      dup4\n        /* \"contracts/SafeT.sol\":1965:2168  RentalDetails({... */\n      dup2\n      mstore\n      0x20\n      add\n        /* \"contracts/SafeT.sol\":2121:2129  leaseEnd */\n      dup3\n        /* \"contracts/SafeT.sol\":1965:2168  RentalDetails({... */\n      dup2\n      mstore\n      0x20\n      add\n        /* \"contracts/SafeT.sol\":2153:2157  true */\n      0x01\n        /* \"contracts/SafeT.sol\":1965:2168  RentalDetails({... */\n      iszero\n      iszero\n      dup2\n      mstore\n      pop\n        /* \"contracts/SafeT.sol\":1940:1953  rentalDetails */\n      0x07\n        /* \"contracts/SafeT.sol\":1940:1962  rentalDetails[tokenId] */\n      0x00\n        /* \"contracts/SafeT.sol\":1954:1961  tokenId */\n      dup8\n        /* \"contracts/SafeT.sol\":1940:1962  rentalDetails[tokenId] */\n      dup2\n      mstore\n      0x20\n      add\n      swap1\n      dup2\n      mstore\n      0x20\n      add\n      0x00\n      keccak256\n        /* \"contracts/SafeT.sol\":1940:2168  rentalDetails[tokenId] = RentalDetails({... */\n      0x00\n      dup3\n      add\n      mload\n      dup2\n      0x00\n      add\n      sstore\n      0x20\n      dup3\n      add\n      mload\n      dup2\n      0x01\n      add\n      sstore\n      0x40\n      dup3\n      add\n      mload\n      dup2\n      0x02\n      add\n      sstore\n      0x60\n      dup3\n      add\n      mload\n      dup2\n      0x03\n      add\n      sstore\n      0x80\n      dup3\n      add\n      mload\n      dup2\n      0x04\n      add\n      exp(0x0100, 0x00)\n      dup2\n      sload\n      dup2\n      0xff\n      mul\n      not\n      and\n      swap1\n      dup4\n      iszero\n      iszero\n      mul\n      or\n      swap1\n      sstore\n      pop\n      swap1\n      pop\n      pop\n        /* \"contracts/SafeT.sol\":1671:2175  function setRentalDetails(... */\n      pop\n      pop\n      pop\n      pop\n      pop\n      jump\t// out\n        /* \"@openzeppelin/contracts/token/ERC721/ERC721.sol\":4787:4919  function safeTransferFrom(address from, address to, uint256 tokenId) public {... */\n    tag_67:\n        /* \"@openzeppelin/contracts/token/ERC721/ERC721.sol\":4873:4912  safeTransferFrom(from, to, tokenId, \"\") */\n      tag_152\n        /* \"@openzeppelin/contracts/token/ERC721/ERC721.sol\":4890:4894  from */\n      dup4\n        /* \"@openzeppelin/contracts/token/ERC721/ERC721.sol\":4896:4898  to */\n      dup4\n        /* \"@openzeppelin/contracts/token/ERC721/ERC721.sol\":4900:4907  tokenId */\n      dup4\n        /* \"@openzeppelin/contracts/token/ERC721/ERC721.sol\":4873:4912  safeTransferFrom(from, to, tokenId, \"\") */\n      mload(0x40)\n      dup1\n      0x20\n      add\n      0x40\n      mstore\n      dup1\n      0x00\n      dup2\n      mstore\n      pop\n        /* \"@openzeppelin/contracts/token/ERC721/ERC721.sol\":4873:4889  safeTransferFrom */\n      tag_100\n        /* \"@openzeppelin/contracts/token/ERC721/ERC721.sol\":4873:4912  safeTransferFrom(from, to, tokenId, \"\") */\n      jump\t// in\n    tag_152:\n        /* \"@openzeppelin/contracts/token/ERC721/ERC721.sol\":4787:4919  function safeTransferFrom(address from, address to, uint256 tokenId) public {... */\n      pop\n      pop\n      pop\n      jump\t// out\n        /* \"@openzeppelin/contracts/token/ERC721/ERC721.sol\":2185:2303  function ownerOf(uint256 tokenId) public view virtual returns (address) {... */\n    tag_70:\n        /* \"@openzeppelin/contracts/token/ERC721/ERC721.sol\":2248:2255  address */\n      0x00\n        /* \"@openzeppelin/contracts/token/ERC721/ERC721.sol\":2274:2296  _requireOwned(tokenId) */\n      tag_154\n        /* \"@openzeppelin/contracts/token/ERC721/ERC721.sol\":2288:2295  tokenId */\n      dup3\n        /* \"@openzeppelin/contracts/token/ERC721/ERC721.sol\":2274:2287  _requireOwned */\n      tag_127\n        /* \"@openzeppelin/contracts/token/ERC721/ERC721.sol\":2274:2296  _requireOwned(tokenId) */\n      jump\t// in\n    tag_154:\n        /* \"@openzeppelin/contracts/token/ERC721/ERC721.sol\":2267:2296  return _requireOwned(tokenId) */\n      swap1\n      pop\n        /* \"@openzeppelin/contracts/token/ERC721/ERC721.sol\":2185:2303  function ownerOf(uint256 tokenId) public view virtual returns (address) {... */\n      swap2\n      swap1\n      pop\n      jump\t// out\n        /* \"@openzeppelin/contracts/token/ERC721/ERC721.sol\":1920:2128  function balanceOf(address owner) public view virtual returns (uint256) {... */\n    tag_75:\n        /* \"@openzeppelin/contracts/token/ERC721/ERC721.sol\":1983:1990  uint256 */\n      0x00\n        /* \"@openzeppelin/contracts/token/ERC721/ERC721.sol\":2023:2024  0 */\n      dup1\n        /* \"@openzeppelin/contracts/token/ERC721/ERC721.sol\":2006:2025  owner == address(0) */\n      0xffffffffffffffffffffffffffffffffffffffff\n      and\n        /* \"@openzeppelin/contracts/token/ERC721/ERC721.sol\":2006:2011  owner */\n      dup3\n        /* \"@openzeppelin/contracts/token/ERC721/ERC721.sol\":2006:2025  owner == address(0) */\n      0xffffffffffffffffffffffffffffffffffffffff\n      and\n      sub\n        /* \"@openzeppelin/contracts/token/ERC721/ERC721.sol\":2002:2089  if (owner == address(0)) {... */\n      tag_156\n      jumpi\n        /* \"@openzeppelin/contracts/token/ERC721/ERC721.sol\":2075:2076  0 */\n      0x00\n        /* \"@openzeppelin/contracts/token/ERC721/ERC721.sol\":2048:2078  ERC721InvalidOwner(address(0)) */\n      mload(0x40)\n      0x89c62b6400000000000000000000000000000000000000000000000000000000\n      dup2\n      mstore\n      0x04\n      add\n      tag_157\n      swap2\n      swap1\n      tag_42\n      jump\t// in\n    tag_157:\n      mload(0x40)\n      dup1\n      swap2\n      sub\n      swap1\n      revert\n        /* \"@openzeppelin/contracts/token/ERC721/ERC721.sol\":2002:2089  if (owner == address(0)) {... */\n    tag_156:\n        /* \"@openzeppelin/contracts/token/ERC721/ERC721.sol\":2105:2114  _balances */\n      0x03\n        /* \"@openzeppelin/contracts/token/ERC721/ERC721.sol\":2105:2121  _balances[owner] */\n      0x00\n        /* \"@openzeppelin/contracts/token/ERC721/ERC721.sol\":2115:2120  owner */\n      dup4\n        /* \"@openzeppelin/contracts/token/ERC721/ERC721.sol\":2105:2121  _balances[owner] */\n      0xffffffffffffffffffffffffffffffffffffffff\n      and\n      0xffffffffffffffffffffffffffffffffffffffff\n      and\n      dup2\n      mstore\n      0x20\n      add\n      swap1\n      dup2\n      mstore\n      0x20\n      add\n      0x00\n      keccak256\n      sload\n        /* \"@openzeppelin/contracts/token/ERC721/ERC721.sol\":2098:2121  return _balances[owner] */\n      swap1\n      pop\n        /* \"@openzeppelin/contracts/token/ERC721/ERC721.sol\":1920:2128  function balanceOf(address owner) public view virtual returns (uint256) {... */\n      swap2\n      swap1\n      pop\n      jump\t// out\n        /* \"@openzeppelin/contracts/access/Ownable.sol\":2293:2394  function renounceOwnership() public virtual onlyOwner {... */\n    tag_79:\n        /* \"@openzeppelin/contracts/access/Ownable.sol\":1531:1544  _checkOwner() */\n      tag_159\n        /* \"@openzeppelin/contracts/access/Ownable.sol\":1531:1542  _checkOwner */\n      tag_149\n        /* \"@openzeppelin/contracts/access/Ownable.sol\":1531:1544  _checkOwner() */\n      jump\t// in\n    tag_159:\n        /* \"@openzeppelin/contracts/access/Ownable.sol\":2357:2387  _transferOwnership(address(0)) */\n      tag_161\n        /* \"@openzeppelin/contracts/access/Ownable.sol\":2384:2385  0 */\n      0x00\n        /* \"@openzeppelin/contracts/access/Ownable.sol\":2357:2375  _transferOwnership */\n      tag_162\n        /* \"@openzeppelin/contracts/access/Ownable.sol\":2357:2387  _transferOwnership(address(0)) */\n      jump\t// in\n    tag_161:\n        /* \"@openzeppelin/contracts/access/Ownable.sol\":2293:2394  function renounceOwnership() public virtual onlyOwner {... */\n      jump\t// out\n        /* \"@openzeppelin/contracts/access/Ownable.sol\":1638:1723  function owner() public view virtual returns (address) {... */\n    tag_81:\n        /* \"@openzeppelin/contracts/access/Ownable.sol\":1684:1691  address */\n      0x00\n        /* \"@openzeppelin/contracts/access/Ownable.sol\":1710:1716  _owner */\n      0x06\n      0x00\n      swap1\n      sload\n      swap1\n      0x0100\n      exp\n      swap1\n      div\n      0xffffffffffffffffffffffffffffffffffffffff\n      and\n        /* \"@openzeppelin/contracts/access/Ownable.sol\":1703:1716  return _owner */\n      swap1\n      pop\n        /* \"@openzeppelin/contracts/access/Ownable.sol\":1638:1723  function owner() public view virtual returns (address) {... */\n      swap1\n      jump\t// out\n        /* \"contracts/SafeT.sol\":2181:2359  function endLease(uint256 tokenId) public onlyOwner {... */\n    tag_85:\n        /* \"@openzeppelin/contracts/access/Ownable.sol\":1531:1544  _checkOwner() */\n      tag_165\n        /* \"@openzeppelin/contracts/access/Ownable.sol\":1531:1542  _checkOwner */\n      tag_149\n        /* \"@openzeppelin/contracts/access/Ownable.sol\":1531:1544  _checkOwner() */\n      jump\t// in\n    tag_165:\n        /* \"contracts/SafeT.sol\":2347:2352  false */\n      0x00\n        /* \"contracts/SafeT.sol\":2313:2326  rentalDetails */\n      0x07\n        /* \"contracts/SafeT.sol\":2313:2335  rentalDetails[tokenId] */\n      0x00\n        /* \"contracts/SafeT.sol\":2327:2334  tokenId */\n      dup4\n        /* \"contracts/SafeT.sol\":2313:2335  rentalDetails[tokenId] */\n      dup2\n      mstore\n      0x20\n      add\n      swap1\n      dup2\n      mstore\n      0x20\n      add\n      0x00\n      keccak256\n        /* \"contracts/SafeT.sol\":2313:2344  rentalDetails[tokenId].isLeased */\n      0x04\n      add\n      0x00\n        /* \"contracts/SafeT.sol\":2313:2352  rentalDetails[tokenId].isLeased = false */\n      0x0100\n      exp\n      dup2\n      sload\n      dup2\n      0xff\n      mul\n      not\n      and\n      swap1\n      dup4\n      iszero\n      iszero\n      mul\n      or\n      swap1\n      sstore\n      pop\n        /* \"contracts/SafeT.sol\":2181:2359  function endLease(uint256 tokenId) public onlyOwner {... */\n      pop\n      jump\t// out\n        /* \"@openzeppelin/contracts/token/ERC721/ERC721.sol\":2518:2611  function symbol() public view virtual returns (string memory) {... */\n    tag_87:\n        /* \"@openzeppelin/contracts/token/ERC721/ERC721.sol\":2565:2578  string memory */\n      0x60\n        /* \"@openzeppelin/contracts/token/ERC721/ERC721.sol\":2597:2604  _symbol */\n      0x01\n        /* \"@openzeppelin/contracts/token/ERC721/ERC721.sol\":2590:2604  return _symbol */\n      dup1\n      sload\n      tag_168\n      swap1\n      tag_120\n      jump\t// in\n    tag_168:\n      dup1\n      0x1f\n      add\n      0x20\n      dup1\n      swap2\n      div\n      mul\n      0x20\n      add\n      mload(0x40)\n      swap1\n      dup2\n      add\n      0x40\n      mstore\n      dup1\n      swap3\n      swap2\n      swap1\n      dup2\n      dup2\n      mstore\n      0x20\n      add\n      dup3\n      dup1\n      sload\n      tag_169\n      swap1\n      tag_120\n      jump\t// in\n    tag_169:\n      dup1\n      iszero\n      tag_170\n      jumpi\n      dup1\n      0x1f\n      lt\n      tag_171\n      jumpi\n      0x0100\n      dup1\n      dup4\n      sload\n      div\n      mul\n      dup4\n      mstore\n      swap2\n      0x20\n      add\n      swap2\n      jump(tag_170)\n    tag_171:\n      dup3\n      add\n      swap2\n      swap1\n      0x00\n      mstore\n      keccak256(0x00, 0x20)\n      swap1\n    tag_172:\n      dup2\n      sload\n      dup2\n      mstore\n      swap1\n      0x01\n      add\n      swap1\n      0x20\n      add\n      dup1\n      dup4\n      gt\n      tag_172\n      jumpi\n      dup3\n      swap1\n      sub\n      0x1f\n      and\n      dup3\n      add\n      swap2\n    tag_170:\n      pop\n      pop\n      pop\n      pop\n      pop\n      swap1\n      pop\n        /* \"@openzeppelin/contracts/token/ERC721/ERC721.sol\":2518:2611  function symbol() public view virtual returns (string memory) {... */\n      swap1\n      jump\t// out\n        /* \"contracts/SafeT.sol\":727:1665  function safeMint(... */\n    tag_92:\n        /* \"@openzeppelin/contracts/access/Ownable.sol\":1531:1544  _checkOwner() */\n      tag_174\n        /* \"@openzeppelin/contracts/access/Ownable.sol\":1531:1542  _checkOwner */\n      tag_149\n        /* \"@openzeppelin/contracts/access/Ownable.sol\":1531:1544  _checkOwner() */\n      jump\t// in\n    tag_174:\n        /* \"contracts/SafeT.sol\":957:958  0 */\n      0x00\n        /* \"contracts/SafeT.sol\":946:953  tokenId */\n      dup6\n        /* \"contracts/SafeT.sol\":946:958  tokenId != 0 */\n      sub\n        /* \"contracts/SafeT.sol\":938:995  require(tokenId != 0, \"SafeT: token id must be provided\") */\n      tag_176\n      jumpi\n      mload(0x40)\n      0x08c379a000000000000000000000000000000000000000000000000000000000\n      dup2\n      mstore\n      0x04\n      add\n      tag_177\n      swap1\n      tag_178\n      jump\t// in\n    tag_177:\n      mload(0x40)\n      dup1\n      swap2\n      sub\n      swap1\n      revert\n    tag_176:\n        /* \"contracts/SafeT.sol\":1026:1027  0 */\n      0x00\n        /* \"contracts/SafeT.sol\":1013:1023  rentAmount */\n      dup5\n        /* \"contracts/SafeT.sol\":1013:1027  rentAmount > 0 */\n      gt\n        /* \"contracts/SafeT.sol\":1005:1073  require(rentAmount > 0, \"SafeT: rent amount must be greater than 0\") */\n      tag_179\n      jumpi\n      mload(0x40)\n      0x08c379a000000000000000000000000000000000000000000000000000000000\n      dup2\n      mstore\n      0x04\n      add\n      tag_180\n      swap1\n      tag_181\n      jump\t// in\n    tag_180:\n      mload(0x40)\n      dup1\n      swap2\n      sub\n      swap1\n      revert\n    tag_179:\n        /* \"contracts/SafeT.sol\":1109:1110  0 */\n      0x00\n        /* \"contracts/SafeT.sol\":1091:1106  securityDeposit */\n      dup4\n        /* \"contracts/SafeT.sol\":1091:1110  securityDeposit > 0 */\n      gt\n        /* \"contracts/SafeT.sol\":1083:1161  require(securityDeposit > 0, \"SafeT: security deposit must be greater than 0\") */\n      tag_182\n      jumpi\n      mload(0x40)\n      0x08c379a000000000000000000000000000000000000000000000000000000000\n      dup2\n      mstore\n      0x04\n      add\n      tag_183\n      swap1\n      tag_184\n      jump\t// in\n    tag_183:\n      mload(0x40)\n      dup1\n      swap2\n      sub\n      swap1\n      revert\n    tag_182:\n        /* \"contracts/SafeT.sol\":1193:1208  block.timestamp */\n      timestamp\n        /* \"contracts/SafeT.sol\":1179:1189  leaseStart */\n      dup3\n        /* \"contracts/SafeT.sol\":1179:1208  leaseStart >= block.timestamp */\n      lt\n      iszero\n        /* \"contracts/SafeT.sol\":1171:1282  require(leaseStart >= block.timestamp, \"SafeT: lease start must be greater than or equal to current timestamp\") */\n      tag_185\n      jumpi\n      mload(0x40)\n      0x08c379a000000000000000000000000000000000000000000000000000000000\n      dup2\n      mstore\n      0x04\n      add\n      tag_186\n      swap1\n      tag_187\n      jump\t// in\n    tag_186:\n      mload(0x40)\n      dup1\n      swap2\n      sub\n      swap1\n      revert\n    tag_185:\n        /* \"contracts/SafeT.sol\":1312:1322  leaseStart */\n      dup2\n        /* \"contracts/SafeT.sol\":1300:1308  leaseEnd */\n      dup2\n        /* \"contracts/SafeT.sol\":1300:1322  leaseEnd >= leaseStart */\n      lt\n      iszero\n        /* \"contracts/SafeT.sol\":1292:1388  require(leaseEnd >= leaseStart, \"SafeT: lease end must be greater than or equal to lease start\") */\n      tag_188\n      jumpi\n      mload(0x40)\n      0x08c379a000000000000000000000000000000000000000000000000000000000\n      dup2\n      mstore\n      0x04\n      add\n      tag_189\n      swap1\n      tag_190\n      jump\t// in\n    tag_189:\n      mload(0x40)\n      dup1\n      swap2\n      sub\n      swap1\n      revert\n    tag_188:\n        /* \"contracts/SafeT.sol\":1398:1420  _safeMint(to, tokenId) */\n      tag_191\n        /* \"contracts/SafeT.sol\":1408:1410  to */\n      dup7\n        /* \"contracts/SafeT.sol\":1412:1419  tokenId */\n      dup7\n        /* \"contracts/SafeT.sol\":1398:1407  _safeMint */\n      tag_192\n        /* \"contracts/SafeT.sol\":1398:1420  _safeMint(to, tokenId) */\n      jump\t// in\n    tag_191:\n        /* \"contracts/SafeT.sol\":1455:1658  RentalDetails({... */\n      mload(0x40)\n      dup1\n      0xa0\n      add\n      0x40\n      mstore\n      dup1\n        /* \"contracts/SafeT.sol\":1495:1505  rentAmount */\n      dup6\n        /* \"contracts/SafeT.sol\":1455:1658  RentalDetails({... */\n      dup2\n      mstore\n      0x20\n      add\n        /* \"contracts/SafeT.sol\":1536:1551  securityDeposit */\n      dup5\n        /* \"contracts/SafeT.sol\":1455:1658  RentalDetails({... */\n      dup2\n      mstore\n      0x20\n      add\n        /* \"contracts/SafeT.sol\":1577:1587  leaseStart */\n      dup4\n        /* \"contracts/SafeT.sol\":1455:1658  RentalDetails({... */\n      dup2\n      mstore\n      0x20\n      add\n        /* \"contracts/SafeT.sol\":1611:1619  leaseEnd */\n      dup3\n        /* \"contracts/SafeT.sol\":1455:1658  RentalDetails({... */\n      dup2\n      mstore\n      0x20\n      add\n        /* \"contracts/SafeT.sol\":1643:1647  true */\n      0x01\n        /* \"contracts/SafeT.sol\":1455:1658  RentalDetails({... */\n      iszero\n      iszero\n      dup2\n      mstore\n      pop\n        /* \"contracts/SafeT.sol\":1430:1443  rentalDetails */\n      0x07\n        /* \"contracts/SafeT.sol\":1430:1452  rentalDetails[tokenId] */\n      0x00\n        /* \"contracts/SafeT.sol\":1444:1451  tokenId */\n      dup8\n        /* \"contracts/SafeT.sol\":1430:1452  rentalDetails[tokenId] */\n      dup2\n      mstore\n      0x20\n      add\n      swap1\n      dup2\n      mstore\n      0x20\n      add\n      0x00\n      keccak256\n        /* \"contracts/SafeT.sol\":1430:1658  rentalDetails[tokenId] = RentalDetails({... */\n      0x00\n      dup3\n      add\n      mload\n      dup2\n      0x00\n      add\n      sstore\n      0x20\n      dup3\n      add\n      mload\n      dup2\n      0x01\n      add\n      sstore\n      0x40\n      dup3\n      add\n      mload\n      dup2\n      0x02\n      add\n      sstore\n      0x60\n      dup3\n      add\n      mload\n      dup2\n      0x03\n      add\n      sstore\n      0x80\n      dup3\n      add\n      mload\n      dup2\n      0x04\n      add\n      exp(0x0100, 0x00)\n      dup2\n      sload\n      dup2\n      0xff\n      mul\n      not\n      and\n      swap1\n      dup4\n      iszero\n      iszero\n      mul\n      or\n      swap1\n      sstore\n      pop\n      swap1\n      pop\n      pop\n        /* \"contracts/SafeT.sol\":727:1665  function safeMint(... */\n      pop\n      pop\n      pop\n      pop\n      pop\n      pop\n      jump\t// out\n        /* \"@openzeppelin/contracts/token/ERC721/ERC721.sol\":3718:3862  function setApprovalForAll(address operator, bool approved) public virtual {... */\n    tag_96:\n        /* \"@openzeppelin/contracts/token/ERC721/ERC721.sol\":3803:3855  _setApprovalForAll(_msgSender(), operator, approved) */\n      tag_194\n        /* \"@openzeppelin/contracts/token/ERC721/ERC721.sol\":3822:3834  _msgSender() */\n      tag_195\n        /* \"@openzeppelin/contracts/token/ERC721/ERC721.sol\":3822:3832  _msgSender */\n      tag_133\n        /* \"@openzeppelin/contracts/token/ERC721/ERC721.sol\":3822:3834  _msgSender() */\n      jump\t// in\n    tag_195:\n        /* \"@openzeppelin/contracts/token/ERC721/ERC721.sol\":3836:3844  operator */\n      dup4\n        /* \"@openzeppelin/contracts/token/ERC721/ERC721.sol\":3846:3854  approved */\n      dup4\n        /* \"@openzeppelin/contracts/token/ERC721/ERC721.sol\":3803:3821  _setApprovalForAll */\n      tag_196\n        /* \"@openzeppelin/contracts/token/ERC721/ERC721.sol\":3803:3855  _setApprovalForAll(_msgSender(), operator, approved) */\n      jump\t// in\n    tag_194:\n        /* \"@openzeppelin/contracts/token/ERC721/ERC721.sol\":3718:3862  function setApprovalForAll(address operator, bool approved) public virtual {... */\n      pop\n      pop\n      jump\t// out\n        /* \"@openzeppelin/contracts/token/ERC721/ERC721.sol\":4985:5193  function safeTransferFrom(address from, address to, uint256 tokenId, bytes memory data) public virtual {... */\n    tag_100:\n        /* \"@openzeppelin/contracts/token/ERC721/ERC721.sol\":5098:5129  transferFrom(from, to, tokenId) */\n      tag_198\n        /* \"@openzeppelin/contracts/token/ERC721/ERC721.sol\":5111:5115  from */\n      dup5\n        /* \"@openzeppelin/contracts/token/ERC721/ERC721.sol\":5117:5119  to */\n      dup5\n        /* \"@openzeppelin/contracts/token/ERC721/ERC721.sol\":5121:5128  tokenId */\n      dup5\n        /* \"@openzeppelin/contracts/token/ERC721/ERC721.sol\":5098:5110  transferFrom */\n      tag_55\n        /* \"@openzeppelin/contracts/token/ERC721/ERC721.sol\":5098:5129  transferFrom(from, to, tokenId) */\n      jump\t// in\n    tag_198:\n        /* \"@openzeppelin/contracts/token/ERC721/ERC721.sol\":5139:5186  _checkOnERC721Received(from, to, tokenId, data) */\n      tag_199\n        /* \"@openzeppelin/contracts/token/ERC721/ERC721.sol\":5162:5166  from */\n      dup5\n        /* \"@openzeppelin/contracts/token/ERC721/ERC721.sol\":5168:5170  to */\n      dup5\n        /* \"@openzeppelin/contracts/token/ERC721/ERC721.sol\":5172:5179  tokenId */\n      dup5\n        /* \"@openzeppelin/contracts/token/ERC721/ERC721.sol\":5181:5185  data */\n      dup5\n        /* \"@openzeppelin/contracts/token/ERC721/ERC721.sol\":5139:5161  _checkOnERC721Received */\n      tag_200\n        /* \"@openzeppelin/contracts/token/ERC721/ERC721.sol\":5139:5186  _checkOnERC721Received(from, to, tokenId, data) */\n      jump\t// in\n    tag_199:\n        /* \"@openzeppelin/contracts/token/ERC721/ERC721.sol\":4985:5193  function safeTransferFrom(address from, address to, uint256 tokenId, bytes memory data) public virtual {... */\n      pop\n      pop\n      pop\n      pop\n      jump\t// out\n        /* \"@openzeppelin/contracts/token/ERC721/ERC721.sol\":2677:2932  function tokenURI(uint256 tokenId) public view virtual returns (string memory) {... */\n    tag_103:\n        /* \"@openzeppelin/contracts/token/ERC721/ERC721.sol\":2741:2754  string memory */\n      0x60\n        /* \"@openzeppelin/contracts/token/ERC721/ERC721.sol\":2766:2788  _requireOwned(tokenId) */\n      tag_202\n        /* \"@openzeppelin/contracts/token/ERC721/ERC721.sol\":2780:2787  tokenId */\n      dup3\n        /* \"@openzeppelin/contracts/token/ERC721/ERC721.sol\":2766:2779  _requireOwned */\n      tag_127\n        /* \"@openzeppelin/contracts/token/ERC721/ERC721.sol\":2766:2788  _requireOwned(tokenId) */\n      jump\t// in\n    tag_202:\n      pop\n        /* \"@openzeppelin/contracts/token/ERC721/ERC721.sol\":2799:2820  string memory baseURI */\n      0x00\n        /* \"@openzeppelin/contracts/token/ERC721/ERC721.sol\":2823:2833  _baseURI() */\n      tag_203\n        /* \"@openzeppelin/contracts/token/ERC721/ERC721.sol\":2823:2831  _baseURI */\n      tag_204\n        /* \"@openzeppelin/contracts/token/ERC721/ERC721.sol\":2823:2833  _baseURI() */\n      jump\t// in\n    tag_203:\n        /* \"@openzeppelin/contracts/token/ERC721/ERC721.sol\":2799:2833  string memory baseURI = _baseURI() */\n      swap1\n      pop\n        /* \"@openzeppelin/contracts/token/ERC721/ERC721.sol\":2874:2875  0 */\n      0x00\n        /* \"@openzeppelin/contracts/token/ERC721/ERC721.sol\":2856:2863  baseURI */\n      dup2\n        /* \"@openzeppelin/contracts/token/ERC721/ERC721.sol\":2850:2871  bytes(baseURI).length */\n      mload\n        /* \"@openzeppelin/contracts/token/ERC721/ERC721.sol\":2850:2875  bytes(baseURI).length > 0 */\n      gt\n        /* \"@openzeppelin/contracts/token/ERC721/ERC721.sol\":2850:2925  bytes(baseURI).length > 0 ? string.concat(baseURI, tokenId.toString()) : \"\" */\n      tag_205\n      jumpi\n      mload(0x40)\n      dup1\n      0x20\n      add\n      0x40\n      mstore\n      dup1\n      0x00\n      dup2\n      mstore\n      pop\n      jump(tag_206)\n    tag_205:\n        /* \"@openzeppelin/contracts/token/ERC721/ERC721.sol\":2892:2899  baseURI */\n      dup1\n        /* \"@openzeppelin/contracts/token/ERC721/ERC721.sol\":2901:2919  tokenId.toString() */\n      tag_207\n        /* \"@openzeppelin/contracts/token/ERC721/ERC721.sol\":2901:2908  tokenId */\n      dup5\n        /* \"@openzeppelin/contracts/token/ERC721/ERC721.sol\":2901:2917  tokenId.toString */\n      tag_208\n        /* \"@openzeppelin/contracts/token/ERC721/ERC721.sol\":2901:2919  tokenId.toString() */\n      jump\t// in\n    tag_207:\n        /* \"@openzeppelin/contracts/token/ERC721/ERC721.sol\":2878:2920  string.concat(baseURI, tokenId.toString()) */\n      add(0x20, mload(0x40))\n      tag_209\n      swap3\n      swap2\n      swap1\n      tag_210\n      jump\t// in\n    tag_209:\n      mload(0x40)\n      0x20\n      dup2\n      dup4\n      sub\n      sub\n      dup2\n      mstore\n      swap1\n      0x40\n      mstore\n        /* \"@openzeppelin/contracts/token/ERC721/ERC721.sol\":2850:2925  bytes(baseURI).length > 0 ? string.concat(baseURI, tokenId.toString()) : \"\" */\n    tag_206:\n        /* \"@openzeppelin/contracts/token/ERC721/ERC721.sol\":2843:2925  return bytes(baseURI).length > 0 ? string.concat(baseURI, tokenId.toString()) : \"\" */\n      swap2\n      pop\n      pop\n        /* \"@openzeppelin/contracts/token/ERC721/ERC721.sol\":2677:2932  function tokenURI(uint256 tokenId) public view virtual returns (string memory) {... */\n      swap2\n      swap1\n      pop\n      jump\t// out\n        /* \"@openzeppelin/contracts/token/ERC721/ERC721.sol\":3928:4081  function isApprovedForAll(address owner, address operator) public view virtual returns (bool) {... */\n    tag_108:\n        /* \"@openzeppelin/contracts/token/ERC721/ERC721.sol\":4016:4020  bool */\n      0x00\n        /* \"@openzeppelin/contracts/token/ERC721/ERC721.sol\":4039:4057  _operatorApprovals */\n      0x05\n        /* \"@openzeppelin/contracts/token/ERC721/ERC721.sol\":4039:4064  _operatorApprovals[owner] */\n      0x00\n        /* \"@openzeppelin/contracts/token/ERC721/ERC721.sol\":4058:4063  owner */\n      dup5\n        /* \"@openzeppelin/contracts/token/ERC721/ERC721.sol\":4039:4064  _operatorApprovals[owner] */\n      0xffffffffffffffffffffffffffffffffffffffff\n      and\n      0xffffffffffffffffffffffffffffffffffffffff\n      and\n      dup2\n      mstore\n      0x20\n      add\n      swap1\n      dup2\n      mstore\n      0x20\n      add\n      0x00\n      keccak256\n        /* \"@openzeppelin/contracts/token/ERC721/ERC721.sol\":4039:4074  _operatorApprovals[owner][operator] */\n      0x00\n        /* \"@openzeppelin/contracts/token/ERC721/ERC721.sol\":4065:4073  operator */\n      dup4\n        /* \"@openzeppelin/contracts/token/ERC721/ERC721.sol\":4039:4074  _operatorApprovals[owner][operator] */\n      0xffffffffffffffffffffffffffffffffffffffff\n      and\n      0xffffffffffffffffffffffffffffffffffffffff\n      and\n      dup2\n      mstore\n      0x20\n      add\n      swap1\n      dup2\n      mstore\n      0x20\n      add\n      0x00\n      keccak256\n      0x00\n      swap1\n      sload\n      swap1\n      0x0100\n      exp\n      swap1\n      div\n      0xff\n      and\n        /* \"@openzeppelin/contracts/token/ERC721/ERC721.sol\":4032:4074  return _operatorApprovals[owner][operator] */\n      swap1\n      pop\n        /* \"@openzeppelin/contracts/token/ERC721/ERC721.sol\":3928:4081  function isApprovedForAll(address owner, address operator) public view virtual returns (bool) {... */\n      swap3\n      swap2\n      pop\n      pop\n      jump\t// out\n        /* \"@openzeppelin/contracts/access/Ownable.sol\":2543:2758  function transferOwnership(address newOwner) public virtual onlyOwner {... */\n    tag_112:\n        /* \"@openzeppelin/contracts/access/Ownable.sol\":1531:1544  _checkOwner() */\n      tag_213\n        /* \"@openzeppelin/contracts/access/Ownable.sol\":1531:1542  _checkOwner */\n      tag_149\n        /* \"@openzeppelin/contracts/access/Ownable.sol\":1531:1544  _checkOwner() */\n      jump\t// in\n    tag_213:\n        /* \"@openzeppelin/contracts/access/Ownable.sol\":2647:2648  0 */\n      0x00\n        /* \"@openzeppelin/contracts/access/Ownable.sol\":2627:2649  newOwner == address(0) */\n      0xffffffffffffffffffffffffffffffffffffffff\n      and\n        /* \"@openzeppelin/contracts/access/Ownable.sol\":2627:2635  newOwner */\n      dup2\n        /* \"@openzeppelin/contracts/access/Ownable.sol\":2627:2649  newOwner == address(0) */\n      0xffffffffffffffffffffffffffffffffffffffff\n      and\n      sub\n        /* \"@openzeppelin/contracts/access/Ownable.sol\":2623:2714  if (newOwner == address(0)) {... */\n      tag_215\n      jumpi\n        /* \"@openzeppelin/contracts/access/Ownable.sol\":2700:2701  0 */\n      0x00\n        /* \"@openzeppelin/contracts/access/Ownable.sol\":2672:2703  OwnableInvalidOwner(address(0)) */\n      mload(0x40)\n      0x1e4fbdf700000000000000000000000000000000000000000000000000000000\n      dup2\n      mstore\n      0x04\n      add\n      tag_216\n      swap2\n      swap1\n      tag_42\n      jump\t// in\n    tag_216:\n      mload(0x40)\n      dup1\n      swap2\n      sub\n      swap1\n      revert\n        /* \"@openzeppelin/contracts/access/Ownable.sol\":2623:2714  if (newOwner == address(0)) {... */\n    tag_215:\n        /* \"@openzeppelin/contracts/access/Ownable.sol\":2723:2751  _transferOwnership(newOwner) */\n      tag_217\n        /* \"@openzeppelin/contracts/access/Ownable.sol\":2742:2750  newOwner */\n      dup2\n        /* \"@openzeppelin/contracts/access/Ownable.sol\":2723:2741  _transferOwnership */\n      tag_162\n        /* \"@openzeppelin/contracts/access/Ownable.sol\":2723:2751  _transferOwnership(newOwner) */\n      jump\t// in\n    tag_217:\n        /* \"@openzeppelin/contracts/access/Ownable.sol\":2543:2758  function transferOwnership(address newOwner) public virtual onlyOwner {... */\n      pop\n      jump\t// out\n        /* \"@openzeppelin/contracts/utils/introspection/ERC165.sol\":762:908  function supportsInterface(bytes4 interfaceId) public view virtual returns (bool) {... */\n    tag_117:\n        /* \"@openzeppelin/contracts/utils/introspection/ERC165.sol\":838:842  bool */\n      0x00\n        /* \"@openzeppelin/contracts/utils/introspection/ERC165.sol\":876:901  type(IERC165).interfaceId */\n      0x01ffc9a700000000000000000000000000000000000000000000000000000000\n        /* \"@openzeppelin/contracts/utils/introspection/ERC165.sol\":861:901  interfaceId == type(IERC165).interfaceId */\n      not(0xffffffffffffffffffffffffffffffffffffffffffffffffffffffff)\n      and\n        /* \"@openzeppelin/contracts/utils/introspection/ERC165.sol\":861:872  interfaceId */\n      dup3\n        /* \"@openzeppelin/contracts/utils/introspection/ERC165.sol\":861:901  interfaceId == type(IERC165).interfaceId */\n      not(0xffffffffffffffffffffffffffffffffffffffffffffffffffffffff)\n      and\n      eq\n        /* \"@openzeppelin/contracts/utils/introspection/ERC165.sol\":854:901  return interfaceId == type(IERC165).interfaceId */\n      swap1\n      pop\n        /* \"@openzeppelin/contracts/utils/introspection/ERC165.sol\":762:908  function supportsInterface(bytes4 interfaceId) public view virtual returns (bool) {... */\n      swap2\n      swap1\n      pop\n      jump\t// out\n        /* \"@openzeppelin/contracts/token/ERC721/ERC721.sol\":16138:16379  function _requireOwned(uint256 tokenId) internal view returns (address) {... */\n    tag_127:\n        /* \"@openzeppelin/contracts/token/ERC721/ERC721.sol\":16201:16208  address */\n      0x00\n        /* \"@openzeppelin/contracts/token/ERC721/ERC721.sol\":16220:16233  address owner */\n      dup1\n        /* \"@openzeppelin/contracts/token/ERC721/ERC721.sol\":16236:16253  _ownerOf(tokenId) */\n      tag_220\n        /* \"@openzeppelin/contracts/token/ERC721/ERC721.sol\":16245:16252  tokenId */\n      dup4\n        /* \"@openzeppelin/contracts/token/ERC721/ERC721.sol\":16236:16244  _ownerOf */\n      tag_221\n        /* \"@openzeppelin/contracts/token/ERC721/ERC721.sol\":16236:16253  _ownerOf(tokenId) */\n      jump\t// in\n    tag_220:\n        /* \"@openzeppelin/contracts/token/ERC721/ERC721.sol\":16220:16253  address owner = _ownerOf(tokenId) */\n      swap1\n      pop\n        /* \"@openzeppelin/contracts/token/ERC721/ERC721.sol\":16284:16285  0 */\n      0x00\n        /* \"@openzeppelin/contracts/token/ERC721/ERC721.sol\":16267:16286  owner == address(0) */\n      0xffffffffffffffffffffffffffffffffffffffff\n      and\n        /* \"@openzeppelin/contracts/token/ERC721/ERC721.sol\":16267:16272  owner */\n      dup2\n        /* \"@openzeppelin/contracts/token/ERC721/ERC721.sol\":16267:16286  owner == address(0) */\n      0xffffffffffffffffffffffffffffffffffffffff\n      and\n      sub\n        /* \"@openzeppelin/contracts/token/ERC721/ERC721.sol\":16263:16351  if (owner == address(0)) {... */\n      tag_222\n      jumpi\n        /* \"@openzeppelin/contracts/token/ERC721/ERC721.sol\":16332:16339  tokenId */\n      dup3\n        /* \"@openzeppelin/contracts/token/ERC721/ERC721.sol\":16309:16340  ERC721NonexistentToken(tokenId) */\n      mload(0x40)\n      0x7e27328900000000000000000000000000000000000000000000000000000000\n      dup2\n      mstore\n      0x04\n      add\n      tag_223\n      swap2\n      swap1\n      tag_77\n      jump\t// in\n    tag_223:\n      mload(0x40)\n      dup1\n      swap2\n      sub\n      swap1\n      revert\n        /* \"@openzeppelin/contracts/token/ERC721/ERC721.sol\":16263:16351  if (owner == address(0)) {... */\n    tag_222:\n        /* \"@openzeppelin/contracts/token/ERC721/ERC721.sol\":16367:16372  owner */\n      dup1\n        /* \"@openzeppelin/contracts/token/ERC721/ERC721.sol\":16360:16372  return owner */\n      swap2\n      pop\n      pop\n        /* \"@openzeppelin/contracts/token/ERC721/ERC721.sol\":16138:16379  function _requireOwned(uint256 tokenId) internal view returns (address) {... */\n      swap2\n      swap1\n      pop\n      jump\t// out\n        /* \"@openzeppelin/contracts/token/ERC721/ERC721.sol\":5938:6065  function _getApproved(uint256 tokenId) internal view virtual returns (address) {... */\n    tag_129:\n        /* \"@openzeppelin/contracts/token/ERC721/ERC721.sol\":6008:6015  address */\n      0x00\n        /* \"@openzeppelin/contracts/token/ERC721/ERC721.sol\":6034:6049  _tokenApprovals */\n      0x04\n        /* \"@openzeppelin/contracts/token/ERC721/ERC721.sol\":6034:6058  _tokenApprovals[tokenId] */\n      0x00\n        /* \"@openzeppelin/contracts/token/ERC721/ERC721.sol\":6050:6057  tokenId */\n      dup4\n        /* \"@openzeppelin/contracts/token/ERC721/ERC721.sol\":6034:6058  _tokenApprovals[tokenId] */\n      dup2\n      mstore\n      0x20\n      add\n      swap1\n      dup2\n      mstore\n      0x20\n      add\n      0x00\n      keccak256\n      0x00\n      swap1\n      sload\n      swap1\n      0x0100\n      exp\n      swap1\n      div\n      0xffffffffffffffffffffffffffffffffffffffff\n      and\n        /* \"@openzeppelin/contracts/token/ERC721/ERC721.sol\":6027:6058  return _tokenApprovals[tokenId] */\n      swap1\n      pop\n        /* \"@openzeppelin/contracts/token/ERC721/ERC721.sol\":5938:6065  function _getApproved(uint256 tokenId) internal view virtual returns (address) {... */\n      swap2\n      swap1\n      pop\n      jump\t// out\n        /* \"@openzeppelin/contracts/utils/Context.sol\":656:752  function _msgSender() internal view virtual returns (address) {... */\n    tag_133:\n        /* \"@openzeppelin/contracts/utils/Context.sol\":709:716  address */\n      0x00\n        /* \"@openzeppelin/contracts/utils/Context.sol\":735:745  msg.sender */\n      caller\n        /* \"@openzeppelin/contracts/utils/Context.sol\":728:745  return msg.sender */\n      swap1\n      pop\n        /* \"@openzeppelin/contracts/utils/Context.sol\":656:752  function _msgSender() internal view virtual returns (address) {... */\n      swap1\n      jump\t// out\n        /* \"@openzeppelin/contracts/token/ERC721/ERC721.sol\":14418:14538  function _approve(address to, uint256 tokenId, address auth) internal {... */\n    tag_134:\n        /* \"@openzeppelin/contracts/token/ERC721/ERC721.sol\":14498:14531  _approve(to, tokenId, auth, true) */\n      tag_227\n        /* \"@openzeppelin/contracts/token/ERC721/ERC721.sol\":14507:14509  to */\n      dup4\n        /* \"@openzeppelin/contracts/token/ERC721/ERC721.sol\":14511:14518  tokenId */\n      dup4\n        /* \"@openzeppelin/contracts/token/ERC721/ERC721.sol\":14520:14524  auth */\n      dup4\n        /* \"@openzeppelin/contracts/token/ERC721/ERC721.sol\":14526:14530  true */\n      0x01\n        /* \"@openzeppelin/contracts/token/ERC721/ERC721.sol\":14498:14506  _approve */\n      tag_228\n        /* \"@openzeppelin/contracts/token/ERC721/ERC721.sol\":14498:14531  _approve(to, tokenId, auth, true) */\n      jump\t// in\n    tag_227:\n        /* \"@openzeppelin/contracts/token/ERC721/ERC721.sol\":14418:14538  function _approve(address to, uint256 tokenId, address auth) internal {... */\n      pop\n      pop\n      pop\n      jump\t// out\n        /* \"@openzeppelin/contracts/token/ERC721/ERC721.sol\":8838:9633  function _update(address to, uint256 tokenId, address auth) internal virtual returns (address) {... */\n    tag_143:\n        /* \"@openzeppelin/contracts/token/ERC721/ERC721.sol\":8924:8931  address */\n      0x00\n        /* \"@openzeppelin/contracts/token/ERC721/ERC721.sol\":8943:8955  address from */\n      dup1\n        /* \"@openzeppelin/contracts/token/ERC721/ERC721.sol\":8958:8975  _ownerOf(tokenId) */\n      tag_230\n        /* \"@openzeppelin/contracts/token/ERC721/ERC721.sol\":8967:8974  tokenId */\n      dup5\n        /* \"@openzeppelin/contracts/token/ERC721/ERC721.sol\":8958:8966  _ownerOf */\n      tag_221\n        /* \"@openzeppelin/contracts/token/ERC721/ERC721.sol\":8958:8975  _ownerOf(tokenId) */\n      jump\t// in\n    tag_230:\n        /* \"@openzeppelin/contracts/token/ERC721/ERC721.sol\":8943:8975  address from = _ownerOf(tokenId) */\n      swap1\n      pop\n        /* \"@openzeppelin/contracts/token/ERC721/ERC721.sol\":9051:9052  0 */\n      0x00\n        /* \"@openzeppelin/contracts/token/ERC721/ERC721.sol\":9035:9053  auth != address(0) */\n      0xffffffffffffffffffffffffffffffffffffffff\n      and\n        /* \"@openzeppelin/contracts/token/ERC721/ERC721.sol\":9035:9039  auth */\n      dup4\n        /* \"@openzeppelin/contracts/token/ERC721/ERC721.sol\":9035:9053  auth != address(0) */\n      0xffffffffffffffffffffffffffffffffffffffff\n      and\n      eq\n        /* \"@openzeppelin/contracts/token/ERC721/ERC721.sol\":9031:9117  if (auth != address(0)) {... */\n      tag_231\n      jumpi\n        /* \"@openzeppelin/contracts/token/ERC721/ERC721.sol\":9069:9106  _checkAuthorized(from, auth, tokenId) */\n      tag_232\n        /* \"@openzeppelin/contracts/token/ERC721/ERC721.sol\":9086:9090  from */\n      dup2\n        /* \"@openzeppelin/contracts/token/ERC721/ERC721.sol\":9092:9096  auth */\n      dup5\n        /* \"@openzeppelin/contracts/token/ERC721/ERC721.sol\":9098:9105  tokenId */\n      dup7\n        /* \"@openzeppelin/contracts/token/ERC721/ERC721.sol\":9069:9085  _checkAuthorized */\n      tag_233\n        /* \"@openzeppelin/contracts/token/ERC721/ERC721.sol\":9069:9106  _checkAuthorized(from, auth, tokenId) */\n      jump\t// in\n    tag_232:\n        /* \"@openzeppelin/contracts/token/ERC721/ERC721.sol\":9031:9117  if (auth != address(0)) {... */\n    tag_231:\n        /* \"@openzeppelin/contracts/token/ERC721/ERC721.sol\":9177:9178  0 */\n      0x00\n        /* \"@openzeppelin/contracts/token/ERC721/ERC721.sol\":9161:9179  from != address(0) */\n      0xffffffffffffffffffffffffffffffffffffffff\n      and\n        /* \"@openzeppelin/contracts/token/ERC721/ERC721.sol\":9161:9165  from */\n      dup2\n        /* \"@openzeppelin/contracts/token/ERC721/ERC721.sol\":9161:9179  from != address(0) */\n      0xffffffffffffffffffffffffffffffffffffffff\n      and\n      eq\n        /* \"@openzeppelin/contracts/token/ERC721/ERC721.sol\":9157:9413  if (from != address(0)) {... */\n      tag_234\n      jumpi\n        /* \"@openzeppelin/contracts/token/ERC721/ERC721.sol\":9277:9325  _approve(address(0), tokenId, address(0), false) */\n      tag_235\n        /* \"@openzeppelin/contracts/token/ERC721/ERC721.sol\":9294:9295  0 */\n      0x00\n        /* \"@openzeppelin/contracts/token/ERC721/ERC721.sol\":9298:9305  tokenId */\n      dup6\n        /* \"@openzeppelin/contracts/token/ERC721/ERC721.sol\":9315:9316  0 */\n      0x00\n        /* \"@openzeppelin/contracts/token/ERC721/ERC721.sol\":9319:9324  false */\n      dup1\n        /* \"@openzeppelin/contracts/token/ERC721/ERC721.sol\":9277:9285  _approve */\n      tag_228\n        /* \"@openzeppelin/contracts/token/ERC721/ERC721.sol\":9277:9325  _approve(address(0), tokenId, address(0), false) */\n      jump\t// in\n    tag_235:\n        /* \"@openzeppelin/contracts/token/ERC721/ERC721.sol\":9387:9388  1 */\n      0x01\n        /* \"@openzeppelin/contracts/token/ERC721/ERC721.sol\":9368:9377  _balances */\n      0x03\n        /* \"@openzeppelin/contracts/token/ERC721/ERC721.sol\":9368:9383  _balances[from] */\n      0x00\n        /* \"@openzeppelin/contracts/token/ERC721/ERC721.sol\":9378:9382  from */\n      dup4\n        /* \"@openzeppelin/contracts/token/ERC721/ERC721.sol\":9368:9383  _balances[from] */\n      0xffffffffffffffffffffffffffffffffffffffff\n      and\n      0xffffffffffffffffffffffffffffffffffffffff\n      and\n      dup2\n      mstore\n      0x20\n      add\n      swap1\n      dup2\n      mstore\n      0x20\n      add\n      0x00\n      keccak256\n      0x00\n        /* \"@openzeppelin/contracts/token/ERC721/ERC721.sol\":9368:9388  _balances[from] -= 1 */\n      dup3\n      dup3\n      sload\n      sub\n      swap3\n      pop\n      pop\n      dup2\n      swap1\n      sstore\n      pop\n        /* \"@openzeppelin/contracts/token/ERC721/ERC721.sol\":9157:9413  if (from != address(0)) {... */\n    tag_234:\n        /* \"@openzeppelin/contracts/token/ERC721/ERC721.sol\":9441:9442  0 */\n      0x00\n        /* \"@openzeppelin/contracts/token/ERC721/ERC721.sol\":9427:9443  to != address(0) */\n      0xffffffffffffffffffffffffffffffffffffffff\n      and\n        /* \"@openzeppelin/contracts/token/ERC721/ERC721.sol\":9427:9429  to */\n      dup6\n        /* \"@openzeppelin/contracts/token/ERC721/ERC721.sol\":9427:9443  to != address(0) */\n      0xffffffffffffffffffffffffffffffffffffffff\n      and\n      eq\n        /* \"@openzeppelin/contracts/token/ERC721/ERC721.sol\":9423:9530  if (to != address(0)) {... */\n      tag_236\n      jumpi\n        /* \"@openzeppelin/contracts/token/ERC721/ERC721.sol\":9504:9505  1 */\n      0x01\n        /* \"@openzeppelin/contracts/token/ERC721/ERC721.sol\":9487:9496  _balances */\n      0x03\n        /* \"@openzeppelin/contracts/token/ERC721/ERC721.sol\":9487:9500  _balances[to] */\n      0x00\n        /* \"@openzeppelin/contracts/token/ERC721/ERC721.sol\":9497:9499  to */\n      dup8\n        /* \"@openzeppelin/contracts/token/ERC721/ERC721.sol\":9487:9500  _balances[to] */\n      0xffffffffffffffffffffffffffffffffffffffff\n      and\n      0xffffffffffffffffffffffffffffffffffffffff\n      and\n      dup2\n      mstore\n      0x20\n      add\n      swap1\n      dup2\n      mstore\n      0x20\n      add\n      0x00\n      keccak256\n      0x00\n        /* \"@openzeppelin/contracts/token/ERC721/ERC721.sol\":9487:9505  _balances[to] += 1 */\n      dup3\n      dup3\n      sload\n      add\n      swap3\n      pop\n      pop\n      dup2\n      swap1\n      sstore\n      pop\n        /* \"@openzeppelin/contracts/token/ERC721/ERC721.sol\":9423:9530  if (to != address(0)) {... */\n    tag_236:\n        /* \"@openzeppelin/contracts/token/ERC721/ERC721.sol\":9559:9561  to */\n      dup5\n        /* \"@openzeppelin/contracts/token/ERC721/ERC721.sol\":9540:9547  _owners */\n      0x02\n        /* \"@openzeppelin/contracts/token/ERC721/ERC721.sol\":9540:9556  _owners[tokenId] */\n      0x00\n        /* \"@openzeppelin/contracts/token/ERC721/ERC721.sol\":9548:9555  tokenId */\n      dup7\n        /* \"@openzeppelin/contracts/token/ERC721/ERC721.sol\":9540:9556  _owners[tokenId] */\n      dup2\n      mstore\n      0x20\n      add\n      swap1\n      dup2\n      mstore\n      0x20\n      add\n      0x00\n      keccak256\n      0x00\n        /* \"@openzeppelin/contracts/token/ERC721/ERC721.sol\":9540:9561  _owners[tokenId] = to */\n      0x0100\n      exp\n      dup2\n      sload\n      dup2\n      0xffffffffffffffffffffffffffffffffffffffff\n      mul\n      not\n      and\n      swap1\n      dup4\n      0xffffffffffffffffffffffffffffffffffffffff\n      and\n      mul\n      or\n      swap1\n      sstore\n      pop\n        /* \"@openzeppelin/contracts/token/ERC721/ERC721.sol\":9596:9603  tokenId */\n      dup4\n        /* \"@openzeppelin/contracts/token/ERC721/ERC721.sol\":9592:9594  to */\n      dup6\n        /* \"@openzeppelin/contracts/token/ERC721/ERC721.sol\":9577:9604  Transfer(from, to, tokenId) */\n      0xffffffffffffffffffffffffffffffffffffffff\n      and\n        /* \"@openzeppelin/contracts/token/ERC721/ERC721.sol\":9586:9590  from */\n      dup3\n        /* \"@openzeppelin/contracts/token/ERC721/ERC721.sol\":9577:9604  Transfer(from, to, tokenId) */\n      0xffffffffffffffffffffffffffffffffffffffff\n      and\n      0xddf252ad1be2c89b69c2b068fc378daa952ba7f163c4a11628f55a4df523b3ef\n      mload(0x40)\n      mload(0x40)\n      dup1\n      swap2\n      sub\n      swap1\n      log4\n        /* \"@openzeppelin/contracts/token/ERC721/ERC721.sol\":9622:9626  from */\n      dup1\n        /* \"@openzeppelin/contracts/token/ERC721/ERC721.sol\":9615:9626  return from */\n      swap2\n      pop\n      pop\n        /* \"@openzeppelin/contracts/token/ERC721/ERC721.sol\":8838:9633  function _update(address to, uint256 tokenId, address auth) internal virtual returns (address) {... */\n      swap4\n      swap3\n      pop\n      pop\n      pop\n      jump\t// out\n        /* \"@openzeppelin/contracts/access/Ownable.sol\":1796:1958  function _checkOwner() internal view virtual {... */\n    tag_149:\n        /* \"@openzeppelin/contracts/access/Ownable.sol\":1866:1878  _msgSender() */\n      tag_238\n        /* \"@openzeppelin/contracts/access/Ownable.sol\":1866:1876  _msgSender */\n      tag_133\n        /* \"@openzeppelin/contracts/access/Ownable.sol\":1866:1878  _msgSender() */\n      jump\t// in\n    tag_238:\n        /* \"@openzeppelin/contracts/access/Ownable.sol\":1855:1878  owner() != _msgSender() */\n      0xffffffffffffffffffffffffffffffffffffffff\n      and\n        /* \"@openzeppelin/contracts/access/Ownable.sol\":1855:1862  owner() */\n      tag_239\n        /* \"@openzeppelin/contracts/access/Ownable.sol\":1855:1860  owner */\n      tag_81\n        /* \"@openzeppelin/contracts/access/Ownable.sol\":1855:1862  owner() */\n      jump\t// in\n    tag_239:\n        /* \"@openzeppelin/contracts/access/Ownable.sol\":1855:1878  owner() != _msgSender() */\n      0xffffffffffffffffffffffffffffffffffffffff\n      and\n      eq\n        /* \"@openzeppelin/contracts/access/Ownable.sol\":1851:1952  if (owner() != _msgSender()) {... */\n      tag_240\n      jumpi\n        /* \"@openzeppelin/contracts/access/Ownable.sol\":1928:1940  _msgSender() */\n      tag_241\n        /* \"@openzeppelin/contracts/access/Ownable.sol\":1928:1938  _msgSender */\n      tag_133\n        /* \"@openzeppelin/contracts/access/Ownable.sol\":1928:1940  _msgSender() */\n      jump\t// in\n    tag_241:\n        /* \"@openzeppelin/contracts/access/Ownable.sol\":1901:1941  OwnableUnauthorizedAccount(_msgSender()) */\n      mload(0x40)\n      0x118cdaa700000000000000000000000000000000000000000000000000000000\n      dup2\n      mstore\n      0x04\n      add\n      tag_242\n      swap2\n      swap1\n      tag_42\n      jump\t// in\n    tag_242:\n      mload(0x40)\n      dup1\n      swap2\n      sub\n      swap1\n      revert\n        /* \"@openzeppelin/contracts/access/Ownable.sol\":1851:1952  if (owner() != _msgSender()) {... */\n    tag_240:\n        /* \"@openzeppelin/contracts/access/Ownable.sol\":1796:1958  function _checkOwner() internal view virtual {... */\n      jump\t// out\n        /* \"@openzeppelin/contracts/access/Ownable.sol\":2912:3099  function _transferOwnership(address newOwner) internal virtual {... */\n    tag_162:\n        /* \"@openzeppelin/contracts/access/Ownable.sol\":2985:3001  address oldOwner */\n      0x00\n        /* \"@openzeppelin/contracts/access/Ownable.sol\":3004:3010  _owner */\n      0x06\n      0x00\n      swap1\n      sload\n      swap1\n      0x0100\n      exp\n      swap1\n      div\n      0xffffffffffffffffffffffffffffffffffffffff\n      and\n        /* \"@openzeppelin/contracts/access/Ownable.sol\":2985:3010  address oldOwner = _owner */\n      swap1\n      pop\n        /* \"@openzeppelin/contracts/access/Ownable.sol\":3029:3037  newOwner */\n      dup2\n        /* \"@openzeppelin/contracts/access/Ownable.sol\":3020:3026  _owner */\n      0x06\n      0x00\n        /* \"@openzeppelin/contracts/access/Ownable.sol\":3020:3037  _owner = newOwner */\n      0x0100\n      exp\n      dup2\n      sload\n      dup2\n      0xffffffffffffffffffffffffffffffffffffffff\n      mul\n      not\n      and\n      swap1\n      dup4\n      0xffffffffffffffffffffffffffffffffffffffff\n      and\n      mul\n      or\n      swap1\n      sstore\n      pop\n        /* \"@openzeppelin/contracts/access/Ownable.sol\":3083:3091  newOwner */\n      dup2\n        /* \"@openzeppelin/contracts/access/Ownable.sol\":3052:3092  OwnershipTransferred(oldOwner, newOwner) */\n      0xffffffffffffffffffffffffffffffffffffffff\n      and\n        /* \"@openzeppelin/contracts/access/Ownable.sol\":3073:3081  oldOwner */\n      dup2\n        /* \"@openzeppelin/contracts/access/Ownable.sol\":3052:3092  OwnershipTransferred(oldOwner, newOwner) */\n      0xffffffffffffffffffffffffffffffffffffffff\n      and\n      0x8be0079c531659141344cd1fd0a4f28419497f9722a3daafe3b4186f6b6457e0\n      mload(0x40)\n      mload(0x40)\n      dup1\n      swap2\n      sub\n      swap1\n      log3\n        /* \"@openzeppelin/contracts/access/Ownable.sol\":2975:3099  {... */\n      pop\n        /* \"@openzeppelin/contracts/access/Ownable.sol\":2912:3099  function _transferOwnership(address newOwner) internal virtual {... */\n      pop\n      jump\t// out\n        /* \"@openzeppelin/contracts/token/ERC721/ERC721.sol\":10633:10733  function _safeMint(address to, uint256 tokenId) internal {... */\n    tag_192:\n        /* \"@openzeppelin/contracts/token/ERC721/ERC721.sol\":10700:10726  _safeMint(to, tokenId, \"\") */\n      tag_245\n        /* \"@openzeppelin/contracts/token/ERC721/ERC721.sol\":10710:10712  to */\n      dup3\n        /* \"@openzeppelin/contracts/token/ERC721/ERC721.sol\":10714:10721  tokenId */\n      dup3\n        /* \"@openzeppelin/contracts/token/ERC721/ERC721.sol\":10700:10726  _safeMint(to, tokenId, \"\") */\n      mload(0x40)\n      dup1\n      0x20\n      add\n      0x40\n      mstore\n      dup1\n      0x00\n      dup2\n      mstore\n      pop\n        /* \"@openzeppelin/contracts/token/ERC721/ERC721.sol\":10700:10709  _safeMint */\n      tag_246\n        /* \"@openzeppelin/contracts/token/ERC721/ERC721.sol\":10700:10726  _safeMint(to, tokenId, \"\") */\n      jump\t// in\n    tag_245:\n        /* \"@openzeppelin/contracts/token/ERC721/ERC721.sol\":10633:10733  function _safeMint(address to, uint256 tokenId) internal {... */\n      pop\n      pop\n      jump\t// out\n        /* \"@openzeppelin/contracts/token/ERC721/ERC721.sol\":15591:15903  function _setApprovalForAll(address owner, address operator, bool approved) internal virtual {... */\n    tag_196:\n        /* \"@openzeppelin/contracts/token/ERC721/ERC721.sol\":15718:15719  0 */\n      0x00\n        /* \"@openzeppelin/contracts/token/ERC721/ERC721.sol\":15698:15720  operator == address(0) */\n      0xffffffffffffffffffffffffffffffffffffffff\n      and\n        /* \"@openzeppelin/contracts/token/ERC721/ERC721.sol\":15698:15706  operator */\n      dup3\n        /* \"@openzeppelin/contracts/token/ERC721/ERC721.sol\":15698:15720  operator == address(0) */\n      0xffffffffffffffffffffffffffffffffffffffff\n      and\n      sub\n        /* \"@openzeppelin/contracts/token/ERC721/ERC721.sol\":15694:15785  if (operator == address(0)) {... */\n      tag_248\n      jumpi\n        /* \"@openzeppelin/contracts/token/ERC721/ERC721.sol\":15765:15773  operator */\n      dup2\n        /* \"@openzeppelin/contracts/token/ERC721/ERC721.sol\":15743:15774  ERC721InvalidOperator(operator) */\n      mload(0x40)\n      0x5b08ba1800000000000000000000000000000000000000000000000000000000\n      dup2\n      mstore\n      0x04\n      add\n      tag_249\n      swap2\n      swap1\n      tag_42\n      jump\t// in\n    tag_249:\n      mload(0x40)\n      dup1\n      swap2\n      sub\n      swap1\n      revert\n        /* \"@openzeppelin/contracts/token/ERC721/ERC721.sol\":15694:15785  if (operator == address(0)) {... */\n    tag_248:\n        /* \"@openzeppelin/contracts/token/ERC721/ERC721.sol\":15832:15840  approved */\n      dup1\n        /* \"@openzeppelin/contracts/token/ERC721/ERC721.sol\":15794:15812  _operatorApprovals */\n      0x05\n        /* \"@openzeppelin/contracts/token/ERC721/ERC721.sol\":15794:15819  _operatorApprovals[owner] */\n      0x00\n        /* \"@openzeppelin/contracts/token/ERC721/ERC721.sol\":15813:15818  owner */\n      dup6\n        /* \"@openzeppelin/contracts/token/ERC721/ERC721.sol\":15794:15819  _operatorApprovals[owner] */\n      0xffffffffffffffffffffffffffffffffffffffff\n      and\n      0xffffffffffffffffffffffffffffffffffffffff\n      and\n      dup2\n      mstore\n      0x20\n      add\n      swap1\n      dup2\n      mstore\n      0x20\n      add\n      0x00\n      keccak256\n        /* \"@openzeppelin/contracts/token/ERC721/ERC721.sol\":15794:15829  _operatorApprovals[owner][operator] */\n      0x00\n        /* \"@openzeppelin/contracts/token/ERC721/ERC721.sol\":15820:15828  operator */\n      dup5\n        /* \"@openzeppelin/contracts/token/ERC721/ERC721.sol\":15794:15829  _operatorApprovals[owner][operator] */\n      0xffffffffffffffffffffffffffffffffffffffff\n      and\n      0xffffffffffffffffffffffffffffffffffffffff\n      and\n      dup2\n      mstore\n      0x20\n      add\n      swap1\n      dup2\n      mstore\n      0x20\n      add\n      0x00\n      keccak256\n      0x00\n        /* \"@openzeppelin/contracts/token/ERC721/ERC721.sol\":15794:15840  _operatorApprovals[owner][operator] = approved */\n      0x0100\n      exp\n      dup2\n      sload\n      dup2\n      0xff\n      mul\n      not\n      and\n      swap1\n      dup4\n      iszero\n      iszero\n      mul\n      or\n      swap1\n      sstore\n      pop\n        /* \"@openzeppelin/contracts/token/ERC721/ERC721.sol\":15877:15885  operator */\n      dup2\n        /* \"@openzeppelin/contracts/token/ERC721/ERC721.sol\":15855:15896  ApprovalForAll(owner, operator, approved) */\n      0xffffffffffffffffffffffffffffffffffffffff\n      and\n        /* \"@openzeppelin/contracts/token/ERC721/ERC721.sol\":15870:15875  owner */\n      dup4\n        /* \"@openzeppelin/contracts/token/ERC721/ERC721.sol\":15855:15896  ApprovalForAll(owner, operator, approved) */\n      0xffffffffffffffffffffffffffffffffffffffff\n      and\n      0x17307eab39ab6107e8899845ad3d59bd9653f200f220920489ca2b5937696c31\n        /* \"@openzeppelin/contracts/token/ERC721/ERC721.sol\":15887:15895  approved */\n      dup4\n        /* \"@openzeppelin/contracts/token/ERC721/ERC721.sol\":15855:15896  ApprovalForAll(owner, operator, approved) */\n      mload(0x40)\n      tag_250\n      swap2\n      swap1\n      tag_32\n      jump\t// in\n    tag_250:\n      mload(0x40)\n      dup1\n      swap2\n      sub\n      swap1\n      log3\n        /* \"@openzeppelin/contracts/token/ERC721/ERC721.sol\":15591:15903  function _setApprovalForAll(address owner, address operator, bool approved) internal virtual {... */\n      pop\n      pop\n      pop\n      jump\t// out\n        /* \"@openzeppelin/contracts/token/ERC721/ERC721.sol\":16918:17700  function _checkOnERC721Received(address from, address to, uint256 tokenId, bytes memory data) private {... */\n    tag_200:\n        /* \"@openzeppelin/contracts/token/ERC721/ERC721.sol\":17051:17052  0 */\n      0x00\n        /* \"@openzeppelin/contracts/token/ERC721/ERC721.sol\":17034:17036  to */\n      dup4\n        /* \"@openzeppelin/contracts/token/ERC721/ERC721.sol\":17034:17048  to.code.length */\n      0xffffffffffffffffffffffffffffffffffffffff\n      and\n      extcodesize\n        /* \"@openzeppelin/contracts/token/ERC721/ERC721.sol\":17034:17052  to.code.length > 0 */\n      gt\n        /* \"@openzeppelin/contracts/token/ERC721/ERC721.sol\":17030:17694  if (to.code.length > 0) {... */\n      iszero\n      tag_252\n      jumpi\n        /* \"@openzeppelin/contracts/token/ERC721/ERC721.sol\":17088:17090  to */\n      dup3\n        /* \"@openzeppelin/contracts/token/ERC721/ERC721.sol\":17072:17108  IERC721Receiver(to).onERC721Received */\n      0xffffffffffffffffffffffffffffffffffffffff\n      and\n      0x150b7a02\n        /* \"@openzeppelin/contracts/token/ERC721/ERC721.sol\":17109:17121  _msgSender() */\n      tag_253\n        /* \"@openzeppelin/contracts/token/ERC721/ERC721.sol\":17109:17119  _msgSender */\n      tag_133\n        /* \"@openzeppelin/contracts/token/ERC721/ERC721.sol\":17109:17121  _msgSender() */\n      jump\t// in\n    tag_253:\n        /* \"@openzeppelin/contracts/token/ERC721/ERC721.sol\":17123:17127  from */\n      dup7\n        /* \"@openzeppelin/contracts/token/ERC721/ERC721.sol\":17129:17136  tokenId */\n      dup6\n        /* \"@openzeppelin/contracts/token/ERC721/ERC721.sol\":17138:17142  data */\n      dup6\n        /* \"@openzeppelin/contracts/token/ERC721/ERC721.sol\":17072:17143  IERC721Receiver(to).onERC721Received(_msgSender(), from, tokenId, data) */\n      mload(0x40)\n      dup6\n      0xffffffff\n      and\n      0xe0\n      shl\n      dup2\n      mstore\n      0x04\n      add\n      tag_254\n      swap5\n      swap4\n      swap3\n      swap2\n      swap1\n      tag_255\n      jump\t// in\n    tag_254:\n      0x20\n      mload(0x40)\n      dup1\n      dup4\n      sub\n      dup2\n      0x00\n      dup8\n      gas\n      call\n      swap3\n      pop\n      pop\n      pop\n      dup1\n      iszero\n      tag_256\n      jumpi\n      pop\n      mload(0x40)\n      returndatasize\n      not(0x1f)\n      0x1f\n      dup3\n      add\n      and\n      dup3\n      add\n      dup1\n      0x40\n      mstore\n      pop\n      dup2\n      add\n      swap1\n      tag_257\n      swap2\n      swap1\n      tag_258\n      jump\t// in\n    tag_257:\n      0x01\n    tag_256:\n        /* \"@openzeppelin/contracts/token/ERC721/ERC721.sol\":17068:17684  try IERC721Receiver(to).onERC721Received(_msgSender(), from, tokenId, data) returns (bytes4 retval) {... */\n      tag_259\n      jumpi\n      returndatasize\n      dup1\n      0x00\n      dup2\n      eq\n      tag_264\n      jumpi\n      mload(0x40)\n      swap2\n      pop\n      and(add(returndatasize, 0x3f), not(0x1f))\n      dup3\n      add\n      0x40\n      mstore\n      returndatasize\n      dup3\n      mstore\n      returndatasize\n      0x00\n      0x20\n      dup5\n      add\n      returndatacopy\n      jump(tag_263)\n    tag_264:\n      0x60\n      swap2\n      pop\n    tag_263:\n      pop\n        /* \"@openzeppelin/contracts/token/ERC721/ERC721.sol\":17398:17399  0 */\n      0x00\n        /* \"@openzeppelin/contracts/token/ERC721/ERC721.sol\":17381:17387  reason */\n      dup2\n        /* \"@openzeppelin/contracts/token/ERC721/ERC721.sol\":17381:17394  reason.length */\n      mload\n        /* \"@openzeppelin/contracts/token/ERC721/ERC721.sol\":17381:17399  reason.length == 0 */\n      sub\n        /* \"@openzeppelin/contracts/token/ERC721/ERC721.sol\":17377:17670  if (reason.length == 0) {... */\n      tag_265\n      jumpi\n        /* \"@openzeppelin/contracts/token/ERC721/ERC721.sol\":17452:17454  to */\n      dup4\n        /* \"@openzeppelin/contracts/token/ERC721/ERC721.sol\":17430:17455  ERC721InvalidReceiver(to) */\n      mload(0x40)\n      0x64a0ae9200000000000000000000000000000000000000000000000000000000\n      dup2\n      mstore\n      0x04\n      add\n      tag_266\n      swap2\n      swap1\n      tag_42\n      jump\t// in\n    tag_266:\n      mload(0x40)\n      dup1\n      swap2\n      sub\n      swap1\n      revert\n        /* \"@openzeppelin/contracts/token/ERC721/ERC721.sol\":17377:17670  if (reason.length == 0) {... */\n    tag_265:\n        /* \"@openzeppelin/contracts/token/ERC721/ERC721.sol\":17622:17628  reason */\n      dup1\n        /* \"@openzeppelin/contracts/token/ERC721/ERC721.sol\":17616:17629  mload(reason) */\n      mload\n        /* \"@openzeppelin/contracts/token/ERC721/ERC721.sol\":17607:17613  reason */\n      dup2\n        /* \"@openzeppelin/contracts/token/ERC721/ERC721.sol\":17603:17605  32 */\n      0x20\n        /* \"@openzeppelin/contracts/token/ERC721/ERC721.sol\":17599:17614  add(32, reason) */\n      add\n        /* \"@openzeppelin/contracts/token/ERC721/ERC721.sol\":17592:17630  revert(add(32, reason), mload(reason)) */\n      revert\n        /* \"@openzeppelin/contracts/token/ERC721/ERC721.sol\":17068:17684  try IERC721Receiver(to).onERC721Received(_msgSender(), from, tokenId, data) returns (bytes4 retval) {... */\n    tag_259:\n        /* \"@openzeppelin/contracts/token/ERC721/ERC721.sol\":17200:17241  IERC721Receiver.onERC721Received.selector */\n      shl(0xe0, 0x150b7a02)\n        /* \"@openzeppelin/contracts/token/ERC721/ERC721.sol\":17190:17241  retval != IERC721Receiver.onERC721Received.selector */\n      not(0xffffffffffffffffffffffffffffffffffffffffffffffffffffffff)\n      and\n        /* \"@openzeppelin/contracts/token/ERC721/ERC721.sol\":17190:17196  retval */\n      dup2\n        /* \"@openzeppelin/contracts/token/ERC721/ERC721.sol\":17190:17241  retval != IERC721Receiver.onERC721Received.selector */\n      not(0xffffffffffffffffffffffffffffffffffffffffffffffffffffffff)\n      and\n      eq\n        /* \"@openzeppelin/contracts/token/ERC721/ERC721.sol\":17186:17316  if (retval != IERC721Receiver.onERC721Received.selector) {... */\n      tag_269\n      jumpi\n        /* \"@openzeppelin/contracts/token/ERC721/ERC721.sol\":17294:17296  to */\n      dup4\n        /* \"@openzeppelin/contracts/token/ERC721/ERC721.sol\":17272:17297  ERC721InvalidReceiver(to) */\n      mload(0x40)\n      0x64a0ae9200000000000000000000000000000000000000000000000000000000\n      dup2\n      mstore\n      0x04\n      add\n      tag_270\n      swap2\n      swap1\n      tag_42\n      jump\t// in\n    tag_270:\n      mload(0x40)\n      dup1\n      swap2\n      sub\n      swap1\n      revert\n        /* \"@openzeppelin/contracts/token/ERC721/ERC721.sol\":17186:17316  if (retval != IERC721Receiver.onERC721Received.selector) {... */\n    tag_269:\n        /* \"@openzeppelin/contracts/token/ERC721/ERC721.sol\":17144:17330  returns (bytes4 retval) {... */\n      pop\n        /* \"@openzeppelin/contracts/token/ERC721/ERC721.sol\":17030:17694  if (to.code.length > 0) {... */\n    tag_252:\n        /* \"@openzeppelin/contracts/token/ERC721/ERC721.sol\":16918:17700  function _checkOnERC721Received(address from, address to, uint256 tokenId, bytes memory data) private {... */\n      pop\n      pop\n      pop\n      pop\n      jump\t// out\n        /* \"@openzeppelin/contracts/token/ERC721/ERC721.sol\":3174:3266  function _baseURI() internal view virtual returns (string memory) {... */\n    tag_204:\n        /* \"@openzeppelin/contracts/token/ERC721/ERC721.sol\":3225:3238  string memory */\n      0x60\n        /* \"@openzeppelin/contracts/token/ERC721/ERC721.sol\":3250:3259  return \"\" */\n      mload(0x40)\n      dup1\n      0x20\n      add\n      0x40\n      mstore\n      dup1\n      0x00\n      dup2\n      mstore\n      pop\n      swap1\n      pop\n        /* \"@openzeppelin/contracts/token/ERC721/ERC721.sol\":3174:3266  function _baseURI() internal view virtual returns (string memory) {... */\n      swap1\n      jump\t// out\n        /* \"@openzeppelin/contracts/utils/Strings.sol\":637:1335  function toString(uint256 value) internal pure returns (string memory) {... */\n    tag_208:\n        /* \"@openzeppelin/contracts/utils/Strings.sol\":693:706  string memory */\n      0x60\n        /* \"@openzeppelin/contracts/utils/Strings.sol\":742:756  uint256 length */\n      0x00\n        /* \"@openzeppelin/contracts/utils/Strings.sol\":779:780  1 */\n      0x01\n        /* \"@openzeppelin/contracts/utils/Strings.sol\":759:776  Math.log10(value) */\n      tag_273\n        /* \"@openzeppelin/contracts/utils/Strings.sol\":770:775  value */\n      dup5\n        /* \"@openzeppelin/contracts/utils/Strings.sol\":759:769  Math.log10 */\n      tag_274\n        /* \"@openzeppelin/contracts/utils/Strings.sol\":759:776  Math.log10(value) */\n      jump\t// in\n    tag_273:\n        /* \"@openzeppelin/contracts/utils/Strings.sol\":759:780  Math.log10(value) + 1 */\n      add\n        /* \"@openzeppelin/contracts/utils/Strings.sol\":742:780  uint256 length = Math.log10(value) + 1 */\n      swap1\n      pop\n        /* \"@openzeppelin/contracts/utils/Strings.sol\":794:814  string memory buffer */\n      0x00\n        /* \"@openzeppelin/contracts/utils/Strings.sol\":828:834  length */\n      dup2\n        /* \"@openzeppelin/contracts/utils/Strings.sol\":817:835  new string(length) */\n      0xffffffffffffffff\n      dup2\n      gt\n      iszero\n      tag_275\n      jumpi\n      tag_276\n      tag_277\n      jump\t// in\n    tag_276:\n    tag_275:\n      mload(0x40)\n      swap1\n      dup1\n      dup3\n      mstore\n      dup1\n      0x1f\n      add\n      not(0x1f)\n      and\n      0x20\n      add\n      dup3\n      add\n      0x40\n      mstore\n      dup1\n      iszero\n      tag_278\n      jumpi\n      dup2\n      0x20\n      add\n      0x01\n      dup3\n      mul\n      dup1\n      calldatasize\n      dup4\n      calldatacopy\n      dup1\n      dup3\n      add\n      swap2\n      pop\n      pop\n      swap1\n      pop\n    tag_278:\n      pop\n        /* \"@openzeppelin/contracts/utils/Strings.sol\":794:835  string memory buffer = new string(length) */\n      swap1\n      pop\n        /* \"@openzeppelin/contracts/utils/Strings.sol\":849:860  uint256 ptr */\n      0x00\n        /* \"@openzeppelin/contracts/utils/Strings.sol\":975:981  length */\n      dup3\n        /* \"@openzeppelin/contracts/utils/Strings.sol\":971:973  32 */\n      0x20\n        /* \"@openzeppelin/contracts/utils/Strings.sol\":967:982  add(32, length) */\n      add\n        /* \"@openzeppelin/contracts/utils/Strings.sol\":959:965  buffer */\n      dup3\n        /* \"@openzeppelin/contracts/utils/Strings.sol\":955:983  add(buffer, add(32, length)) */\n      add\n        /* \"@openzeppelin/contracts/utils/Strings.sol\":948:983  ptr := add(buffer, add(32, length)) */\n      swap1\n      pop\n        /* \"@openzeppelin/contracts/utils/Strings.sol\":1010:1292  while (true) {... */\n    tag_279:\n        /* \"@openzeppelin/contracts/utils/Strings.sol\":1017:1021  true */\n      0x01\n        /* \"@openzeppelin/contracts/utils/Strings.sol\":1010:1292  while (true) {... */\n      iszero\n      tag_280\n      jumpi\n        /* \"@openzeppelin/contracts/utils/Strings.sol\":1041:1046  ptr-- */\n      dup1\n      dup1\n      0x01\n      swap1\n      sub\n      swap2\n      pop\n      pop\n        /* \"@openzeppelin/contracts/utils/Strings.sol\":1180:1190  HEX_DIGITS */\n      0x3031323334353637383961626364656600000000000000000000000000000000\n        /* \"@openzeppelin/contracts/utils/Strings.sol\":1175:1177  10 */\n      0x0a\n        /* \"@openzeppelin/contracts/utils/Strings.sol\":1168:1173  value */\n      dup7\n        /* \"@openzeppelin/contracts/utils/Strings.sol\":1164:1178  mod(value, 10) */\n      mod\n        /* \"@openzeppelin/contracts/utils/Strings.sol\":1159:1191  byte(mod(value, 10), HEX_DIGITS) */\n      byte\n        /* \"@openzeppelin/contracts/utils/Strings.sol\":1154:1157  ptr */\n      dup2\n        /* \"@openzeppelin/contracts/utils/Strings.sol\":1146:1192  mstore8(ptr, byte(mod(value, 10), HEX_DIGITS)) */\n      mstore8\n        /* \"@openzeppelin/contracts/utils/Strings.sol\":1236:1238  10 */\n      0x0a\n        /* \"@openzeppelin/contracts/utils/Strings.sol\":1227:1238  value /= 10 */\n      dup6\n      dup2\n      tag_281\n      jumpi\n      tag_282\n      tag_283\n      jump\t// in\n    tag_282:\n    tag_281:\n      div\n      swap5\n      pop\n        /* \"@openzeppelin/contracts/utils/Strings.sol\":1269:1270  0 */\n      0x00\n        /* \"@openzeppelin/contracts/utils/Strings.sol\":1260:1265  value */\n      dup6\n        /* \"@openzeppelin/contracts/utils/Strings.sol\":1260:1270  value == 0 */\n      sub\n        /* \"@openzeppelin/contracts/utils/Strings.sol\":1010:1292  while (true) {... */\n      tag_279\n        /* \"@openzeppelin/contracts/utils/Strings.sol\":1256:1277  if (value == 0) break */\n      jumpi\n        /* \"@openzeppelin/contracts/utils/Strings.sol\":1010:1292  while (true) {... */\n    tag_280:\n        /* \"@openzeppelin/contracts/utils/Strings.sol\":1312:1318  buffer */\n      dup2\n        /* \"@openzeppelin/contracts/utils/Strings.sol\":1305:1318  return buffer */\n      swap4\n      pop\n      pop\n      pop\n      pop\n        /* \"@openzeppelin/contracts/utils/Strings.sol\":637:1335  function toString(uint256 value) internal pure returns (string memory) {... */\n      swap2\n      swap1\n      pop\n      jump\t// out\n        /* \"@openzeppelin/contracts/token/ERC721/ERC721.sol\":5707:5822  function _ownerOf(uint256 tokenId) internal view virtual returns (address) {... */\n    tag_221:\n        /* \"@openzeppelin/contracts/token/ERC721/ERC721.sol\":5773:5780  address */\n      0x00\n        /* \"@openzeppelin/contracts/token/ERC721/ERC721.sol\":5799:5806  _owners */\n      0x02\n        /* \"@openzeppelin/contracts/token/ERC721/ERC721.sol\":5799:5815  _owners[tokenId] */\n      0x00\n        /* \"@openzeppelin/contracts/token/ERC721/ERC721.sol\":5807:5814  tokenId */\n      dup4\n        /* \"@openzeppelin/contracts/token/ERC721/ERC721.sol\":5799:5815  _owners[tokenId] */\n      dup2\n      mstore\n      0x20\n      add\n      swap1\n      dup2\n      mstore\n      0x20\n      add\n      0x00\n      keccak256\n      0x00\n      swap1\n      sload\n      swap1\n      0x0100\n      exp\n      swap1\n      div\n      0xffffffffffffffffffffffffffffffffffffffff\n      and\n        /* \"@openzeppelin/contracts/token/ERC721/ERC721.sol\":5792:5815  return _owners[tokenId] */\n      swap1\n      pop\n        /* \"@openzeppelin/contracts/token/ERC721/ERC721.sol\":5707:5822  function _ownerOf(uint256 tokenId) internal view virtual returns (address) {... */\n      swap2\n      swap1\n      pop\n      jump\t// out\n        /* \"@openzeppelin/contracts/token/ERC721/ERC721.sol\":14720:15382  function _approve(address to, uint256 tokenId, address auth, bool emitEvent) internal virtual {... */\n    tag_228:\n        /* \"@openzeppelin/contracts/token/ERC721/ERC721.sol\":14880:14889  emitEvent */\n      dup1\n        /* \"@openzeppelin/contracts/token/ERC721/ERC721.sol\":14880:14911  emitEvent || auth != address(0) */\n      dup1\n      tag_287\n      jumpi\n      pop\n        /* \"@openzeppelin/contracts/token/ERC721/ERC721.sol\":14909:14910  0 */\n      0x00\n        /* \"@openzeppelin/contracts/token/ERC721/ERC721.sol\":14893:14911  auth != address(0) */\n      0xffffffffffffffffffffffffffffffffffffffff\n      and\n        /* \"@openzeppelin/contracts/token/ERC721/ERC721.sol\":14893:14897  auth */\n      dup3\n        /* \"@openzeppelin/contracts/token/ERC721/ERC721.sol\":14893:14911  auth != address(0) */\n      0xffffffffffffffffffffffffffffffffffffffff\n      and\n      eq\n      iszero\n        /* \"@openzeppelin/contracts/token/ERC721/ERC721.sol\":14880:14911  emitEvent || auth != address(0) */\n    tag_287:\n        /* \"@openzeppelin/contracts/token/ERC721/ERC721.sol\":14876:15336  if (emitEvent || auth != address(0)) {... */\n      iszero\n      tag_288\n      jumpi\n        /* \"@openzeppelin/contracts/token/ERC721/ERC721.sol\":14927:14940  address owner */\n      0x00\n        /* \"@openzeppelin/contracts/token/ERC721/ERC721.sol\":14943:14965  _requireOwned(tokenId) */\n      tag_289\n        /* \"@openzeppelin/contracts/token/ERC721/ERC721.sol\":14957:14964  tokenId */\n      dup5\n        /* \"@openzeppelin/contracts/token/ERC721/ERC721.sol\":14943:14956  _requireOwned */\n      tag_127\n        /* \"@openzeppelin/contracts/token/ERC721/ERC721.sol\":14943:14965  _requireOwned(tokenId) */\n      jump\t// in\n    tag_289:\n        /* \"@openzeppelin/contracts/token/ERC721/ERC721.sol\":14927:14965  address owner = _requireOwned(tokenId) */\n      swap1\n      pop\n        /* \"@openzeppelin/contracts/token/ERC721/ERC721.sol\":15109:15110  0 */\n      0x00\n        /* \"@openzeppelin/contracts/token/ERC721/ERC721.sol\":15093:15111  auth != address(0) */\n      0xffffffffffffffffffffffffffffffffffffffff\n      and\n        /* \"@openzeppelin/contracts/token/ERC721/ERC721.sol\":15093:15097  auth */\n      dup4\n        /* \"@openzeppelin/contracts/token/ERC721/ERC721.sol\":15093:15111  auth != address(0) */\n      0xffffffffffffffffffffffffffffffffffffffff\n      and\n      eq\n      iszero\n        /* \"@openzeppelin/contracts/token/ERC721/ERC721.sol\":15093:15128  auth != address(0) && owner != auth */\n      dup1\n      iszero\n      tag_290\n      jumpi\n      pop\n        /* \"@openzeppelin/contracts/token/ERC721/ERC721.sol\":15124:15128  auth */\n      dup3\n        /* \"@openzeppelin/contracts/token/ERC721/ERC721.sol\":15115:15128  owner != auth */\n      0xffffffffffffffffffffffffffffffffffffffff\n      and\n        /* \"@openzeppelin/contracts/token/ERC721/ERC721.sol\":15115:15120  owner */\n      dup2\n        /* \"@openzeppelin/contracts/token/ERC721/ERC721.sol\":15115:15128  owner != auth */\n      0xffffffffffffffffffffffffffffffffffffffff\n      and\n      eq\n      iszero\n        /* \"@openzeppelin/contracts/token/ERC721/ERC721.sol\":15093:15128  auth != address(0) && owner != auth */\n    tag_290:\n        /* \"@openzeppelin/contracts/token/ERC721/ERC721.sol\":15093:15162  auth != address(0) && owner != auth && !isApprovedForAll(owner, auth) */\n      dup1\n      iszero\n      tag_291\n      jumpi\n      pop\n        /* \"@openzeppelin/contracts/token/ERC721/ERC721.sol\":15133:15162  isApprovedForAll(owner, auth) */\n      tag_292\n        /* \"@openzeppelin/contracts/token/ERC721/ERC721.sol\":15150:15155  owner */\n      dup2\n        /* \"@openzeppelin/contracts/token/ERC721/ERC721.sol\":15157:15161  auth */\n      dup5\n        /* \"@openzeppelin/contracts/token/ERC721/ERC721.sol\":15133:15149  isApprovedForAll */\n      tag_108\n        /* \"@openzeppelin/contracts/token/ERC721/ERC721.sol\":15133:15162  isApprovedForAll(owner, auth) */\n      jump\t// in\n    tag_292:\n        /* \"@openzeppelin/contracts/token/ERC721/ERC721.sol\":15132:15162  !isApprovedForAll(owner, auth) */\n      iszero\n        /* \"@openzeppelin/contracts/token/ERC721/ERC721.sol\":15093:15162  auth != address(0) && owner != auth && !isApprovedForAll(owner, auth) */\n    tag_291:\n        /* \"@openzeppelin/contracts/token/ERC721/ERC721.sol\":15089:15231  if (auth != address(0) && owner != auth && !isApprovedForAll(owner, auth)) {... */\n      iszero\n      tag_293\n      jumpi\n        /* \"@openzeppelin/contracts/token/ERC721/ERC721.sol\":15211:15215  auth */\n      dup3\n        /* \"@openzeppelin/contracts/token/ERC721/ERC721.sol\":15189:15216  ERC721InvalidApprover(auth) */\n      mload(0x40)\n      0xa9fbf51f00000000000000000000000000000000000000000000000000000000\n      dup2\n      mstore\n      0x04\n      add\n      tag_294\n      swap2\n      swap1\n      tag_42\n      jump\t// in\n    tag_294:\n      mload(0x40)\n      dup1\n      swap2\n      sub\n      swap1\n      revert\n        /* \"@openzeppelin/contracts/token/ERC721/ERC721.sol\":15089:15231  if (auth != address(0) && owner != auth && !isApprovedForAll(owner, auth)) {... */\n    tag_293:\n        /* \"@openzeppelin/contracts/token/ERC721/ERC721.sol\":15249:15258  emitEvent */\n      dup2\n        /* \"@openzeppelin/contracts/token/ERC721/ERC721.sol\":15245:15326  if (emitEvent) {... */\n      iszero\n      tag_295\n      jumpi\n        /* \"@openzeppelin/contracts/token/ERC721/ERC721.sol\":15303:15310  tokenId */\n      dup4\n        /* \"@openzeppelin/contracts/token/ERC721/ERC721.sol\":15299:15301  to */\n      dup6\n        /* \"@openzeppelin/contracts/token/ERC721/ERC721.sol\":15283:15311  Approval(owner, to, tokenId) */\n      0xffffffffffffffffffffffffffffffffffffffff\n      and\n        /* \"@openzeppelin/contracts/token/ERC721/ERC721.sol\":15292:15297  owner */\n      dup3\n        /* \"@openzeppelin/contracts/token/ERC721/ERC721.sol\":15283:15311  Approval(owner, to, tokenId) */\n      0xffffffffffffffffffffffffffffffffffffffff\n      and\n      0x8c5be1e5ebec7d5bd14f71427d1e84f3dd0314c0f7b2291e5b200ac8c7c3b925\n      mload(0x40)\n      mload(0x40)\n      dup1\n      swap2\n      sub\n      swap1\n      log4\n        /* \"@openzeppelin/contracts/token/ERC721/ERC721.sol\":15245:15326  if (emitEvent) {... */\n    tag_295:\n        /* \"@openzeppelin/contracts/token/ERC721/ERC721.sol\":14913:15336  {... */\n      pop\n        /* \"@openzeppelin/contracts/token/ERC721/ERC721.sol\":14876:15336  if (emitEvent || auth != address(0)) {... */\n    tag_288:\n        /* \"@openzeppelin/contracts/token/ERC721/ERC721.sol\":15373:15375  to */\n      dup4\n        /* \"@openzeppelin/contracts/token/ERC721/ERC721.sol\":15346:15361  _tokenApprovals */\n      0x04\n        /* \"@openzeppelin/contracts/token/ERC721/ERC721.sol\":15346:15370  _tokenApprovals[tokenId] */\n      0x00\n        /* \"@openzeppelin/contracts/token/ERC721/ERC721.sol\":15362:15369  tokenId */\n      dup6\n        /* \"@openzeppelin/contracts/token/ERC721/ERC721.sol\":15346:15370  _tokenApprovals[tokenId] */\n      dup2\n      mstore\n      0x20\n      add\n      swap1\n      dup2\n      mstore\n      0x20\n      add\n      0x00\n      keccak256\n      0x00\n        /* \"@openzeppelin/contracts/token/ERC721/ERC721.sol\":15346:15375  _tokenApprovals[tokenId] = to */\n      0x0100\n      exp\n      dup2\n      sload\n      dup2\n      0xffffffffffffffffffffffffffffffffffffffff\n      mul\n      not\n      and\n      swap1\n      dup4\n      0xffffffffffffffffffffffffffffffffffffffff\n      and\n      mul\n      or\n      swap1\n      sstore\n      pop\n        /* \"@openzeppelin/contracts/token/ERC721/ERC721.sol\":14720:15382  function _approve(address to, uint256 tokenId, address auth, bool emitEvent) internal virtual {... */\n      pop\n      pop\n      pop\n      pop\n      jump\t// out\n        /* \"@openzeppelin/contracts/token/ERC721/ERC721.sol\":7082:7450  function _checkAuthorized(address owner, address spender, uint256 tokenId) internal view virtual {... */\n    tag_233:\n        /* \"@openzeppelin/contracts/token/ERC721/ERC721.sol\":7194:7232  _isAuthorized(owner, spender, tokenId) */\n      tag_297\n        /* \"@openzeppelin/contracts/token/ERC721/ERC721.sol\":7208:7213  owner */\n      dup4\n        /* \"@openzeppelin/contracts/token/ERC721/ERC721.sol\":7215:7222  spender */\n      dup4\n        /* \"@openzeppelin/contracts/token/ERC721/ERC721.sol\":7224:7231  tokenId */\n      dup4\n        /* \"@openzeppelin/contracts/token/ERC721/ERC721.sol\":7194:7207  _isAuthorized */\n      tag_298\n        /* \"@openzeppelin/contracts/token/ERC721/ERC721.sol\":7194:7232  _isAuthorized(owner, spender, tokenId) */\n      jump\t// in\n    tag_297:\n        /* \"@openzeppelin/contracts/token/ERC721/ERC721.sol\":7189:7444  if (!_isAuthorized(owner, spender, tokenId)) {... */\n      tag_299\n      jumpi\n        /* \"@openzeppelin/contracts/token/ERC721/ERC721.sol\":7269:7270  0 */\n      0x00\n        /* \"@openzeppelin/contracts/token/ERC721/ERC721.sol\":7252:7271  owner == address(0) */\n      0xffffffffffffffffffffffffffffffffffffffff\n      and\n        /* \"@openzeppelin/contracts/token/ERC721/ERC721.sol\":7252:7257  owner */\n      dup4\n        /* \"@openzeppelin/contracts/token/ERC721/ERC721.sol\":7252:7271  owner == address(0) */\n      0xffffffffffffffffffffffffffffffffffffffff\n      and\n      sub\n        /* \"@openzeppelin/contracts/token/ERC721/ERC721.sol\":7248:7434  if (owner == address(0)) {... */\n      tag_300\n      jumpi\n        /* \"@openzeppelin/contracts/token/ERC721/ERC721.sol\":7321:7328  tokenId */\n      dup1\n        /* \"@openzeppelin/contracts/token/ERC721/ERC721.sol\":7298:7329  ERC721NonexistentToken(tokenId) */\n      mload(0x40)\n      0x7e27328900000000000000000000000000000000000000000000000000000000\n      dup2\n      mstore\n      0x04\n      add\n      tag_301\n      swap2\n      swap1\n      tag_77\n      jump\t// in\n    tag_301:\n      mload(0x40)\n      dup1\n      swap2\n      sub\n      swap1\n      revert\n        /* \"@openzeppelin/contracts/token/ERC721/ERC721.sol\":7248:7434  if (owner == address(0)) {... */\n    tag_300:\n        /* \"@openzeppelin/contracts/token/ERC721/ERC721.sol\":7402:7409  spender */\n      dup2\n        /* \"@openzeppelin/contracts/token/ERC721/ERC721.sol\":7411:7418  tokenId */\n      dup2\n        /* \"@openzeppelin/contracts/token/ERC721/ERC721.sol\":7375:7419  ERC721InsufficientApproval(spender, tokenId) */\n      mload(0x40)\n      0x177e802f00000000000000000000000000000000000000000000000000000000\n      dup2\n      mstore\n      0x04\n      add\n      tag_303\n      swap3\n      swap2\n      swap1\n      tag_304\n      jump\t// in\n    tag_303:\n      mload(0x40)\n      dup1\n      swap2\n      sub\n      swap1\n      revert\n        /* \"@openzeppelin/contracts/token/ERC721/ERC721.sol\":7189:7444  if (!_isAuthorized(owner, spender, tokenId)) {... */\n    tag_299:\n        /* \"@openzeppelin/contracts/token/ERC721/ERC721.sol\":7082:7450  function _checkAuthorized(address owner, address spender, uint256 tokenId) internal view virtual {... */\n      pop\n      pop\n      pop\n      jump\t// out\n        /* \"@openzeppelin/contracts/token/ERC721/ERC721.sol\":10954:11136  function _safeMint(address to, uint256 tokenId, bytes memory data) internal virtual {... */\n    tag_246:\n        /* \"@openzeppelin/contracts/token/ERC721/ERC721.sol\":11048:11066  _mint(to, tokenId) */\n      tag_306\n        /* \"@openzeppelin/contracts/token/ERC721/ERC721.sol\":11054:11056  to */\n      dup4\n        /* \"@openzeppelin/contracts/token/ERC721/ERC721.sol\":11058:11065  tokenId */\n      dup4\n        /* \"@openzeppelin/contracts/token/ERC721/ERC721.sol\":11048:11053  _mint */\n      tag_307\n        /* \"@openzeppelin/contracts/token/ERC721/ERC721.sol\":11048:11066  _mint(to, tokenId) */\n      jump\t// in\n    tag_306:\n        /* \"@openzeppelin/contracts/token/ERC721/ERC721.sol\":11076:11129  _checkOnERC721Received(address(0), to, tokenId, data) */\n      tag_308\n        /* \"@openzeppelin/contracts/token/ERC721/ERC721.sol\":11107:11108  0 */\n      0x00\n        /* \"@openzeppelin/contracts/token/ERC721/ERC721.sol\":11111:11113  to */\n      dup5\n        /* \"@openzeppelin/contracts/token/ERC721/ERC721.sol\":11115:11122  tokenId */\n      dup5\n        /* \"@openzeppelin/contracts/token/ERC721/ERC721.sol\":11124:11128  data */\n      dup5\n        /* \"@openzeppelin/contracts/token/ERC721/ERC721.sol\":11076:11098  _checkOnERC721Received */\n      tag_200\n        /* \"@openzeppelin/contracts/token/ERC721/ERC721.sol\":11076:11129  _checkOnERC721Received(address(0), to, tokenId, data) */\n      jump\t// in\n    tag_308:\n        /* \"@openzeppelin/contracts/token/ERC721/ERC721.sol\":10954:11136  function _safeMint(address to, uint256 tokenId, bytes memory data) internal virtual {... */\n      pop\n      pop\n      pop\n      jump\t// out\n        /* \"@openzeppelin/contracts/utils/math/Math.sol\":12214:13130  function log10(uint256 value) internal pure returns (uint256) {... */\n    tag_274:\n        /* \"@openzeppelin/contracts/utils/math/Math.sol\":12267:12274  uint256 */\n      0x00\n        /* \"@openzeppelin/contracts/utils/math/Math.sol\":12286:12300  uint256 result */\n      dup1\n        /* \"@openzeppelin/contracts/utils/math/Math.sol\":12303:12304  0 */\n      0x00\n        /* \"@openzeppelin/contracts/utils/math/Math.sol\":12286:12304  uint256 result = 0 */\n      swap1\n      pop\n        /* \"@openzeppelin/contracts/utils/math/Math.sol\":12351:12359  10 ** 64 */\n      0x184f03e93ff9f4daa797ed6e38ed64bf6a1f010000000000000000\n        /* \"@openzeppelin/contracts/utils/math/Math.sol\":12342:12347  value */\n      dup4\n        /* \"@openzeppelin/contracts/utils/math/Math.sol\":12342:12359  value >= 10 ** 64 */\n      lt\n        /* \"@openzeppelin/contracts/utils/math/Math.sol\":12338:12441  if (value >= 10 ** 64) {... */\n      tag_310\n      jumpi\n        /* \"@openzeppelin/contracts/utils/math/Math.sol\":12388:12396  10 ** 64 */\n      0x184f03e93ff9f4daa797ed6e38ed64bf6a1f010000000000000000\n        /* \"@openzeppelin/contracts/utils/math/Math.sol\":12379:12396  value /= 10 ** 64 */\n      dup4\n      dup2\n      tag_311\n      jumpi\n      tag_312\n      tag_283\n      jump\t// in\n    tag_312:\n    tag_311:\n      div\n      swap3\n      pop\n        /* \"@openzeppelin/contracts/utils/math/Math.sol\":12424:12426  64 */\n      0x40\n        /* \"@openzeppelin/contracts/utils/math/Math.sol\":12414:12426  result += 64 */\n      dup2\n      add\n      swap1\n      pop\n        /* \"@openzeppelin/contracts/utils/math/Math.sol\":12338:12441  if (value >= 10 ** 64) {... */\n    tag_310:\n        /* \"@openzeppelin/contracts/utils/math/Math.sol\":12467:12475  10 ** 32 */\n      0x04ee2d6d415b85acef8100000000\n        /* \"@openzeppelin/contracts/utils/math/Math.sol\":12458:12463  value */\n      dup4\n        /* \"@openzeppelin/contracts/utils/math/Math.sol\":12458:12475  value >= 10 ** 32 */\n      lt\n        /* \"@openzeppelin/contracts/utils/math/Math.sol\":12454:12557  if (value >= 10 ** 32) {... */\n      tag_313\n      jumpi\n        /* \"@openzeppelin/contracts/utils/math/Math.sol\":12504:12512  10 ** 32 */\n      0x04ee2d6d415b85acef8100000000\n        /* \"@openzeppelin/contracts/utils/math/Math.sol\":12495:12512  value /= 10 ** 32 */\n      dup4\n      dup2\n      tag_314\n      jumpi\n      tag_315\n      tag_283\n      jump\t// in\n    tag_315:\n    tag_314:\n      div\n      swap3\n      pop\n        /* \"@openzeppelin/contracts/utils/math/Math.sol\":12540:12542  32 */\n      0x20\n        /* \"@openzeppelin/contracts/utils/math/Math.sol\":12530:12542  result += 32 */\n      dup2\n      add\n      swap1\n      pop\n        /* \"@openzeppelin/contracts/utils/math/Math.sol\":12454:12557  if (value >= 10 ** 32) {... */\n    tag_313:\n        /* \"@openzeppelin/contracts/utils/math/Math.sol\":12583:12591  10 ** 16 */\n      0x2386f26fc10000\n        /* \"@openzeppelin/contracts/utils/math/Math.sol\":12574:12579  value */\n      dup4\n        /* \"@openzeppelin/contracts/utils/math/Math.sol\":12574:12591  value >= 10 ** 16 */\n      lt\n        /* \"@openzeppelin/contracts/utils/math/Math.sol\":12570:12673  if (value >= 10 ** 16) {... */\n      tag_316\n      jumpi\n        /* \"@openzeppelin/contracts/utils/math/Math.sol\":12620:12628  10 ** 16 */\n      0x2386f26fc10000\n        /* \"@openzeppelin/contracts/utils/math/Math.sol\":12611:12628  value /= 10 ** 16 */\n      dup4\n      dup2\n      tag_317\n      jumpi\n      tag_318\n      tag_283\n      jump\t// in\n    tag_318:\n    tag_317:\n      div\n      swap3\n      pop\n        /* \"@openzeppelin/contracts/utils/math/Math.sol\":12656:12658  16 */\n      0x10\n        /* \"@openzeppelin/contracts/utils/math/Math.sol\":12646:12658  result += 16 */\n      dup2\n      add\n      swap1\n      pop\n        /* \"@openzeppelin/contracts/utils/math/Math.sol\":12570:12673  if (value >= 10 ** 16) {... */\n    tag_316:\n        /* \"@openzeppelin/contracts/utils/math/Math.sol\":12699:12706  10 ** 8 */\n      0x05f5e100\n        /* \"@openzeppelin/contracts/utils/math/Math.sol\":12690:12695  value */\n      dup4\n        /* \"@openzeppelin/contracts/utils/math/Math.sol\":12690:12706  value >= 10 ** 8 */\n      lt\n        /* \"@openzeppelin/contracts/utils/math/Math.sol\":12686:12786  if (value >= 10 ** 8) {... */\n      tag_319\n      jumpi\n        /* \"@openzeppelin/contracts/utils/math/Math.sol\":12735:12742  10 ** 8 */\n      0x05f5e100\n        /* \"@openzeppelin/contracts/utils/math/Math.sol\":12726:12742  value /= 10 ** 8 */\n      dup4\n      dup2\n      tag_320\n      jumpi\n      tag_321\n      tag_283\n      jump\t// in\n    tag_321:\n    tag_320:\n      div\n      swap3\n      pop\n        /* \"@openzeppelin/contracts/utils/math/Math.sol\":12770:12771  8 */\n      0x08\n        /* \"@openzeppelin/contracts/utils/math/Math.sol\":12760:12771  result += 8 */\n      dup2\n      add\n      swap1\n      pop\n        /* \"@openzeppelin/contracts/utils/math/Math.sol\":12686:12786  if (value >= 10 ** 8) {... */\n    tag_319:\n        /* \"@openzeppelin/contracts/utils/math/Math.sol\":12812:12819  10 ** 4 */\n      0x2710\n        /* \"@openzeppelin/contracts/utils/math/Math.sol\":12803:12808  value */\n      dup4\n        /* \"@openzeppelin/contracts/utils/math/Math.sol\":12803:12819  value >= 10 ** 4 */\n      lt\n        /* \"@openzeppelin/contracts/utils/math/Math.sol\":12799:12899  if (value >= 10 ** 4) {... */\n      tag_322\n      jumpi\n        /* \"@openzeppelin/contracts/utils/math/Math.sol\":12848:12855  10 ** 4 */\n      0x2710\n        /* \"@openzeppelin/contracts/utils/math/Math.sol\":12839:12855  value /= 10 ** 4 */\n      dup4\n      dup2\n      tag_323\n      jumpi\n      tag_324\n      tag_283\n      jump\t// in\n    tag_324:\n    tag_323:\n      div\n      swap3\n      pop\n        /* \"@openzeppelin/contracts/utils/math/Math.sol\":12883:12884  4 */\n      0x04\n        /* \"@openzeppelin/contracts/utils/math/Math.sol\":12873:12884  result += 4 */\n      dup2\n      add\n      swap1\n      pop\n        /* \"@openzeppelin/contracts/utils/math/Math.sol\":12799:12899  if (value >= 10 ** 4) {... */\n    tag_322:\n        /* \"@openzeppelin/contracts/utils/math/Math.sol\":12925:12932  10 ** 2 */\n      0x64\n        /* \"@openzeppelin/contracts/utils/math/Math.sol\":12916:12921  value */\n      dup4\n        /* \"@openzeppelin/contracts/utils/math/Math.sol\":12916:12932  value >= 10 ** 2 */\n      lt\n        /* \"@openzeppelin/contracts/utils/math/Math.sol\":12912:13012  if (value >= 10 ** 2) {... */\n      tag_325\n      jumpi\n        /* \"@openzeppelin/contracts/utils/math/Math.sol\":12961:12968  10 ** 2 */\n      0x64\n        /* \"@openzeppelin/contracts/utils/math/Math.sol\":12952:12968  value /= 10 ** 2 */\n      dup4\n      dup2\n      tag_326\n      jumpi\n      tag_327\n      tag_283\n      jump\t// in\n    tag_327:\n    tag_326:\n      div\n      swap3\n      pop\n        /* \"@openzeppelin/contracts/utils/math/Math.sol\":12996:12997  2 */\n      0x02\n        /* \"@openzeppelin/contracts/utils/math/Math.sol\":12986:12997  result += 2 */\n      dup2\n      add\n      swap1\n      pop\n        /* \"@openzeppelin/contracts/utils/math/Math.sol\":12912:13012  if (value >= 10 ** 2) {... */\n    tag_325:\n        /* \"@openzeppelin/contracts/utils/math/Math.sol\":13038:13045  10 ** 1 */\n      0x0a\n        /* \"@openzeppelin/contracts/utils/math/Math.sol\":13029:13034  value */\n      dup4\n        /* \"@openzeppelin/contracts/utils/math/Math.sol\":13029:13045  value >= 10 ** 1 */\n      lt\n        /* \"@openzeppelin/contracts/utils/math/Math.sol\":13025:13091  if (value >= 10 ** 1) {... */\n      tag_328\n      jumpi\n        /* \"@openzeppelin/contracts/utils/math/Math.sol\":13075:13076  1 */\n      0x01\n        /* \"@openzeppelin/contracts/utils/math/Math.sol\":13065:13076  result += 1 */\n      dup2\n      add\n      swap1\n      pop\n        /* \"@openzeppelin/contracts/utils/math/Math.sol\":13025:13091  if (value >= 10 ** 1) {... */\n    tag_328:\n        /* \"@openzeppelin/contracts/utils/math/Math.sol\":13117:13123  result */\n      dup1\n        /* \"@openzeppelin/contracts/utils/math/Math.sol\":13110:13123  return result */\n      swap2\n      pop\n      pop\n        /* \"@openzeppelin/contracts/utils/math/Math.sol\":12214:13130  function log10(uint256 value) internal pure returns (uint256) {... */\n      swap2\n      swap1\n      pop\n      jump\t// out\n        /* \"@openzeppelin/contracts/token/ERC721/ERC721.sol\":6376:6648  function _isAuthorized(address owner, address spender, uint256 tokenId) internal view virtual returns (bool) {... */\n    tag_298:\n        /* \"@openzeppelin/contracts/token/ERC721/ERC721.sol\":6479:6483  bool */\n      0x00\n        /* \"@openzeppelin/contracts/token/ERC721/ERC721.sol\":6533:6534  0 */\n      dup1\n        /* \"@openzeppelin/contracts/token/ERC721/ERC721.sol\":6514:6535  spender != address(0) */\n      0xffffffffffffffffffffffffffffffffffffffff\n      and\n        /* \"@openzeppelin/contracts/token/ERC721/ERC721.sol\":6514:6521  spender */\n      dup4\n        /* \"@openzeppelin/contracts/token/ERC721/ERC721.sol\":6514:6535  spender != address(0) */\n      0xffffffffffffffffffffffffffffffffffffffff\n      and\n      eq\n      iszero\n        /* \"@openzeppelin/contracts/token/ERC721/ERC721.sol\":6514:6641  spender != address(0) &&... */\n      dup1\n      iszero\n      tag_330\n      jumpi\n      pop\n        /* \"@openzeppelin/contracts/token/ERC721/ERC721.sol\":6561:6568  spender */\n      dup3\n        /* \"@openzeppelin/contracts/token/ERC721/ERC721.sol\":6552:6568  owner == spender */\n      0xffffffffffffffffffffffffffffffffffffffff\n      and\n        /* \"@openzeppelin/contracts/token/ERC721/ERC721.sol\":6552:6557  owner */\n      dup5\n        /* \"@openzeppelin/contracts/token/ERC721/ERC721.sol\":6552:6568  owner == spender */\n      0xffffffffffffffffffffffffffffffffffffffff\n      and\n      eq\n        /* \"@openzeppelin/contracts/token/ERC721/ERC721.sol\":6552:6604  owner == spender || isApprovedForAll(owner, spender) */\n      dup1\n      tag_331\n      jumpi\n      pop\n        /* \"@openzeppelin/contracts/token/ERC721/ERC721.sol\":6572:6604  isApprovedForAll(owner, spender) */\n      tag_332\n        /* \"@openzeppelin/contracts/token/ERC721/ERC721.sol\":6589:6594  owner */\n      dup5\n        /* \"@openzeppelin/contracts/token/ERC721/ERC721.sol\":6596:6603  spender */\n      dup5\n        /* \"@openzeppelin/contracts/token/ERC721/ERC721.sol\":6572:6588  isApprovedForAll */\n      tag_108\n        /* \"@openzeppelin/contracts/token/ERC721/ERC721.sol\":6572:6604  isApprovedForAll(owner, spender) */\n      jump\t// in\n    tag_332:\n        /* \"@openzeppelin/contracts/token/ERC721/ERC721.sol\":6552:6604  owner == spender || isApprovedForAll(owner, spender) */\n    tag_331:\n        /* \"@openzeppelin/contracts/token/ERC721/ERC721.sol\":6552:6640  owner == spender || isApprovedForAll(owner, spender) || _getApproved(tokenId) == spender */\n      dup1\n      tag_333\n      jumpi\n      pop\n        /* \"@openzeppelin/contracts/token/ERC721/ERC721.sol\":6633:6640  spender */\n      dup3\n        /* \"@openzeppelin/contracts/token/ERC721/ERC721.sol\":6608:6640  _getApproved(tokenId) == spender */\n      0xffffffffffffffffffffffffffffffffffffffff\n      and\n        /* \"@openzeppelin/contracts/token/ERC721/ERC721.sol\":6608:6629  _getApproved(tokenId) */\n      tag_334\n        /* \"@openzeppelin/contracts/token/ERC721/ERC721.sol\":6621:6628  tokenId */\n      dup4\n        /* \"@openzeppelin/contracts/token/ERC721/ERC721.sol\":6608:6620  _getApproved */\n      tag_129\n        /* \"@openzeppelin/contracts/token/ERC721/ERC721.sol\":6608:6629  _getApproved(tokenId) */\n      jump\t// in\n    tag_334:\n        /* \"@openzeppelin/contracts/token/ERC721/ERC721.sol\":6608:6640  _getApproved(tokenId) == spender */\n      0xffffffffffffffffffffffffffffffffffffffff\n      and\n      eq\n        /* \"@openzeppelin/contracts/token/ERC721/ERC721.sol\":6552:6640  owner == spender || isApprovedForAll(owner, spender) || _getApproved(tokenId) == spender */\n    tag_333:\n        /* \"@openzeppelin/contracts/token/ERC721/ERC721.sol\":6514:6641  spender != address(0) &&... */\n    tag_330:\n        /* \"@openzeppelin/contracts/token/ERC721/ERC721.sol\":6495:6641  return... */\n      swap1\n      pop\n        /* \"@openzeppelin/contracts/token/ERC721/ERC721.sol\":6376:6648  function _isAuthorized(address owner, address spender, uint256 tokenId) internal view virtual returns (bool) {... */\n      swap4\n      swap3\n      pop\n      pop\n      pop\n      jump\t// out\n        /* \"@openzeppelin/contracts/token/ERC721/ERC721.sol\":9955:10282  function _mint(address to, uint256 tokenId) internal {... */\n    tag_307:\n        /* \"@openzeppelin/contracts/token/ERC721/ERC721.sol\":10036:10037  0 */\n      0x00\n        /* \"@openzeppelin/contracts/token/ERC721/ERC721.sol\":10022:10038  to == address(0) */\n      0xffffffffffffffffffffffffffffffffffffffff\n      and\n        /* \"@openzeppelin/contracts/token/ERC721/ERC721.sol\":10022:10024  to */\n      dup3\n        /* \"@openzeppelin/contracts/token/ERC721/ERC721.sol\":10022:10038  to == address(0) */\n      0xffffffffffffffffffffffffffffffffffffffff\n      and\n      sub\n        /* \"@openzeppelin/contracts/token/ERC721/ERC721.sol\":10018:10105  if (to == address(0)) {... */\n      tag_336\n      jumpi\n        /* \"@openzeppelin/contracts/token/ERC721/ERC721.sol\":10091:10092  0 */\n      0x00\n        /* \"@openzeppelin/contracts/token/ERC721/ERC721.sol\":10061:10094  ERC721InvalidReceiver(address(0)) */\n      mload(0x40)\n      0x64a0ae9200000000000000000000000000000000000000000000000000000000\n      dup2\n      mstore\n      0x04\n      add\n      tag_337\n      swap2\n      swap1\n      tag_42\n      jump\t// in\n    tag_337:\n      mload(0x40)\n      dup1\n      swap2\n      sub\n      swap1\n      revert\n        /* \"@openzeppelin/contracts/token/ERC721/ERC721.sol\":10018:10105  if (to == address(0)) {... */\n    tag_336:\n        /* \"@openzeppelin/contracts/token/ERC721/ERC721.sol\":10114:10135  address previousOwner */\n      0x00\n        /* \"@openzeppelin/contracts/token/ERC721/ERC721.sol\":10138:10170  _update(to, tokenId, address(0)) */\n      tag_338\n        /* \"@openzeppelin/contracts/token/ERC721/ERC721.sol\":10146:10148  to */\n      dup4\n        /* \"@openzeppelin/contracts/token/ERC721/ERC721.sol\":10150:10157  tokenId */\n      dup4\n        /* \"@openzeppelin/contracts/token/ERC721/ERC721.sol\":10167:10168  0 */\n      0x00\n        /* \"@openzeppelin/contracts/token/ERC721/ERC721.sol\":10138:10145  _update */\n      tag_143\n        /* \"@openzeppelin/contracts/token/ERC721/ERC721.sol\":10138:10170  _update(to, tokenId, address(0)) */\n      jump\t// in\n    tag_338:\n        /* \"@openzeppelin/contracts/token/ERC721/ERC721.sol\":10114:10170  address previousOwner = _update(to, tokenId, address(0)) */\n      swap1\n      pop\n        /* \"@openzeppelin/contracts/token/ERC721/ERC721.sol\":10209:10210  0 */\n      0x00\n        /* \"@openzeppelin/contracts/token/ERC721/ERC721.sol\":10184:10211  previousOwner != address(0) */\n      0xffffffffffffffffffffffffffffffffffffffff\n      and\n        /* \"@openzeppelin/contracts/token/ERC721/ERC721.sol\":10184:10197  previousOwner */\n      dup2\n        /* \"@openzeppelin/contracts/token/ERC721/ERC721.sol\":10184:10211  previousOwner != address(0) */\n      0xffffffffffffffffffffffffffffffffffffffff\n      and\n      eq\n        /* \"@openzeppelin/contracts/token/ERC721/ERC721.sol\":10180:10276  if (previousOwner != address(0)) {... */\n      tag_339\n      jumpi\n        /* \"@openzeppelin/contracts/token/ERC721/ERC721.sol\":10262:10263  0 */\n      0x00\n        /* \"@openzeppelin/contracts/token/ERC721/ERC721.sol\":10234:10265  ERC721InvalidSender(address(0)) */\n      mload(0x40)\n      0x73c6ac6e00000000000000000000000000000000000000000000000000000000\n      dup2\n      mstore\n      0x04\n      add\n      tag_340\n      swap2\n      swap1\n      tag_42\n      jump\t// in\n    tag_340:\n      mload(0x40)\n      dup1\n      swap2\n      sub\n      swap1\n      revert\n        /* \"@openzeppelin/contracts/token/ERC721/ERC721.sol\":10180:10276  if (previousOwner != address(0)) {... */\n    tag_339:\n        /* \"@openzeppelin/contracts/token/ERC721/ERC721.sol\":10008:10282  {... */\n      pop\n        /* \"@openzeppelin/contracts/token/ERC721/ERC721.sol\":9955:10282  function _mint(address to, uint256 tokenId) internal {... */\n      pop\n      pop\n      jump\t// out\n    tag_136:\n      mload(0x40)\n      dup1\n      0xa0\n      add\n      0x40\n      mstore\n      dup1\n      0x00\n      dup2\n      mstore\n      0x20\n      add\n      0x00\n      dup2\n      mstore\n      0x20\n      add\n      0x00\n      dup2\n      mstore\n      0x20\n      add\n      0x00\n      dup2\n      mstore\n      0x20\n      add\n      iszero(iszero(0x00))\n      dup2\n      mstore\n      pop\n      swap1\n      jump\t// out\n        /* \"#utility.yul\":7:82   */\n    tag_341:\n        /* \"#utility.yul\":40:46   */\n      0x00\n        /* \"#utility.yul\":73:75   */\n      0x40\n        /* \"#utility.yul\":67:76   */\n      mload\n        /* \"#utility.yul\":57:76   */\n      swap1\n      pop\n        /* \"#utility.yul\":7:82   */\n      swap1\n      jump\t// out\n        /* \"#utility.yul\":88:205   */\n    tag_342:\n        /* \"#utility.yul\":197:198   */\n      0x00\n        /* \"#utility.yul\":194:195   */\n      dup1\n        /* \"#utility.yul\":187:199   */\n      revert\n        /* \"#utility.yul\":211:328   */\n    tag_343:\n        /* \"#utility.yul\":320:321   */\n      0x00\n        /* \"#utility.yul\":317:318   */\n      dup1\n        /* \"#utility.yul\":310:322   */\n      revert\n        /* \"#utility.yul\":334:483   */\n    tag_344:\n        /* \"#utility.yul\":370:377   */\n      0x00\n        /* \"#utility.yul\":410:476   */\n      0xffffffff00000000000000000000000000000000000000000000000000000000\n        /* \"#utility.yul\":403:408   */\n      dup3\n        /* \"#utility.yul\":399:477   */\n      and\n        /* \"#utility.yul\":388:477   */\n      swap1\n      pop\n        /* \"#utility.yul\":334:483   */\n      swap2\n      swap1\n      pop\n      jump\t// out\n        /* \"#utility.yul\":489:609   */\n    tag_345:\n        /* \"#utility.yul\":561:584   */\n      tag_399\n        /* \"#utility.yul\":578:583   */\n      dup2\n        /* \"#utility.yul\":561:584   */\n      tag_344\n      jump\t// in\n    tag_399:\n        /* \"#utility.yul\":554:559   */\n      dup2\n        /* \"#utility.yul\":551:585   */\n      eq\n        /* \"#utility.yul\":541:603   */\n      tag_400\n      jumpi\n        /* \"#utility.yul\":599:600   */\n      0x00\n        /* \"#utility.yul\":596:597   */\n      dup1\n        /* \"#utility.yul\":589:601   */\n      revert\n        /* \"#utility.yul\":541:603   */\n    tag_400:\n        /* \"#utility.yul\":489:609   */\n      pop\n      jump\t// out\n        /* \"#utility.yul\":615:752   */\n    tag_346:\n        /* \"#utility.yul\":660:665   */\n      0x00\n        /* \"#utility.yul\":698:704   */\n      dup2\n        /* \"#utility.yul\":685:705   */\n      calldataload\n        /* \"#utility.yul\":676:705   */\n      swap1\n      pop\n        /* \"#utility.yul\":714:746   */\n      tag_402\n        /* \"#utility.yul\":740:745   */\n      dup2\n        /* \"#utility.yul\":714:746   */\n      tag_345\n      jump\t// in\n    tag_402:\n        /* \"#utility.yul\":615:752   */\n      swap3\n      swap2\n      pop\n      pop\n      jump\t// out\n        /* \"#utility.yul\":758:1085   */\n    tag_29:\n        /* \"#utility.yul\":816:822   */\n      0x00\n        /* \"#utility.yul\":865:867   */\n      0x20\n        /* \"#utility.yul\":853:862   */\n      dup3\n        /* \"#utility.yul\":844:851   */\n      dup5\n        /* \"#utility.yul\":840:863   */\n      sub\n        /* \"#utility.yul\":836:868   */\n      slt\n        /* \"#utility.yul\":833:952   */\n      iszero\n      tag_404\n      jumpi\n        /* \"#utility.yul\":871:950   */\n      tag_405\n      tag_342\n      jump\t// in\n    tag_405:\n        /* \"#utility.yul\":833:952   */\n    tag_404:\n        /* \"#utility.yul\":991:992   */\n      0x00\n        /* \"#utility.yul\":1016:1068   */\n      tag_406\n        /* \"#utility.yul\":1060:1067   */\n      dup5\n        /* \"#utility.yul\":1051:1057   */\n      dup3\n        /* \"#utility.yul\":1040:1049   */\n      dup6\n        /* \"#utility.yul\":1036:1058   */\n      add\n        /* \"#utility.yul\":1016:1068   */\n      tag_346\n      jump\t// in\n    tag_406:\n        /* \"#utility.yul\":1006:1068   */\n      swap2\n      pop\n        /* \"#utility.yul\":962:1078   */\n      pop\n        /* \"#utility.yul\":758:1085   */\n      swap3\n      swap2\n      pop\n      pop\n      jump\t// out\n        /* \"#utility.yul\":1091:1181   */\n    tag_347:\n        /* \"#utility.yul\":1125:1132   */\n      0x00\n        /* \"#utility.yul\":1168:1173   */\n      dup2\n        /* \"#utility.yul\":1161:1174   */\n      iszero\n        /* \"#utility.yul\":1154:1175   */\n      iszero\n        /* \"#utility.yul\":1143:1175   */\n      swap1\n      pop\n        /* \"#utility.yul\":1091:1181   */\n      swap2\n      swap1\n      pop\n      jump\t// out\n        /* \"#utility.yul\":1187:1296   */\n    tag_348:\n        /* \"#utility.yul\":1268:1289   */\n      tag_409\n        /* \"#utility.yul\":1283:1288   */\n      dup2\n        /* \"#utility.yul\":1268:1289   */\n      tag_347\n      jump\t// in\n    tag_409:\n        /* \"#utility.yul\":1263:1266   */\n      dup3\n        /* \"#utility.yul\":1256:1290   */\n      mstore\n        /* \"#utility.yul\":1187:1296   */\n      pop\n      pop\n      jump\t// out\n        /* \"#utility.yul\":1302:1512   */\n    tag_32:\n        /* \"#utility.yul\":1389:1393   */\n      0x00\n        /* \"#utility.yul\":1427:1429   */\n      0x20\n        /* \"#utility.yul\":1416:1425   */\n      dup3\n        /* \"#utility.yul\":1412:1430   */\n      add\n        /* \"#utility.yul\":1404:1430   */\n      swap1\n      pop\n        /* \"#utility.yul\":1440:1505   */\n      tag_411\n        /* \"#utility.yul\":1502:1503   */\n      0x00\n        /* \"#utility.yul\":1491:1500   */\n      dup4\n        /* \"#utility.yul\":1487:1504   */\n      add\n        /* \"#utility.yul\":1478:1484   */\n      dup5\n        /* \"#utility.yul\":1440:1505   */\n      tag_348\n      jump\t// in\n    tag_411:\n        /* \"#utility.yul\":1302:1512   */\n      swap3\n      swap2\n      pop\n      pop\n      jump\t// out\n        /* \"#utility.yul\":1518:1617   */\n    tag_349:\n        /* \"#utility.yul\":1570:1576   */\n      0x00\n        /* \"#utility.yul\":1604:1609   */\n      dup2\n        /* \"#utility.yul\":1598:1610   */\n      mload\n        /* \"#utility.yul\":1588:1610   */\n      swap1\n      pop\n        /* \"#utility.yul\":1518:1617   */\n      swap2\n      swap1\n      pop\n      jump\t// out\n        /* \"#utility.yul\":1623:1792   */\n    tag_350:\n        /* \"#utility.yul\":1707:1718   */\n      0x00\n        /* \"#utility.yul\":1741:1747   */\n      dup3\n        /* \"#utility.yul\":1736:1739   */\n      dup3\n        /* \"#utility.yul\":1729:1748   */\n      mstore\n        /* \"#utility.yul\":1781:1785   */\n      0x20\n        /* \"#utility.yul\":1776:1779   */\n      dup3\n        /* \"#utility.yul\":1772:1786   */\n      add\n        /* \"#utility.yul\":1757:1786   */\n      swap1\n      pop\n        /* \"#utility.yul\":1623:1792   */\n      swap3\n      swap2\n      pop\n      pop\n      jump\t// out\n        /* \"#utility.yul\":1798:1937   */\n    tag_351:\n        /* \"#utility.yul\":1887:1893   */\n      dup3\n        /* \"#utility.yul\":1882:1885   */\n      dup2\n        /* \"#utility.yul\":1877:1880   */\n      dup4\n        /* \"#utility.yul\":1871:1894   */\n      mcopy\n        /* \"#utility.yul\":1928:1929   */\n      0x00\n        /* \"#utility.yul\":1919:1925   */\n      dup4\n        /* \"#utility.yul\":1914:1917   */\n      dup4\n        /* \"#utility.yul\":1910:1926   */\n      add\n        /* \"#utility.yul\":1903:1930   */\n      mstore\n        /* \"#utility.yul\":1798:1937   */\n      pop\n      pop\n      pop\n      jump\t// out\n        /* \"#utility.yul\":1943:2045   */\n    tag_352:\n        /* \"#utility.yul\":1984:1990   */\n      0x00\n        /* \"#utility.yul\":2035:2037   */\n      0x1f\n        /* \"#utility.yul\":2031:2038   */\n      not\n        /* \"#utility.yul\":2026:2028   */\n      0x1f\n        /* \"#utility.yul\":2019:2024   */\n      dup4\n        /* \"#utility.yul\":2015:2029   */\n      add\n        /* \"#utility.yul\":2011:2039   */\n      and\n        /* \"#utility.yul\":2001:2039   */\n      swap1\n      pop\n        /* \"#utility.yul\":1943:2045   */\n      swap2\n      swap1\n      pop\n      jump\t// out\n        /* \"#utility.yul\":2051:2428   */\n    tag_353:\n        /* \"#utility.yul\":2139:2142   */\n      0x00\n        /* \"#utility.yul\":2167:2206   */\n      tag_417\n        /* \"#utility.yul\":2200:2205   */\n      dup3\n        /* \"#utility.yul\":2167:2206   */\n      tag_349\n      jump\t// in\n    tag_417:\n        /* \"#utility.yul\":2222:2293   */\n      tag_418\n        /* \"#utility.yul\":2286:2292   */\n      dup2\n        /* \"#utility.yul\":2281:2284   */\n      dup6\n        /* \"#utility.yul\":2222:2293   */\n      tag_350\n      jump\t// in\n    tag_418:\n        /* \"#utility.yul\":2215:2293   */\n      swap4\n      pop\n        /* \"#utility.yul\":2302:2367   */\n      tag_419\n        /* \"#utility.yul\":2360:2366   */\n      dup2\n        /* \"#utility.yul\":2355:2358   */\n      dup6\n        /* \"#utility.yul\":2348:2352   */\n      0x20\n        /* \"#utility.yul\":2341:2346   */\n      dup7\n        /* \"#utility.yul\":2337:2353   */\n      add\n        /* \"#utility.yul\":2302:2367   */\n      tag_351\n      jump\t// in\n    tag_419:\n        /* \"#utility.yul\":2392:2421   */\n      tag_420\n        /* \"#utility.yul\":2414:2420   */\n      dup2\n        /* \"#utility.yul\":2392:2421   */\n      tag_352\n      jump\t// in\n    tag_420:\n        /* \"#utility.yul\":2387:2390   */\n      dup5\n        /* \"#utility.yul\":2383:2422   */\n      add\n        /* \"#utility.yul\":2376:2422   */\n      swap2\n      pop\n        /* \"#utility.yul\":2143:2428   */\n      pop\n        /* \"#utility.yul\":2051:2428   */\n      swap3\n      swap2\n      pop\n      pop\n      jump\t// out\n        /* \"#utility.yul\":2434:2747   */\n    tag_36:\n        /* \"#utility.yul\":2547:2551   */\n      0x00\n        /* \"#utility.yul\":2585:2587   */\n      0x20\n        /* \"#utility.yul\":2574:2583   */\n      dup3\n        /* \"#utility.yul\":2570:2588   */\n      add\n        /* \"#utility.yul\":2562:2588   */\n      swap1\n      pop\n        /* \"#utility.yul\":2634:2643   */\n      dup2\n        /* \"#utility.yul\":2628:2632   */\n      dup2\n        /* \"#utility.yul\":2624:2644   */\n      sub\n        /* \"#utility.yul\":2620:2621   */\n      0x00\n        /* \"#utility.yul\":2609:2618   */\n      dup4\n        /* \"#utility.yul\":2605:2622   */\n      add\n        /* \"#utility.yul\":2598:2645   */\n      mstore\n        /* \"#utility.yul\":2662:2740   */\n      tag_422\n        /* \"#utility.yul\":2735:2739   */\n      dup2\n        /* \"#utility.yul\":2726:2732   */\n      dup5\n        /* \"#utility.yul\":2662:2740   */\n      tag_353\n      jump\t// in\n    tag_422:\n        /* \"#utility.yul\":2654:2740   */\n      swap1\n      pop\n        /* \"#utility.yul\":2434:2747   */\n      swap3\n      swap2\n      pop\n      pop\n      jump\t// out\n        /* \"#utility.yul\":2753:2830   */\n    tag_354:\n        /* \"#utility.yul\":2790:2797   */\n      0x00\n        /* \"#utility.yul\":2819:2824   */\n      dup2\n        /* \"#utility.yul\":2808:2824   */\n      swap1\n      pop\n        /* \"#utility.yul\":2753:2830   */\n      swap2\n      swap1\n      pop\n      jump\t// out\n        /* \"#utility.yul\":2836:2958   */\n    tag_355:\n        /* \"#utility.yul\":2909:2933   */\n      tag_425\n        /* \"#utility.yul\":2927:2932   */\n      dup2\n        /* \"#utility.yul\":2909:2933   */\n      tag_354\n      jump\t// in\n    tag_425:\n        /* \"#utility.yul\":2902:2907   */\n      dup2\n        /* \"#utility.yul\":2899:2934   */\n      eq\n        /* \"#utility.yul\":2889:2952   */\n      tag_426\n      jumpi\n        /* \"#utility.yul\":2948:2949   */\n      0x00\n        /* \"#utility.yul\":2945:2946   */\n      dup1\n        /* \"#utility.yul\":2938:2950   */\n      revert\n        /* \"#utility.yul\":2889:2952   */\n    tag_426:\n        /* \"#utility.yul\":2836:2958   */\n      pop\n      jump\t// out\n        /* \"#utility.yul\":2964:3103   */\n    tag_356:\n        /* \"#utility.yul\":3010:3015   */\n      0x00\n        /* \"#utility.yul\":3048:3054   */\n      dup2\n        /* \"#utility.yul\":3035:3055   */\n      calldataload\n        /* \"#utility.yul\":3026:3055   */\n      swap1\n      pop\n        /* \"#utility.yul\":3064:3097   */\n      tag_428\n        /* \"#utility.yul\":3091:3096   */\n      dup2\n        /* \"#utility.yul\":3064:3097   */\n      tag_355\n      jump\t// in\n    tag_428:\n        /* \"#utility.yul\":2964:3103   */\n      swap3\n      swap2\n      pop\n      pop\n      jump\t// out\n        /* \"#utility.yul\":3109:3438   */\n    tag_39:\n        /* \"#utility.yul\":3168:3174   */\n      0x00\n        /* \"#utility.yul\":3217:3219   */\n      0x20\n        /* \"#utility.yul\":3205:3214   */\n      dup3\n        /* \"#utility.yul\":3196:3203   */\n      dup5\n        /* \"#utility.yul\":3192:3215   */\n      sub\n        /* \"#utility.yul\":3188:3220   */\n      slt\n        /* \"#utility.yul\":3185:3304   */\n      iszero\n      tag_430\n      jumpi\n        /* \"#utility.yul\":3223:3302   */\n      tag_431\n      tag_342\n      jump\t// in\n    tag_431:\n        /* \"#utility.yul\":3185:3304   */\n    tag_430:\n        /* \"#utility.yul\":3343:3344   */\n      0x00\n        /* \"#utility.yul\":3368:3421   */\n      tag_432\n        /* \"#utility.yul\":3413:3420   */\n      dup5\n        /* \"#utility.yul\":3404:3410   */\n      dup3\n        /* \"#utility.yul\":3393:3402   */\n      dup6\n        /* \"#utility.yul\":3389:3411   */\n      add\n        /* \"#utility.yul\":3368:3421   */\n      tag_356\n      jump\t// in\n    tag_432:\n        /* \"#utility.yul\":3358:3421   */\n      swap2\n      pop\n        /* \"#utility.yul\":3314:3431   */\n      pop\n        /* \"#utility.yul\":3109:3438   */\n      swap3\n      swap2\n      pop\n      pop\n      jump\t// out\n        /* \"#utility.yul\":3444:3570   */\n    tag_357:\n        /* \"#utility.yul\":3481:3488   */\n      0x00\n        /* \"#utility.yul\":3521:3563   */\n      0xffffffffffffffffffffffffffffffffffffffff\n        /* \"#utility.yul\":3514:3519   */\n      dup3\n        /* \"#utility.yul\":3510:3564   */\n      and\n        /* \"#utility.yul\":3499:3564   */\n      swap1\n      pop\n        /* \"#utility.yul\":3444:3570   */\n      swap2\n      swap1\n      pop\n      jump\t// out\n        /* \"#utility.yul\":3576:3672   */\n    tag_358:\n        /* \"#utility.yul\":3613:3620   */\n      0x00\n        /* \"#utility.yul\":3642:3666   */\n      tag_435\n        /* \"#utility.yul\":3660:3665   */\n      dup3\n        /* \"#utility.yul\":3642:3666   */\n      tag_357\n      jump\t// in\n    tag_435:\n        /* \"#utility.yul\":3631:3666   */\n      swap1\n      pop\n        /* \"#utility.yul\":3576:3672   */\n      swap2\n      swap1\n      pop\n      jump\t// out\n        /* \"#utility.yul\":3678:3796   */\n    tag_359:\n        /* \"#utility.yul\":3765:3789   */\n      tag_437\n        /* \"#utility.yul\":3783:3788   */\n      dup2\n        /* \"#utility.yul\":3765:3789   */\n      tag_358\n      jump\t// in\n    tag_437:\n        /* \"#utility.yul\":3760:3763   */\n      dup3\n        /* \"#utility.yul\":3753:3790   */\n      mstore\n        /* \"#utility.yul\":3678:3796   */\n      pop\n      pop\n      jump\t// out\n        /* \"#utility.yul\":3802:4024   */\n    tag_42:\n        /* \"#utility.yul\":3895:3899   */\n      0x00\n        /* \"#utility.yul\":3933:3935   */\n      0x20\n        /* \"#utility.yul\":3922:3931   */\n      dup3\n        /* \"#utility.yul\":3918:3936   */\n      add\n        /* \"#utility.yul\":3910:3936   */\n      swap1\n      pop\n        /* \"#utility.yul\":3946:4017   */\n      tag_439\n        /* \"#utility.yul\":4014:4015   */\n      0x00\n        /* \"#utility.yul\":4003:4012   */\n      dup4\n        /* \"#utility.yul\":3999:4016   */\n      add\n        /* \"#utility.yul\":3990:3996   */\n      dup5\n        /* \"#utility.yul\":3946:4017   */\n      tag_359\n      jump\t// in\n    tag_439:\n        /* \"#utility.yul\":3802:4024   */\n      swap3\n      swap2\n      pop\n      pop\n      jump\t// out\n        /* \"#utility.yul\":4030:4152   */\n    tag_360:\n        /* \"#utility.yul\":4103:4127   */\n      tag_441\n        /* \"#utility.yul\":4121:4126   */\n      dup2\n        /* \"#utility.yul\":4103:4127   */\n      tag_358\n      jump\t// in\n    tag_441:\n        /* \"#utility.yul\":4096:4101   */\n      dup2\n        /* \"#utility.yul\":4093:4128   */\n      eq\n        /* \"#utility.yul\":4083:4146   */\n      tag_442\n      jumpi\n        /* \"#utility.yul\":4142:4143   */\n      0x00\n        /* \"#utility.yul\":4139:4140   */\n      dup1\n        /* \"#utility.yul\":4132:4144   */\n      revert\n        /* \"#utility.yul\":4083:4146   */\n    tag_442:\n        /* \"#utility.yul\":4030:4152   */\n      pop\n      jump\t// out\n        /* \"#utility.yul\":4158:4297   */\n    tag_361:\n        /* \"#utility.yul\":4204:4209   */\n      0x00\n        /* \"#utility.yul\":4242:4248   */\n      dup2\n        /* \"#utility.yul\":4229:4249   */\n      calldataload\n        /* \"#utility.yul\":4220:4249   */\n      swap1\n      pop\n        /* \"#utility.yul\":4258:4291   */\n      tag_444\n        /* \"#utility.yul\":4285:4290   */\n      dup2\n        /* \"#utility.yul\":4258:4291   */\n      tag_360\n      jump\t// in\n    tag_444:\n        /* \"#utility.yul\":4158:4297   */\n      swap3\n      swap2\n      pop\n      pop\n      jump\t// out\n        /* \"#utility.yul\":4303:4777   */\n    tag_45:\n        /* \"#utility.yul\":4371:4377   */\n      0x00\n        /* \"#utility.yul\":4379:4385   */\n      dup1\n        /* \"#utility.yul\":4428:4430   */\n      0x40\n        /* \"#utility.yul\":4416:4425   */\n      dup4\n        /* \"#utility.yul\":4407:4414   */\n      dup6\n        /* \"#utility.yul\":4403:4426   */\n      sub\n        /* \"#utility.yul\":4399:4431   */\n      slt\n        /* \"#utility.yul\":4396:4515   */\n      iszero\n      tag_446\n      jumpi\n        /* \"#utility.yul\":4434:4513   */\n      tag_447\n      tag_342\n      jump\t// in\n    tag_447:\n        /* \"#utility.yul\":4396:4515   */\n    tag_446:\n        /* \"#utility.yul\":4554:4555   */\n      0x00\n        /* \"#utility.yul\":4579:4632   */\n      tag_448\n        /* \"#utility.yul\":4624:4631   */\n      dup6\n        /* \"#utility.yul\":4615:4621   */\n      dup3\n        /* \"#utility.yul\":4604:4613   */\n      dup7\n        /* \"#utility.yul\":4600:4622   */\n      add\n        /* \"#utility.yul\":4579:4632   */\n      tag_361\n      jump\t// in\n    tag_448:\n        /* \"#utility.yul\":4569:4632   */\n      swap3\n      pop\n        /* \"#utility.yul\":4525:4642   */\n      pop\n        /* \"#utility.yul\":4681:4683   */\n      0x20\n        /* \"#utility.yul\":4707:4760   */\n      tag_449\n        /* \"#utility.yul\":4752:4759   */\n      dup6\n        /* \"#utility.yul\":4743:4749   */\n      dup3\n        /* \"#utility.yul\":4732:4741   */\n      dup7\n        /* \"#utility.yul\":4728:4750   */\n      add\n        /* \"#utility.yul\":4707:4760   */\n      tag_356\n      jump\t// in\n    tag_449:\n        /* \"#utility.yul\":4697:4760   */\n      swap2\n      pop\n        /* \"#utility.yul\":4652:4770   */\n      pop\n        /* \"#utility.yul\":4303:4777   */\n      swap3\n      pop\n      swap3\n      swap1\n      pop\n      jump\t// out\n        /* \"#utility.yul\":4783:4891   */\n    tag_362:\n        /* \"#utility.yul\":4860:4884   */\n      tag_451\n        /* \"#utility.yul\":4878:4883   */\n      dup2\n        /* \"#utility.yul\":4860:4884   */\n      tag_354\n      jump\t// in\n    tag_451:\n        /* \"#utility.yul\":4855:4858   */\n      dup3\n        /* \"#utility.yul\":4848:4885   */\n      mstore\n        /* \"#utility.yul\":4783:4891   */\n      pop\n      pop\n      jump\t// out\n        /* \"#utility.yul\":4897:4996   */\n    tag_363:\n        /* \"#utility.yul\":4968:4989   */\n      tag_453\n        /* \"#utility.yul\":4983:4988   */\n      dup2\n        /* \"#utility.yul\":4968:4989   */\n      tag_347\n      jump\t// in\n    tag_453:\n        /* \"#utility.yul\":4963:4966   */\n      dup3\n        /* \"#utility.yul\":4956:4990   */\n      mstore\n        /* \"#utility.yul\":4897:4996   */\n      pop\n      pop\n      jump\t// out\n        /* \"#utility.yul\":5066:6132   */\n    tag_364:\n        /* \"#utility.yul\":5225:5229   */\n      0xa0\n        /* \"#utility.yul\":5220:5223   */\n      dup3\n        /* \"#utility.yul\":5216:5230   */\n      add\n        /* \"#utility.yul\":5318:5322   */\n      0x00\n        /* \"#utility.yul\":5311:5316   */\n      dup3\n        /* \"#utility.yul\":5307:5323   */\n      add\n        /* \"#utility.yul\":5301:5324   */\n      mload\n        /* \"#utility.yul\":5337:5400   */\n      tag_455\n        /* \"#utility.yul\":5394:5398   */\n      0x00\n        /* \"#utility.yul\":5389:5392   */\n      dup6\n        /* \"#utility.yul\":5385:5399   */\n      add\n        /* \"#utility.yul\":5371:5383   */\n      dup3\n        /* \"#utility.yul\":5337:5400   */\n      tag_362\n      jump\t// in\n    tag_455:\n        /* \"#utility.yul\":5240:5410   */\n      pop\n        /* \"#utility.yul\":5503:5507   */\n      0x20\n        /* \"#utility.yul\":5496:5501   */\n      dup3\n        /* \"#utility.yul\":5492:5508   */\n      add\n        /* \"#utility.yul\":5486:5509   */\n      mload\n        /* \"#utility.yul\":5522:5585   */\n      tag_456\n        /* \"#utility.yul\":5579:5583   */\n      0x20\n        /* \"#utility.yul\":5574:5577   */\n      dup6\n        /* \"#utility.yul\":5570:5584   */\n      add\n        /* \"#utility.yul\":5556:5568   */\n      dup3\n        /* \"#utility.yul\":5522:5585   */\n      tag_362\n      jump\t// in\n    tag_456:\n        /* \"#utility.yul\":5420:5595   */\n      pop\n        /* \"#utility.yul\":5683:5687   */\n      0x40\n        /* \"#utility.yul\":5676:5681   */\n      dup3\n        /* \"#utility.yul\":5672:5688   */\n      add\n        /* \"#utility.yul\":5666:5689   */\n      mload\n        /* \"#utility.yul\":5702:5765   */\n      tag_457\n        /* \"#utility.yul\":5759:5763   */\n      0x40\n        /* \"#utility.yul\":5754:5757   */\n      dup6\n        /* \"#utility.yul\":5750:5764   */\n      add\n        /* \"#utility.yul\":5736:5748   */\n      dup3\n        /* \"#utility.yul\":5702:5765   */\n      tag_362\n      jump\t// in\n    tag_457:\n        /* \"#utility.yul\":5605:5775   */\n      pop\n        /* \"#utility.yul\":5861:5865   */\n      0x60\n        /* \"#utility.yul\":5854:5859   */\n      dup3\n        /* \"#utility.yul\":5850:5866   */\n      add\n        /* \"#utility.yul\":5844:5867   */\n      mload\n        /* \"#utility.yul\":5880:5943   */\n      tag_458\n        /* \"#utility.yul\":5937:5941   */\n      0x60\n        /* \"#utility.yul\":5932:5935   */\n      dup6\n        /* \"#utility.yul\":5928:5942   */\n      add\n        /* \"#utility.yul\":5914:5926   */\n      dup3\n        /* \"#utility.yul\":5880:5943   */\n      tag_362\n      jump\t// in\n    tag_458:\n        /* \"#utility.yul\":5785:5953   */\n      pop\n        /* \"#utility.yul\":6039:6043   */\n      0x80\n        /* \"#utility.yul\":6032:6037   */\n      dup3\n        /* \"#utility.yul\":6028:6044   */\n      add\n        /* \"#utility.yul\":6022:6045   */\n      mload\n        /* \"#utility.yul\":6058:6115   */\n      tag_459\n        /* \"#utility.yul\":6109:6113   */\n      0x80\n        /* \"#utility.yul\":6104:6107   */\n      dup6\n        /* \"#utility.yul\":6100:6114   */\n      add\n        /* \"#utility.yul\":6086:6098   */\n      dup3\n        /* \"#utility.yul\":6058:6115   */\n      tag_363\n      jump\t// in\n    tag_459:\n        /* \"#utility.yul\":5963:6125   */\n      pop\n        /* \"#utility.yul\":5194:6132   */\n      pop\n        /* \"#utility.yul\":5066:6132   */\n      pop\n      pop\n      jump\t// out\n        /* \"#utility.yul\":6138:6485   */\n    tag_51:\n        /* \"#utility.yul\":6293:6297   */\n      0x00\n        /* \"#utility.yul\":6331:6334   */\n      0xa0\n        /* \"#utility.yul\":6320:6329   */\n      dup3\n        /* \"#utility.yul\":6316:6335   */\n      add\n        /* \"#utility.yul\":6308:6335   */\n      swap1\n      pop\n        /* \"#utility.yul\":6345:6478   */\n      tag_461\n        /* \"#utility.yul\":6475:6476   */\n      0x00\n        /* \"#utility.yul\":6464:6473   */\n      dup4\n        /* \"#utility.yul\":6460:6477   */\n      add\n        /* \"#utility.yul\":6451:6457   */\n      dup5\n        /* \"#utility.yul\":6345:6478   */\n      tag_364\n      jump\t// in\n    tag_461:\n        /* \"#utility.yul\":6138:6485   */\n      swap3\n      swap2\n      pop\n      pop\n      jump\t// out\n        /* \"#utility.yul\":6491:7110   */\n    tag_54:\n        /* \"#utility.yul\":6568:6574   */\n      0x00\n        /* \"#utility.yul\":6576:6582   */\n      dup1\n        /* \"#utility.yul\":6584:6590   */\n      0x00\n        /* \"#utility.yul\":6633:6635   */\n      0x60\n        /* \"#utility.yul\":6621:6630   */\n      dup5\n        /* \"#utility.yul\":6612:6619   */\n      dup7\n        /* \"#utility.yul\":6608:6631   */\n      sub\n        /* \"#utility.yul\":6604:6636   */\n      slt\n        /* \"#utility.yul\":6601:6720   */\n      iszero\n      tag_463\n      jumpi\n        /* \"#utility.yul\":6639:6718   */\n      tag_464\n      tag_342\n      jump\t// in\n    tag_464:\n        /* \"#utility.yul\":6601:6720   */\n    tag_463:\n        /* \"#utility.yul\":6759:6760   */\n      0x00\n        /* \"#utility.yul\":6784:6837   */\n      tag_465\n        /* \"#utility.yul\":6829:6836   */\n      dup7\n        /* \"#utility.yul\":6820:6826   */\n      dup3\n        /* \"#utility.yul\":6809:6818   */\n      dup8\n        /* \"#utility.yul\":6805:6827   */\n      add\n        /* \"#utility.yul\":6784:6837   */\n      tag_361\n      jump\t// in\n    tag_465:\n        /* \"#utility.yul\":6774:6837   */\n      swap4\n      pop\n        /* \"#utility.yul\":6730:6847   */\n      pop\n        /* \"#utility.yul\":6886:6888   */\n      0x20\n        /* \"#utility.yul\":6912:6965   */\n      tag_466\n        /* \"#utility.yul\":6957:6964   */\n      dup7\n        /* \"#utility.yul\":6948:6954   */\n      dup3\n        /* \"#utility.yul\":6937:6946   */\n      dup8\n        /* \"#utility.yul\":6933:6955   */\n      add\n        /* \"#utility.yul\":6912:6965   */\n      tag_361\n      jump\t// in\n    tag_466:\n        /* \"#utility.yul\":6902:6965   */\n      swap3\n      pop\n        /* \"#utility.yul\":6857:6975   */\n      pop\n        /* \"#utility.yul\":7014:7016   */\n      0x40\n        /* \"#utility.yul\":7040:7093   */\n      tag_467\n        /* \"#utility.yul\":7085:7092   */\n      dup7\n        /* \"#utility.yul\":7076:7082   */\n      dup3\n        /* \"#utility.yul\":7065:7074   */\n      dup8\n        /* \"#utility.yul\":7061:7083   */\n      add\n        /* \"#utility.yul\":7040:7093   */\n      tag_356\n      jump\t// in\n    tag_467:\n        /* \"#utility.yul\":7030:7093   */\n      swap2\n      pop\n        /* \"#utility.yul\":6985:7103   */\n      pop\n        /* \"#utility.yul\":6491:7110   */\n      swap3\n      pop\n      swap3\n      pop\n      swap3\n      jump\t// out\n        /* \"#utility.yul\":7116:7234   */\n    tag_365:\n        /* \"#utility.yul\":7203:7227   */\n      tag_469\n        /* \"#utility.yul\":7221:7226   */\n      dup2\n        /* \"#utility.yul\":7203:7227   */\n      tag_354\n      jump\t// in\n    tag_469:\n        /* \"#utility.yul\":7198:7201   */\n      dup3\n        /* \"#utility.yul\":7191:7228   */\n      mstore\n        /* \"#utility.yul\":7116:7234   */\n      pop\n      pop\n      jump\t// out\n        /* \"#utility.yul\":7240:7892   */\n    tag_60:\n        /* \"#utility.yul\":7439:7443   */\n      0x00\n        /* \"#utility.yul\":7477:7480   */\n      0xa0\n        /* \"#utility.yul\":7466:7475   */\n      dup3\n        /* \"#utility.yul\":7462:7481   */\n      add\n        /* \"#utility.yul\":7454:7481   */\n      swap1\n      pop\n        /* \"#utility.yul\":7491:7562   */\n      tag_471\n        /* \"#utility.yul\":7559:7560   */\n      0x00\n        /* \"#utility.yul\":7548:7557   */\n      dup4\n        /* \"#utility.yul\":7544:7561   */\n      add\n        /* \"#utility.yul\":7535:7541   */\n      dup9\n        /* \"#utility.yul\":7491:7562   */\n      tag_365\n      jump\t// in\n    tag_471:\n        /* \"#utility.yul\":7572:7644   */\n      tag_472\n        /* \"#utility.yul\":7640:7642   */\n      0x20\n        /* \"#utility.yul\":7629:7638   */\n      dup4\n        /* \"#utility.yul\":7625:7643   */\n      add\n        /* \"#utility.yul\":7616:7622   */\n      dup8\n        /* \"#utility.yul\":7572:7644   */\n      tag_365\n      jump\t// in\n    tag_472:\n        /* \"#utility.yul\":7654:7726   */\n      tag_473\n        /* \"#utility.yul\":7722:7724   */\n      0x40\n        /* \"#utility.yul\":7711:7720   */\n      dup4\n        /* \"#utility.yul\":7707:7725   */\n      add\n        /* \"#utility.yul\":7698:7704   */\n      dup7\n        /* \"#utility.yul\":7654:7726   */\n      tag_365\n      jump\t// in\n    tag_473:\n        /* \"#utility.yul\":7736:7808   */\n      tag_474\n        /* \"#utility.yul\":7804:7806   */\n      0x60\n        /* \"#utility.yul\":7793:7802   */\n      dup4\n        /* \"#utility.yul\":7789:7807   */\n      add\n        /* \"#utility.yul\":7780:7786   */\n      dup6\n        /* \"#utility.yul\":7736:7808   */\n      tag_365\n      jump\t// in\n    tag_474:\n        /* \"#utility.yul\":7818:7885   */\n      tag_475\n        /* \"#utility.yul\":7880:7883   */\n      0x80\n        /* \"#utility.yul\":7869:7878   */\n      dup4\n        /* \"#utility.yul\":7865:7884   */\n      add\n        /* \"#utility.yul\":7856:7862   */\n      dup5\n        /* \"#utility.yul\":7818:7885   */\n      tag_348\n      jump\t// in\n    tag_475:\n        /* \"#utility.yul\":7240:7892   */\n      swap7\n      swap6\n      pop\n      pop\n      pop\n      pop\n      pop\n      pop\n      jump\t// out\n        /* \"#utility.yul\":7898:8809   */\n    tag_63:\n        /* \"#utility.yul\":7993:7999   */\n      0x00\n        /* \"#utility.yul\":8001:8007   */\n      dup1\n        /* \"#utility.yul\":8009:8015   */\n      0x00\n        /* \"#utility.yul\":8017:8023   */\n      dup1\n        /* \"#utility.yul\":8025:8031   */\n      0x00\n        /* \"#utility.yul\":8074:8077   */\n      0xa0\n        /* \"#utility.yul\":8062:8071   */\n      dup7\n        /* \"#utility.yul\":8053:8060   */\n      dup9\n        /* \"#utility.yul\":8049:8072   */\n      sub\n        /* \"#utility.yul\":8045:8078   */\n      slt\n        /* \"#utility.yul\":8042:8162   */\n      iszero\n      tag_477\n      jumpi\n        /* \"#utility.yul\":8081:8160   */\n      tag_478\n      tag_342\n      jump\t// in\n    tag_478:\n        /* \"#utility.yul\":8042:8162   */\n    tag_477:\n        /* \"#utility.yul\":8201:8202   */\n      0x00\n        /* \"#utility.yul\":8226:8279   */\n      tag_479\n        /* \"#utility.yul\":8271:8278   */\n      dup9\n        /* \"#utility.yul\":8262:8268   */\n      dup3\n        /* \"#utility.yul\":8251:8260   */\n      dup10\n        /* \"#utility.yul\":8247:8269   */\n      add\n        /* \"#utility.yul\":8226:8279   */\n      tag_356\n      jump\t// in\n    tag_479:\n        /* \"#utility.yul\":8216:8279   */\n      swap6\n      pop\n        /* \"#utility.yul\":8172:8289   */\n      pop\n        /* \"#utility.yul\":8328:8330   */\n      0x20\n        /* \"#utility.yul\":8354:8407   */\n      tag_480\n        /* \"#utility.yul\":8399:8406   */\n      dup9\n        /* \"#utility.yul\":8390:8396   */\n      dup3\n        /* \"#utility.yul\":8379:8388   */\n      dup10\n        /* \"#utility.yul\":8375:8397   */\n      add\n        /* \"#utility.yul\":8354:8407   */\n      tag_356\n      jump\t// in\n    tag_480:\n        /* \"#utility.yul\":8344:8407   */\n      swap5\n      pop\n        /* \"#utility.yul\":8299:8417   */\n      pop\n        /* \"#utility.yul\":8456:8458   */\n      0x40\n        /* \"#utility.yul\":8482:8535   */\n      tag_481\n        /* \"#utility.yul\":8527:8534   */\n      dup9\n        /* \"#utility.yul\":8518:8524   */\n      dup3\n        /* \"#utility.yul\":8507:8516   */\n      dup10\n        /* \"#utility.yul\":8503:8525   */\n      add\n        /* \"#utility.yul\":8482:8535   */\n      tag_356\n      jump\t// in\n    tag_481:\n        /* \"#utility.yul\":8472:8535   */\n      swap4\n      pop\n        /* \"#utility.yul\":8427:8545   */\n      pop\n        /* \"#utility.yul\":8584:8586   */\n      0x60\n        /* \"#utility.yul\":8610:8663   */\n      tag_482\n        /* \"#utility.yul\":8655:8662   */\n      dup9\n        /* \"#utility.yul\":8646:8652   */\n      dup3\n        /* \"#utility.yul\":8635:8644   */\n      dup10\n        /* \"#utility.yul\":8631:8653   */\n      add\n        /* \"#utility.yul\":8610:8663   */\n      tag_356\n      jump\t// in\n    tag_482:\n        /* \"#utility.yul\":8600:8663   */\n      swap3\n      pop\n        /* \"#utility.yul\":8555:8673   */\n      pop\n        /* \"#utility.yul\":8712:8715   */\n      0x80\n        /* \"#utility.yul\":8739:8792   */\n      tag_483\n        /* \"#utility.yul\":8784:8791   */\n      dup9\n        /* \"#utility.yul\":8775:8781   */\n      dup3\n        /* \"#utility.yul\":8764:8773   */\n      dup10\n        /* \"#utility.yul\":8760:8782   */\n      add\n        /* \"#utility.yul\":8739:8792   */\n      tag_356\n      jump\t// in\n    tag_483:\n        /* \"#utility.yul\":8729:8792   */\n      swap2\n      pop\n        /* \"#utility.yul\":8683:8802   */\n      pop\n        /* \"#utility.yul\":7898:8809   */\n      swap3\n      swap6\n      pop\n      swap3\n      swap6\n      swap1\n      swap4\n      pop\n      jump\t// out\n        /* \"#utility.yul\":8815:9144   */\n    tag_74:\n        /* \"#utility.yul\":8874:8880   */\n      0x00\n        /* \"#utility.yul\":8923:8925   */\n      0x20\n        /* \"#utility.yul\":8911:8920   */\n      dup3\n        /* \"#utility.yul\":8902:8909   */\n      dup5\n        /* \"#utility.yul\":8898:8921   */\n      sub\n        /* \"#utility.yul\":8894:8926   */\n      slt\n        /* \"#utility.yul\":8891:9010   */\n      iszero\n      tag_485\n      jumpi\n        /* \"#utility.yul\":8929:9008   */\n      tag_486\n      tag_342\n      jump\t// in\n    tag_486:\n        /* \"#utility.yul\":8891:9010   */\n    tag_485:\n        /* \"#utility.yul\":9049:9050   */\n      0x00\n        /* \"#utility.yul\":9074:9127   */\n      tag_487\n        /* \"#utility.yul\":9119:9126   */\n      dup5\n        /* \"#utility.yul\":9110:9116   */\n      dup3\n        /* \"#utility.yul\":9099:9108   */\n      dup6\n        /* \"#utility.yul\":9095:9117   */\n      add\n        /* \"#utility.yul\":9074:9127   */\n      tag_361\n      jump\t// in\n    tag_487:\n        /* \"#utility.yul\":9064:9127   */\n      swap2\n      pop\n        /* \"#utility.yul\":9020:9137   */\n      pop\n        /* \"#utility.yul\":8815:9144   */\n      swap3\n      swap2\n      pop\n      pop\n      jump\t// out\n        /* \"#utility.yul\":9150:9372   */\n    tag_77:\n        /* \"#utility.yul\":9243:9247   */\n      0x00\n        /* \"#utility.yul\":9281:9283   */\n      0x20\n        /* \"#utility.yul\":9270:9279   */\n      dup3\n        /* \"#utility.yul\":9266:9284   */\n      add\n        /* \"#utility.yul\":9258:9284   */\n      swap1\n      pop\n        /* \"#utility.yul\":9294:9365   */\n      tag_489\n        /* \"#utility.yul\":9362:9363   */\n      0x00\n        /* \"#utility.yul\":9351:9360   */\n      dup4\n        /* \"#utility.yul\":9347:9364   */\n      add\n        /* \"#utility.yul\":9338:9344   */\n      dup5\n        /* \"#utility.yul\":9294:9365   */\n      tag_365\n      jump\t// in\n    tag_489:\n        /* \"#utility.yul\":9150:9372   */\n      swap3\n      swap2\n      pop\n      pop\n      jump\t// out\n        /* \"#utility.yul\":9378:10435   */\n    tag_91:\n        /* \"#utility.yul\":9482:9488   */\n      0x00\n        /* \"#utility.yul\":9490:9496   */\n      dup1\n        /* \"#utility.yul\":9498:9504   */\n      0x00\n        /* \"#utility.yul\":9506:9512   */\n      dup1\n        /* \"#utility.yul\":9514:9520   */\n      0x00\n        /* \"#utility.yul\":9522:9528   */\n      dup1\n        /* \"#utility.yul\":9571:9574   */\n      0xc0\n        /* \"#utility.yul\":9559:9568   */\n      dup8\n        /* \"#utility.yul\":9550:9557   */\n      dup10\n        /* \"#utility.yul\":9546:9569   */\n      sub\n        /* \"#utility.yul\":9542:9575   */\n      slt\n        /* \"#utility.yul\":9539:9659   */\n      iszero\n      tag_491\n      jumpi\n        /* \"#utility.yul\":9578:9657   */\n      tag_492\n      tag_342\n      jump\t// in\n    tag_492:\n        /* \"#utility.yul\":9539:9659   */\n    tag_491:\n        /* \"#utility.yul\":9698:9699   */\n      0x00\n        /* \"#utility.yul\":9723:9776   */\n      tag_493\n        /* \"#utility.yul\":9768:9775   */\n      dup10\n        /* \"#utility.yul\":9759:9765   */\n      dup3\n        /* \"#utility.yul\":9748:9757   */\n      dup11\n        /* \"#utility.yul\":9744:9766   */\n      add\n        /* \"#utility.yul\":9723:9776   */\n      tag_361\n      jump\t// in\n    tag_493:\n        /* \"#utility.yul\":9713:9776   */\n      swap7\n      pop\n        /* \"#utility.yul\":9669:9786   */\n      pop\n        /* \"#utility.yul\":9825:9827   */\n      0x20\n        /* \"#utility.yul\":9851:9904   */\n      tag_494\n        /* \"#utility.yul\":9896:9903   */\n      dup10\n        /* \"#utility.yul\":9887:9893   */\n      dup3\n        /* \"#utility.yul\":9876:9885   */\n      dup11\n        /* \"#utility.yul\":9872:9894   */\n      add\n        /* \"#utility.yul\":9851:9904   */\n      tag_356\n      jump\t// in\n    tag_494:\n        /* \"#utility.yul\":9841:9904   */\n      swap6\n      pop\n        /* \"#utility.yul\":9796:9914   */\n      pop\n        /* \"#utility.yul\":9953:9955   */\n      0x40\n        /* \"#utility.yul\":9979:10032   */\n      tag_495\n        /* \"#utility.yul\":10024:10031   */\n      dup10\n        /* \"#utility.yul\":10015:10021   */\n      dup3\n        /* \"#utility.yul\":10004:10013   */\n      dup11\n        /* \"#utility.yul\":10000:10022   */\n      add\n        /* \"#utility.yul\":9979:10032   */\n      tag_356\n      jump\t// in\n    tag_495:\n        /* \"#utility.yul\":9969:10032   */\n      swap5\n      pop\n        /* \"#utility.yul\":9924:10042   */\n      pop\n        /* \"#utility.yul\":10081:10083   */\n      0x60\n        /* \"#utility.yul\":10107:10160   */\n      tag_496\n        /* \"#utility.yul\":10152:10159   */\n      dup10\n        /* \"#utility.yul\":10143:10149   */\n      dup3\n        /* \"#utility.yul\":10132:10141   */\n      dup11\n        /* \"#utility.yul\":10128:10150   */\n      add\n        /* \"#utility.yul\":10107:10160   */\n      tag_356\n      jump\t// in\n    tag_496:\n        /* \"#utility.yul\":10097:10160   */\n      swap4\n      pop\n        /* \"#utility.yul\":10052:10170   */\n      pop\n        /* \"#utility.yul\":10209:10212   */\n      0x80\n        /* \"#utility.yul\":10236:10289   */\n      tag_497\n        /* \"#utility.yul\":10281:10288   */\n      dup10\n        /* \"#utility.yul\":10272:10278   */\n      dup3\n        /* \"#utility.yul\":10261:10270   */\n      dup11\n        /* \"#utility.yul\":10257:10279   */\n      add\n        /* \"#utility.yul\":10236:10289   */\n      tag_356\n      jump\t// in\n    tag_497:\n        /* \"#utility.yul\":10226:10289   */\n      swap3\n      pop\n        /* \"#utility.yul\":10180:10299   */\n      pop\n        /* \"#utility.yul\":10338:10341   */\n      0xa0\n        /* \"#utility.yul\":10365:10418   */\n      tag_498\n        /* \"#utility.yul\":10410:10417   */\n      dup10\n        /* \"#utility.yul\":10401:10407   */\n      dup3\n        /* \"#utility.yul\":10390:10399   */\n      dup11\n        /* \"#utility.yul\":10386:10408   */\n      add\n        /* \"#utility.yul\":10365:10418   */\n      tag_356\n      jump\t// in\n    tag_498:\n        /* \"#utility.yul\":10355:10418   */\n      swap2\n      pop\n        /* \"#utility.yul\":10309:10428   */\n      pop\n        /* \"#utility.yul\":9378:10435   */\n      swap3\n      swap6\n      pop\n      swap3\n      swap6\n      pop\n      swap3\n      swap6\n      jump\t// out\n        /* \"#utility.yul\":10441:10557   */\n    tag_366:\n        /* \"#utility.yul\":10511:10532   */\n      tag_500\n        /* \"#utility.yul\":10526:10531   */\n      dup2\n        /* \"#utility.yul\":10511:10532   */\n      tag_347\n      jump\t// in\n    tag_500:\n        /* \"#utility.yul\":10504:10509   */\n      dup2\n        /* \"#utility.yul\":10501:10533   */\n      eq\n        /* \"#utility.yul\":10491:10551   */\n      tag_501\n      jumpi\n        /* \"#utility.yul\":10547:10548   */\n      0x00\n        /* \"#utility.yul\":10544:10545   */\n      dup1\n        /* \"#utility.yul\":10537:10549   */\n      revert\n        /* \"#utility.yul\":10491:10551   */\n    tag_501:\n        /* \"#utility.yul\":10441:10557   */\n      pop\n      jump\t// out\n        /* \"#utility.yul\":10563:10696   */\n    tag_367:\n        /* \"#utility.yul\":10606:10611   */\n      0x00\n        /* \"#utility.yul\":10644:10650   */\n      dup2\n        /* \"#utility.yul\":10631:10651   */\n      calldataload\n        /* \"#utility.yul\":10622:10651   */\n      swap1\n      pop\n        /* \"#utility.yul\":10660:10690   */\n      tag_503\n        /* \"#utility.yul\":10684:10689   */\n      dup2\n        /* \"#utility.yul\":10660:10690   */\n      tag_366\n      jump\t// in\n    tag_503:\n        /* \"#utility.yul\":10563:10696   */\n      swap3\n      swap2\n      pop\n      pop\n      jump\t// out\n        /* \"#utility.yul\":10702:11170   */\n    tag_95:\n        /* \"#utility.yul\":10767:10773   */\n      0x00\n        /* \"#utility.yul\":10775:10781   */\n      dup1\n        /* \"#utility.yul\":10824:10826   */\n      0x40\n        /* \"#utility.yul\":10812:10821   */\n      dup4\n        /* \"#utility.yul\":10803:10810   */\n      dup6\n        /* \"#utility.yul\":10799:10822   */\n      sub\n        /* \"#utility.yul\":10795:10827   */\n      slt\n        /* \"#utility.yul\":10792:10911   */\n      iszero\n      tag_505\n      jumpi\n        /* \"#utility.yul\":10830:10909   */\n      tag_506\n      tag_342\n      jump\t// in\n    tag_506:\n        /* \"#utility.yul\":10792:10911   */\n    tag_505:\n        /* \"#utility.yul\":10950:10951   */\n      0x00\n        /* \"#utility.yul\":10975:11028   */\n      tag_507\n        /* \"#utility.yul\":11020:11027   */\n      dup6\n        /* \"#utility.yul\":11011:11017   */\n      dup3\n        /* \"#utility.yul\":11000:11009   */\n      dup7\n        /* \"#utility.yul\":10996:11018   */\n      add\n        /* \"#utility.yul\":10975:11028   */\n      tag_361\n      jump\t// in\n    tag_507:\n        /* \"#utility.yul\":10965:11028   */\n      swap3\n      pop\n        /* \"#utility.yul\":10921:11038   */\n      pop\n        /* \"#utility.yul\":11077:11079   */\n      0x20\n        /* \"#utility.yul\":11103:11153   */\n      tag_508\n        /* \"#utility.yul\":11145:11152   */\n      dup6\n        /* \"#utility.yul\":11136:11142   */\n      dup3\n        /* \"#utility.yul\":11125:11134   */\n      dup7\n        /* \"#utility.yul\":11121:11143   */\n      add\n        /* \"#utility.yul\":11103:11153   */\n      tag_367\n      jump\t// in\n    tag_508:\n        /* \"#utility.yul\":11093:11153   */\n      swap2\n      pop\n        /* \"#utility.yul\":11048:11163   */\n      pop\n        /* \"#utility.yul\":10702:11170   */\n      swap3\n      pop\n      swap3\n      swap1\n      pop\n      jump\t// out\n        /* \"#utility.yul\":11176:11293   */\n    tag_368:\n        /* \"#utility.yul\":11285:11286   */\n      0x00\n        /* \"#utility.yul\":11282:11283   */\n      dup1\n        /* \"#utility.yul\":11275:11287   */\n      revert\n        /* \"#utility.yul\":11299:11416   */\n    tag_369:\n        /* \"#utility.yul\":11408:11409   */\n      0x00\n        /* \"#utility.yul\":11405:11406   */\n      dup1\n        /* \"#utility.yul\":11398:11410   */\n      revert\n        /* \"#utility.yul\":11422:11602   */\n    tag_277:\n        /* \"#utility.yul\":11470:11547   */\n      0x4e487b7100000000000000000000000000000000000000000000000000000000\n        /* \"#utility.yul\":11467:11468   */\n      0x00\n        /* \"#utility.yul\":11460:11548   */\n      mstore\n        /* \"#utility.yul\":11567:11571   */\n      0x41\n        /* \"#utility.yul\":11564:11565   */\n      0x04\n        /* \"#utility.yul\":11557:11572   */\n      mstore\n        /* \"#utility.yul\":11591:11595   */\n      0x24\n        /* \"#utility.yul\":11588:11589   */\n      0x00\n        /* \"#utility.yul\":11581:11596   */\n      revert\n        /* \"#utility.yul\":11608:11889   */\n    tag_370:\n        /* \"#utility.yul\":11691:11718   */\n      tag_513\n        /* \"#utility.yul\":11713:11717   */\n      dup3\n        /* \"#utility.yul\":11691:11718   */\n      tag_352\n      jump\t// in\n    tag_513:\n        /* \"#utility.yul\":11683:11689   */\n      dup2\n        /* \"#utility.yul\":11679:11719   */\n      add\n        /* \"#utility.yul\":11821:11827   */\n      dup2\n        /* \"#utility.yul\":11809:11819   */\n      dup2\n        /* \"#utility.yul\":11806:11828   */\n      lt\n        /* \"#utility.yul\":11785:11803   */\n      0xffffffffffffffff\n        /* \"#utility.yul\":11773:11783   */\n      dup3\n        /* \"#utility.yul\":11770:11804   */\n      gt\n        /* \"#utility.yul\":11767:11829   */\n      or\n        /* \"#utility.yul\":11764:11852   */\n      iszero\n      tag_514\n      jumpi\n        /* \"#utility.yul\":11832:11850   */\n      tag_515\n      tag_277\n      jump\t// in\n    tag_515:\n        /* \"#utility.yul\":11764:11852   */\n    tag_514:\n        /* \"#utility.yul\":11872:11882   */\n      dup1\n        /* \"#utility.yul\":11868:11870   */\n      0x40\n        /* \"#utility.yul\":11861:11883   */\n      mstore\n        /* \"#utility.yul\":11651:11889   */\n      pop\n        /* \"#utility.yul\":11608:11889   */\n      pop\n      pop\n      jump\t// out\n        /* \"#utility.yul\":11895:12024   */\n    tag_371:\n        /* \"#utility.yul\":11929:11935   */\n      0x00\n        /* \"#utility.yul\":11956:11976   */\n      tag_517\n      tag_341\n      jump\t// in\n    tag_517:\n        /* \"#utility.yul\":11946:11976   */\n      swap1\n      pop\n        /* \"#utility.yul\":11985:12018   */\n      tag_518\n        /* \"#utility.yul\":12013:12017   */\n      dup3\n        /* \"#utility.yul\":12005:12011   */\n      dup3\n        /* \"#utility.yul\":11985:12018   */\n      tag_370\n      jump\t// in\n    tag_518:\n        /* \"#utility.yul\":11895:12024   */\n      swap2\n      swap1\n      pop\n      jump\t// out\n        /* \"#utility.yul\":12030:12337   */\n    tag_372:\n        /* \"#utility.yul\":12091:12095   */\n      0x00\n        /* \"#utility.yul\":12181:12199   */\n      0xffffffffffffffff\n        /* \"#utility.yul\":12173:12179   */\n      dup3\n        /* \"#utility.yul\":12170:12200   */\n      gt\n        /* \"#utility.yul\":12167:12223   */\n      iszero\n      tag_520\n      jumpi\n        /* \"#utility.yul\":12203:12221   */\n      tag_521\n      tag_277\n      jump\t// in\n    tag_521:\n        /* \"#utility.yul\":12167:12223   */\n    tag_520:\n        /* \"#utility.yul\":12241:12270   */\n      tag_522\n        /* \"#utility.yul\":12263:12269   */\n      dup3\n        /* \"#utility.yul\":12241:12270   */\n      tag_352\n      jump\t// in\n    tag_522:\n        /* \"#utility.yul\":12233:12270   */\n      swap1\n      pop\n        /* \"#utility.yul\":12325:12329   */\n      0x20\n        /* \"#utility.yul\":12319:12323   */\n      dup2\n        /* \"#utility.yul\":12315:12330   */\n      add\n        /* \"#utility.yul\":12307:12330   */\n      swap1\n      pop\n        /* \"#utility.yul\":12030:12337   */\n      swap2\n      swap1\n      pop\n      jump\t// out\n        /* \"#utility.yul\":12343:12491   */\n    tag_373:\n        /* \"#utility.yul\":12441:12447   */\n      dup3\n        /* \"#utility.yul\":12436:12439   */\n      dup2\n        /* \"#utility.yul\":12431:12434   */\n      dup4\n        /* \"#utility.yul\":12418:12448   */\n      calldatacopy\n        /* \"#utility.yul\":12482:12483   */\n      0x00\n        /* \"#utility.yul\":12473:12479   */\n      dup4\n        /* \"#utility.yul\":12468:12471   */\n      dup4\n        /* \"#utility.yul\":12464:12480   */\n      add\n        /* \"#utility.yul\":12457:12484   */\n      mstore\n        /* \"#utility.yul\":12343:12491   */\n      pop\n      pop\n      pop\n      jump\t// out\n        /* \"#utility.yul\":12497:12920   */\n    tag_374:\n        /* \"#utility.yul\":12574:12579   */\n      0x00\n        /* \"#utility.yul\":12599:12664   */\n      tag_525\n        /* \"#utility.yul\":12615:12663   */\n      tag_526\n        /* \"#utility.yul\":12656:12662   */\n      dup5\n        /* \"#utility.yul\":12615:12663   */\n      tag_372\n      jump\t// in\n    tag_526:\n        /* \"#utility.yul\":12599:12664   */\n      tag_371\n      jump\t// in\n    tag_525:\n        /* \"#utility.yul\":12590:12664   */\n      swap1\n      pop\n        /* \"#utility.yul\":12687:12693   */\n      dup3\n        /* \"#utility.yul\":12680:12685   */\n      dup2\n        /* \"#utility.yul\":12673:12694   */\n      mstore\n        /* \"#utility.yul\":12725:12729   */\n      0x20\n        /* \"#utility.yul\":12718:12723   */\n      dup2\n        /* \"#utility.yul\":12714:12730   */\n      add\n        /* \"#utility.yul\":12763:12766   */\n      dup5\n        /* \"#utility.yul\":12754:12760   */\n      dup5\n        /* \"#utility.yul\":12749:12752   */\n      dup5\n        /* \"#utility.yul\":12745:12761   */\n      add\n        /* \"#utility.yul\":12742:12767   */\n      gt\n        /* \"#utility.yul\":12739:12851   */\n      iszero\n      tag_527\n      jumpi\n        /* \"#utility.yul\":12770:12849   */\n      tag_528\n      tag_369\n      jump\t// in\n    tag_528:\n        /* \"#utility.yul\":12739:12851   */\n    tag_527:\n        /* \"#utility.yul\":12860:12914   */\n      tag_529\n        /* \"#utility.yul\":12907:12913   */\n      dup5\n        /* \"#utility.yul\":12902:12905   */\n      dup3\n        /* \"#utility.yul\":12897:12900   */\n      dup6\n        /* \"#utility.yul\":12860:12914   */\n      tag_373\n      jump\t// in\n    tag_529:\n        /* \"#utility.yul\":12580:12920   */\n      pop\n        /* \"#utility.yul\":12497:12920   */\n      swap4\n      swap3\n      pop\n      pop\n      pop\n      jump\t// out\n        /* \"#utility.yul\":12939:13277   */\n    tag_375:\n        /* \"#utility.yul\":12994:12999   */\n      0x00\n        /* \"#utility.yul\":13043:13046   */\n      dup3\n        /* \"#utility.yul\":13036:13040   */\n      0x1f\n        /* \"#utility.yul\":13028:13034   */\n      dup4\n        /* \"#utility.yul\":13024:13041   */\n      add\n        /* \"#utility.yul\":13020:13047   */\n      slt\n        /* \"#utility.yul\":13010:13132   */\n      tag_531\n      jumpi\n        /* \"#utility.yul\":13051:13130   */\n      tag_532\n      tag_368\n      jump\t// in\n    tag_532:\n        /* \"#utility.yul\":13010:13132   */\n    tag_531:\n        /* \"#utility.yul\":13168:13174   */\n      dup2\n        /* \"#utility.yul\":13155:13175   */\n      calldataload\n        /* \"#utility.yul\":13193:13271   */\n      tag_533\n        /* \"#utility.yul\":13267:13270   */\n      dup5\n        /* \"#utility.yul\":13259:13265   */\n      dup3\n        /* \"#utility.yul\":13252:13256   */\n      0x20\n        /* \"#utility.yul\":13244:13250   */\n      dup7\n        /* \"#utility.yul\":13240:13257   */\n      add\n        /* \"#utility.yul\":13193:13271   */\n      tag_374\n      jump\t// in\n    tag_533:\n        /* \"#utility.yul\":13184:13271   */\n      swap2\n      pop\n        /* \"#utility.yul\":13000:13277   */\n      pop\n        /* \"#utility.yul\":12939:13277   */\n      swap3\n      swap2\n      pop\n      pop\n      jump\t// out\n        /* \"#utility.yul\":13283:14226   */\n    tag_99:\n        /* \"#utility.yul\":13378:13384   */\n      0x00\n        /* \"#utility.yul\":13386:13392   */\n      dup1\n        /* \"#utility.yul\":13394:13400   */\n      0x00\n        /* \"#utility.yul\":13402:13408   */\n      dup1\n        /* \"#utility.yul\":13451:13454   */\n      0x80\n        /* \"#utility.yul\":13439:13448   */\n      dup6\n        /* \"#utility.yul\":13430:13437   */\n      dup8\n        /* \"#utility.yul\":13426:13449   */\n      sub\n        /* \"#utility.yul\":13422:13455   */\n      slt\n        /* \"#utility.yul\":13419:13539   */\n      iszero\n      tag_535\n      jumpi\n        /* \"#utility.yul\":13458:13537   */\n      tag_536\n      tag_342\n      jump\t// in\n    tag_536:\n        /* \"#utility.yul\":13419:13539   */\n    tag_535:\n        /* \"#utility.yul\":13578:13579   */\n      0x00\n        /* \"#utility.yul\":13603:13656   */\n      tag_537\n        /* \"#utility.yul\":13648:13655   */\n      dup8\n        /* \"#utility.yul\":13639:13645   */\n      dup3\n        /* \"#utility.yul\":13628:13637   */\n      dup9\n        /* \"#utility.yul\":13624:13646   */\n      add\n        /* \"#utility.yul\":13603:13656   */\n      tag_361\n      jump\t// in\n    tag_537:\n        /* \"#utility.yul\":13593:13656   */\n      swap5\n      pop\n        /* \"#utility.yul\":13549:13666   */\n      pop\n        /* \"#utility.yul\":13705:13707   */\n      0x20\n        /* \"#utility.yul\":13731:13784   */\n      tag_538\n        /* \"#utility.yul\":13776:13783   */\n      dup8\n        /* \"#utility.yul\":13767:13773   */\n      dup3\n        /* \"#utility.yul\":13756:13765   */\n      dup9\n        /* \"#utility.yul\":13752:13774   */\n      add\n        /* \"#utility.yul\":13731:13784   */\n      tag_361\n      jump\t// in\n    tag_538:\n        /* \"#utility.yul\":13721:13784   */\n      swap4\n      pop\n        /* \"#utility.yul\":13676:13794   */\n      pop\n        /* \"#utility.yul\":13833:13835   */\n      0x40\n        /* \"#utility.yul\":13859:13912   */\n      tag_539\n        /* \"#utility.yul\":13904:13911   */\n      dup8\n        /* \"#utility.yul\":13895:13901   */\n      dup3\n        /* \"#utility.yul\":13884:13893   */\n      dup9\n        /* \"#utility.yul\":13880:13902   */\n      add\n        /* \"#utility.yul\":13859:13912   */\n      tag_356\n      jump\t// in\n    tag_539:\n        /* \"#utility.yul\":13849:13912   */\n      swap3\n      pop\n        /* \"#utility.yul\":13804:13922   */\n      pop\n        /* \"#utility.yul\":13989:13991   */\n      0x60\n        /* \"#utility.yul\":13978:13987   */\n      dup6\n        /* \"#utility.yul\":13974:13992   */\n      add\n        /* \"#utility.yul\":13961:13993   */\n      calldataload\n        /* \"#utility.yul\":14020:14038   */\n      0xffffffffffffffff\n        /* \"#utility.yul\":14012:14018   */\n      dup2\n        /* \"#utility.yul\":14009:14039   */\n      gt\n        /* \"#utility.yul\":14006:14123   */\n      iszero\n      tag_540\n      jumpi\n        /* \"#utility.yul\":14042:14121   */\n      tag_541\n      tag_343\n      jump\t// in\n    tag_541:\n        /* \"#utility.yul\":14006:14123   */\n    tag_540:\n        /* \"#utility.yul\":14147:14209   */\n      tag_542\n        /* \"#utility.yul\":14201:14208   */\n      dup8\n        /* \"#utility.yul\":14192:14198   */\n      dup3\n        /* \"#utility.yul\":14181:14190   */\n      dup9\n        /* \"#utility.yul\":14177:14199   */\n      add\n        /* \"#utility.yul\":14147:14209   */\n      tag_375\n      jump\t// in\n    tag_542:\n        /* \"#utility.yul\":14137:14209   */\n      swap2\n      pop\n        /* \"#utility.yul\":13932:14219   */\n      pop\n        /* \"#utility.yul\":13283:14226   */\n      swap3\n      swap6\n      swap2\n      swap5\n      pop\n      swap3\n      pop\n      jump\t// out\n        /* \"#utility.yul\":14232:14706   */\n    tag_107:\n        /* \"#utility.yul\":14300:14306   */\n      0x00\n        /* \"#utility.yul\":14308:14314   */\n      dup1\n        /* \"#utility.yul\":14357:14359   */\n      0x40\n        /* \"#utility.yul\":14345:14354   */\n      dup4\n        /* \"#utility.yul\":14336:14343   */\n      dup6\n        /* \"#utility.yul\":14332:14355   */\n      sub\n        /* \"#utility.yul\":14328:14360   */\n      slt\n        /* \"#utility.yul\":14325:14444   */\n      iszero\n      tag_544\n      jumpi\n        /* \"#utility.yul\":14363:14442   */\n      tag_545\n      tag_342\n      jump\t// in\n    tag_545:\n        /* \"#utility.yul\":14325:14444   */\n    tag_544:\n        /* \"#utility.yul\":14483:14484   */\n      0x00\n        /* \"#utility.yul\":14508:14561   */\n      tag_546\n        /* \"#utility.yul\":14553:14560   */\n      dup6\n        /* \"#utility.yul\":14544:14550   */\n      dup3\n        /* \"#utility.yul\":14533:14542   */\n      dup7\n        /* \"#utility.yul\":14529:14551   */\n      add\n        /* \"#utility.yul\":14508:14561   */\n      tag_361\n      jump\t// in\n    tag_546:\n        /* \"#utility.yul\":14498:14561   */\n      swap3\n      pop\n        /* \"#utility.yul\":14454:14571   */\n      pop\n        /* \"#utility.yul\":14610:14612   */\n      0x20\n        /* \"#utility.yul\":14636:14689   */\n      tag_547\n        /* \"#utility.yul\":14681:14688   */\n      dup6\n        /* \"#utility.yul\":14672:14678   */\n      dup3\n        /* \"#utility.yul\":14661:14670   */\n      dup7\n        /* \"#utility.yul\":14657:14679   */\n      add\n        /* \"#utility.yul\":14636:14689   */\n      tag_361\n      jump\t// in\n    tag_547:\n        /* \"#utility.yul\":14626:14689   */\n      swap2\n      pop\n        /* \"#utility.yul\":14581:14699   */\n      pop\n        /* \"#utility.yul\":14232:14706   */\n      swap3\n      pop\n      swap3\n      swap1\n      pop\n      jump\t// out\n        /* \"#utility.yul\":14712:14892   */\n    tag_376:\n        /* \"#utility.yul\":14760:14837   */\n      0x4e487b7100000000000000000000000000000000000000000000000000000000\n        /* \"#utility.yul\":14757:14758   */\n      0x00\n        /* \"#utility.yul\":14750:14838   */\n      mstore\n        /* \"#utility.yul\":14857:14861   */\n      0x22\n        /* \"#utility.yul\":14854:14855   */\n      0x04\n        /* \"#utility.yul\":14847:14862   */\n      mstore\n        /* \"#utility.yul\":14881:14885   */\n      0x24\n        /* \"#utility.yul\":14878:14879   */\n      0x00\n        /* \"#utility.yul\":14871:14886   */\n      revert\n        /* \"#utility.yul\":14898:15218   */\n    tag_120:\n        /* \"#utility.yul\":14942:14948   */\n      0x00\n        /* \"#utility.yul\":14979:14980   */\n      0x02\n        /* \"#utility.yul\":14973:14977   */\n      dup3\n        /* \"#utility.yul\":14969:14981   */\n      div\n        /* \"#utility.yul\":14959:14981   */\n      swap1\n      pop\n        /* \"#utility.yul\":15026:15027   */\n      0x01\n        /* \"#utility.yul\":15020:15024   */\n      dup3\n        /* \"#utility.yul\":15016:15028   */\n      and\n        /* \"#utility.yul\":15047:15065   */\n      dup1\n        /* \"#utility.yul\":15037:15118   */\n      tag_550\n      jumpi\n        /* \"#utility.yul\":15103:15107   */\n      0x7f\n        /* \"#utility.yul\":15095:15101   */\n      dup3\n        /* \"#utility.yul\":15091:15108   */\n      and\n        /* \"#utility.yul\":15081:15108   */\n      swap2\n      pop\n        /* \"#utility.yul\":15037:15118   */\n    tag_550:\n        /* \"#utility.yul\":15165:15167   */\n      0x20\n        /* \"#utility.yul\":15157:15163   */\n      dup3\n        /* \"#utility.yul\":15154:15168   */\n      lt\n        /* \"#utility.yul\":15134:15152   */\n      dup2\n        /* \"#utility.yul\":15131:15169   */\n      sub\n        /* \"#utility.yul\":15128:15212   */\n      tag_551\n      jumpi\n        /* \"#utility.yul\":15184:15202   */\n      tag_552\n      tag_376\n      jump\t// in\n    tag_552:\n        /* \"#utility.yul\":15128:15212   */\n    tag_551:\n        /* \"#utility.yul\":14949:15218   */\n      pop\n        /* \"#utility.yul\":14898:15218   */\n      swap2\n      swap1\n      pop\n      jump\t// out\n        /* \"#utility.yul\":15224:15666   */\n    tag_146:\n        /* \"#utility.yul\":15373:15377   */\n      0x00\n        /* \"#utility.yul\":15411:15413   */\n      0x60\n        /* \"#utility.yul\":15400:15409   */\n      dup3\n        /* \"#utility.yul\":15396:15414   */\n      add\n        /* \"#utility.yul\":15388:15414   */\n      swap1\n      pop\n        /* \"#utility.yul\":15424:15495   */\n      tag_554\n        /* \"#utility.yul\":15492:15493   */\n      0x00\n        /* \"#utility.yul\":15481:15490   */\n      dup4\n        /* \"#utility.yul\":15477:15494   */\n      add\n        /* \"#utility.yul\":15468:15474   */\n      dup7\n        /* \"#utility.yul\":15424:15495   */\n      tag_359\n      jump\t// in\n    tag_554:\n        /* \"#utility.yul\":15505:15577   */\n      tag_555\n        /* \"#utility.yul\":15573:15575   */\n      0x20\n        /* \"#utility.yul\":15562:15571   */\n      dup4\n        /* \"#utility.yul\":15558:15576   */\n      add\n        /* \"#utility.yul\":15549:15555   */\n      dup6\n        /* \"#utility.yul\":15505:15577   */\n      tag_365\n      jump\t// in\n    tag_555:\n        /* \"#utility.yul\":15587:15659   */\n      tag_556\n        /* \"#utility.yul\":15655:15657   */\n      0x40\n        /* \"#utility.yul\":15644:15653   */\n      dup4\n        /* \"#utility.yul\":15640:15658   */\n      add\n        /* \"#utility.yul\":15631:15637   */\n      dup5\n        /* \"#utility.yul\":15587:15659   */\n      tag_359\n      jump\t// in\n    tag_556:\n        /* \"#utility.yul\":15224:15666   */\n      swap5\n      swap4\n      pop\n      pop\n      pop\n      pop\n      jump\t// out\n        /* \"#utility.yul\":15672:15854   */\n    tag_377:\n        /* \"#utility.yul\":15812:15846   */\n      0x53616665543a20746f6b656e206964206d7573742062652070726f7669646564\n        /* \"#utility.yul\":15808:15809   */\n      0x00\n        /* \"#utility.yul\":15800:15806   */\n      dup3\n        /* \"#utility.yul\":15796:15810   */\n      add\n        /* \"#utility.yul\":15789:15847   */\n      mstore\n        /* \"#utility.yul\":15672:15854   */\n      pop\n      jump\t// out\n        /* \"#utility.yul\":15860:16226   */\n    tag_378:\n        /* \"#utility.yul\":16002:16005   */\n      0x00\n        /* \"#utility.yul\":16023:16090   */\n      tag_559\n        /* \"#utility.yul\":16087:16089   */\n      0x20\n        /* \"#utility.yul\":16082:16085   */\n      dup4\n        /* \"#utility.yul\":16023:16090   */\n      tag_350\n      jump\t// in\n    tag_559:\n        /* \"#utility.yul\":16016:16090   */\n      swap2\n      pop\n        /* \"#utility.yul\":16099:16192   */\n      tag_560\n        /* \"#utility.yul\":16188:16191   */\n      dup3\n        /* \"#utility.yul\":16099:16192   */\n      tag_377\n      jump\t// in\n    tag_560:\n        /* \"#utility.yul\":16217:16219   */\n      0x20\n        /* \"#utility.yul\":16212:16215   */\n      dup3\n        /* \"#utility.yul\":16208:16220   */\n      add\n        /* \"#utility.yul\":16201:16220   */\n      swap1\n      pop\n        /* \"#utility.yul\":15860:16226   */\n      swap2\n      swap1\n      pop\n      jump\t// out\n        /* \"#utility.yul\":16232:16651   */\n    tag_178:\n        /* \"#utility.yul\":16398:16402   */\n      0x00\n        /* \"#utility.yul\":16436:16438   */\n      0x20\n        /* \"#utility.yul\":16425:16434   */\n      dup3\n        /* \"#utility.yul\":16421:16439   */\n      add\n        /* \"#utility.yul\":16413:16439   */\n      swap1\n      pop\n        /* \"#utility.yul\":16485:16494   */\n      dup2\n        /* \"#utility.yul\":16479:16483   */\n      dup2\n        /* \"#utility.yul\":16475:16495   */\n      sub\n        /* \"#utility.yul\":16471:16472   */\n      0x00\n        /* \"#utility.yul\":16460:16469   */\n      dup4\n        /* \"#utility.yul\":16456:16473   */\n      add\n        /* \"#utility.yul\":16449:16496   */\n      mstore\n        /* \"#utility.yul\":16513:16644   */\n      tag_562\n        /* \"#utility.yul\":16639:16643   */\n      dup2\n        /* \"#utility.yul\":16513:16644   */\n      tag_378\n      jump\t// in\n    tag_562:\n        /* \"#utility.yul\":16505:16644   */\n      swap1\n      pop\n        /* \"#utility.yul\":16232:16651   */\n      swap2\n      swap1\n      pop\n      jump\t// out\n        /* \"#utility.yul\":16657:16885   */\n    tag_379:\n        /* \"#utility.yul\":16797:16831   */\n      0x53616665543a2072656e7420616d6f756e74206d757374206265206772656174\n        /* \"#utility.yul\":16793:16794   */\n      0x00\n        /* \"#utility.yul\":16785:16791   */\n      dup3\n        /* \"#utility.yul\":16781:16795   */\n      add\n        /* \"#utility.yul\":16774:16832   */\n      mstore\n        /* \"#utility.yul\":16866:16877   */\n      0x6572207468616e20300000000000000000000000000000000000000000000000\n        /* \"#utility.yul\":16861:16863   */\n      0x20\n        /* \"#utility.yul\":16853:16859   */\n      dup3\n        /* \"#utility.yul\":16849:16864   */\n      add\n        /* \"#utility.yul\":16842:16878   */\n      mstore\n        /* \"#utility.yul\":16657:16885   */\n      pop\n      jump\t// out\n        /* \"#utility.yul\":16891:17257   */\n    tag_380:\n        /* \"#utility.yul\":17033:17036   */\n      0x00\n        /* \"#utility.yul\":17054:17121   */\n      tag_565\n        /* \"#utility.yul\":17118:17120   */\n      0x29\n        /* \"#utility.yul\":17113:17116   */\n      dup4\n        /* \"#utility.yul\":17054:17121   */\n      tag_350\n      jump\t// in\n    tag_565:\n        /* \"#utility.yul\":17047:17121   */\n      swap2\n      pop\n        /* \"#utility.yul\":17130:17223   */\n      tag_566\n        /* \"#utility.yul\":17219:17222   */\n      dup3\n        /* \"#utility.yul\":17130:17223   */\n      tag_379\n      jump\t// in\n    tag_566:\n        /* \"#utility.yul\":17248:17250   */\n      0x40\n        /* \"#utility.yul\":17243:17246   */\n      dup3\n        /* \"#utility.yul\":17239:17251   */\n      add\n        /* \"#utility.yul\":17232:17251   */\n      swap1\n      pop\n        /* \"#utility.yul\":16891:17257   */\n      swap2\n      swap1\n      pop\n      jump\t// out\n        /* \"#utility.yul\":17263:17682   */\n    tag_181:\n        /* \"#utility.yul\":17429:17433   */\n      0x00\n        /* \"#utility.yul\":17467:17469   */\n      0x20\n        /* \"#utility.yul\":17456:17465   */\n      dup3\n        /* \"#utility.yul\":17452:17470   */\n      add\n        /* \"#utility.yul\":17444:17470   */\n      swap1\n      pop\n        /* \"#utility.yul\":17516:17525   */\n      dup2\n        /* \"#utility.yul\":17510:17514   */\n      dup2\n        /* \"#utility.yul\":17506:17526   */\n      sub\n        /* \"#utility.yul\":17502:17503   */\n      0x00\n        /* \"#utility.yul\":17491:17500   */\n      dup4\n        /* \"#utility.yul\":17487:17504   */\n      add\n        /* \"#utility.yul\":17480:17527   */\n      mstore\n        /* \"#utility.yul\":17544:17675   */\n      tag_568\n        /* \"#utility.yul\":17670:17674   */\n      dup2\n        /* \"#utility.yul\":17544:17675   */\n      tag_380\n      jump\t// in\n    tag_568:\n        /* \"#utility.yul\":17536:17675   */\n      swap1\n      pop\n        /* \"#utility.yul\":17263:17682   */\n      swap2\n      swap1\n      pop\n      jump\t// out\n        /* \"#utility.yul\":17688:17921   */\n    tag_381:\n        /* \"#utility.yul\":17828:17862   */\n      0x53616665543a207365637572697479206465706f736974206d75737420626520\n        /* \"#utility.yul\":17824:17825   */\n      0x00\n        /* \"#utility.yul\":17816:17822   */\n      dup3\n        /* \"#utility.yul\":17812:17826   */\n      add\n        /* \"#utility.yul\":17805:17863   */\n      mstore\n        /* \"#utility.yul\":17897:17913   */\n      0x67726561746572207468616e2030000000000000000000000000000000000000\n        /* \"#utility.yul\":17892:17894   */\n      0x20\n        /* \"#utility.yul\":17884:17890   */\n      dup3\n        /* \"#utility.yul\":17880:17895   */\n      add\n        /* \"#utility.yul\":17873:17914   */\n      mstore\n        /* \"#utility.yul\":17688:17921   */\n      pop\n      jump\t// out\n        /* \"#utility.yul\":17927:18293   */\n    tag_382:\n        /* \"#utility.yul\":18069:18072   */\n      0x00\n        /* \"#utility.yul\":18090:18157   */\n      tag_571\n        /* \"#utility.yul\":18154:18156   */\n      0x2e\n        /* \"#utility.yul\":18149:18152   */\n      dup4\n        /* \"#utility.yul\":18090:18157   */\n      tag_350\n      jump\t// in\n    tag_571:\n        /* \"#utility.yul\":18083:18157   */\n      swap2\n      pop\n        /* \"#utility.yul\":18166:18259   */\n      tag_572\n        /* \"#utility.yul\":18255:18258   */\n      dup3\n        /* \"#utility.yul\":18166:18259   */\n      tag_381\n      jump\t// in\n    tag_572:\n        /* \"#utility.yul\":18284:18286   */\n      0x40\n        /* \"#utility.yul\":18279:18282   */\n      dup3\n        /* \"#utility.yul\":18275:18287   */\n      add\n        /* \"#utility.yul\":18268:18287   */\n      swap1\n      pop\n        /* \"#utility.yul\":17927:18293   */\n      swap2\n      swap1\n      pop\n      jump\t// out\n        /* \"#utility.yul\":18299:18718   */\n    tag_184:\n        /* \"#utility.yul\":18465:18469   */\n      0x00\n        /* \"#utility.yul\":18503:18505   */\n      0x20\n        /* \"#utility.yul\":18492:18501   */\n      dup3\n        /* \"#utility.yul\":18488:18506   */\n      add\n        /* \"#utility.yul\":18480:18506   */\n      swap1\n      pop\n        /* \"#utility.yul\":18552:18561   */\n      dup2\n        /* \"#utility.yul\":18546:18550   */\n      dup2\n        /* \"#utility.yul\":18542:18562   */\n      sub\n        /* \"#utility.yul\":18538:18539   */\n      0x00\n        /* \"#utility.yul\":18527:18536   */\n      dup4\n        /* \"#utility.yul\":18523:18540   */\n      add\n        /* \"#utility.yul\":18516:18563   */\n      mstore\n        /* \"#utility.yul\":18580:18711   */\n      tag_574\n        /* \"#utility.yul\":18706:18710   */\n      dup2\n        /* \"#utility.yul\":18580:18711   */\n      tag_382\n      jump\t// in\n    tag_574:\n        /* \"#utility.yul\":18572:18711   */\n      swap1\n      pop\n        /* \"#utility.yul\":18299:18718   */\n      swap2\n      swap1\n      pop\n      jump\t// out\n        /* \"#utility.yul\":18724:19017   */\n    tag_383:\n        /* \"#utility.yul\":18864:18898   */\n      0x53616665543a206c65617365207374617274206d757374206265206772656174\n        /* \"#utility.yul\":18860:18861   */\n      0x00\n        /* \"#utility.yul\":18852:18858   */\n      dup3\n        /* \"#utility.yul\":18848:18862   */\n      add\n        /* \"#utility.yul\":18841:18899   */\n      mstore\n        /* \"#utility.yul\":18933:18967   */\n      0x6572207468616e206f7220657175616c20746f2063757272656e742074696d65\n        /* \"#utility.yul\":18928:18930   */\n      0x20\n        /* \"#utility.yul\":18920:18926   */\n      dup3\n        /* \"#utility.yul\":18916:18931   */\n      add\n        /* \"#utility.yul\":18909:18968   */\n      mstore\n        /* \"#utility.yul\":19002:19009   */\n      0x7374616d70000000000000000000000000000000000000000000000000000000\n        /* \"#utility.yul\":18997:18999   */\n      0x40\n        /* \"#utility.yul\":18989:18995   */\n      dup3\n        /* \"#utility.yul\":18985:19000   */\n      add\n        /* \"#utility.yul\":18978:19010   */\n      mstore\n        /* \"#utility.yul\":18724:19017   */\n      pop\n      jump\t// out\n        /* \"#utility.yul\":19023:19389   */\n    tag_384:\n        /* \"#utility.yul\":19165:19168   */\n      0x00\n        /* \"#utility.yul\":19186:19253   */\n      tag_577\n        /* \"#utility.yul\":19250:19252   */\n      0x45\n        /* \"#utility.yul\":19245:19248   */\n      dup4\n        /* \"#utility.yul\":19186:19253   */\n      tag_350\n      jump\t// in\n    tag_577:\n        /* \"#utility.yul\":19179:19253   */\n      swap2\n      pop\n        /* \"#utility.yul\":19262:19355   */\n      tag_578\n        /* \"#utility.yul\":19351:19354   */\n      dup3\n        /* \"#utility.yul\":19262:19355   */\n      tag_383\n      jump\t// in\n    tag_578:\n        /* \"#utility.yul\":19380:19382   */\n      0x60\n        /* \"#utility.yul\":19375:19378   */\n      dup3\n        /* \"#utility.yul\":19371:19383   */\n      add\n        /* \"#utility.yul\":19364:19383   */\n      swap1\n      pop\n        /* \"#utility.yul\":19023:19389   */\n      swap2\n      swap1\n      pop\n      jump\t// out\n        /* \"#utility.yul\":19395:19814   */\n    tag_187:\n        /* \"#utility.yul\":19561:19565   */\n      0x00\n        /* \"#utility.yul\":19599:19601   */\n      0x20\n        /* \"#utility.yul\":19588:19597   */\n      dup3\n        /* \"#utility.yul\":19584:19602   */\n      add\n        /* \"#utility.yul\":19576:19602   */\n      swap1\n      pop\n        /* \"#utility.yul\":19648:19657   */\n      dup2\n        /* \"#utility.yul\":19642:19646   */\n      dup2\n        /* \"#utility.yul\":19638:19658   */\n      sub\n        /* \"#utility.yul\":19634:19635   */\n      0x00\n        /* \"#utility.yul\":19623:19632   */\n      dup4\n        /* \"#utility.yul\":19619:19636   */\n      add\n        /* \"#utility.yul\":19612:19659   */\n      mstore\n        /* \"#utility.yul\":19676:19807   */\n      tag_580\n        /* \"#utility.yul\":19802:19806   */\n      dup2\n        /* \"#utility.yul\":19676:19807   */\n      tag_384\n      jump\t// in\n    tag_580:\n        /* \"#utility.yul\":19668:19807   */\n      swap1\n      pop\n        /* \"#utility.yul\":19395:19814   */\n      swap2\n      swap1\n      pop\n      jump\t// out\n        /* \"#utility.yul\":19820:20068   */\n    tag_385:\n        /* \"#utility.yul\":19960:19994   */\n      0x53616665543a206c6561736520656e64206d7573742062652067726561746572\n        /* \"#utility.yul\":19956:19957   */\n      0x00\n        /* \"#utility.yul\":19948:19954   */\n      dup3\n        /* \"#utility.yul\":19944:19958   */\n      add\n        /* \"#utility.yul\":19937:19995   */\n      mstore\n        /* \"#utility.yul\":20029:20060   */\n      0x207468616e206f7220657175616c20746f206c65617365207374617274000000\n        /* \"#utility.yul\":20024:20026   */\n      0x20\n        /* \"#utility.yul\":20016:20022   */\n      dup3\n        /* \"#utility.yul\":20012:20027   */\n      add\n        /* \"#utility.yul\":20005:20061   */\n      mstore\n        /* \"#utility.yul\":19820:20068   */\n      pop\n      jump\t// out\n        /* \"#utility.yul\":20074:20440   */\n    tag_386:\n        /* \"#utility.yul\":20216:20219   */\n      0x00\n        /* \"#utility.yul\":20237:20304   */\n      tag_583\n        /* \"#utility.yul\":20301:20303   */\n      0x3d\n        /* \"#utility.yul\":20296:20299   */\n      dup4\n        /* \"#utility.yul\":20237:20304   */\n      tag_350\n      jump\t// in\n    tag_583:\n        /* \"#utility.yul\":20230:20304   */\n      swap2\n      pop\n        /* \"#utility.yul\":20313:20406   */\n      tag_584\n        /* \"#utility.yul\":20402:20405   */\n      dup3\n        /* \"#utility.yul\":20313:20406   */\n      tag_385\n      jump\t// in\n    tag_584:\n        /* \"#utility.yul\":20431:20433   */\n      0x40\n        /* \"#utility.yul\":20426:20429   */\n      dup3\n        /* \"#utility.yul\":20422:20434   */\n      add\n        /* \"#utility.yul\":20415:20434   */\n      swap1\n      pop\n        /* \"#utility.yul\":20074:20440   */\n      swap2\n      swap1\n      pop\n      jump\t// out\n        /* \"#utility.yul\":20446:20865   */\n    tag_190:\n        /* \"#utility.yul\":20612:20616   */\n      0x00\n        /* \"#utility.yul\":20650:20652   */\n      0x20\n        /* \"#utility.yul\":20639:20648   */\n      dup3\n        /* \"#utility.yul\":20635:20653   */\n      add\n        /* \"#utility.yul\":20627:20653   */\n      swap1\n      pop\n        /* \"#utility.yul\":20699:20708   */\n      dup2\n        /* \"#utility.yul\":20693:20697   */\n      dup2\n        /* \"#utility.yul\":20689:20709   */\n      sub\n        /* \"#utility.yul\":20685:20686   */\n      0x00\n        /* \"#utility.yul\":20674:20683   */\n      dup4\n        /* \"#utility.yul\":20670:20687   */\n      add\n        /* \"#utility.yul\":20663:20710   */\n      mstore\n        /* \"#utility.yul\":20727:20858   */\n      tag_586\n        /* \"#utility.yul\":20853:20857   */\n      dup2\n        /* \"#utility.yul\":20727:20858   */\n      tag_386\n      jump\t// in\n    tag_586:\n        /* \"#utility.yul\":20719:20858   */\n      swap1\n      pop\n        /* \"#utility.yul\":20446:20865   */\n      swap2\n      swap1\n      pop\n      jump\t// out\n        /* \"#utility.yul\":20871:21019   */\n    tag_387:\n        /* \"#utility.yul\":20973:20984   */\n      0x00\n        /* \"#utility.yul\":21010:21013   */\n      dup2\n        /* \"#utility.yul\":20995:21013   */\n      swap1\n      pop\n        /* \"#utility.yul\":20871:21019   */\n      swap3\n      swap2\n      pop\n      pop\n      jump\t// out\n        /* \"#utility.yul\":21025:21415   */\n    tag_388:\n        /* \"#utility.yul\":21131:21134   */\n      0x00\n        /* \"#utility.yul\":21159:21198   */\n      tag_589\n        /* \"#utility.yul\":21192:21197   */\n      dup3\n        /* \"#utility.yul\":21159:21198   */\n      tag_349\n      jump\t// in\n    tag_589:\n        /* \"#utility.yul\":21214:21303   */\n      tag_590\n        /* \"#utility.yul\":21296:21302   */\n      dup2\n        /* \"#utility.yul\":21291:21294   */\n      dup6\n        /* \"#utility.yul\":21214:21303   */\n      tag_387\n      jump\t// in\n    tag_590:\n        /* \"#utility.yul\":21207:21303   */\n      swap4\n      pop\n        /* \"#utility.yul\":21312:21377   */\n      tag_591\n        /* \"#utility.yul\":21370:21376   */\n      dup2\n        /* \"#utility.yul\":21365:21368   */\n      dup6\n        /* \"#utility.yul\":21358:21362   */\n      0x20\n        /* \"#utility.yul\":21351:21356   */\n      dup7\n        /* \"#utility.yul\":21347:21363   */\n      add\n        /* \"#utility.yul\":21312:21377   */\n      tag_351\n      jump\t// in\n    tag_591:\n        /* \"#utility.yul\":21402:21408   */\n      dup1\n        /* \"#utility.yul\":21397:21400   */\n      dup5\n        /* \"#utility.yul\":21393:21409   */\n      add\n        /* \"#utility.yul\":21386:21409   */\n      swap2\n      pop\n        /* \"#utility.yul\":21135:21415   */\n      pop\n        /* \"#utility.yul\":21025:21415   */\n      swap3\n      swap2\n      pop\n      pop\n      jump\t// out\n        /* \"#utility.yul\":21421:21856   */\n    tag_210:\n        /* \"#utility.yul\":21601:21604   */\n      0x00\n        /* \"#utility.yul\":21623:21718   */\n      tag_593\n        /* \"#utility.yul\":21714:21717   */\n      dup3\n        /* \"#utility.yul\":21705:21711   */\n      dup6\n        /* \"#utility.yul\":21623:21718   */\n      tag_388\n      jump\t// in\n    tag_593:\n        /* \"#utility.yul\":21616:21718   */\n      swap2\n      pop\n        /* \"#utility.yul\":21735:21830   */\n      tag_594\n        /* \"#utility.yul\":21826:21829   */\n      dup3\n        /* \"#utility.yul\":21817:21823   */\n      dup5\n        /* \"#utility.yul\":21735:21830   */\n      tag_388\n      jump\t// in\n    tag_594:\n        /* \"#utility.yul\":21728:21830   */\n      swap2\n      pop\n        /* \"#utility.yul\":21847:21850   */\n      dup2\n        /* \"#utility.yul\":21840:21850   */\n      swap1\n      pop\n        /* \"#utility.yul\":21421:21856   */\n      swap4\n      swap3\n      pop\n      pop\n      pop\n      jump\t// out\n        /* \"#utility.yul\":21862:21960   */\n    tag_389:\n        /* \"#utility.yul\":21913:21919   */\n      0x00\n        /* \"#utility.yul\":21947:21952   */\n      dup2\n        /* \"#utility.yul\":21941:21953   */\n      mload\n        /* \"#utility.yul\":21931:21953   */\n      swap1\n      pop\n        /* \"#utility.yul\":21862:21960   */\n      swap2\n      swap1\n      pop\n      jump\t// out\n        /* \"#utility.yul\":21966:22134   */\n    tag_390:\n        /* \"#utility.yul\":22049:22060   */\n      0x00\n        /* \"#utility.yul\":22083:22089   */\n      dup3\n        /* \"#utility.yul\":22078:22081   */\n      dup3\n        /* \"#utility.yul\":22071:22090   */\n      mstore\n        /* \"#utility.yul\":22123:22127   */\n      0x20\n        /* \"#utility.yul\":22118:22121   */\n      dup3\n        /* \"#utility.yul\":22114:22128   */\n      add\n        /* \"#utility.yul\":22099:22128   */\n      swap1\n      pop\n        /* \"#utility.yul\":21966:22134   */\n      swap3\n      swap2\n      pop\n      pop\n      jump\t// out\n        /* \"#utility.yul\":22140:22513   */\n    tag_391:\n        /* \"#utility.yul\":22226:22229   */\n      0x00\n        /* \"#utility.yul\":22254:22292   */\n      tag_598\n        /* \"#utility.yul\":22286:22291   */\n      dup3\n        /* \"#utility.yul\":22254:22292   */\n      tag_389\n      jump\t// in\n    tag_598:\n        /* \"#utility.yul\":22308:22378   */\n      tag_599\n        /* \"#utility.yul\":22371:22377   */\n      dup2\n        /* \"#utility.yul\":22366:22369   */\n      dup6\n        /* \"#utility.yul\":22308:22378   */\n      tag_390\n      jump\t// in\n    tag_599:\n        /* \"#utility.yul\":22301:22378   */\n      swap4\n      pop\n        /* \"#utility.yul\":22387:22452   */\n      tag_600\n        /* \"#utility.yul\":22445:22451   */\n      dup2\n        /* \"#utility.yul\":22440:22443   */\n      dup6\n        /* \"#utility.yul\":22433:22437   */\n      0x20\n        /* \"#utility.yul\":22426:22431   */\n      dup7\n        /* \"#utility.yul\":22422:22438   */\n      add\n        /* \"#utility.yul\":22387:22452   */\n      tag_351\n      jump\t// in\n    tag_600:\n        /* \"#utility.yul\":22477:22506   */\n      tag_601\n        /* \"#utility.yul\":22499:22505   */\n      dup2\n        /* \"#utility.yul\":22477:22506   */\n      tag_352\n      jump\t// in\n    tag_601:\n        /* \"#utility.yul\":22472:22475   */\n      dup5\n        /* \"#utility.yul\":22468:22507   */\n      add\n        /* \"#utility.yul\":22461:22507   */\n      swap2\n      pop\n        /* \"#utility.yul\":22230:22513   */\n      pop\n        /* \"#utility.yul\":22140:22513   */\n      swap3\n      swap2\n      pop\n      pop\n      jump\t// out\n        /* \"#utility.yul\":22519:23159   */\n    tag_255:\n        /* \"#utility.yul\":22714:22718   */\n      0x00\n        /* \"#utility.yul\":22752:22755   */\n      0x80\n        /* \"#utility.yul\":22741:22750   */\n      dup3\n        /* \"#utility.yul\":22737:22756   */\n      add\n        /* \"#utility.yul\":22729:22756   */\n      swap1\n      pop\n        /* \"#utility.yul\":22766:22837   */\n      tag_603\n        /* \"#utility.yul\":22834:22835   */\n      0x00\n        /* \"#utility.yul\":22823:22832   */\n      dup4\n        /* \"#utility.yul\":22819:22836   */\n      add\n        /* \"#utility.yul\":22810:22816   */\n      dup8\n        /* \"#utility.yul\":22766:22837   */\n      tag_359\n      jump\t// in\n    tag_603:\n        /* \"#utility.yul\":22847:22919   */\n      tag_604\n        /* \"#utility.yul\":22915:22917   */\n      0x20\n        /* \"#utility.yul\":22904:22913   */\n      dup4\n        /* \"#utility.yul\":22900:22918   */\n      add\n        /* \"#utility.yul\":22891:22897   */\n      dup7\n        /* \"#utility.yul\":22847:22919   */\n      tag_359\n      jump\t// in\n    tag_604:\n        /* \"#utility.yul\":22929:23001   */\n      tag_605\n        /* \"#utility.yul\":22997:22999   */\n      0x40\n        /* \"#utility.yul\":22986:22995   */\n      dup4\n        /* \"#utility.yul\":22982:23000   */\n      add\n        /* \"#utility.yul\":22973:22979   */\n      dup6\n        /* \"#utility.yul\":22929:23001   */\n      tag_365\n      jump\t// in\n    tag_605:\n        /* \"#utility.yul\":23048:23057   */\n      dup2\n        /* \"#utility.yul\":23042:23046   */\n      dup2\n        /* \"#utility.yul\":23038:23058   */\n      sub\n        /* \"#utility.yul\":23033:23035   */\n      0x60\n        /* \"#utility.yul\":23022:23031   */\n      dup4\n        /* \"#utility.yul\":23018:23036   */\n      add\n        /* \"#utility.yul\":23011:23059   */\n      mstore\n        /* \"#utility.yul\":23076:23152   */\n      tag_606\n        /* \"#utility.yul\":23147:23151   */\n      dup2\n        /* \"#utility.yul\":23138:23144   */\n      dup5\n        /* \"#utility.yul\":23076:23152   */\n      tag_391\n      jump\t// in\n    tag_606:\n        /* \"#utility.yul\":23068:23152   */\n      swap1\n      pop\n        /* \"#utility.yul\":22519:23159   */\n      swap6\n      swap5\n      pop\n      pop\n      pop\n      pop\n      pop\n      jump\t// out\n        /* \"#utility.yul\":23165:23306   */\n    tag_392:\n        /* \"#utility.yul\":23221:23226   */\n      0x00\n        /* \"#utility.yul\":23252:23258   */\n      dup2\n        /* \"#utility.yul\":23246:23259   */\n      mload\n        /* \"#utility.yul\":23237:23259   */\n      swap1\n      pop\n        /* \"#utility.yul\":23268:23300   */\n      tag_608\n        /* \"#utility.yul\":23294:23299   */\n      dup2\n        /* \"#utility.yul\":23268:23300   */\n      tag_345\n      jump\t// in\n    tag_608:\n        /* \"#utility.yul\":23165:23306   */\n      swap3\n      swap2\n      pop\n      pop\n      jump\t// out\n        /* \"#utility.yul\":23312:23661   */\n    tag_258:\n        /* \"#utility.yul\":23381:23387   */\n      0x00\n        /* \"#utility.yul\":23430:23432   */\n      0x20\n        /* \"#utility.yul\":23418:23427   */\n      dup3\n        /* \"#utility.yul\":23409:23416   */\n      dup5\n        /* \"#utility.yul\":23405:23428   */\n      sub\n        /* \"#utility.yul\":23401:23433   */\n      slt\n        /* \"#utility.yul\":23398:23517   */\n      iszero\n      tag_610\n      jumpi\n        /* \"#utility.yul\":23436:23515   */\n      tag_611\n      tag_342\n      jump\t// in\n    tag_611:\n        /* \"#utility.yul\":23398:23517   */\n    tag_610:\n        /* \"#utility.yul\":23556:23557   */\n      0x00\n        /* \"#utility.yul\":23581:23644   */\n      tag_612\n        /* \"#utility.yul\":23636:23643   */\n      dup5\n        /* \"#utility.yul\":23627:23633   */\n      dup3\n        /* \"#utility.yul\":23616:23625   */\n      dup6\n        /* \"#utility.yul\":23612:23634   */\n      add\n        /* \"#utility.yul\":23581:23644   */\n      tag_392\n      jump\t// in\n    tag_612:\n        /* \"#utility.yul\":23571:23644   */\n      swap2\n      pop\n        /* \"#utility.yul\":23527:23654   */\n      pop\n        /* \"#utility.yul\":23312:23661   */\n      swap3\n      swap2\n      pop\n      pop\n      jump\t// out\n        /* \"#utility.yul\":23667:23847   */\n    tag_283:\n        /* \"#utility.yul\":23715:23792   */\n      0x4e487b7100000000000000000000000000000000000000000000000000000000\n        /* \"#utility.yul\":23712:23713   */\n      0x00\n        /* \"#utility.yul\":23705:23793   */\n      mstore\n        /* \"#utility.yul\":23812:23816   */\n      0x12\n        /* \"#utility.yul\":23809:23810   */\n      0x04\n        /* \"#utility.yul\":23802:23817   */\n      mstore\n        /* \"#utility.yul\":23836:23840   */\n      0x24\n        /* \"#utility.yul\":23833:23834   */\n      0x00\n        /* \"#utility.yul\":23826:23841   */\n      revert\n        /* \"#utility.yul\":23853:24185   */\n    tag_304:\n        /* \"#utility.yul\":23974:23978   */\n      0x00\n        /* \"#utility.yul\":24012:24014   */\n      0x40\n        /* \"#utility.yul\":24001:24010   */\n      dup3\n        /* \"#utility.yul\":23997:24015   */\n      add\n        /* \"#utility.yul\":23989:24015   */\n      swap1\n      pop\n        /* \"#utility.yul\":24025:24096   */\n      tag_615\n        /* \"#utility.yul\":24093:24094   */\n      0x00\n        /* \"#utility.yul\":24082:24091   */\n      dup4\n        /* \"#utility.yul\":24078:24095   */\n      add\n        /* \"#utility.yul\":24069:24075   */\n      dup6\n        /* \"#utility.yul\":24025:24096   */\n      tag_359\n      jump\t// in\n    tag_615:\n        /* \"#utility.yul\":24106:24178   */\n      tag_616\n        /* \"#utility.yul\":24174:24176   */\n      0x20\n        /* \"#utility.yul\":24163:24172   */\n      dup4\n        /* \"#utility.yul\":24159:24177   */\n      add\n        /* \"#utility.yul\":24150:24156   */\n      dup5\n        /* \"#utility.yul\":24106:24178   */\n      tag_365\n      jump\t// in\n    tag_616:\n        /* \"#utility.yul\":23853:24185   */\n      swap4\n      swap3\n      pop\n      pop\n      pop\n      jump\t// out\n\n    auxdata: 0xa26469706673582212207bb4fbf6217afe628f4562c5727de23505d76be476e7bac1c7bed5889de624c764736f6c634300081a0033\n}\n",
				"bytecode": {
					"linkReferences": {},
					"object": "608060405234801561000f575f80fd5b50604051612e66380380612e6683398181016040528101906100319190610266565b806040518060400160405280600581526020017f53616665540000000000000000000000000000000000000000000000000000008152506040518060400160405280600381526020017f5346540000000000000000000000000000000000000000000000000000000000815250815f90816100ac91906104cb565b5080600190816100bc91906104cb565b5050505f73ffffffffffffffffffffffffffffffffffffffff168173ffffffffffffffffffffffffffffffffffffffff160361012f575f6040517f1e4fbdf700000000000000000000000000000000000000000000000000000000815260040161012691906105a9565b60405180910390fd5b61013e8161014560201b60201c565b50506105c2565b5f60065f9054906101000a900473ffffffffffffffffffffffffffffffffffffffff1690508160065f6101000a81548173ffffffffffffffffffffffffffffffffffffffff021916908373ffffffffffffffffffffffffffffffffffffffff1602179055508173ffffffffffffffffffffffffffffffffffffffff168173ffffffffffffffffffffffffffffffffffffffff167f8be0079c531659141344cd1fd0a4f28419497f9722a3daafe3b4186f6b6457e060405160405180910390a35050565b5f80fd5b5f73ffffffffffffffffffffffffffffffffffffffff82169050919050565b5f6102358261020c565b9050919050565b6102458161022b565b811461024f575f80fd5b50565b5f815190506102608161023c565b92915050565b5f6020828403121561027b5761027a610208565b5b5f61028884828501610252565b91505092915050565b5f81519050919050565b7f4e487b71000000000000000000000000000000000000000000000000000000005f52604160045260245ffd5b7f4e487b71000000000000000000000000000000000000000000000000000000005f52602260045260245ffd5b5f600282049050600182168061030c57607f821691505b60208210810361031f5761031e6102c8565b5b50919050565b5f819050815f5260205f209050919050565b5f6020601f8301049050919050565b5f82821b905092915050565b5f600883026103817fffffffffffffffffffffffffffffffffffffffffffffffffffffffffffffffff82610346565b61038b8683610346565b95508019841693508086168417925050509392505050565b5f819050919050565b5f819050919050565b5f6103cf6103ca6103c5846103a3565b6103ac565b6103a3565b9050919050565b5f819050919050565b6103e8836103b5565b6103fc6103f4826103d6565b848454610352565b825550505050565b5f90565b610410610404565b61041b8184846103df565b505050565b5b8181101561043e576104335f82610408565b600181019050610421565b5050565b601f8211156104835761045481610325565b61045d84610337565b8101602085101561046c578190505b61048061047885610337565b830182610420565b50505b505050565b5f82821c905092915050565b5f6104a35f1984600802610488565b1980831691505092915050565b5f6104bb8383610494565b9150826002028217905092915050565b6104d482610291565b67ffffffffffffffff8111156104ed576104ec61029b565b5b6104f782546102f5565b610502828285610442565b5f60209050601f831160018114610533575f8415610521578287015190505b61052b85826104b0565b865550610592565b601f19841661054186610325565b5f5b8281101561056857848901518255600182019150602085019450602081019050610543565b868310156105855784890151610581601f891682610494565b8355505b6001600288020188555050505b505050505050565b6105a38161022b565b82525050565b5f6020820190506105bc5f83018461059a565b92915050565b612897806105cf5f395ff3fe608060405234801561000f575f80fd5b5060043610610135575f3560e01c806370a08231116100b65780639964f3161161007a5780639964f3161461034d578063a22cb46514610369578063b88d4fde14610385578063c87b56dd146103a1578063e985e9c5146103d1578063f2fde38b1461040157610135565b806370a08231146102bb578063715018a6146102eb5780638da5cb5b146102f557806391ef935c1461031357806395d89b411461032f57610135565b806323b872dd116100fd57806323b872dd146102035780633f28e1d21461021f5780633f7b2c801461025357806342842e0e1461026f5780636352211e1461028b57610135565b806301ffc9a71461013957806306fdde0314610169578063081812fc14610187578063095ea7b3146101b757806317088b34146101d3575b5f80fd5b610153600480360381019061014e9190611c8e565b61041d565b6040516101609190611cd3565b60405180910390f35b6101716104fe565b60405161017e9190611d5c565b60405180910390f35b6101a1600480360381019061019c9190611daf565b61058d565b6040516101ae9190611e19565b60405180910390f35b6101d160048036038101906101cc9190611e5c565b6105a8565b005b6101ed60048036038101906101e89190611daf565b6105be565b6040516101fa9190611f1e565b60405180910390f35b61021d60048036038101906102189190611f37565b61062a565b005b61023960048036038101906102349190611daf565b610729565b60405161024a959493929190611f96565b60405180910390f35b61026d60048036038101906102689190611fe7565b610767565b005b61028960048036038101906102849190611f37565b6107f9565b005b6102a560048036038101906102a09190611daf565b610818565b6040516102b29190611e19565b60405180910390f35b6102d560048036038101906102d0919061205e565b610829565b6040516102e29190612089565b60405180910390f35b6102f36108df565b005b6102fd6108f2565b60405161030a9190611e19565b60405180910390f35b61032d60048036038101906103289190611daf565b61091a565b005b610337610950565b6040516103449190611d5c565b60405180910390f35b610367600480360381019061036291906120a2565b6109e0565b005b610383600480360381019061037e9190612155565b610bc9565b005b61039f600480360381019061039a91906122bf565b610bdf565b005b6103bb60048036038101906103b69190611daf565b610bfc565b6040516103c89190611d5c565b60405180910390f35b6103eb60048036038101906103e6919061233f565b610c62565b6040516103f89190611cd3565b60405180910390f35b61041b6004803603810190610416919061205e565b610cf0565b005b5f7f80ac58cd000000000000000000000000000000000000000000000000000000007bffffffffffffffffffffffffffffffffffffffffffffffffffffffff1916827bffffffffffffffffffffffffffffffffffffffffffffffffffffffff191614806104e757507f5b5e139f000000000000000000000000000000000000000000000000000000007bffffffffffffffffffffffffffffffffffffffffffffffffffffffff1916827bffffffffffffffffffffffffffffffffffffffffffffffffffffffff1916145b806104f757506104f682610d74565b5b9050919050565b60605f805461050c906123aa565b80601f0160208091040260200160405190810160405280929190818152602001828054610538906123aa565b80156105835780601f1061055a57610100808354040283529160200191610583565b820191905f5260205f20905b81548152906001019060200180831161056657829003601f168201915b5050505050905090565b5f61059782610ddd565b506105a182610e63565b9050919050565b6105ba82826105b5610e9c565b610ea3565b5050565b6105c6611bfc565b60075f8381526020019081526020015f206040518060a00160405290815f8201548152602001600182015481526020016002820154815260200160038201548152602001600482015f9054906101000a900460ff1615151515815250509050919050565b5f73ffffffffffffffffffffffffffffffffffffffff168273ffffffffffffffffffffffffffffffffffffffff160361069a575f6040517f64a0ae920000000000000000000000000000000000000000000000000000000081526004016106919190611e19565b60405180910390fd5b5f6106ad83836106a8610e9c565b610eb5565b90508373ffffffffffffffffffffffffffffffffffffffff168173ffffffffffffffffffffffffffffffffffffffff1614610723578382826040517f64283d7b00000000000000000000000000000000000000000000000000000000815260040161071a939291906123da565b60405180910390fd5b50505050565b6007602052805f5260405f205f91509050805f015490806001015490806002015490806003015490806004015f9054906101000a900460ff16905085565b61076f6110c0565b6040518060a001604052808581526020018481526020018381526020018281526020016001151581525060075f8781526020019081526020015f205f820151815f01556020820151816001015560408201518160020155606082015181600301556080820151816004015f6101000a81548160ff0219169083151502179055509050505050505050565b61081383838360405180602001604052805f815250610bdf565b505050565b5f61082282610ddd565b9050919050565b5f8073ffffffffffffffffffffffffffffffffffffffff168273ffffffffffffffffffffffffffffffffffffffff160361089a575f6040517f89c62b640000000000000000000000000000000000000000000000000000000081526004016108919190611e19565b60405180910390fd5b60035f8373ffffffffffffffffffffffffffffffffffffffff1673ffffffffffffffffffffffffffffffffffffffff1681526020019081526020015f20549050919050565b6108e76110c0565b6108f05f611147565b565b5f60065f9054906101000a900473ffffffffffffffffffffffffffffffffffffffff16905090565b6109226110c0565b5f60075f8381526020019081526020015f206004015f6101000a81548160ff02191690831515021790555050565b60606001805461095f906123aa565b80601f016020809104026020016040519081016040528092919081815260200182805461098b906123aa565b80156109d65780601f106109ad576101008083540402835291602001916109d6565b820191905f5260205f20905b8154815290600101906020018083116109b957829003601f168201915b5050505050905090565b6109e86110c0565b5f8503610a2a576040517f08c379a0000000000000000000000000000000000000000000000000000000008152600401610a2190612459565b60405180910390fd5b5f8411610a6c576040517f08c379a0000000000000000000000000000000000000000000000000000000008152600401610a63906124e7565b60405180910390fd5b5f8311610aae576040517f08c379a0000000000000000000000000000000000000000000000000000000008152600401610aa590612575565b60405180910390fd5b42821015610af1576040517f08c379a0000000000000000000000000000000000000000000000000000000008152600401610ae890612629565b60405180910390fd5b81811015610b34576040517f08c379a0000000000000000000000000000000000000000000000000000000008152600401610b2b906126b7565b60405180910390fd5b610b3e868661120a565b6040518060a001604052808581526020018481526020018381526020018281526020016001151581525060075f8781526020019081526020015f205f820151815f01556020820151816001015560408201518160020155606082015181600301556080820151816004015f6101000a81548160ff021916908315150217905550905050505050505050565b610bdb610bd4610e9c565b8383611227565b5050565b610bea84848461062a565b610bf684848484611390565b50505050565b6060610c0782610ddd565b505f610c11611542565b90505f815111610c2f5760405180602001604052805f815250610c5a565b80610c3984611558565b604051602001610c4a92919061270f565b6040516020818303038152906040525b915050919050565b5f60055f8473ffffffffffffffffffffffffffffffffffffffff1673ffffffffffffffffffffffffffffffffffffffff1681526020019081526020015f205f8373ffffffffffffffffffffffffffffffffffffffff1673ffffffffffffffffffffffffffffffffffffffff1681526020019081526020015f205f9054906101000a900460ff16905092915050565b610cf86110c0565b5f73ffffffffffffffffffffffffffffffffffffffff168173ffffffffffffffffffffffffffffffffffffffff1603610d68575f6040517f1e4fbdf7000000000000000000000000000000000000000000000000000000008152600401610d5f9190611e19565b60405180910390fd5b610d7181611147565b50565b5f7f01ffc9a7000000000000000000000000000000000000000000000000000000007bffffffffffffffffffffffffffffffffffffffffffffffffffffffff1916827bffffffffffffffffffffffffffffffffffffffffffffffffffffffff1916149050919050565b5f80610de883611622565b90505f73ffffffffffffffffffffffffffffffffffffffff168173ffffffffffffffffffffffffffffffffffffffff1603610e5a57826040517f7e273289000000000000000000000000000000000000000000000000000000008152600401610e519190612089565b60405180910390fd5b80915050919050565b5f60045f8381526020019081526020015f205f9054906101000a900473ffffffffffffffffffffffffffffffffffffffff169050919050565b5f33905090565b610eb0838383600161165b565b505050565b5f80610ec084611622565b90505f73ffffffffffffffffffffffffffffffffffffffff168373ffffffffffffffffffffffffffffffffffffffff1614610f0157610f0081848661181a565b5b5f73ffffffffffffffffffffffffffffffffffffffff168173ffffffffffffffffffffffffffffffffffffffff1614610f8c57610f405f855f8061165b565b600160035f8373ffffffffffffffffffffffffffffffffffffffff1673ffffffffffffffffffffffffffffffffffffffff1681526020019081526020015f205f82825403925050819055505b5f73ffffffffffffffffffffffffffffffffffffffff168573ffffffffffffffffffffffffffffffffffffffff161461100b57600160035f8773ffffffffffffffffffffffffffffffffffffffff1673ffffffffffffffffffffffffffffffffffffffff1681526020019081526020015f205f82825401925050819055505b8460025f8681526020019081526020015f205f6101000a81548173ffffffffffffffffffffffffffffffffffffffff021916908373ffffffffffffffffffffffffffffffffffffffff160217905550838573ffffffffffffffffffffffffffffffffffffffff168273ffffffffffffffffffffffffffffffffffffffff167fddf252ad1be2c89b69c2b068fc378daa952ba7f163c4a11628f55a4df523b3ef60405160405180910390a4809150509392505050565b6110c8610e9c565b73ffffffffffffffffffffffffffffffffffffffff166110e66108f2565b73ffffffffffffffffffffffffffffffffffffffff161461114557611109610e9c565b6040517f118cdaa700000000000000000000000000000000000000000000000000000000815260040161113c9190611e19565b60405180910390fd5b565b5f60065f9054906101000a900473ffffffffffffffffffffffffffffffffffffffff1690508160065f6101000a81548173ffffffffffffffffffffffffffffffffffffffff021916908373ffffffffffffffffffffffffffffffffffffffff1602179055508173ffffffffffffffffffffffffffffffffffffffff168173ffffffffffffffffffffffffffffffffffffffff167f8be0079c531659141344cd1fd0a4f28419497f9722a3daafe3b4186f6b6457e060405160405180910390a35050565b611223828260405180602001604052805f8152506118dd565b5050565b5f73ffffffffffffffffffffffffffffffffffffffff168273ffffffffffffffffffffffffffffffffffffffff160361129757816040517f5b08ba1800000000000000000000000000000000000000000000000000000000815260040161128e9190611e19565b60405180910390fd5b8060055f8573ffffffffffffffffffffffffffffffffffffffff1673ffffffffffffffffffffffffffffffffffffffff1681526020019081526020015f205f8473ffffffffffffffffffffffffffffffffffffffff1673ffffffffffffffffffffffffffffffffffffffff1681526020019081526020015f205f6101000a81548160ff0219169083151502179055508173ffffffffffffffffffffffffffffffffffffffff168373ffffffffffffffffffffffffffffffffffffffff167f17307eab39ab6107e8899845ad3d59bd9653f200f220920489ca2b5937696c31836040516113839190611cd3565b60405180910390a3505050565b5f8373ffffffffffffffffffffffffffffffffffffffff163b111561153c578273ffffffffffffffffffffffffffffffffffffffff1663150b7a026113d3610e9c565b8685856040518563ffffffff1660e01b81526004016113f59493929190612784565b6020604051808303815f875af192505050801561143057506040513d601f19601f8201168201806040525081019061142d91906127e2565b60015b6114b1573d805f811461145e576040519150601f19603f3d011682016040523d82523d5f602084013e611463565b606091505b505f8151036114a957836040517f64a0ae920000000000000000000000000000000000000000000000000000000081526004016114a09190611e19565b60405180910390fd5b805181602001fd5b63150b7a0260e01b7bffffffffffffffffffffffffffffffffffffffffffffffffffffffff1916817bffffffffffffffffffffffffffffffffffffffffffffffffffffffff19161461153a57836040517f64a0ae920000000000000000000000000000000000000000000000000000000081526004016115319190611e19565b60405180910390fd5b505b50505050565b606060405180602001604052805f815250905090565b60605f6001611566846118f8565b0190505f8167ffffffffffffffff8111156115845761158361219b565b5b6040519080825280601f01601f1916602001820160405280156115b65781602001600182028036833780820191505090505b5090505f82602001820190505b600115611617578080600190039150507f3031323334353637383961626364656600000000000000000000000000000000600a86061a8153600a858161160c5761160b61280d565b5b0494505f85036115c3575b819350505050919050565b5f60025f8381526020019081526020015f205f9054906101000a900473ffffffffffffffffffffffffffffffffffffffff169050919050565b808061169357505f73ffffffffffffffffffffffffffffffffffffffff168273ffffffffffffffffffffffffffffffffffffffff1614155b156117c5575f6116a284610ddd565b90505f73ffffffffffffffffffffffffffffffffffffffff168373ffffffffffffffffffffffffffffffffffffffff161415801561170c57508273ffffffffffffffffffffffffffffffffffffffff168173ffffffffffffffffffffffffffffffffffffffff1614155b801561171f575061171d8184610c62565b155b1561176157826040517fa9fbf51f0000000000000000000000000000000000000000000000000000000081526004016117589190611e19565b60405180910390fd5b81156117c357838573ffffffffffffffffffffffffffffffffffffffff168273ffffffffffffffffffffffffffffffffffffffff167f8c5be1e5ebec7d5bd14f71427d1e84f3dd0314c0f7b2291e5b200ac8c7c3b92560405160405180910390a45b505b8360045f8581526020019081526020015f205f6101000a81548173ffffffffffffffffffffffffffffffffffffffff021916908373ffffffffffffffffffffffffffffffffffffffff16021790555050505050565b611825838383611a49565b6118d8575f73ffffffffffffffffffffffffffffffffffffffff168373ffffffffffffffffffffffffffffffffffffffff160361189957806040517f7e2732890000000000000000000000000000000000000000000000000000000081526004016118909190612089565b60405180910390fd5b81816040517f177e802f0000000000000000000000000000000000000000000000000000000081526004016118cf92919061283a565b60405180910390fd5b505050565b6118e78383611b09565b6118f35f848484611390565b505050565b5f805f90507a184f03e93ff9f4daa797ed6e38ed64bf6a1f0100000000000000008310611954577a184f03e93ff9f4daa797ed6e38ed64bf6a1f010000000000000000838161194a5761194961280d565b5b0492506040810190505b6d04ee2d6d415b85acef81000000008310611991576d04ee2d6d415b85acef810000000083816119875761198661280d565b5b0492506020810190505b662386f26fc1000083106119c057662386f26fc1000083816119b6576119b561280d565b5b0492506010810190505b6305f5e10083106119e9576305f5e10083816119df576119de61280d565b5b0492506008810190505b6127108310611a0e576127108381611a0457611a0361280d565b5b0492506004810190505b60648310611a315760648381611a2757611a2661280d565b5b0492506002810190505b600a8310611a40576001810190505b80915050919050565b5f8073ffffffffffffffffffffffffffffffffffffffff168373ffffffffffffffffffffffffffffffffffffffff1614158015611b0057508273ffffffffffffffffffffffffffffffffffffffff168473ffffffffffffffffffffffffffffffffffffffff161480611ac15750611ac08484610c62565b5b80611aff57508273ffffffffffffffffffffffffffffffffffffffff16611ae783610e63565b73ffffffffffffffffffffffffffffffffffffffff16145b5b90509392505050565b5f73ffffffffffffffffffffffffffffffffffffffff168273ffffffffffffffffffffffffffffffffffffffff1603611b79575f6040517f64a0ae92000000000000000000000000000000000000000000000000000000008152600401611b709190611e19565b60405180910390fd5b5f611b8583835f610eb5565b90505f73ffffffffffffffffffffffffffffffffffffffff168173ffffffffffffffffffffffffffffffffffffffff1614611bf7575f6040517f73c6ac6e000000000000000000000000000000000000000000000000000000008152600401611bee9190611e19565b60405180910390fd5b505050565b6040518060a001604052805f81526020015f81526020015f81526020015f81526020015f151581525090565b5f604051905090565b5f80fd5b5f80fd5b5f7fffffffff0000000000000000000000000000000000000000000000000000000082169050919050565b611c6d81611c39565b8114611c77575f80fd5b50565b5f81359050611c8881611c64565b92915050565b5f60208284031215611ca357611ca2611c31565b5b5f611cb084828501611c7a565b91505092915050565b5f8115159050919050565b611ccd81611cb9565b82525050565b5f602082019050611ce65f830184611cc4565b92915050565b5f81519050919050565b5f82825260208201905092915050565b8281835e5f83830152505050565b5f601f19601f8301169050919050565b5f611d2e82611cec565b611d388185611cf6565b9350611d48818560208601611d06565b611d5181611d14565b840191505092915050565b5f6020820190508181035f830152611d748184611d24565b905092915050565b5f819050919050565b611d8e81611d7c565b8114611d98575f80fd5b50565b5f81359050611da981611d85565b92915050565b5f60208284031215611dc457611dc3611c31565b5b5f611dd184828501611d9b565b91505092915050565b5f73ffffffffffffffffffffffffffffffffffffffff82169050919050565b5f611e0382611dda565b9050919050565b611e1381611df9565b82525050565b5f602082019050611e2c5f830184611e0a565b92915050565b611e3b81611df9565b8114611e45575f80fd5b50565b5f81359050611e5681611e32565b92915050565b5f8060408385031215611e7257611e71611c31565b5b5f611e7f85828601611e48565b9250506020611e9085828601611d9b565b9150509250929050565b611ea381611d7c565b82525050565b611eb281611cb9565b82525050565b60a082015f820151611ecc5f850182611e9a565b506020820151611edf6020850182611e9a565b506040820151611ef26040850182611e9a565b506060820151611f056060850182611e9a565b506080820151611f186080850182611ea9565b50505050565b5f60a082019050611f315f830184611eb8565b92915050565b5f805f60608486031215611f4e57611f4d611c31565b5b5f611f5b86828701611e48565b9350506020611f6c86828701611e48565b9250506040611f7d86828701611d9b565b9150509250925092565b611f9081611d7c565b82525050565b5f60a082019050611fa95f830188611f87565b611fb66020830187611f87565b611fc36040830186611f87565b611fd06060830185611f87565b611fdd6080830184611cc4565b9695505050505050565b5f805f805f60a0868803121561200057611fff611c31565b5b5f61200d88828901611d9b565b955050602061201e88828901611d9b565b945050604061202f88828901611d9b565b935050606061204088828901611d9b565b925050608061205188828901611d9b565b9150509295509295909350565b5f6020828403121561207357612072611c31565b5b5f61208084828501611e48565b91505092915050565b5f60208201905061209c5f830184611f87565b92915050565b5f805f805f8060c087890312156120bc576120bb611c31565b5b5f6120c989828a01611e48565b96505060206120da89828a01611d9b565b95505060406120eb89828a01611d9b565b94505060606120fc89828a01611d9b565b935050608061210d89828a01611d9b565b92505060a061211e89828a01611d9b565b9150509295509295509295565b61213481611cb9565b811461213e575f80fd5b50565b5f8135905061214f8161212b565b92915050565b5f806040838503121561216b5761216a611c31565b5b5f61217885828601611e48565b925050602061218985828601612141565b9150509250929050565b5f80fd5b5f80fd5b7f4e487b71000000000000000000000000000000000000000000000000000000005f52604160045260245ffd5b6121d182611d14565b810181811067ffffffffffffffff821117156121f0576121ef61219b565b5b80604052505050565b5f612202611c28565b905061220e82826121c8565b919050565b5f67ffffffffffffffff82111561222d5761222c61219b565b5b61223682611d14565b9050602081019050919050565b828183375f83830152505050565b5f61226361225e84612213565b6121f9565b90508281526020810184848401111561227f5761227e612197565b5b61228a848285612243565b509392505050565b5f82601f8301126122a6576122a5612193565b5b81356122b6848260208601612251565b91505092915050565b5f805f80608085870312156122d7576122d6611c31565b5b5f6122e487828801611e48565b94505060206122f587828801611e48565b935050604061230687828801611d9b565b925050606085013567ffffffffffffffff81111561232757612326611c35565b5b61233387828801612292565b91505092959194509250565b5f806040838503121561235557612354611c31565b5b5f61236285828601611e48565b925050602061237385828601611e48565b9150509250929050565b7f4e487b71000000000000000000000000000000000000000000000000000000005f52602260045260245ffd5b5f60028204905060018216806123c157607f821691505b6020821081036123d4576123d361237d565b5b50919050565b5f6060820190506123ed5f830186611e0a565b6123fa6020830185611f87565b6124076040830184611e0a565b949350505050565b7f53616665543a20746f6b656e206964206d7573742062652070726f76696465645f82015250565b5f612443602083611cf6565b915061244e8261240f565b602082019050919050565b5f6020820190508181035f83015261247081612437565b9050919050565b7f53616665543a2072656e7420616d6f756e74206d7573742062652067726561745f8201527f6572207468616e20300000000000000000000000000000000000000000000000602082015250565b5f6124d1602983611cf6565b91506124dc82612477565b604082019050919050565b5f6020820190508181035f8301526124fe816124c5565b9050919050565b7f53616665543a207365637572697479206465706f736974206d757374206265205f8201527f67726561746572207468616e2030000000000000000000000000000000000000602082015250565b5f61255f602e83611cf6565b915061256a82612505565b604082019050919050565b5f6020820190508181035f83015261258c81612553565b9050919050565b7f53616665543a206c65617365207374617274206d7573742062652067726561745f8201527f6572207468616e206f7220657175616c20746f2063757272656e742074696d6560208201527f7374616d70000000000000000000000000000000000000000000000000000000604082015250565b5f612613604583611cf6565b915061261e82612593565b606082019050919050565b5f6020820190508181035f83015261264081612607565b9050919050565b7f53616665543a206c6561736520656e64206d75737420626520677265617465725f8201527f207468616e206f7220657175616c20746f206c65617365207374617274000000602082015250565b5f6126a1603d83611cf6565b91506126ac82612647565b604082019050919050565b5f6020820190508181035f8301526126ce81612695565b9050919050565b5f81905092915050565b5f6126e982611cec565b6126f381856126d5565b9350612703818560208601611d06565b80840191505092915050565b5f61271a82856126df565b915061272682846126df565b91508190509392505050565b5f81519050919050565b5f82825260208201905092915050565b5f61275682612732565b612760818561273c565b9350612770818560208601611d06565b61277981611d14565b840191505092915050565b5f6080820190506127975f830187611e0a565b6127a46020830186611e0a565b6127b16040830185611f87565b81810360608301526127c3818461274c565b905095945050505050565b5f815190506127dc81611c64565b92915050565b5f602082840312156127f7576127f6611c31565b5b5f612804848285016127ce565b91505092915050565b7f4e487b71000000000000000000000000000000000000000000000000000000005f52601260045260245ffd5b5f60408201905061284d5f830185611e0a565b61285a6020830184611f87565b939250505056fea26469706673582212207bb4fbf6217afe628f4562c5727de23505d76be476e7bac1c7bed5889de624c764736f6c634300081a0033",
					"opcodes": "PUSH1 0x80 PUSH1 0x40 MSTORE CALLVALUE DUP1 ISZERO PUSH2 0xF JUMPI PUSH0 DUP1 REVERT JUMPDEST POP PUSH1 0x40 MLOAD PUSH2 0x2E66 CODESIZE SUB DUP1 PUSH2 0x2E66 DUP4 CODECOPY DUP2 DUP2 ADD PUSH1 0x40 MSTORE DUP2 ADD SWAP1 PUSH2 0x31 SWAP2 SWAP1 PUSH2 0x266 JUMP JUMPDEST DUP1 PUSH1 0x40 MLOAD DUP1 PUSH1 0x40 ADD PUSH1 0x40 MSTORE DUP1 PUSH1 0x5 DUP2 MSTORE PUSH1 0x20 ADD PUSH32 0x5361666554000000000000000000000000000000000000000000000000000000 DUP2 MSTORE POP PUSH1 0x40 MLOAD DUP1 PUSH1 0x40 ADD PUSH1 0x40 MSTORE DUP1 PUSH1 0x3 DUP2 MSTORE PUSH1 0x20 ADD PUSH32 0x5346540000000000000000000000000000000000000000000000000000000000 DUP2 MSTORE POP DUP2 PUSH0 SWAP1 DUP2 PUSH2 0xAC SWAP2 SWAP1 PUSH2 0x4CB JUMP JUMPDEST POP DUP1 PUSH1 0x1 SWAP1 DUP2 PUSH2 0xBC SWAP2 SWAP1 PUSH2 0x4CB JUMP JUMPDEST POP POP POP PUSH0 PUSH20 0xFFFFFFFFFFFFFFFFFFFFFFFFFFFFFFFFFFFFFFFF AND DUP2 PUSH20 0xFFFFFFFFFFFFFFFFFFFFFFFFFFFFFFFFFFFFFFFF AND SUB PUSH2 0x12F JUMPI PUSH0 PUSH1 0x40 MLOAD PUSH32 0x1E4FBDF700000000000000000000000000000000000000000000000000000000 DUP2 MSTORE PUSH1 0x4 ADD PUSH2 0x126 SWAP2 SWAP1 PUSH2 0x5A9 JUMP JUMPDEST PUSH1 0x40 MLOAD DUP1 SWAP2 SUB SWAP1 REVERT JUMPDEST PUSH2 0x13E DUP2 PUSH2 0x145 PUSH1 0x20 SHL PUSH1 0x20 SHR JUMP JUMPDEST POP POP PUSH2 0x5C2 JUMP JUMPDEST PUSH0 PUSH1 0x6 PUSH0 SWAP1 SLOAD SWAP1 PUSH2 0x100 EXP SWAP1 DIV PUSH20 0xFFFFFFFFFFFFFFFFFFFFFFFFFFFFFFFFFFFFFFFF AND SWAP1 POP DUP2 PUSH1 0x6 PUSH0 PUSH2 0x100 EXP DUP2 SLOAD DUP2 PUSH20 0xFFFFFFFFFFFFFFFFFFFFFFFFFFFFFFFFFFFFFFFF MUL NOT AND SWAP1 DUP4 PUSH20 0xFFFFFFFFFFFFFFFFFFFFFFFFFFFFFFFFFFFFFFFF AND MUL OR SWAP1 SSTORE POP DUP2 PUSH20 0xFFFFFFFFFFFFFFFFFFFFFFFFFFFFFFFFFFFFFFFF AND DUP2 PUSH20 0xFFFFFFFFFFFFFFFFFFFFFFFFFFFFFFFFFFFFFFFF AND PUSH32 0x8BE0079C531659141344CD1FD0A4F28419497F9722A3DAAFE3B4186F6B6457E0 PUSH1 0x40 MLOAD PUSH1 0x40 MLOAD DUP1 SWAP2 SUB SWAP1 LOG3 POP POP JUMP JUMPDEST PUSH0 DUP1 REVERT JUMPDEST PUSH0 PUSH20 0xFFFFFFFFFFFFFFFFFFFFFFFFFFFFFFFFFFFFFFFF DUP3 AND SWAP1 POP SWAP2 SWAP1 POP JUMP JUMPDEST PUSH0 PUSH2 0x235 DUP3 PUSH2 0x20C JUMP JUMPDEST SWAP1 POP SWAP2 SWAP1 POP JUMP JUMPDEST PUSH2 0x245 DUP2 PUSH2 0x22B JUMP JUMPDEST DUP2 EQ PUSH2 0x24F JUMPI PUSH0 DUP1 REVERT JUMPDEST POP JUMP JUMPDEST PUSH0 DUP2 MLOAD SWAP1 POP PUSH2 0x260 DUP2 PUSH2 0x23C JUMP JUMPDEST SWAP3 SWAP2 POP POP JUMP JUMPDEST PUSH0 PUSH1 0x20 DUP3 DUP5 SUB SLT ISZERO PUSH2 0x27B JUMPI PUSH2 0x27A PUSH2 0x208 JUMP JUMPDEST JUMPDEST PUSH0 PUSH2 0x288 DUP5 DUP3 DUP6 ADD PUSH2 0x252 JUMP JUMPDEST SWAP2 POP POP SWAP3 SWAP2 POP POP JUMP JUMPDEST PUSH0 DUP2 MLOAD SWAP1 POP SWAP2 SWAP1 POP JUMP JUMPDEST PUSH32 0x4E487B7100000000000000000000000000000000000000000000000000000000 PUSH0 MSTORE PUSH1 0x41 PUSH1 0x4 MSTORE PUSH1 0x24 PUSH0 REVERT JUMPDEST PUSH32 0x4E487B7100000000000000000000000000000000000000000000000000000000 PUSH0 MSTORE PUSH1 0x22 PUSH1 0x4 MSTORE PUSH1 0x24 PUSH0 REVERT JUMPDEST PUSH0 PUSH1 0x2 DUP3 DIV SWAP1 POP PUSH1 0x1 DUP3 AND DUP1 PUSH2 0x30C JUMPI PUSH1 0x7F DUP3 AND SWAP2 POP JUMPDEST PUSH1 0x20 DUP3 LT DUP2 SUB PUSH2 0x31F JUMPI PUSH2 0x31E PUSH2 0x2C8 JUMP JUMPDEST JUMPDEST POP SWAP2 SWAP1 POP JUMP JUMPDEST PUSH0 DUP2 SWAP1 POP DUP2 PUSH0 MSTORE PUSH1 0x20 PUSH0 KECCAK256 SWAP1 POP SWAP2 SWAP1 POP JUMP JUMPDEST PUSH0 PUSH1 0x20 PUSH1 0x1F DUP4 ADD DIV SWAP1 POP SWAP2 SWAP1 POP JUMP JUMPDEST PUSH0 DUP3 DUP3 SHL SWAP1 POP SWAP3 SWAP2 POP POP JUMP JUMPDEST PUSH0 PUSH1 0x8 DUP4 MUL PUSH2 0x381 PUSH32 0xFFFFFFFFFFFFFFFFFFFFFFFFFFFFFFFFFFFFFFFFFFFFFFFFFFFFFFFFFFFFFFFF DUP3 PUSH2 0x346 JUMP JUMPDEST PUSH2 0x38B DUP7 DUP4 PUSH2 0x346 JUMP JUMPDEST SWAP6 POP DUP1 NOT DUP5 AND SWAP4 POP DUP1 DUP7 AND DUP5 OR SWAP3 POP POP POP SWAP4 SWAP3 POP POP POP JUMP JUMPDEST PUSH0 DUP2 SWAP1 POP SWAP2 SWAP1 POP JUMP JUMPDEST PUSH0 DUP2 SWAP1 POP SWAP2 SWAP1 POP JUMP JUMPDEST PUSH0 PUSH2 0x3CF PUSH2 0x3CA PUSH2 0x3C5 DUP5 PUSH2 0x3A3 JUMP JUMPDEST PUSH2 0x3AC JUMP JUMPDEST PUSH2 0x3A3 JUMP JUMPDEST SWAP1 POP SWAP2 SWAP1 POP JUMP JUMPDEST PUSH0 DUP2 SWAP1 POP SWAP2 SWAP1 POP JUMP JUMPDEST PUSH2 0x3E8 DUP4 PUSH2 0x3B5 JUMP JUMPDEST PUSH2 0x3FC PUSH2 0x3F4 DUP3 PUSH2 0x3D6 JUMP JUMPDEST DUP5 DUP5 SLOAD PUSH2 0x352 JUMP JUMPDEST DUP3 SSTORE POP POP POP POP JUMP JUMPDEST PUSH0 SWAP1 JUMP JUMPDEST PUSH2 0x410 PUSH2 0x404 JUMP JUMPDEST PUSH2 0x41B DUP2 DUP5 DUP5 PUSH2 0x3DF JUMP JUMPDEST POP POP POP JUMP JUMPDEST JUMPDEST DUP2 DUP2 LT ISZERO PUSH2 0x43E JUMPI PUSH2 0x433 PUSH0 DUP3 PUSH2 0x408 JUMP JUMPDEST PUSH1 0x1 DUP2 ADD SWAP1 POP PUSH2 0x421 JUMP JUMPDEST POP POP JUMP JUMPDEST PUSH1 0x1F DUP3 GT ISZERO PUSH2 0x483 JUMPI PUSH2 0x454 DUP2 PUSH2 0x325 JUMP JUMPDEST PUSH2 0x45D DUP5 PUSH2 0x337 JUMP JUMPDEST DUP2 ADD PUSH1 0x20 DUP6 LT ISZERO PUSH2 0x46C JUMPI DUP2 SWAP1 POP JUMPDEST PUSH2 0x480 PUSH2 0x478 DUP6 PUSH2 0x337 JUMP JUMPDEST DUP4 ADD DUP3 PUSH2 0x420 JUMP JUMPDEST POP POP JUMPDEST POP POP POP JUMP JUMPDEST PUSH0 DUP3 DUP3 SHR SWAP1 POP SWAP3 SWAP2 POP POP JUMP JUMPDEST PUSH0 PUSH2 0x4A3 PUSH0 NOT DUP5 PUSH1 0x8 MUL PUSH2 0x488 JUMP JUMPDEST NOT DUP1 DUP4 AND SWAP2 POP POP SWAP3 SWAP2 POP POP JUMP JUMPDEST PUSH0 PUSH2 0x4BB DUP4 DUP4 PUSH2 0x494 JUMP JUMPDEST SWAP2 POP DUP3 PUSH1 0x2 MUL DUP3 OR SWAP1 POP SWAP3 SWAP2 POP POP JUMP JUMPDEST PUSH2 0x4D4 DUP3 PUSH2 0x291 JUMP JUMPDEST PUSH8 0xFFFFFFFFFFFFFFFF DUP2 GT ISZERO PUSH2 0x4ED JUMPI PUSH2 0x4EC PUSH2 0x29B JUMP JUMPDEST JUMPDEST PUSH2 0x4F7 DUP3 SLOAD PUSH2 0x2F5 JUMP JUMPDEST PUSH2 0x502 DUP3 DUP3 DUP6 PUSH2 0x442 JUMP JUMPDEST PUSH0 PUSH1 0x20 SWAP1 POP PUSH1 0x1F DUP4 GT PUSH1 0x1 DUP2 EQ PUSH2 0x533 JUMPI PUSH0 DUP5 ISZERO PUSH2 0x521 JUMPI DUP3 DUP8 ADD MLOAD SWAP1 POP JUMPDEST PUSH2 0x52B DUP6 DUP3 PUSH2 0x4B0 JUMP JUMPDEST DUP7 SSTORE POP PUSH2 0x592 JUMP JUMPDEST PUSH1 0x1F NOT DUP5 AND PUSH2 0x541 DUP7 PUSH2 0x325 JUMP JUMPDEST PUSH0 JUMPDEST DUP3 DUP2 LT ISZERO PUSH2 0x568 JUMPI DUP5 DUP10 ADD MLOAD DUP3 SSTORE PUSH1 0x1 DUP3 ADD SWAP2 POP PUSH1 0x20 DUP6 ADD SWAP5 POP PUSH1 0x20 DUP2 ADD SWAP1 POP PUSH2 0x543 JUMP JUMPDEST DUP7 DUP4 LT ISZERO PUSH2 0x585 JUMPI DUP5 DUP10 ADD MLOAD PUSH2 0x581 PUSH1 0x1F DUP10 AND DUP3 PUSH2 0x494 JUMP JUMPDEST DUP4 SSTORE POP JUMPDEST PUSH1 0x1 PUSH1 0x2 DUP9 MUL ADD DUP9 SSTORE POP POP POP JUMPDEST POP POP POP POP POP POP JUMP JUMPDEST PUSH2 0x5A3 DUP2 PUSH2 0x22B JUMP JUMPDEST DUP3 MSTORE POP POP JUMP JUMPDEST PUSH0 PUSH1 0x20 DUP3 ADD SWAP1 POP PUSH2 0x5BC PUSH0 DUP4 ADD DUP5 PUSH2 0x59A JUMP JUMPDEST SWAP3 SWAP2 POP POP JUMP JUMPDEST PUSH2 0x2897 DUP1 PUSH2 0x5CF PUSH0 CODECOPY PUSH0 RETURN INVALID PUSH1 0x80 PUSH1 0x40 MSTORE CALLVALUE DUP1 ISZERO PUSH2 0xF JUMPI PUSH0 DUP1 REVERT JUMPDEST POP PUSH1 0x4 CALLDATASIZE LT PUSH2 0x135 JUMPI PUSH0 CALLDATALOAD PUSH1 0xE0 SHR DUP1 PUSH4 0x70A08231 GT PUSH2 0xB6 JUMPI DUP1 PUSH4 0x9964F316 GT PUSH2 0x7A JUMPI DUP1 PUSH4 0x9964F316 EQ PUSH2 0x34D JUMPI DUP1 PUSH4 0xA22CB465 EQ PUSH2 0x369 JUMPI DUP1 PUSH4 0xB88D4FDE EQ PUSH2 0x385 JUMPI DUP1 PUSH4 0xC87B56DD EQ PUSH2 0x3A1 JUMPI DUP1 PUSH4 0xE985E9C5 EQ PUSH2 0x3D1 JUMPI DUP1 PUSH4 0xF2FDE38B EQ PUSH2 0x401 JUMPI PUSH2 0x135 JUMP JUMPDEST DUP1 PUSH4 0x70A08231 EQ PUSH2 0x2BB JUMPI DUP1 PUSH4 0x715018A6 EQ PUSH2 0x2EB JUMPI DUP1 PUSH4 0x8DA5CB5B EQ PUSH2 0x2F5 JUMPI DUP1 PUSH4 0x91EF935C EQ PUSH2 0x313 JUMPI DUP1 PUSH4 0x95D89B41 EQ PUSH2 0x32F JUMPI PUSH2 0x135 JUMP JUMPDEST DUP1 PUSH4 0x23B872DD GT PUSH2 0xFD JUMPI DUP1 PUSH4 0x23B872DD EQ PUSH2 0x203 JUMPI DUP1 PUSH4 0x3F28E1D2 EQ PUSH2 0x21F JUMPI DUP1 PUSH4 0x3F7B2C80 EQ PUSH2 0x253 JUMPI DUP1 PUSH4 0x42842E0E EQ PUSH2 0x26F JUMPI DUP1 PUSH4 0x6352211E EQ PUSH2 0x28B JUMPI PUSH2 0x135 JUMP JUMPDEST DUP1 PUSH4 0x1FFC9A7 EQ PUSH2 0x139 JUMPI DUP1 PUSH4 0x6FDDE03 EQ PUSH2 0x169 JUMPI DUP1 PUSH4 0x81812FC EQ PUSH2 0x187 JUMPI DUP1 PUSH4 0x95EA7B3 EQ PUSH2 0x1B7 JUMPI DUP1 PUSH4 0x17088B34 EQ PUSH2 0x1D3 JUMPI JUMPDEST PUSH0 DUP1 REVERT JUMPDEST PUSH2 0x153 PUSH1 0x4 DUP1 CALLDATASIZE SUB DUP2 ADD SWAP1 PUSH2 0x14E SWAP2 SWAP1 PUSH2 0x1C8E JUMP JUMPDEST PUSH2 0x41D JUMP JUMPDEST PUSH1 0x40 MLOAD PUSH2 0x160 SWAP2 SWAP1 PUSH2 0x1CD3 JUMP JUMPDEST PUSH1 0x40 MLOAD DUP1 SWAP2 SUB SWAP1 RETURN JUMPDEST PUSH2 0x171 PUSH2 0x4FE JUMP JUMPDEST PUSH1 0x40 MLOAD PUSH2 0x17E SWAP2 SWAP1 PUSH2 0x1D5C JUMP JUMPDEST PUSH1 0x40 MLOAD DUP1 SWAP2 SUB SWAP1 RETURN JUMPDEST PUSH2 0x1A1 PUSH1 0x4 DUP1 CALLDATASIZE SUB DUP2 ADD SWAP1 PUSH2 0x19C SWAP2 SWAP1 PUSH2 0x1DAF JUMP JUMPDEST PUSH2 0x58D JUMP JUMPDEST PUSH1 0x40 MLOAD PUSH2 0x1AE SWAP2 SWAP1 PUSH2 0x1E19 JUMP JUMPDEST PUSH1 0x40 MLOAD DUP1 SWAP2 SUB SWAP1 RETURN JUMPDEST PUSH2 0x1D1 PUSH1 0x4 DUP1 CALLDATASIZE SUB DUP2 ADD SWAP1 PUSH2 0x1CC SWAP2 SWAP1 PUSH2 0x1E5C JUMP JUMPDEST PUSH2 0x5A8 JUMP JUMPDEST STOP JUMPDEST PUSH2 0x1ED PUSH1 0x4 DUP1 CALLDATASIZE SUB DUP2 ADD SWAP1 PUSH2 0x1E8 SWAP2 SWAP1 PUSH2 0x1DAF JUMP JUMPDEST PUSH2 0x5BE JUMP JUMPDEST PUSH1 0x40 MLOAD PUSH2 0x1FA SWAP2 SWAP1 PUSH2 0x1F1E JUMP JUMPDEST PUSH1 0x40 MLOAD DUP1 SWAP2 SUB SWAP1 RETURN JUMPDEST PUSH2 0x21D PUSH1 0x4 DUP1 CALLDATASIZE SUB DUP2 ADD SWAP1 PUSH2 0x218 SWAP2 SWAP1 PUSH2 0x1F37 JUMP JUMPDEST PUSH2 0x62A JUMP JUMPDEST STOP JUMPDEST PUSH2 0x239 PUSH1 0x4 DUP1 CALLDATASIZE SUB DUP2 ADD SWAP1 PUSH2 0x234 SWAP2 SWAP1 PUSH2 0x1DAF JUMP JUMPDEST PUSH2 0x729 JUMP JUMPDEST PUSH1 0x40 MLOAD PUSH2 0x24A SWAP6 SWAP5 SWAP4 SWAP3 SWAP2 SWAP1 PUSH2 0x1F96 JUMP JUMPDEST PUSH1 0x40 MLOAD DUP1 SWAP2 SUB SWAP1 RETURN JUMPDEST PUSH2 0x26D PUSH1 0x4 DUP1 CALLDATASIZE SUB DUP2 ADD SWAP1 PUSH2 0x268 SWAP2 SWAP1 PUSH2 0x1FE7 JUMP JUMPDEST PUSH2 0x767 JUMP JUMPDEST STOP JUMPDEST PUSH2 0x289 PUSH1 0x4 DUP1 CALLDATASIZE SUB DUP2 ADD SWAP1 PUSH2 0x284 SWAP2 SWAP1 PUSH2 0x1F37 JUMP JUMPDEST PUSH2 0x7F9 JUMP JUMPDEST STOP JUMPDEST PUSH2 0x2A5 PUSH1 0x4 DUP1 CALLDATASIZE SUB DUP2 ADD SWAP1 PUSH2 0x2A0 SWAP2 SWAP1 PUSH2 0x1DAF JUMP JUMPDEST PUSH2 0x818 JUMP JUMPDEST PUSH1 0x40 MLOAD PUSH2 0x2B2 SWAP2 SWAP1 PUSH2 0x1E19 JUMP JUMPDEST PUSH1 0x40 MLOAD DUP1 SWAP2 SUB SWAP1 RETURN JUMPDEST PUSH2 0x2D5 PUSH1 0x4 DUP1 CALLDATASIZE SUB DUP2 ADD SWAP1 PUSH2 0x2D0 SWAP2 SWAP1 PUSH2 0x205E JUMP JUMPDEST PUSH2 0x829 JUMP JUMPDEST PUSH1 0x40 MLOAD PUSH2 0x2E2 SWAP2 SWAP1 PUSH2 0x2089 JUMP JUMPDEST PUSH1 0x40 MLOAD DUP1 SWAP2 SUB SWAP1 RETURN JUMPDEST PUSH2 0x2F3 PUSH2 0x8DF JUMP JUMPDEST STOP JUMPDEST PUSH2 0x2FD PUSH2 0x8F2 JUMP JUMPDEST PUSH1 0x40 MLOAD PUSH2 0x30A SWAP2 SWAP1 PUSH2 0x1E19 JUMP JUMPDEST PUSH1 0x40 MLOAD DUP1 SWAP2 SUB SWAP1 RETURN JUMPDEST PUSH2 0x32D PUSH1 0x4 DUP1 CALLDATASIZE SUB DUP2 ADD SWAP1 PUSH2 0x328 SWAP2 SWAP1 PUSH2 0x1DAF JUMP JUMPDEST PUSH2 0x91A JUMP JUMPDEST STOP JUMPDEST PUSH2 0x337 PUSH2 0x950 JUMP JUMPDEST PUSH1 0x40 MLOAD PUSH2 0x344 SWAP2 SWAP1 PUSH2 0x1D5C JUMP JUMPDEST PUSH1 0x40 MLOAD DUP1 SWAP2 SUB SWAP1 RETURN JUMPDEST PUSH2 0x367 PUSH1 0x4 DUP1 CALLDATASIZE SUB DUP2 ADD SWAP1 PUSH2 0x362 SWAP2 SWAP1 PUSH2 0x20A2 JUMP JUMPDEST PUSH2 0x9E0 JUMP JUMPDEST STOP JUMPDEST PUSH2 0x383 PUSH1 0x4 DUP1 CALLDATASIZE SUB DUP2 ADD SWAP1 PUSH2 0x37E SWAP2 SWAP1 PUSH2 0x2155 JUMP JUMPDEST PUSH2 0xBC9 JUMP JUMPDEST STOP JUMPDEST PUSH2 0x39F PUSH1 0x4 DUP1 CALLDATASIZE SUB DUP2 ADD SWAP1 PUSH2 0x39A SWAP2 SWAP1 PUSH2 0x22BF JUMP JUMPDEST PUSH2 0xBDF JUMP JUMPDEST STOP JUMPDEST PUSH2 0x3BB PUSH1 0x4 DUP1 CALLDATASIZE SUB DUP2 ADD SWAP1 PUSH2 0x3B6 SWAP2 SWAP1 PUSH2 0x1DAF JUMP JUMPDEST PUSH2 0xBFC JUMP JUMPDEST PUSH1 0x40 MLOAD PUSH2 0x3C8 SWAP2 SWAP1 PUSH2 0x1D5C JUMP JUMPDEST PUSH1 0x40 MLOAD DUP1 SWAP2 SUB SWAP1 RETURN JUMPDEST PUSH2 0x3EB PUSH1 0x4 DUP1 CALLDATASIZE SUB DUP2 ADD SWAP1 PUSH2 0x3E6 SWAP2 SWAP1 PUSH2 0x233F JUMP JUMPDEST PUSH2 0xC62 JUMP JUMPDEST PUSH1 0x40 MLOAD PUSH2 0x3F8 SWAP2 SWAP1 PUSH2 0x1CD3 JUMP JUMPDEST PUSH1 0x40 MLOAD DUP1 SWAP2 SUB SWAP1 RETURN JUMPDEST PUSH2 0x41B PUSH1 0x4 DUP1 CALLDATASIZE SUB DUP2 ADD SWAP1 PUSH2 0x416 SWAP2 SWAP1 PUSH2 0x205E JUMP JUMPDEST PUSH2 0xCF0 JUMP JUMPDEST STOP JUMPDEST PUSH0 PUSH32 0x80AC58CD00000000000000000000000000000000000000000000000000000000 PUSH28 0xFFFFFFFFFFFFFFFFFFFFFFFFFFFFFFFFFFFFFFFFFFFFFFFFFFFFFFFF NOT AND DUP3 PUSH28 0xFFFFFFFFFFFFFFFFFFFFFFFFFFFFFFFFFFFFFFFFFFFFFFFFFFFFFFFF NOT AND EQ DUP1 PUSH2 0x4E7 JUMPI POP PUSH32 0x5B5E139F00000000000000000000000000000000000000000000000000000000 PUSH28 0xFFFFFFFFFFFFFFFFFFFFFFFFFFFFFFFFFFFFFFFFFFFFFFFFFFFFFFFF NOT AND DUP3 PUSH28 0xFFFFFFFFFFFFFFFFFFFFFFFFFFFFFFFFFFFFFFFFFFFFFFFFFFFFFFFF NOT AND EQ JUMPDEST DUP1 PUSH2 0x4F7 JUMPI POP PUSH2 0x4F6 DUP3 PUSH2 0xD74 JUMP JUMPDEST JUMPDEST SWAP1 POP SWAP2 SWAP1 POP JUMP JUMPDEST PUSH1 0x60 PUSH0 DUP1 SLOAD PUSH2 0x50C SWAP1 PUSH2 0x23AA JUMP JUMPDEST DUP1 PUSH1 0x1F ADD PUSH1 0x20 DUP1 SWAP2 DIV MUL PUSH1 0x20 ADD PUSH1 0x40 MLOAD SWAP1 DUP2 ADD PUSH1 0x40 MSTORE DUP1 SWAP3 SWAP2 SWAP1 DUP2 DUP2 MSTORE PUSH1 0x20 ADD DUP3 DUP1 SLOAD PUSH2 0x538 SWAP1 PUSH2 0x23AA JUMP JUMPDEST DUP1 ISZERO PUSH2 0x583 JUMPI DUP1 PUSH1 0x1F LT PUSH2 0x55A JUMPI PUSH2 0x100 DUP1 DUP4 SLOAD DIV MUL DUP4 MSTORE SWAP2 PUSH1 0x20 ADD SWAP2 PUSH2 0x583 JUMP JUMPDEST DUP3 ADD SWAP2 SWAP1 PUSH0 MSTORE PUSH1 0x20 PUSH0 KECCAK256 SWAP1 JUMPDEST DUP2 SLOAD DUP2 MSTORE SWAP1 PUSH1 0x1 ADD SWAP1 PUSH1 0x20 ADD DUP1 DUP4 GT PUSH2 0x566 JUMPI DUP3 SWAP1 SUB PUSH1 0x1F AND DUP3 ADD SWAP2 JUMPDEST POP POP POP POP POP SWAP1 POP SWAP1 JUMP JUMPDEST PUSH0 PUSH2 0x597 DUP3 PUSH2 0xDDD JUMP JUMPDEST POP PUSH2 0x5A1 DUP3 PUSH2 0xE63 JUMP JUMPDEST SWAP1 POP SWAP2 SWAP1 POP JUMP JUMPDEST PUSH2 0x5BA DUP3 DUP3 PUSH2 0x5B5 PUSH2 0xE9C JUMP JUMPDEST PUSH2 0xEA3 JUMP JUMPDEST POP POP JUMP JUMPDEST PUSH2 0x5C6 PUSH2 0x1BFC JUMP JUMPDEST PUSH1 0x7 PUSH0 DUP4 DUP2 MSTORE PUSH1 0x20 ADD SWAP1 DUP2 MSTORE PUSH1 0x20 ADD PUSH0 KECCAK256 PUSH1 0x40 MLOAD DUP1 PUSH1 0xA0 ADD PUSH1 0x40 MSTORE SWAP1 DUP2 PUSH0 DUP3 ADD SLOAD DUP2 MSTORE PUSH1 0x20 ADD PUSH1 0x1 DUP3 ADD SLOAD DUP2 MSTORE PUSH1 0x20 ADD PUSH1 0x2 DUP3 ADD SLOAD DUP2 MSTORE PUSH1 0x20 ADD PUSH1 0x3 DUP3 ADD SLOAD DUP2 MSTORE PUSH1 0x20 ADD PUSH1 0x4 DUP3 ADD PUSH0 SWAP1 SLOAD SWAP1 PUSH2 0x100 EXP SWAP1 DIV PUSH1 0xFF AND ISZERO ISZERO ISZERO ISZERO DUP2 MSTORE POP POP SWAP1 POP SWAP2 SWAP1 POP JUMP JUMPDEST PUSH0 PUSH20 0xFFFFFFFFFFFFFFFFFFFFFFFFFFFFFFFFFFFFFFFF AND DUP3 PUSH20 0xFFFFFFFFFFFFFFFFFFFFFFFFFFFFFFFFFFFFFFFF AND SUB PUSH2 0x69A JUMPI PUSH0 PUSH1 0x40 MLOAD PUSH32 0x64A0AE9200000000000000000000000000000000000000000000000000000000 DUP2 MSTORE PUSH1 0x4 ADD PUSH2 0x691 SWAP2 SWAP1 PUSH2 0x1E19 JUMP JUMPDEST PUSH1 0x40 MLOAD DUP1 SWAP2 SUB SWAP1 REVERT JUMPDEST PUSH0 PUSH2 0x6AD DUP4 DUP4 PUSH2 0x6A8 PUSH2 0xE9C JUMP JUMPDEST PUSH2 0xEB5 JUMP JUMPDEST SWAP1 POP DUP4 PUSH20 0xFFFFFFFFFFFFFFFFFFFFFFFFFFFFFFFFFFFFFFFF AND DUP2 PUSH20 0xFFFFFFFFFFFFFFFFFFFFFFFFFFFFFFFFFFFFFFFF AND EQ PUSH2 0x723 JUMPI DUP4 DUP3 DUP3 PUSH1 0x40 MLOAD PUSH32 0x64283D7B00000000000000000000000000000000000000000000000000000000 DUP2 MSTORE PUSH1 0x4 ADD PUSH2 0x71A SWAP4 SWAP3 SWAP2 SWAP1 PUSH2 0x23DA JUMP JUMPDEST PUSH1 0x40 MLOAD DUP1 SWAP2 SUB SWAP1 REVERT JUMPDEST POP POP POP POP JUMP JUMPDEST PUSH1 0x7 PUSH1 0x20 MSTORE DUP1 PUSH0 MSTORE PUSH1 0x40 PUSH0 KECCAK256 PUSH0 SWAP2 POP SWAP1 POP DUP1 PUSH0 ADD SLOAD SWAP1 DUP1 PUSH1 0x1 ADD SLOAD SWAP1 DUP1 PUSH1 0x2 ADD SLOAD SWAP1 DUP1 PUSH1 0x3 ADD SLOAD SWAP1 DUP1 PUSH1 0x4 ADD PUSH0 SWAP1 SLOAD SWAP1 PUSH2 0x100 EXP SWAP1 DIV PUSH1 0xFF AND SWAP1 POP DUP6 JUMP JUMPDEST PUSH2 0x76F PUSH2 0x10C0 JUMP JUMPDEST PUSH1 0x40 MLOAD DUP1 PUSH1 0xA0 ADD PUSH1 0x40 MSTORE DUP1 DUP6 DUP2 MSTORE PUSH1 0x20 ADD DUP5 DUP2 MSTORE PUSH1 0x20 ADD DUP4 DUP2 MSTORE PUSH1 0x20 ADD DUP3 DUP2 MSTORE PUSH1 0x20 ADD PUSH1 0x1 ISZERO ISZERO DUP2 MSTORE POP PUSH1 0x7 PUSH0 DUP8 DUP2 MSTORE PUSH1 0x20 ADD SWAP1 DUP2 MSTORE PUSH1 0x20 ADD PUSH0 KECCAK256 PUSH0 DUP3 ADD MLOAD DUP2 PUSH0 ADD SSTORE PUSH1 0x20 DUP3 ADD MLOAD DUP2 PUSH1 0x1 ADD SSTORE PUSH1 0x40 DUP3 ADD MLOAD DUP2 PUSH1 0x2 ADD SSTORE PUSH1 0x60 DUP3 ADD MLOAD DUP2 PUSH1 0x3 ADD SSTORE PUSH1 0x80 DUP3 ADD MLOAD DUP2 PUSH1 0x4 ADD PUSH0 PUSH2 0x100 EXP DUP2 SLOAD DUP2 PUSH1 0xFF MUL NOT AND SWAP1 DUP4 ISZERO ISZERO MUL OR SWAP1 SSTORE POP SWAP1 POP POP POP POP POP POP POP JUMP JUMPDEST PUSH2 0x813 DUP4 DUP4 DUP4 PUSH1 0x40 MLOAD DUP1 PUSH1 0x20 ADD PUSH1 0x40 MSTORE DUP1 PUSH0 DUP2 MSTORE POP PUSH2 0xBDF JUMP JUMPDEST POP POP POP JUMP JUMPDEST PUSH0 PUSH2 0x822 DUP3 PUSH2 0xDDD JUMP JUMPDEST SWAP1 POP SWAP2 SWAP1 POP JUMP JUMPDEST PUSH0 DUP1 PUSH20 0xFFFFFFFFFFFFFFFFFFFFFFFFFFFFFFFFFFFFFFFF AND DUP3 PUSH20 0xFFFFFFFFFFFFFFFFFFFFFFFFFFFFFFFFFFFFFFFF AND SUB PUSH2 0x89A JUMPI PUSH0 PUSH1 0x40 MLOAD PUSH32 0x89C62B6400000000000000000000000000000000000000000000000000000000 DUP2 MSTORE PUSH1 0x4 ADD PUSH2 0x891 SWAP2 SWAP1 PUSH2 0x1E19 JUMP JUMPDEST PUSH1 0x40 MLOAD DUP1 SWAP2 SUB SWAP1 REVERT JUMPDEST PUSH1 0x3 PUSH0 DUP4 PUSH20 0xFFFFFFFFFFFFFFFFFFFFFFFFFFFFFFFFFFFFFFFF AND PUSH20 0xFFFFFFFFFFFFFFFFFFFFFFFFFFFFFFFFFFFFFFFF AND DUP2 MSTORE PUSH1 0x20 ADD SWAP1 DUP2 MSTORE PUSH1 0x20 ADD PUSH0 KECCAK256 SLOAD SWAP1 POP SWAP2 SWAP1 POP JUMP JUMPDEST PUSH2 0x8E7 PUSH2 0x10C0 JUMP JUMPDEST PUSH2 0x8F0 PUSH0 PUSH2 0x1147 JUMP JUMPDEST JUMP JUMPDEST PUSH0 PUSH1 0x6 PUSH0 SWAP1 SLOAD SWAP1 PUSH2 0x100 EXP SWAP1 DIV PUSH20 0xFFFFFFFFFFFFFFFFFFFFFFFFFFFFFFFFFFFFFFFF AND SWAP1 POP SWAP1 JUMP JUMPDEST PUSH2 0x922 PUSH2 0x10C0 JUMP JUMPDEST PUSH0 PUSH1 0x7 PUSH0 DUP4 DUP2 MSTORE PUSH1 0x20 ADD SWAP1 DUP2 MSTORE PUSH1 0x20 ADD PUSH0 KECCAK256 PUSH1 0x4 ADD PUSH0 PUSH2 0x100 EXP DUP2 SLOAD DUP2 PUSH1 0xFF MUL NOT AND SWAP1 DUP4 ISZERO ISZERO MUL OR SWAP1 SSTORE POP POP JUMP JUMPDEST PUSH1 0x60 PUSH1 0x1 DUP1 SLOAD PUSH2 0x95F SWAP1 PUSH2 0x23AA JUMP JUMPDEST DUP1 PUSH1 0x1F ADD PUSH1 0x20 DUP1 SWAP2 DIV MUL PUSH1 0x20 ADD PUSH1 0x40 MLOAD SWAP1 DUP2 ADD PUSH1 0x40 MSTORE DUP1 SWAP3 SWAP2 SWAP1 DUP2 DUP2 MSTORE PUSH1 0x20 ADD DUP3 DUP1 SLOAD PUSH2 0x98B SWAP1 PUSH2 0x23AA JUMP JUMPDEST DUP1 ISZERO PUSH2 0x9D6 JUMPI DUP1 PUSH1 0x1F LT PUSH2 0x9AD JUMPI PUSH2 0x100 DUP1 DUP4 SLOAD DIV MUL DUP4 MSTORE SWAP2 PUSH1 0x20 ADD SWAP2 PUSH2 0x9D6 JUMP JUMPDEST DUP3 ADD SWAP2 SWAP1 PUSH0 MSTORE PUSH1 0x20 PUSH0 KECCAK256 SWAP1 JUMPDEST DUP2 SLOAD DUP2 MSTORE SWAP1 PUSH1 0x1 ADD SWAP1 PUSH1 0x20 ADD DUP1 DUP4 GT PUSH2 0x9B9 JUMPI DUP3 SWAP1 SUB PUSH1 0x1F AND DUP3 ADD SWAP2 JUMPDEST POP POP POP POP POP SWAP1 POP SWAP1 JUMP JUMPDEST PUSH2 0x9E8 PUSH2 0x10C0 JUMP JUMPDEST PUSH0 DUP6 SUB PUSH2 0xA2A JUMPI PUSH1 0x40 MLOAD PUSH32 0x8C379A000000000000000000000000000000000000000000000000000000000 DUP2 MSTORE PUSH1 0x4 ADD PUSH2 0xA21 SWAP1 PUSH2 0x2459 JUMP JUMPDEST PUSH1 0x40 MLOAD DUP1 SWAP2 SUB SWAP1 REVERT JUMPDEST PUSH0 DUP5 GT PUSH2 0xA6C JUMPI PUSH1 0x40 MLOAD PUSH32 0x8C379A000000000000000000000000000000000000000000000000000000000 DUP2 MSTORE PUSH1 0x4 ADD PUSH2 0xA63 SWAP1 PUSH2 0x24E7 JUMP JUMPDEST PUSH1 0x40 MLOAD DUP1 SWAP2 SUB SWAP1 REVERT JUMPDEST PUSH0 DUP4 GT PUSH2 0xAAE JUMPI PUSH1 0x40 MLOAD PUSH32 0x8C379A000000000000000000000000000000000000000000000000000000000 DUP2 MSTORE PUSH1 0x4 ADD PUSH2 0xAA5 SWAP1 PUSH2 0x2575 JUMP JUMPDEST PUSH1 0x40 MLOAD DUP1 SWAP2 SUB SWAP1 REVERT JUMPDEST TIMESTAMP DUP3 LT ISZERO PUSH2 0xAF1 JUMPI PUSH1 0x40 MLOAD PUSH32 0x8C379A000000000000000000000000000000000000000000000000000000000 DUP2 MSTORE PUSH1 0x4 ADD PUSH2 0xAE8 SWAP1 PUSH2 0x2629 JUMP JUMPDEST PUSH1 0x40 MLOAD DUP1 SWAP2 SUB SWAP1 REVERT JUMPDEST DUP2 DUP2 LT ISZERO PUSH2 0xB34 JUMPI PUSH1 0x40 MLOAD PUSH32 0x8C379A000000000000000000000000000000000000000000000000000000000 DUP2 MSTORE PUSH1 0x4 ADD PUSH2 0xB2B SWAP1 PUSH2 0x26B7 JUMP JUMPDEST PUSH1 0x40 MLOAD DUP1 SWAP2 SUB SWAP1 REVERT JUMPDEST PUSH2 0xB3E DUP7 DUP7 PUSH2 0x120A JUMP JUMPDEST PUSH1 0x40 MLOAD DUP1 PUSH1 0xA0 ADD PUSH1 0x40 MSTORE DUP1 DUP6 DUP2 MSTORE PUSH1 0x20 ADD DUP5 DUP2 MSTORE PUSH1 0x20 ADD DUP4 DUP2 MSTORE PUSH1 0x20 ADD DUP3 DUP2 MSTORE PUSH1 0x20 ADD PUSH1 0x1 ISZERO ISZERO DUP2 MSTORE POP PUSH1 0x7 PUSH0 DUP8 DUP2 MSTORE PUSH1 0x20 ADD SWAP1 DUP2 MSTORE PUSH1 0x20 ADD PUSH0 KECCAK256 PUSH0 DUP3 ADD MLOAD DUP2 PUSH0 ADD SSTORE PUSH1 0x20 DUP3 ADD MLOAD DUP2 PUSH1 0x1 ADD SSTORE PUSH1 0x40 DUP3 ADD MLOAD DUP2 PUSH1 0x2 ADD SSTORE PUSH1 0x60 DUP3 ADD MLOAD DUP2 PUSH1 0x3 ADD SSTORE PUSH1 0x80 DUP3 ADD MLOAD DUP2 PUSH1 0x4 ADD PUSH0 PUSH2 0x100 EXP DUP2 SLOAD DUP2 PUSH1 0xFF MUL NOT AND SWAP1 DUP4 ISZERO ISZERO MUL OR SWAP1 SSTORE POP SWAP1 POP POP POP POP POP POP POP POP JUMP JUMPDEST PUSH2 0xBDB PUSH2 0xBD4 PUSH2 0xE9C JUMP JUMPDEST DUP4 DUP4 PUSH2 0x1227 JUMP JUMPDEST POP POP JUMP JUMPDEST PUSH2 0xBEA DUP5 DUP5 DUP5 PUSH2 0x62A JUMP JUMPDEST PUSH2 0xBF6 DUP5 DUP5 DUP5 DUP5 PUSH2 0x1390 JUMP JUMPDEST POP POP POP POP JUMP JUMPDEST PUSH1 0x60 PUSH2 0xC07 DUP3 PUSH2 0xDDD JUMP JUMPDEST POP PUSH0 PUSH2 0xC11 PUSH2 0x1542 JUMP JUMPDEST SWAP1 POP PUSH0 DUP2 MLOAD GT PUSH2 0xC2F JUMPI PUSH1 0x40 MLOAD DUP1 PUSH1 0x20 ADD PUSH1 0x40 MSTORE DUP1 PUSH0 DUP2 MSTORE POP PUSH2 0xC5A JUMP JUMPDEST DUP1 PUSH2 0xC39 DUP5 PUSH2 0x1558 JUMP JUMPDEST PUSH1 0x40 MLOAD PUSH1 0x20 ADD PUSH2 0xC4A SWAP3 SWAP2 SWAP1 PUSH2 0x270F JUMP JUMPDEST PUSH1 0x40 MLOAD PUSH1 0x20 DUP2 DUP4 SUB SUB DUP2 MSTORE SWAP1 PUSH1 0x40 MSTORE JUMPDEST SWAP2 POP POP SWAP2 SWAP1 POP JUMP JUMPDEST PUSH0 PUSH1 0x5 PUSH0 DUP5 PUSH20 0xFFFFFFFFFFFFFFFFFFFFFFFFFFFFFFFFFFFFFFFF AND PUSH20 0xFFFFFFFFFFFFFFFFFFFFFFFFFFFFFFFFFFFFFFFF AND DUP2 MSTORE PUSH1 0x20 ADD SWAP1 DUP2 MSTORE PUSH1 0x20 ADD PUSH0 KECCAK256 PUSH0 DUP4 PUSH20 0xFFFFFFFFFFFFFFFFFFFFFFFFFFFFFFFFFFFFFFFF AND PUSH20 0xFFFFFFFFFFFFFFFFFFFFFFFFFFFFFFFFFFFFFFFF AND DUP2 MSTORE PUSH1 0x20 ADD SWAP1 DUP2 MSTORE PUSH1 0x20 ADD PUSH0 KECCAK256 PUSH0 SWAP1 SLOAD SWAP1 PUSH2 0x100 EXP SWAP1 DIV PUSH1 0xFF AND SWAP1 POP SWAP3 SWAP2 POP POP JUMP JUMPDEST PUSH2 0xCF8 PUSH2 0x10C0 JUMP JUMPDEST PUSH0 PUSH20 0xFFFFFFFFFFFFFFFFFFFFFFFFFFFFFFFFFFFFFFFF AND DUP2 PUSH20 0xFFFFFFFFFFFFFFFFFFFFFFFFFFFFFFFFFFFFFFFF AND SUB PUSH2 0xD68 JUMPI PUSH0 PUSH1 0x40 MLOAD PUSH32 0x1E4FBDF700000000000000000000000000000000000000000000000000000000 DUP2 MSTORE PUSH1 0x4 ADD PUSH2 0xD5F SWAP2 SWAP1 PUSH2 0x1E19 JUMP JUMPDEST PUSH1 0x40 MLOAD DUP1 SWAP2 SUB SWAP1 REVERT JUMPDEST PUSH2 0xD71 DUP2 PUSH2 0x1147 JUMP JUMPDEST POP JUMP JUMPDEST PUSH0 PUSH32 0x1FFC9A700000000000000000000000000000000000000000000000000000000 PUSH28 0xFFFFFFFFFFFFFFFFFFFFFFFFFFFFFFFFFFFFFFFFFFFFFFFFFFFFFFFF NOT AND DUP3 PUSH28 0xFFFFFFFFFFFFFFFFFFFFFFFFFFFFFFFFFFFFFFFFFFFFFFFFFFFFFFFF NOT AND EQ SWAP1 POP SWAP2 SWAP1 POP JUMP JUMPDEST PUSH0 DUP1 PUSH2 0xDE8 DUP4 PUSH2 0x1622 JUMP JUMPDEST SWAP1 POP PUSH0 PUSH20 0xFFFFFFFFFFFFFFFFFFFFFFFFFFFFFFFFFFFFFFFF AND DUP2 PUSH20 0xFFFFFFFFFFFFFFFFFFFFFFFFFFFFFFFFFFFFFFFF AND SUB PUSH2 0xE5A JUMPI DUP3 PUSH1 0x40 MLOAD PUSH32 0x7E27328900000000000000000000000000000000000000000000000000000000 DUP2 MSTORE PUSH1 0x4 ADD PUSH2 0xE51 SWAP2 SWAP1 PUSH2 0x2089 JUMP JUMPDEST PUSH1 0x40 MLOAD DUP1 SWAP2 SUB SWAP1 REVERT JUMPDEST DUP1 SWAP2 POP POP SWAP2 SWAP1 POP JUMP JUMPDEST PUSH0 PUSH1 0x4 PUSH0 DUP4 DUP2 MSTORE PUSH1 0x20 ADD SWAP1 DUP2 MSTORE PUSH1 0x20 ADD PUSH0 KECCAK256 PUSH0 SWAP1 SLOAD SWAP1 PUSH2 0x100 EXP SWAP1 DIV PUSH20 0xFFFFFFFFFFFFFFFFFFFFFFFFFFFFFFFFFFFFFFFF AND SWAP1 POP SWAP2 SWAP1 POP JUMP JUMPDEST PUSH0 CALLER SWAP1 POP SWAP1 JUMP JUMPDEST PUSH2 0xEB0 DUP4 DUP4 DUP4 PUSH1 0x1 PUSH2 0x165B JUMP JUMPDEST POP POP POP JUMP JUMPDEST PUSH0 DUP1 PUSH2 0xEC0 DUP5 PUSH2 0x1622 JUMP JUMPDEST SWAP1 POP PUSH0 PUSH20 0xFFFFFFFFFFFFFFFFFFFFFFFFFFFFFFFFFFFFFFFF AND DUP4 PUSH20 0xFFFFFFFFFFFFFFFFFFFFFFFFFFFFFFFFFFFFFFFF AND EQ PUSH2 0xF01 JUMPI PUSH2 0xF00 DUP2 DUP5 DUP7 PUSH2 0x181A JUMP JUMPDEST JUMPDEST PUSH0 PUSH20 0xFFFFFFFFFFFFFFFFFFFFFFFFFFFFFFFFFFFFFFFF AND DUP2 PUSH20 0xFFFFFFFFFFFFFFFFFFFFFFFFFFFFFFFFFFFFFFFF AND EQ PUSH2 0xF8C JUMPI PUSH2 0xF40 PUSH0 DUP6 PUSH0 DUP1 PUSH2 0x165B JUMP JUMPDEST PUSH1 0x1 PUSH1 0x3 PUSH0 DUP4 PUSH20 0xFFFFFFFFFFFFFFFFFFFFFFFFFFFFFFFFFFFFFFFF AND PUSH20 0xFFFFFFFFFFFFFFFFFFFFFFFFFFFFFFFFFFFFFFFF AND DUP2 MSTORE PUSH1 0x20 ADD SWAP1 DUP2 MSTORE PUSH1 0x20 ADD PUSH0 KECCAK256 PUSH0 DUP3 DUP3 SLOAD SUB SWAP3 POP POP DUP2 SWAP1 SSTORE POP JUMPDEST PUSH0 PUSH20 0xFFFFFFFFFFFFFFFFFFFFFFFFFFFFFFFFFFFFFFFF AND DUP6 PUSH20 0xFFFFFFFFFFFFFFFFFFFFFFFFFFFFFFFFFFFFFFFF AND EQ PUSH2 0x100B JUMPI PUSH1 0x1 PUSH1 0x3 PUSH0 DUP8 PUSH20 0xFFFFFFFFFFFFFFFFFFFFFFFFFFFFFFFFFFFFFFFF AND PUSH20 0xFFFFFFFFFFFFFFFFFFFFFFFFFFFFFFFFFFFFFFFF AND DUP2 MSTORE PUSH1 0x20 ADD SWAP1 DUP2 MSTORE PUSH1 0x20 ADD PUSH0 KECCAK256 PUSH0 DUP3 DUP3 SLOAD ADD SWAP3 POP POP DUP2 SWAP1 SSTORE POP JUMPDEST DUP5 PUSH1 0x2 PUSH0 DUP7 DUP2 MSTORE PUSH1 0x20 ADD SWAP1 DUP2 MSTORE PUSH1 0x20 ADD PUSH0 KECCAK256 PUSH0 PUSH2 0x100 EXP DUP2 SLOAD DUP2 PUSH20 0xFFFFFFFFFFFFFFFFFFFFFFFFFFFFFFFFFFFFFFFF MUL NOT AND SWAP1 DUP4 PUSH20 0xFFFFFFFFFFFFFFFFFFFFFFFFFFFFFFFFFFFFFFFF AND MUL OR SWAP1 SSTORE POP DUP4 DUP6 PUSH20 0xFFFFFFFFFFFFFFFFFFFFFFFFFFFFFFFFFFFFFFFF AND DUP3 PUSH20 0xFFFFFFFFFFFFFFFFFFFFFFFFFFFFFFFFFFFFFFFF AND PUSH32 0xDDF252AD1BE2C89B69C2B068FC378DAA952BA7F163C4A11628F55A4DF523B3EF PUSH1 0x40 MLOAD PUSH1 0x40 MLOAD DUP1 SWAP2 SUB SWAP1 LOG4 DUP1 SWAP2 POP POP SWAP4 SWAP3 POP POP POP JUMP JUMPDEST PUSH2 0x10C8 PUSH2 0xE9C JUMP JUMPDEST PUSH20 0xFFFFFFFFFFFFFFFFFFFFFFFFFFFFFFFFFFFFFFFF AND PUSH2 0x10E6 PUSH2 0x8F2 JUMP JUMPDEST PUSH20 0xFFFFFFFFFFFFFFFFFFFFFFFFFFFFFFFFFFFFFFFF AND EQ PUSH2 0x1145 JUMPI PUSH2 0x1109 PUSH2 0xE9C JUMP JUMPDEST PUSH1 0x40 MLOAD PUSH32 0x118CDAA700000000000000000000000000000000000000000000000000000000 DUP2 MSTORE PUSH1 0x4 ADD PUSH2 0x113C SWAP2 SWAP1 PUSH2 0x1E19 JUMP JUMPDEST PUSH1 0x40 MLOAD DUP1 SWAP2 SUB SWAP1 REVERT JUMPDEST JUMP JUMPDEST PUSH0 PUSH1 0x6 PUSH0 SWAP1 SLOAD SWAP1 PUSH2 0x100 EXP SWAP1 DIV PUSH20 0xFFFFFFFFFFFFFFFFFFFFFFFFFFFFFFFFFFFFFFFF AND SWAP1 POP DUP2 PUSH1 0x6 PUSH0 PUSH2 0x100 EXP DUP2 SLOAD DUP2 PUSH20 0xFFFFFFFFFFFFFFFFFFFFFFFFFFFFFFFFFFFFFFFF MUL NOT AND SWAP1 DUP4 PUSH20 0xFFFFFFFFFFFFFFFFFFFFFFFFFFFFFFFFFFFFFFFF AND MUL OR SWAP1 SSTORE POP DUP2 PUSH20 0xFFFFFFFFFFFFFFFFFFFFFFFFFFFFFFFFFFFFFFFF AND DUP2 PUSH20 0xFFFFFFFFFFFFFFFFFFFFFFFFFFFFFFFFFFFFFFFF AND PUSH32 0x8BE0079C531659141344CD1FD0A4F28419497F9722A3DAAFE3B4186F6B6457E0 PUSH1 0x40 MLOAD PUSH1 0x40 MLOAD DUP1 SWAP2 SUB SWAP1 LOG3 POP POP JUMP JUMPDEST PUSH2 0x1223 DUP3 DUP3 PUSH1 0x40 MLOAD DUP1 PUSH1 0x20 ADD PUSH1 0x40 MSTORE DUP1 PUSH0 DUP2 MSTORE POP PUSH2 0x18DD JUMP JUMPDEST POP POP JUMP JUMPDEST PUSH0 PUSH20 0xFFFFFFFFFFFFFFFFFFFFFFFFFFFFFFFFFFFFFFFF AND DUP3 PUSH20 0xFFFFFFFFFFFFFFFFFFFFFFFFFFFFFFFFFFFFFFFF AND SUB PUSH2 0x1297 JUMPI DUP2 PUSH1 0x40 MLOAD PUSH32 0x5B08BA1800000000000000000000000000000000000000000000000000000000 DUP2 MSTORE PUSH1 0x4 ADD PUSH2 0x128E SWAP2 SWAP1 PUSH2 0x1E19 JUMP JUMPDEST PUSH1 0x40 MLOAD DUP1 SWAP2 SUB SWAP1 REVERT JUMPDEST DUP1 PUSH1 0x5 PUSH0 DUP6 PUSH20 0xFFFFFFFFFFFFFFFFFFFFFFFFFFFFFFFFFFFFFFFF AND PUSH20 0xFFFFFFFFFFFFFFFFFFFFFFFFFFFFFFFFFFFFFFFF AND DUP2 MSTORE PUSH1 0x20 ADD SWAP1 DUP2 MSTORE PUSH1 0x20 ADD PUSH0 KECCAK256 PUSH0 DUP5 PUSH20 0xFFFFFFFFFFFFFFFFFFFFFFFFFFFFFFFFFFFFFFFF AND PUSH20 0xFFFFFFFFFFFFFFFFFFFFFFFFFFFFFFFFFFFFFFFF AND DUP2 MSTORE PUSH1 0x20 ADD SWAP1 DUP2 MSTORE PUSH1 0x20 ADD PUSH0 KECCAK256 PUSH0 PUSH2 0x100 EXP DUP2 SLOAD DUP2 PUSH1 0xFF MUL NOT AND SWAP1 DUP4 ISZERO ISZERO MUL OR SWAP1 SSTORE POP DUP2 PUSH20 0xFFFFFFFFFFFFFFFFFFFFFFFFFFFFFFFFFFFFFFFF AND DUP4 PUSH20 0xFFFFFFFFFFFFFFFFFFFFFFFFFFFFFFFFFFFFFFFF AND PUSH32 0x17307EAB39AB6107E8899845AD3D59BD9653F200F220920489CA2B5937696C31 DUP4 PUSH1 0x40 MLOAD PUSH2 0x1383 SWAP2 SWAP1 PUSH2 0x1CD3 JUMP JUMPDEST PUSH1 0x40 MLOAD DUP1 SWAP2 SUB SWAP1 LOG3 POP POP POP JUMP JUMPDEST PUSH0 DUP4 PUSH20 0xFFFFFFFFFFFFFFFFFFFFFFFFFFFFFFFFFFFFFFFF AND EXTCODESIZE GT ISZERO PUSH2 0x153C JUMPI DUP3 PUSH20 0xFFFFFFFFFFFFFFFFFFFFFFFFFFFFFFFFFFFFFFFF AND PUSH4 0x150B7A02 PUSH2 0x13D3 PUSH2 0xE9C JUMP JUMPDEST DUP7 DUP6 DUP6 PUSH1 0x40 MLOAD DUP6 PUSH4 0xFFFFFFFF AND PUSH1 0xE0 SHL DUP2 MSTORE PUSH1 0x4 ADD PUSH2 0x13F5 SWAP5 SWAP4 SWAP3 SWAP2 SWAP1 PUSH2 0x2784 JUMP JUMPDEST PUSH1 0x20 PUSH1 0x40 MLOAD DUP1 DUP4 SUB DUP2 PUSH0 DUP8 GAS CALL SWAP3 POP POP POP DUP1 ISZERO PUSH2 0x1430 JUMPI POP PUSH1 0x40 MLOAD RETURNDATASIZE PUSH1 0x1F NOT PUSH1 0x1F DUP3 ADD AND DUP3 ADD DUP1 PUSH1 0x40 MSTORE POP DUP2 ADD SWAP1 PUSH2 0x142D SWAP2 SWAP1 PUSH2 0x27E2 JUMP JUMPDEST PUSH1 0x1 JUMPDEST PUSH2 0x14B1 JUMPI RETURNDATASIZE DUP1 PUSH0 DUP2 EQ PUSH2 0x145E JUMPI PUSH1 0x40 MLOAD SWAP2 POP PUSH1 0x1F NOT PUSH1 0x3F RETURNDATASIZE ADD AND DUP3 ADD PUSH1 0x40 MSTORE RETURNDATASIZE DUP3 MSTORE RETURNDATASIZE PUSH0 PUSH1 0x20 DUP5 ADD RETURNDATACOPY PUSH2 0x1463 JUMP JUMPDEST PUSH1 0x60 SWAP2 POP JUMPDEST POP PUSH0 DUP2 MLOAD SUB PUSH2 0x14A9 JUMPI DUP4 PUSH1 0x40 MLOAD PUSH32 0x64A0AE9200000000000000000000000000000000000000000000000000000000 DUP2 MSTORE PUSH1 0x4 ADD PUSH2 0x14A0 SWAP2 SWAP1 PUSH2 0x1E19 JUMP JUMPDEST PUSH1 0x40 MLOAD DUP1 SWAP2 SUB SWAP1 REVERT JUMPDEST DUP1 MLOAD DUP2 PUSH1 0x20 ADD REVERT JUMPDEST PUSH4 0x150B7A02 PUSH1 0xE0 SHL PUSH28 0xFFFFFFFFFFFFFFFFFFFFFFFFFFFFFFFFFFFFFFFFFFFFFFFFFFFFFFFF NOT AND DUP2 PUSH28 0xFFFFFFFFFFFFFFFFFFFFFFFFFFFFFFFFFFFFFFFFFFFFFFFFFFFFFFFF NOT AND EQ PUSH2 0x153A JUMPI DUP4 PUSH1 0x40 MLOAD PUSH32 0x64A0AE9200000000000000000000000000000000000000000000000000000000 DUP2 MSTORE PUSH1 0x4 ADD PUSH2 0x1531 SWAP2 SWAP1 PUSH2 0x1E19 JUMP JUMPDEST PUSH1 0x40 MLOAD DUP1 SWAP2 SUB SWAP1 REVERT JUMPDEST POP JUMPDEST POP POP POP POP JUMP JUMPDEST PUSH1 0x60 PUSH1 0x40 MLOAD DUP1 PUSH1 0x20 ADD PUSH1 0x40 MSTORE DUP1 PUSH0 DUP2 MSTORE POP SWAP1 POP SWAP1 JUMP JUMPDEST PUSH1 0x60 PUSH0 PUSH1 0x1 PUSH2 0x1566 DUP5 PUSH2 0x18F8 JUMP JUMPDEST ADD SWAP1 POP PUSH0 DUP2 PUSH8 0xFFFFFFFFFFFFFFFF DUP2 GT ISZERO PUSH2 0x1584 JUMPI PUSH2 0x1583 PUSH2 0x219B JUMP JUMPDEST JUMPDEST PUSH1 0x40 MLOAD SWAP1 DUP1 DUP3 MSTORE DUP1 PUSH1 0x1F ADD PUSH1 0x1F NOT AND PUSH1 0x20 ADD DUP3 ADD PUSH1 0x40 MSTORE DUP1 ISZERO PUSH2 0x15B6 JUMPI DUP2 PUSH1 0x20 ADD PUSH1 0x1 DUP3 MUL DUP1 CALLDATASIZE DUP4 CALLDATACOPY DUP1 DUP3 ADD SWAP2 POP POP SWAP1 POP JUMPDEST POP SWAP1 POP PUSH0 DUP3 PUSH1 0x20 ADD DUP3 ADD SWAP1 POP JUMPDEST PUSH1 0x1 ISZERO PUSH2 0x1617 JUMPI DUP1 DUP1 PUSH1 0x1 SWAP1 SUB SWAP2 POP POP PUSH32 0x3031323334353637383961626364656600000000000000000000000000000000 PUSH1 0xA DUP7 MOD BYTE DUP2 MSTORE8 PUSH1 0xA DUP6 DUP2 PUSH2 0x160C JUMPI PUSH2 0x160B PUSH2 0x280D JUMP JUMPDEST JUMPDEST DIV SWAP5 POP PUSH0 DUP6 SUB PUSH2 0x15C3 JUMPI JUMPDEST DUP2 SWAP4 POP POP POP POP SWAP2 SWAP1 POP JUMP JUMPDEST PUSH0 PUSH1 0x2 PUSH0 DUP4 DUP2 MSTORE PUSH1 0x20 ADD SWAP1 DUP2 MSTORE PUSH1 0x20 ADD PUSH0 KECCAK256 PUSH0 SWAP1 SLOAD SWAP1 PUSH2 0x100 EXP SWAP1 DIV PUSH20 0xFFFFFFFFFFFFFFFFFFFFFFFFFFFFFFFFFFFFFFFF AND SWAP1 POP SWAP2 SWAP1 POP JUMP JUMPDEST DUP1 DUP1 PUSH2 0x1693 JUMPI POP PUSH0 PUSH20 0xFFFFFFFFFFFFFFFFFFFFFFFFFFFFFFFFFFFFFFFF AND DUP3 PUSH20 0xFFFFFFFFFFFFFFFFFFFFFFFFFFFFFFFFFFFFFFFF AND EQ ISZERO JUMPDEST ISZERO PUSH2 0x17C5 JUMPI PUSH0 PUSH2 0x16A2 DUP5 PUSH2 0xDDD JUMP JUMPDEST SWAP1 POP PUSH0 PUSH20 0xFFFFFFFFFFFFFFFFFFFFFFFFFFFFFFFFFFFFFFFF AND DUP4 PUSH20 0xFFFFFFFFFFFFFFFFFFFFFFFFFFFFFFFFFFFFFFFF AND EQ ISZERO DUP1 ISZERO PUSH2 0x170C JUMPI POP DUP3 PUSH20 0xFFFFFFFFFFFFFFFFFFFFFFFFFFFFFFFFFFFFFFFF AND DUP2 PUSH20 0xFFFFFFFFFFFFFFFFFFFFFFFFFFFFFFFFFFFFFFFF AND EQ ISZERO JUMPDEST DUP1 ISZERO PUSH2 0x171F JUMPI POP PUSH2 0x171D DUP2 DUP5 PUSH2 0xC62 JUMP JUMPDEST ISZERO JUMPDEST ISZERO PUSH2 0x1761 JUMPI DUP3 PUSH1 0x40 MLOAD PUSH32 0xA9FBF51F00000000000000000000000000000000000000000000000000000000 DUP2 MSTORE PUSH1 0x4 ADD PUSH2 0x1758 SWAP2 SWAP1 PUSH2 0x1E19 JUMP JUMPDEST PUSH1 0x40 MLOAD DUP1 SWAP2 SUB SWAP1 REVERT JUMPDEST DUP2 ISZERO PUSH2 0x17C3 JUMPI DUP4 DUP6 PUSH20 0xFFFFFFFFFFFFFFFFFFFFFFFFFFFFFFFFFFFFFFFF AND DUP3 PUSH20 0xFFFFFFFFFFFFFFFFFFFFFFFFFFFFFFFFFFFFFFFF AND PUSH32 0x8C5BE1E5EBEC7D5BD14F71427D1E84F3DD0314C0F7B2291E5B200AC8C7C3B925 PUSH1 0x40 MLOAD PUSH1 0x40 MLOAD DUP1 SWAP2 SUB SWAP1 LOG4 JUMPDEST POP JUMPDEST DUP4 PUSH1 0x4 PUSH0 DUP6 DUP2 MSTORE PUSH1 0x20 ADD SWAP1 DUP2 MSTORE PUSH1 0x20 ADD PUSH0 KECCAK256 PUSH0 PUSH2 0x100 EXP DUP2 SLOAD DUP2 PUSH20 0xFFFFFFFFFFFFFFFFFFFFFFFFFFFFFFFFFFFFFFFF MUL NOT AND SWAP1 DUP4 PUSH20 0xFFFFFFFFFFFFFFFFFFFFFFFFFFFFFFFFFFFFFFFF AND MUL OR SWAP1 SSTORE POP POP POP POP POP JUMP JUMPDEST PUSH2 0x1825 DUP4 DUP4 DUP4 PUSH2 0x1A49 JUMP JUMPDEST PUSH2 0x18D8 JUMPI PUSH0 PUSH20 0xFFFFFFFFFFFFFFFFFFFFFFFFFFFFFFFFFFFFFFFF AND DUP4 PUSH20 0xFFFFFFFFFFFFFFFFFFFFFFFFFFFFFFFFFFFFFFFF AND SUB PUSH2 0x1899 JUMPI DUP1 PUSH1 0x40 MLOAD PUSH32 0x7E27328900000000000000000000000000000000000000000000000000000000 DUP2 MSTORE PUSH1 0x4 ADD PUSH2 0x1890 SWAP2 SWAP1 PUSH2 0x2089 JUMP JUMPDEST PUSH1 0x40 MLOAD DUP1 SWAP2 SUB SWAP1 REVERT JUMPDEST DUP2 DUP2 PUSH1 0x40 MLOAD PUSH32 0x177E802F00000000000000000000000000000000000000000000000000000000 DUP2 MSTORE PUSH1 0x4 ADD PUSH2 0x18CF SWAP3 SWAP2 SWAP1 PUSH2 0x283A JUMP JUMPDEST PUSH1 0x40 MLOAD DUP1 SWAP2 SUB SWAP1 REVERT JUMPDEST POP POP POP JUMP JUMPDEST PUSH2 0x18E7 DUP4 DUP4 PUSH2 0x1B09 JUMP JUMPDEST PUSH2 0x18F3 PUSH0 DUP5 DUP5 DUP5 PUSH2 0x1390 JUMP JUMPDEST POP POP POP JUMP JUMPDEST PUSH0 DUP1 PUSH0 SWAP1 POP PUSH27 0x184F03E93FF9F4DAA797ED6E38ED64BF6A1F010000000000000000 DUP4 LT PUSH2 0x1954 JUMPI PUSH27 0x184F03E93FF9F4DAA797ED6E38ED64BF6A1F010000000000000000 DUP4 DUP2 PUSH2 0x194A JUMPI PUSH2 0x1949 PUSH2 0x280D JUMP JUMPDEST JUMPDEST DIV SWAP3 POP PUSH1 0x40 DUP2 ADD SWAP1 POP JUMPDEST PUSH14 0x4EE2D6D415B85ACEF8100000000 DUP4 LT PUSH2 0x1991 JUMPI PUSH14 0x4EE2D6D415B85ACEF8100000000 DUP4 DUP2 PUSH2 0x1987 JUMPI PUSH2 0x1986 PUSH2 0x280D JUMP JUMPDEST JUMPDEST DIV SWAP3 POP PUSH1 0x20 DUP2 ADD SWAP1 POP JUMPDEST PUSH7 0x2386F26FC10000 DUP4 LT PUSH2 0x19C0 JUMPI PUSH7 0x2386F26FC10000 DUP4 DUP2 PUSH2 0x19B6 JUMPI PUSH2 0x19B5 PUSH2 0x280D JUMP JUMPDEST JUMPDEST DIV SWAP3 POP PUSH1 0x10 DUP2 ADD SWAP1 POP JUMPDEST PUSH4 0x5F5E100 DUP4 LT PUSH2 0x19E9 JUMPI PUSH4 0x5F5E100 DUP4 DUP2 PUSH2 0x19DF JUMPI PUSH2 0x19DE PUSH2 0x280D JUMP JUMPDEST JUMPDEST DIV SWAP3 POP PUSH1 0x8 DUP2 ADD SWAP1 POP JUMPDEST PUSH2 0x2710 DUP4 LT PUSH2 0x1A0E JUMPI PUSH2 0x2710 DUP4 DUP2 PUSH2 0x1A04 JUMPI PUSH2 0x1A03 PUSH2 0x280D JUMP JUMPDEST JUMPDEST DIV SWAP3 POP PUSH1 0x4 DUP2 ADD SWAP1 POP JUMPDEST PUSH1 0x64 DUP4 LT PUSH2 0x1A31 JUMPI PUSH1 0x64 DUP4 DUP2 PUSH2 0x1A27 JUMPI PUSH2 0x1A26 PUSH2 0x280D JUMP JUMPDEST JUMPDEST DIV SWAP3 POP PUSH1 0x2 DUP2 ADD SWAP1 POP JUMPDEST PUSH1 0xA DUP4 LT PUSH2 0x1A40 JUMPI PUSH1 0x1 DUP2 ADD SWAP1 POP JUMPDEST DUP1 SWAP2 POP POP SWAP2 SWAP1 POP JUMP JUMPDEST PUSH0 DUP1 PUSH20 0xFFFFFFFFFFFFFFFFFFFFFFFFFFFFFFFFFFFFFFFF AND DUP4 PUSH20 0xFFFFFFFFFFFFFFFFFFFFFFFFFFFFFFFFFFFFFFFF AND EQ ISZERO DUP1 ISZERO PUSH2 0x1B00 JUMPI POP DUP3 PUSH20 0xFFFFFFFFFFFFFFFFFFFFFFFFFFFFFFFFFFFFFFFF AND DUP5 PUSH20 0xFFFFFFFFFFFFFFFFFFFFFFFFFFFFFFFFFFFFFFFF AND EQ DUP1 PUSH2 0x1AC1 JUMPI POP PUSH2 0x1AC0 DUP5 DUP5 PUSH2 0xC62 JUMP JUMPDEST JUMPDEST DUP1 PUSH2 0x1AFF JUMPI POP DUP3 PUSH20 0xFFFFFFFFFFFFFFFFFFFFFFFFFFFFFFFFFFFFFFFF AND PUSH2 0x1AE7 DUP4 PUSH2 0xE63 JUMP JUMPDEST PUSH20 0xFFFFFFFFFFFFFFFFFFFFFFFFFFFFFFFFFFFFFFFF AND EQ JUMPDEST JUMPDEST SWAP1 POP SWAP4 SWAP3 POP POP POP JUMP JUMPDEST PUSH0 PUSH20 0xFFFFFFFFFFFFFFFFFFFFFFFFFFFFFFFFFFFFFFFF AND DUP3 PUSH20 0xFFFFFFFFFFFFFFFFFFFFFFFFFFFFFFFFFFFFFFFF AND SUB PUSH2 0x1B79 JUMPI PUSH0 PUSH1 0x40 MLOAD PUSH32 0x64A0AE9200000000000000000000000000000000000000000000000000000000 DUP2 MSTORE PUSH1 0x4 ADD PUSH2 0x1B70 SWAP2 SWAP1 PUSH2 0x1E19 JUMP JUMPDEST PUSH1 0x40 MLOAD DUP1 SWAP2 SUB SWAP1 REVERT JUMPDEST PUSH0 PUSH2 0x1B85 DUP4 DUP4 PUSH0 PUSH2 0xEB5 JUMP JUMPDEST SWAP1 POP PUSH0 PUSH20 0xFFFFFFFFFFFFFFFFFFFFFFFFFFFFFFFFFFFFFFFF AND DUP2 PUSH20 0xFFFFFFFFFFFFFFFFFFFFFFFFFFFFFFFFFFFFFFFF AND EQ PUSH2 0x1BF7 JUMPI PUSH0 PUSH1 0x40 MLOAD PUSH32 0x73C6AC6E00000000000000000000000000000000000000000000000000000000 DUP2 MSTORE PUSH1 0x4 ADD PUSH2 0x1BEE SWAP2 SWAP1 PUSH2 0x1E19 JUMP JUMPDEST PUSH1 0x40 MLOAD DUP1 SWAP2 SUB SWAP1 REVERT JUMPDEST POP POP POP JUMP JUMPDEST PUSH1 0x40 MLOAD DUP1 PUSH1 0xA0 ADD PUSH1 0x40 MSTORE DUP1 PUSH0 DUP2 MSTORE PUSH1 0x20 ADD PUSH0 DUP2 MSTORE PUSH1 0x20 ADD PUSH0 DUP2 MSTORE PUSH1 0x20 ADD PUSH0 DUP2 MSTORE PUSH1 0x20 ADD PUSH0 ISZERO ISZERO DUP2 MSTORE POP SWAP1 JUMP JUMPDEST PUSH0 PUSH1 0x40 MLOAD SWAP1 POP SWAP1 JUMP JUMPDEST PUSH0 DUP1 REVERT JUMPDEST PUSH0 DUP1 REVERT JUMPDEST PUSH0 PUSH32 0xFFFFFFFF00000000000000000000000000000000000000000000000000000000 DUP3 AND SWAP1 POP SWAP2 SWAP1 POP JUMP JUMPDEST PUSH2 0x1C6D DUP2 PUSH2 0x1C39 JUMP JUMPDEST DUP2 EQ PUSH2 0x1C77 JUMPI PUSH0 DUP1 REVERT JUMPDEST POP JUMP JUMPDEST PUSH0 DUP2 CALLDATALOAD SWAP1 POP PUSH2 0x1C88 DUP2 PUSH2 0x1C64 JUMP JUMPDEST SWAP3 SWAP2 POP POP JUMP JUMPDEST PUSH0 PUSH1 0x20 DUP3 DUP5 SUB SLT ISZERO PUSH2 0x1CA3 JUMPI PUSH2 0x1CA2 PUSH2 0x1C31 JUMP JUMPDEST JUMPDEST PUSH0 PUSH2 0x1CB0 DUP5 DUP3 DUP6 ADD PUSH2 0x1C7A JUMP JUMPDEST SWAP2 POP POP SWAP3 SWAP2 POP POP JUMP JUMPDEST PUSH0 DUP2 ISZERO ISZERO SWAP1 POP SWAP2 SWAP1 POP JUMP JUMPDEST PUSH2 0x1CCD DUP2 PUSH2 0x1CB9 JUMP JUMPDEST DUP3 MSTORE POP POP JUMP JUMPDEST PUSH0 PUSH1 0x20 DUP3 ADD SWAP1 POP PUSH2 0x1CE6 PUSH0 DUP4 ADD DUP5 PUSH2 0x1CC4 JUMP JUMPDEST SWAP3 SWAP2 POP POP JUMP JUMPDEST PUSH0 DUP2 MLOAD SWAP1 POP SWAP2 SWAP1 POP JUMP JUMPDEST PUSH0 DUP3 DUP3 MSTORE PUSH1 0x20 DUP3 ADD SWAP1 POP SWAP3 SWAP2 POP POP JUMP JUMPDEST DUP3 DUP2 DUP4 MCOPY PUSH0 DUP4 DUP4 ADD MSTORE POP POP POP JUMP JUMPDEST PUSH0 PUSH1 0x1F NOT PUSH1 0x1F DUP4 ADD AND SWAP1 POP SWAP2 SWAP1 POP JUMP JUMPDEST PUSH0 PUSH2 0x1D2E DUP3 PUSH2 0x1CEC JUMP JUMPDEST PUSH2 0x1D38 DUP2 DUP6 PUSH2 0x1CF6 JUMP JUMPDEST SWAP4 POP PUSH2 0x1D48 DUP2 DUP6 PUSH1 0x20 DUP7 ADD PUSH2 0x1D06 JUMP JUMPDEST PUSH2 0x1D51 DUP2 PUSH2 0x1D14 JUMP JUMPDEST DUP5 ADD SWAP2 POP POP SWAP3 SWAP2 POP POP JUMP JUMPDEST PUSH0 PUSH1 0x20 DUP3 ADD SWAP1 POP DUP2 DUP2 SUB PUSH0 DUP4 ADD MSTORE PUSH2 0x1D74 DUP2 DUP5 PUSH2 0x1D24 JUMP JUMPDEST SWAP1 POP SWAP3 SWAP2 POP POP JUMP JUMPDEST PUSH0 DUP2 SWAP1 POP SWAP2 SWAP1 POP JUMP JUMPDEST PUSH2 0x1D8E DUP2 PUSH2 0x1D7C JUMP JUMPDEST DUP2 EQ PUSH2 0x1D98 JUMPI PUSH0 DUP1 REVERT JUMPDEST POP JUMP JUMPDEST PUSH0 DUP2 CALLDATALOAD SWAP1 POP PUSH2 0x1DA9 DUP2 PUSH2 0x1D85 JUMP JUMPDEST SWAP3 SWAP2 POP POP JUMP JUMPDEST PUSH0 PUSH1 0x20 DUP3 DUP5 SUB SLT ISZERO PUSH2 0x1DC4 JUMPI PUSH2 0x1DC3 PUSH2 0x1C31 JUMP JUMPDEST JUMPDEST PUSH0 PUSH2 0x1DD1 DUP5 DUP3 DUP6 ADD PUSH2 0x1D9B JUMP JUMPDEST SWAP2 POP POP SWAP3 SWAP2 POP POP JUMP JUMPDEST PUSH0 PUSH20 0xFFFFFFFFFFFFFFFFFFFFFFFFFFFFFFFFFFFFFFFF DUP3 AND SWAP1 POP SWAP2 SWAP1 POP JUMP JUMPDEST PUSH0 PUSH2 0x1E03 DUP3 PUSH2 0x1DDA JUMP JUMPDEST SWAP1 POP SWAP2 SWAP1 POP JUMP JUMPDEST PUSH2 0x1E13 DUP2 PUSH2 0x1DF9 JUMP JUMPDEST DUP3 MSTORE POP POP JUMP JUMPDEST PUSH0 PUSH1 0x20 DUP3 ADD SWAP1 POP PUSH2 0x1E2C PUSH0 DUP4 ADD DUP5 PUSH2 0x1E0A JUMP JUMPDEST SWAP3 SWAP2 POP POP JUMP JUMPDEST PUSH2 0x1E3B DUP2 PUSH2 0x1DF9 JUMP JUMPDEST DUP2 EQ PUSH2 0x1E45 JUMPI PUSH0 DUP1 REVERT JUMPDEST POP JUMP JUMPDEST PUSH0 DUP2 CALLDATALOAD SWAP1 POP PUSH2 0x1E56 DUP2 PUSH2 0x1E32 JUMP JUMPDEST SWAP3 SWAP2 POP POP JUMP JUMPDEST PUSH0 DUP1 PUSH1 0x40 DUP4 DUP6 SUB SLT ISZERO PUSH2 0x1E72 JUMPI PUSH2 0x1E71 PUSH2 0x1C31 JUMP JUMPDEST JUMPDEST PUSH0 PUSH2 0x1E7F DUP6 DUP3 DUP7 ADD PUSH2 0x1E48 JUMP JUMPDEST SWAP3 POP POP PUSH1 0x20 PUSH2 0x1E90 DUP6 DUP3 DUP7 ADD PUSH2 0x1D9B JUMP JUMPDEST SWAP2 POP POP SWAP3 POP SWAP3 SWAP1 POP JUMP JUMPDEST PUSH2 0x1EA3 DUP2 PUSH2 0x1D7C JUMP JUMPDEST DUP3 MSTORE POP POP JUMP JUMPDEST PUSH2 0x1EB2 DUP2 PUSH2 0x1CB9 JUMP JUMPDEST DUP3 MSTORE POP POP JUMP JUMPDEST PUSH1 0xA0 DUP3 ADD PUSH0 DUP3 ADD MLOAD PUSH2 0x1ECC PUSH0 DUP6 ADD DUP3 PUSH2 0x1E9A JUMP JUMPDEST POP PUSH1 0x20 DUP3 ADD MLOAD PUSH2 0x1EDF PUSH1 0x20 DUP6 ADD DUP3 PUSH2 0x1E9A JUMP JUMPDEST POP PUSH1 0x40 DUP3 ADD MLOAD PUSH2 0x1EF2 PUSH1 0x40 DUP6 ADD DUP3 PUSH2 0x1E9A JUMP JUMPDEST POP PUSH1 0x60 DUP3 ADD MLOAD PUSH2 0x1F05 PUSH1 0x60 DUP6 ADD DUP3 PUSH2 0x1E9A JUMP JUMPDEST POP PUSH1 0x80 DUP3 ADD MLOAD PUSH2 0x1F18 PUSH1 0x80 DUP6 ADD DUP3 PUSH2 0x1EA9 JUMP JUMPDEST POP POP POP POP JUMP JUMPDEST PUSH0 PUSH1 0xA0 DUP3 ADD SWAP1 POP PUSH2 0x1F31 PUSH0 DUP4 ADD DUP5 PUSH2 0x1EB8 JUMP JUMPDEST SWAP3 SWAP2 POP POP JUMP JUMPDEST PUSH0 DUP1 PUSH0 PUSH1 0x60 DUP5 DUP7 SUB SLT ISZERO PUSH2 0x1F4E JUMPI PUSH2 0x1F4D PUSH2 0x1C31 JUMP JUMPDEST JUMPDEST PUSH0 PUSH2 0x1F5B DUP7 DUP3 DUP8 ADD PUSH2 0x1E48 JUMP JUMPDEST SWAP4 POP POP PUSH1 0x20 PUSH2 0x1F6C DUP7 DUP3 DUP8 ADD PUSH2 0x1E48 JUMP JUMPDEST SWAP3 POP POP PUSH1 0x40 PUSH2 0x1F7D DUP7 DUP3 DUP8 ADD PUSH2 0x1D9B JUMP JUMPDEST SWAP2 POP POP SWAP3 POP SWAP3 POP SWAP3 JUMP JUMPDEST PUSH2 0x1F90 DUP2 PUSH2 0x1D7C JUMP JUMPDEST DUP3 MSTORE POP POP JUMP JUMPDEST PUSH0 PUSH1 0xA0 DUP3 ADD SWAP1 POP PUSH2 0x1FA9 PUSH0 DUP4 ADD DUP9 PUSH2 0x1F87 JUMP JUMPDEST PUSH2 0x1FB6 PUSH1 0x20 DUP4 ADD DUP8 PUSH2 0x1F87 JUMP JUMPDEST PUSH2 0x1FC3 PUSH1 0x40 DUP4 ADD DUP7 PUSH2 0x1F87 JUMP JUMPDEST PUSH2 0x1FD0 PUSH1 0x60 DUP4 ADD DUP6 PUSH2 0x1F87 JUMP JUMPDEST PUSH2 0x1FDD PUSH1 0x80 DUP4 ADD DUP5 PUSH2 0x1CC4 JUMP JUMPDEST SWAP7 SWAP6 POP POP POP POP POP POP JUMP JUMPDEST PUSH0 DUP1 PUSH0 DUP1 PUSH0 PUSH1 0xA0 DUP7 DUP9 SUB SLT ISZERO PUSH2 0x2000 JUMPI PUSH2 0x1FFF PUSH2 0x1C31 JUMP JUMPDEST JUMPDEST PUSH0 PUSH2 0x200D DUP9 DUP3 DUP10 ADD PUSH2 0x1D9B JUMP JUMPDEST SWAP6 POP POP PUSH1 0x20 PUSH2 0x201E DUP9 DUP3 DUP10 ADD PUSH2 0x1D9B JUMP JUMPDEST SWAP5 POP POP PUSH1 0x40 PUSH2 0x202F DUP9 DUP3 DUP10 ADD PUSH2 0x1D9B JUMP JUMPDEST SWAP4 POP POP PUSH1 0x60 PUSH2 0x2040 DUP9 DUP3 DUP10 ADD PUSH2 0x1D9B JUMP JUMPDEST SWAP3 POP POP PUSH1 0x80 PUSH2 0x2051 DUP9 DUP3 DUP10 ADD PUSH2 0x1D9B JUMP JUMPDEST SWAP2 POP POP SWAP3 SWAP6 POP SWAP3 SWAP6 SWAP1 SWAP4 POP JUMP JUMPDEST PUSH0 PUSH1 0x20 DUP3 DUP5 SUB SLT ISZERO PUSH2 0x2073 JUMPI PUSH2 0x2072 PUSH2 0x1C31 JUMP JUMPDEST JUMPDEST PUSH0 PUSH2 0x2080 DUP5 DUP3 DUP6 ADD PUSH2 0x1E48 JUMP JUMPDEST SWAP2 POP POP SWAP3 SWAP2 POP POP JUMP JUMPDEST PUSH0 PUSH1 0x20 DUP3 ADD SWAP1 POP PUSH2 0x209C PUSH0 DUP4 ADD DUP5 PUSH2 0x1F87 JUMP JUMPDEST SWAP3 SWAP2 POP POP JUMP JUMPDEST PUSH0 DUP1 PUSH0 DUP1 PUSH0 DUP1 PUSH1 0xC0 DUP8 DUP10 SUB SLT ISZERO PUSH2 0x20BC JUMPI PUSH2 0x20BB PUSH2 0x1C31 JUMP JUMPDEST JUMPDEST PUSH0 PUSH2 0x20C9 DUP10 DUP3 DUP11 ADD PUSH2 0x1E48 JUMP JUMPDEST SWAP7 POP POP PUSH1 0x20 PUSH2 0x20DA DUP10 DUP3 DUP11 ADD PUSH2 0x1D9B JUMP JUMPDEST SWAP6 POP POP PUSH1 0x40 PUSH2 0x20EB DUP10 DUP3 DUP11 ADD PUSH2 0x1D9B JUMP JUMPDEST SWAP5 POP POP PUSH1 0x60 PUSH2 0x20FC DUP10 DUP3 DUP11 ADD PUSH2 0x1D9B JUMP JUMPDEST SWAP4 POP POP PUSH1 0x80 PUSH2 0x210D DUP10 DUP3 DUP11 ADD PUSH2 0x1D9B JUMP JUMPDEST SWAP3 POP POP PUSH1 0xA0 PUSH2 0x211E DUP10 DUP3 DUP11 ADD PUSH2 0x1D9B JUMP JUMPDEST SWAP2 POP POP SWAP3 SWAP6 POP SWAP3 SWAP6 POP SWAP3 SWAP6 JUMP JUMPDEST PUSH2 0x2134 DUP2 PUSH2 0x1CB9 JUMP JUMPDEST DUP2 EQ PUSH2 0x213E JUMPI PUSH0 DUP1 REVERT JUMPDEST POP JUMP JUMPDEST PUSH0 DUP2 CALLDATALOAD SWAP1 POP PUSH2 0x214F DUP2 PUSH2 0x212B JUMP JUMPDEST SWAP3 SWAP2 POP POP JUMP JUMPDEST PUSH0 DUP1 PUSH1 0x40 DUP4 DUP6 SUB SLT ISZERO PUSH2 0x216B JUMPI PUSH2 0x216A PUSH2 0x1C31 JUMP JUMPDEST JUMPDEST PUSH0 PUSH2 0x2178 DUP6 DUP3 DUP7 ADD PUSH2 0x1E48 JUMP JUMPDEST SWAP3 POP POP PUSH1 0x20 PUSH2 0x2189 DUP6 DUP3 DUP7 ADD PUSH2 0x2141 JUMP JUMPDEST SWAP2 POP POP SWAP3 POP SWAP3 SWAP1 POP JUMP JUMPDEST PUSH0 DUP1 REVERT JUMPDEST PUSH0 DUP1 REVERT JUMPDEST PUSH32 0x4E487B7100000000000000000000000000000000000000000000000000000000 PUSH0 MSTORE PUSH1 0x41 PUSH1 0x4 MSTORE PUSH1 0x24 PUSH0 REVERT JUMPDEST PUSH2 0x21D1 DUP3 PUSH2 0x1D14 JUMP JUMPDEST DUP2 ADD DUP2 DUP2 LT PUSH8 0xFFFFFFFFFFFFFFFF DUP3 GT OR ISZERO PUSH2 0x21F0 JUMPI PUSH2 0x21EF PUSH2 0x219B JUMP JUMPDEST JUMPDEST DUP1 PUSH1 0x40 MSTORE POP POP POP JUMP JUMPDEST PUSH0 PUSH2 0x2202 PUSH2 0x1C28 JUMP JUMPDEST SWAP1 POP PUSH2 0x220E DUP3 DUP3 PUSH2 0x21C8 JUMP JUMPDEST SWAP2 SWAP1 POP JUMP JUMPDEST PUSH0 PUSH8 0xFFFFFFFFFFFFFFFF DUP3 GT ISZERO PUSH2 0x222D JUMPI PUSH2 0x222C PUSH2 0x219B JUMP JUMPDEST JUMPDEST PUSH2 0x2236 DUP3 PUSH2 0x1D14 JUMP JUMPDEST SWAP1 POP PUSH1 0x20 DUP2 ADD SWAP1 POP SWAP2 SWAP1 POP JUMP JUMPDEST DUP3 DUP2 DUP4 CALLDATACOPY PUSH0 DUP4 DUP4 ADD MSTORE POP POP POP JUMP JUMPDEST PUSH0 PUSH2 0x2263 PUSH2 0x225E DUP5 PUSH2 0x2213 JUMP JUMPDEST PUSH2 0x21F9 JUMP JUMPDEST SWAP1 POP DUP3 DUP2 MSTORE PUSH1 0x20 DUP2 ADD DUP5 DUP5 DUP5 ADD GT ISZERO PUSH2 0x227F JUMPI PUSH2 0x227E PUSH2 0x2197 JUMP JUMPDEST JUMPDEST PUSH2 0x228A DUP5 DUP3 DUP6 PUSH2 0x2243 JUMP JUMPDEST POP SWAP4 SWAP3 POP POP POP JUMP JUMPDEST PUSH0 DUP3 PUSH1 0x1F DUP4 ADD SLT PUSH2 0x22A6 JUMPI PUSH2 0x22A5 PUSH2 0x2193 JUMP JUMPDEST JUMPDEST DUP2 CALLDATALOAD PUSH2 0x22B6 DUP5 DUP3 PUSH1 0x20 DUP7 ADD PUSH2 0x2251 JUMP JUMPDEST SWAP2 POP POP SWAP3 SWAP2 POP POP JUMP JUMPDEST PUSH0 DUP1 PUSH0 DUP1 PUSH1 0x80 DUP6 DUP8 SUB SLT ISZERO PUSH2 0x22D7 JUMPI PUSH2 0x22D6 PUSH2 0x1C31 JUMP JUMPDEST JUMPDEST PUSH0 PUSH2 0x22E4 DUP8 DUP3 DUP9 ADD PUSH2 0x1E48 JUMP JUMPDEST SWAP5 POP POP PUSH1 0x20 PUSH2 0x22F5 DUP8 DUP3 DUP9 ADD PUSH2 0x1E48 JUMP JUMPDEST SWAP4 POP POP PUSH1 0x40 PUSH2 0x2306 DUP8 DUP3 DUP9 ADD PUSH2 0x1D9B JUMP JUMPDEST SWAP3 POP POP PUSH1 0x60 DUP6 ADD CALLDATALOAD PUSH8 0xFFFFFFFFFFFFFFFF DUP2 GT ISZERO PUSH2 0x2327 JUMPI PUSH2 0x2326 PUSH2 0x1C35 JUMP JUMPDEST JUMPDEST PUSH2 0x2333 DUP8 DUP3 DUP9 ADD PUSH2 0x2292 JUMP JUMPDEST SWAP2 POP POP SWAP3 SWAP6 SWAP2 SWAP5 POP SWAP3 POP JUMP JUMPDEST PUSH0 DUP1 PUSH1 0x40 DUP4 DUP6 SUB SLT ISZERO PUSH2 0x2355 JUMPI PUSH2 0x2354 PUSH2 0x1C31 JUMP JUMPDEST JUMPDEST PUSH0 PUSH2 0x2362 DUP6 DUP3 DUP7 ADD PUSH2 0x1E48 JUMP JUMPDEST SWAP3 POP POP PUSH1 0x20 PUSH2 0x2373 DUP6 DUP3 DUP7 ADD PUSH2 0x1E48 JUMP JUMPDEST SWAP2 POP POP SWAP3 POP SWAP3 SWAP1 POP JUMP JUMPDEST PUSH32 0x4E487B7100000000000000000000000000000000000000000000000000000000 PUSH0 MSTORE PUSH1 0x22 PUSH1 0x4 MSTORE PUSH1 0x24 PUSH0 REVERT JUMPDEST PUSH0 PUSH1 0x2 DUP3 DIV SWAP1 POP PUSH1 0x1 DUP3 AND DUP1 PUSH2 0x23C1 JUMPI PUSH1 0x7F DUP3 AND SWAP2 POP JUMPDEST PUSH1 0x20 DUP3 LT DUP2 SUB PUSH2 0x23D4 JUMPI PUSH2 0x23D3 PUSH2 0x237D JUMP JUMPDEST JUMPDEST POP SWAP2 SWAP1 POP JUMP JUMPDEST PUSH0 PUSH1 0x60 DUP3 ADD SWAP1 POP PUSH2 0x23ED PUSH0 DUP4 ADD DUP7 PUSH2 0x1E0A JUMP JUMPDEST PUSH2 0x23FA PUSH1 0x20 DUP4 ADD DUP6 PUSH2 0x1F87 JUMP JUMPDEST PUSH2 0x2407 PUSH1 0x40 DUP4 ADD DUP5 PUSH2 0x1E0A JUMP JUMPDEST SWAP5 SWAP4 POP POP POP POP JUMP JUMPDEST PUSH32 0x53616665543A20746F6B656E206964206D7573742062652070726F7669646564 PUSH0 DUP3 ADD MSTORE POP JUMP JUMPDEST PUSH0 PUSH2 0x2443 PUSH1 0x20 DUP4 PUSH2 0x1CF6 JUMP JUMPDEST SWAP2 POP PUSH2 0x244E DUP3 PUSH2 0x240F JUMP JUMPDEST PUSH1 0x20 DUP3 ADD SWAP1 POP SWAP2 SWAP1 POP JUMP JUMPDEST PUSH0 PUSH1 0x20 DUP3 ADD SWAP1 POP DUP2 DUP2 SUB PUSH0 DUP4 ADD MSTORE PUSH2 0x2470 DUP2 PUSH2 0x2437 JUMP JUMPDEST SWAP1 POP SWAP2 SWAP1 POP JUMP JUMPDEST PUSH32 0x53616665543A2072656E7420616D6F756E74206D757374206265206772656174 PUSH0 DUP3 ADD MSTORE PUSH32 0x6572207468616E20300000000000000000000000000000000000000000000000 PUSH1 0x20 DUP3 ADD MSTORE POP JUMP JUMPDEST PUSH0 PUSH2 0x24D1 PUSH1 0x29 DUP4 PUSH2 0x1CF6 JUMP JUMPDEST SWAP2 POP PUSH2 0x24DC DUP3 PUSH2 0x2477 JUMP JUMPDEST PUSH1 0x40 DUP3 ADD SWAP1 POP SWAP2 SWAP1 POP JUMP JUMPDEST PUSH0 PUSH1 0x20 DUP3 ADD SWAP1 POP DUP2 DUP2 SUB PUSH0 DUP4 ADD MSTORE PUSH2 0x24FE DUP2 PUSH2 0x24C5 JUMP JUMPDEST SWAP1 POP SWAP2 SWAP1 POP JUMP JUMPDEST PUSH32 0x53616665543A207365637572697479206465706F736974206D75737420626520 PUSH0 DUP3 ADD MSTORE PUSH32 0x67726561746572207468616E2030000000000000000000000000000000000000 PUSH1 0x20 DUP3 ADD MSTORE POP JUMP JUMPDEST PUSH0 PUSH2 0x255F PUSH1 0x2E DUP4 PUSH2 0x1CF6 JUMP JUMPDEST SWAP2 POP PUSH2 0x256A DUP3 PUSH2 0x2505 JUMP JUMPDEST PUSH1 0x40 DUP3 ADD SWAP1 POP SWAP2 SWAP1 POP JUMP JUMPDEST PUSH0 PUSH1 0x20 DUP3 ADD SWAP1 POP DUP2 DUP2 SUB PUSH0 DUP4 ADD MSTORE PUSH2 0x258C DUP2 PUSH2 0x2553 JUMP JUMPDEST SWAP1 POP SWAP2 SWAP1 POP JUMP JUMPDEST PUSH32 0x53616665543A206C65617365207374617274206D757374206265206772656174 PUSH0 DUP3 ADD MSTORE PUSH32 0x6572207468616E206F7220657175616C20746F2063757272656E742074696D65 PUSH1 0x20 DUP3 ADD MSTORE PUSH32 0x7374616D70000000000000000000000000000000000000000000000000000000 PUSH1 0x40 DUP3 ADD MSTORE POP JUMP JUMPDEST PUSH0 PUSH2 0x2613 PUSH1 0x45 DUP4 PUSH2 0x1CF6 JUMP JUMPDEST SWAP2 POP PUSH2 0x261E DUP3 PUSH2 0x2593 JUMP JUMPDEST PUSH1 0x60 DUP3 ADD SWAP1 POP SWAP2 SWAP1 POP JUMP JUMPDEST PUSH0 PUSH1 0x20 DUP3 ADD SWAP1 POP DUP2 DUP2 SUB PUSH0 DUP4 ADD MSTORE PUSH2 0x2640 DUP2 PUSH2 0x2607 JUMP JUMPDEST SWAP1 POP SWAP2 SWAP1 POP JUMP JUMPDEST PUSH32 0x53616665543A206C6561736520656E64206D7573742062652067726561746572 PUSH0 DUP3 ADD MSTORE PUSH32 0x207468616E206F7220657175616C20746F206C65617365207374617274000000 PUSH1 0x20 DUP3 ADD MSTORE POP JUMP JUMPDEST PUSH0 PUSH2 0x26A1 PUSH1 0x3D DUP4 PUSH2 0x1CF6 JUMP JUMPDEST SWAP2 POP PUSH2 0x26AC DUP3 PUSH2 0x2647 JUMP JUMPDEST PUSH1 0x40 DUP3 ADD SWAP1 POP SWAP2 SWAP1 POP JUMP JUMPDEST PUSH0 PUSH1 0x20 DUP3 ADD SWAP1 POP DUP2 DUP2 SUB PUSH0 DUP4 ADD MSTORE PUSH2 0x26CE DUP2 PUSH2 0x2695 JUMP JUMPDEST SWAP1 POP SWAP2 SWAP1 POP JUMP JUMPDEST PUSH0 DUP2 SWAP1 POP SWAP3 SWAP2 POP POP JUMP JUMPDEST PUSH0 PUSH2 0x26E9 DUP3 PUSH2 0x1CEC JUMP JUMPDEST PUSH2 0x26F3 DUP2 DUP6 PUSH2 0x26D5 JUMP JUMPDEST SWAP4 POP PUSH2 0x2703 DUP2 DUP6 PUSH1 0x20 DUP7 ADD PUSH2 0x1D06 JUMP JUMPDEST DUP1 DUP5 ADD SWAP2 POP POP SWAP3 SWAP2 POP POP JUMP JUMPDEST PUSH0 PUSH2 0x271A DUP3 DUP6 PUSH2 0x26DF JUMP JUMPDEST SWAP2 POP PUSH2 0x2726 DUP3 DUP5 PUSH2 0x26DF JUMP JUMPDEST SWAP2 POP DUP2 SWAP1 POP SWAP4 SWAP3 POP POP POP JUMP JUMPDEST PUSH0 DUP2 MLOAD SWAP1 POP SWAP2 SWAP1 POP JUMP JUMPDEST PUSH0 DUP3 DUP3 MSTORE PUSH1 0x20 DUP3 ADD SWAP1 POP SWAP3 SWAP2 POP POP JUMP JUMPDEST PUSH0 PUSH2 0x2756 DUP3 PUSH2 0x2732 JUMP JUMPDEST PUSH2 0x2760 DUP2 DUP6 PUSH2 0x273C JUMP JUMPDEST SWAP4 POP PUSH2 0x2770 DUP2 DUP6 PUSH1 0x20 DUP7 ADD PUSH2 0x1D06 JUMP JUMPDEST PUSH2 0x2779 DUP2 PUSH2 0x1D14 JUMP JUMPDEST DUP5 ADD SWAP2 POP POP SWAP3 SWAP2 POP POP JUMP JUMPDEST PUSH0 PUSH1 0x80 DUP3 ADD SWAP1 POP PUSH2 0x2797 PUSH0 DUP4 ADD DUP8 PUSH2 0x1E0A JUMP JUMPDEST PUSH2 0x27A4 PUSH1 0x20 DUP4 ADD DUP7 PUSH2 0x1E0A JUMP JUMPDEST PUSH2 0x27B1 PUSH1 0x40 DUP4 ADD DUP6 PUSH2 0x1F87 JUMP JUMPDEST DUP2 DUP2 SUB PUSH1 0x60 DUP4 ADD MSTORE PUSH2 0x27C3 DUP2 DUP5 PUSH2 0x274C JUMP JUMPDEST SWAP1 POP SWAP6 SWAP5 POP POP POP POP POP JUMP JUMPDEST PUSH0 DUP2 MLOAD SWAP1 POP PUSH2 0x27DC DUP2 PUSH2 0x1C64 JUMP JUMPDEST SWAP3 SWAP2 POP POP JUMP JUMPDEST PUSH0 PUSH1 0x20 DUP3 DUP5 SUB SLT ISZERO PUSH2 0x27F7 JUMPI PUSH2 0x27F6 PUSH2 0x1C31 JUMP JUMPDEST JUMPDEST PUSH0 PUSH2 0x2804 DUP5 DUP3 DUP6 ADD PUSH2 0x27CE JUMP JUMPDEST SWAP2 POP POP SWAP3 SWAP2 POP POP JUMP JUMPDEST PUSH32 0x4E487B7100000000000000000000000000000000000000000000000000000000 PUSH0 MSTORE PUSH1 0x12 PUSH1 0x4 MSTORE PUSH1 0x24 PUSH0 REVERT JUMPDEST PUSH0 PUSH1 0x40 DUP3 ADD SWAP1 POP PUSH2 0x284D PUSH0 DUP4 ADD DUP6 PUSH2 0x1E0A JUMP JUMPDEST PUSH2 0x285A PUSH1 0x20 DUP4 ADD DUP5 PUSH2 0x1F87 JUMP JUMPDEST SWAP4 SWAP3 POP POP POP JUMP INVALID LOG2 PUSH5 0x6970667358 0x22 SLT KECCAK256 PUSH28 0xB4FBF6217AFE628F4562C5727DE23505D76BE476E7BAC1C7BED5889D 0xE6 0x24 0xC7 PUSH5 0x736F6C6343 STOP ADDMOD BYTE STOP CALLER "
				},
				"gasEstimates": {
					"creation": {
						"codeDepositCost": "2078200",
						"executionCost": "infinite",
						"totalCost": "infinite"
					},
					"external": {
						"approve(address,uint256)": "infinite",
						"balanceOf(address)": "infinite",
						"endLease(uint256)": "infinite",
						"getApproved(uint256)": "infinite",
						"getRentalDetails(uint256)": "infinite",
						"isApprovedForAll(address,address)": "infinite",
						"name()": "infinite",
						"owner()": "2582",
						"ownerOf(uint256)": "infinite",
						"renounceOwnership()": "infinite",
						"rentalDetails(uint256)": "infinite",
						"safeMint(address,uint256,uint256,uint256,uint256,uint256)": "infinite",
						"safeTransferFrom(address,address,uint256)": "infinite",
						"safeTransferFrom(address,address,uint256,bytes)": "infinite",
						"setApprovalForAll(address,bool)": "infinite",
						"setRentalDetails(uint256,uint256,uint256,uint256,uint256)": "infinite",
						"supportsInterface(bytes4)": "787",
						"symbol()": "infinite",
						"tokenURI(uint256)": "infinite",
						"transferFrom(address,address,uint256)": "infinite",
						"transferOwnership(address)": "infinite"
					}
				},
				"methodIdentifiers": {
					"approve(address,uint256)": "095ea7b3",
					"balanceOf(address)": "70a08231",
					"endLease(uint256)": "91ef935c",
					"getApproved(uint256)": "081812fc",
					"getRentalDetails(uint256)": "17088b34",
					"isApprovedForAll(address,address)": "e985e9c5",
					"name()": "06fdde03",
					"owner()": "8da5cb5b",
					"ownerOf(uint256)": "6352211e",
					"renounceOwnership()": "715018a6",
					"rentalDetails(uint256)": "3f28e1d2",
					"safeMint(address,uint256,uint256,uint256,uint256,uint256)": "9964f316",
					"safeTransferFrom(address,address,uint256)": "42842e0e",
					"safeTransferFrom(address,address,uint256,bytes)": "b88d4fde",
					"setApprovalForAll(address,bool)": "a22cb465",
					"setRentalDetails(uint256,uint256,uint256,uint256,uint256)": "3f7b2c80",
					"supportsInterface(bytes4)": "01ffc9a7",
					"symbol()": "95d89b41",
					"tokenURI(uint256)": "c87b56dd",
					"transferFrom(address,address,uint256)": "23b872dd",
					"transferOwnership(address)": "f2fde38b"
				}
			},
			"storageLayout": {
				"storage": [
					{
						"astId": 317,
						"contract": "contracts/SafeT.sol:SafeT",
						"label": "_name",
						"offset": 0,
						"slot": "0",
						"type": "t_string_storage"
					},
					{
						"astId": 319,
						"contract": "contracts/SafeT.sol:SafeT",
						"label": "_symbol",
						"offset": 0,
						"slot": "1",
						"type": "t_string_storage"
					},
					{
						"astId": 323,
						"contract": "contracts/SafeT.sol:SafeT",
						"label": "_owners",
						"offset": 0,
						"slot": "2",
						"type": "t_mapping(t_uint256,t_address)"
					},
					{
						"astId": 327,
						"contract": "contracts/SafeT.sol:SafeT",
						"label": "_balances",
						"offset": 0,
						"slot": "3",
						"type": "t_mapping(t_address,t_uint256)"
					},
					{
						"astId": 331,
						"contract": "contracts/SafeT.sol:SafeT",
						"label": "_tokenApprovals",
						"offset": 0,
						"slot": "4",
						"type": "t_mapping(t_uint256,t_address)"
					},
					{
						"astId": 337,
						"contract": "contracts/SafeT.sol:SafeT",
						"label": "_operatorApprovals",
						"offset": 0,
						"slot": "5",
						"type": "t_mapping(t_address,t_mapping(t_address,t_bool))"
					},
					{
						"astId": 8,
						"contract": "contracts/SafeT.sol:SafeT",
						"label": "_owner",
						"offset": 0,
						"slot": "6",
						"type": "t_address"
					},
					{
						"astId": 2960,
						"contract": "contracts/SafeT.sol:SafeT",
						"label": "rentalDetails",
						"offset": 0,
						"slot": "7",
						"type": "t_mapping(t_uint256,t_struct(RentalDetails)2955_storage)"
					}
				],
				"types": {
					"t_address": {
						"encoding": "inplace",
						"label": "address",
						"numberOfBytes": "20"
					},
					"t_bool": {
						"encoding": "inplace",
						"label": "bool",
						"numberOfBytes": "1"
					},
					"t_mapping(t_address,t_bool)": {
						"encoding": "mapping",
						"key": "t_address",
						"label": "mapping(address => bool)",
						"numberOfBytes": "32",
						"value": "t_bool"
					},
					"t_mapping(t_address,t_mapping(t_address,t_bool))": {
						"encoding": "mapping",
						"key": "t_address",
						"label": "mapping(address => mapping(address => bool))",
						"numberOfBytes": "32",
						"value": "t_mapping(t_address,t_bool)"
					},
					"t_mapping(t_address,t_uint256)": {
						"encoding": "mapping",
						"key": "t_address",
						"label": "mapping(address => uint256)",
						"numberOfBytes": "32",
						"value": "t_uint256"
					},
					"t_mapping(t_uint256,t_address)": {
						"encoding": "mapping",
						"key": "t_uint256",
						"label": "mapping(uint256 => address)",
						"numberOfBytes": "32",
						"value": "t_address"
					},
					"t_mapping(t_uint256,t_struct(RentalDetails)2955_storage)": {
						"encoding": "mapping",
						"key": "t_uint256",
						"label": "mapping(uint256 => struct SafeT.RentalDetails)",
						"numberOfBytes": "32",
						"value": "t_struct(RentalDetails)2955_storage"
					},
					"t_string_storage": {
						"encoding": "bytes",
						"label": "string",
						"numberOfBytes": "32"
					},
					"t_struct(RentalDetails)2955_storage": {
						"encoding": "inplace",
						"label": "struct SafeT.RentalDetails",
						"members": [
							{
								"astId": 2946,
								"contract": "contracts/SafeT.sol:SafeT",
								"label": "rentAmount",
								"offset": 0,
								"slot": "0",
								"type": "t_uint256"
							},
							{
								"astId": 2948,
								"contract": "contracts/SafeT.sol:SafeT",
								"label": "securityDeposit",
								"offset": 0,
								"slot": "1",
								"type": "t_uint256"
							},
							{
								"astId": 2950,
								"contract": "contracts/SafeT.sol:SafeT",
								"label": "leaseStart",
								"offset": 0,
								"slot": "2",
								"type": "t_uint256"
							},
							{
								"astId": 2952,
								"contract": "contracts/SafeT.sol:SafeT",
								"label": "leaseEnd",
								"offset": 0,
								"slot": "3",
								"type": "t_uint256"
							},
							{
								"astId": 2954,
								"contract": "contracts/SafeT.sol:SafeT",
								"label": "isLeased",
								"offset": 0,
								"slot": "4",
								"type": "t_bool"
							}
						],
						"numberOfBytes": "160"
					},
					"t_uint256": {
						"encoding": "inplace",
						"label": "uint256",
						"numberOfBytes": "32"
					}
				}
			},
			"userdoc": {
				"kind": "user",
				"methods": {},
				"version": 1
			}
		}
	}
}